{
  "_format": "hh-sol-artifact-1",
  "contractName": "SwarmFunctions",
  "sourceName": "contracts/chainlink/SwarmFunctions.sol",
  "abi": [
    {
      "inputs": [
        {
          "internalType": "address",
          "name": "router",
          "type": "address"
        },
        {
          "internalType": "bytes32",
          "name": "_donId",
          "type": "bytes32"
        },
        {
          "internalType": "uint64",
          "name": "_subscriptionId",
          "type": "uint64"
        }
      ],
      "stateMutability": "nonpayable",
      "type": "constructor"
    },
    {
      "inputs": [],
      "name": "EmptyArgs",
      "type": "error"
    },
    {
      "inputs": [],
      "name": "EmptySecrets",
      "type": "error"
    },
    {
      "inputs": [],
      "name": "EmptySource",
      "type": "error"
    },
    {
      "inputs": [],
      "name": "InvalidDataType",
      "type": "error"
    },
    {
      "inputs": [],
      "name": "NoInlineSecrets",
      "type": "error"
    },
    {
      "inputs": [],
      "name": "OnlyRouterCanFulfill",
      "type": "error"
    },
    {
      "inputs": [],
      "name": "ReentrancyGuardReentrantCall",
      "type": "error"
    },
    {
      "inputs": [],
      "name": "RequestNotFound",
      "type": "error"
    },
    {
      "inputs": [],
      "name": "UnauthorizedCaller",
      "type": "error"
    },
    {
      "anonymous": false,
      "inputs": [
        {
          "indexed": true,
          "internalType": "bytes32",
          "name": "requestId",
          "type": "bytes32"
        },
        {
          "indexed": false,
          "internalType": "string",
          "name": "dataType",
          "type": "string"
        },
        {
          "indexed": false,
          "internalType": "bytes",
          "name": "response",
          "type": "bytes"
        }
      ],
      "name": "DataFulfilled",
      "type": "event"
    },
    {
      "anonymous": false,
      "inputs": [
        {
          "indexed": true,
          "internalType": "bytes32",
          "name": "requestId",
          "type": "bytes32"
        },
        {
          "indexed": false,
          "internalType": "string",
          "name": "dataType",
          "type": "string"
        },
        {
          "indexed": false,
          "internalType": "string[]",
          "name": "parameters",
          "type": "string[]"
        },
        {
          "indexed": false,
          "internalType": "address",
          "name": "requester",
          "type": "address"
        }
      ],
      "name": "DataRequested",
      "type": "event"
    },
    {
      "anonymous": false,
      "inputs": [
        {
          "indexed": true,
          "internalType": "string",
          "name": "asset",
          "type": "string"
        },
        {
          "indexed": false,
          "internalType": "uint256",
          "name": "price",
          "type": "uint256"
        },
        {
          "indexed": false,
          "internalType": "uint256",
          "name": "volume24h",
          "type": "uint256"
        },
        {
          "indexed": false,
          "internalType": "int256",
          "name": "priceChange24h",
          "type": "int256"
        }
      ],
      "name": "MarketDataUpdated",
      "type": "event"
    },
    {
      "anonymous": false,
      "inputs": [
        {
          "indexed": true,
          "internalType": "address",
          "name": "from",
          "type": "address"
        },
        {
          "indexed": true,
          "internalType": "address",
          "name": "to",
          "type": "address"
        }
      ],
      "name": "OwnershipTransferRequested",
      "type": "event"
    },
    {
      "anonymous": false,
      "inputs": [
        {
          "indexed": true,
          "internalType": "address",
          "name": "from",
          "type": "address"
        },
        {
          "indexed": true,
          "internalType": "address",
          "name": "to",
          "type": "address"
        }
      ],
      "name": "OwnershipTransferred",
      "type": "event"
    },
    {
      "anonymous": false,
      "inputs": [
        {
          "indexed": true,
          "internalType": "bytes32",
          "name": "id",
          "type": "bytes32"
        }
      ],
      "name": "RequestFulfilled",
      "type": "event"
    },
    {
      "anonymous": false,
      "inputs": [
        {
          "indexed": true,
          "internalType": "bytes32",
          "name": "id",
          "type": "bytes32"
        }
      ],
      "name": "RequestSent",
      "type": "event"
    },
    {
      "anonymous": false,
      "inputs": [
        {
          "indexed": true,
          "internalType": "string",
          "name": "key",
          "type": "string"
        },
        {
          "indexed": false,
          "internalType": "int256",
          "name": "score",
          "type": "int256"
        },
        {
          "indexed": false,
          "internalType": "uint256",
          "name": "volume",
          "type": "uint256"
        },
        {
          "indexed": false,
          "internalType": "string",
          "name": "source",
          "type": "string"
        }
      ],
      "name": "SentimentUpdated",
      "type": "event"
    },
    {
      "inputs": [],
      "name": "acceptOwnership",
      "outputs": [],
      "stateMutability": "nonpayable",
      "type": "function"
    },
    {
      "inputs": [
        {
          "internalType": "address",
          "name": "",
          "type": "address"
        }
      ],
      "name": "authorizedCallers",
      "outputs": [
        {
          "internalType": "bool",
          "name": "",
          "type": "bool"
        }
      ],
      "stateMutability": "view",
      "type": "function"
    },
    {
      "inputs": [
        {
          "internalType": "bytes32",
          "name": "",
          "type": "bytes32"
        }
      ],
      "name": "dataRequests",
      "outputs": [
        {
          "internalType": "uint256",
          "name": "requestId",
          "type": "uint256"
        },
        {
          "internalType": "string",
          "name": "dataType",
          "type": "string"
        },
        {
          "internalType": "uint256",
          "name": "timestamp",
          "type": "uint256"
        },
        {
          "internalType": "address",
          "name": "requester",
          "type": "address"
        },
        {
          "internalType": "bool",
          "name": "fulfilled",
          "type": "bool"
        }
      ],
      "stateMutability": "view",
      "type": "function"
    },
    {
      "inputs": [],
      "name": "donId",
      "outputs": [
        {
          "internalType": "bytes32",
          "name": "",
          "type": "bytes32"
        }
      ],
      "stateMutability": "view",
      "type": "function"
    },
    {
      "inputs": [],
      "name": "gasLimit",
      "outputs": [
        {
          "internalType": "uint32",
          "name": "",
          "type": "uint32"
        }
      ],
      "stateMutability": "view",
      "type": "function"
    },
    {
      "inputs": [
        {
          "internalType": "string",
          "name": "asset",
          "type": "string"
        }
      ],
      "name": "getAggregatedSentiment",
      "outputs": [
        {
          "internalType": "int256",
          "name": "score",
          "type": "int256"
        },
        {
          "internalType": "uint256",
          "name": "totalVolume",
          "type": "uint256"
        }
      ],
      "stateMutability": "view",
      "type": "function"
    },
    {
      "inputs": [
        {
          "internalType": "string",
          "name": "asset",
          "type": "string"
        }
      ],
      "name": "getMarketData",
      "outputs": [
        {
          "components": [
            {
              "internalType": "uint256",
              "name": "price",
              "type": "uint256"
            },
            {
              "internalType": "uint256",
              "name": "volume24h",
              "type": "uint256"
            },
            {
              "internalType": "int256",
              "name": "priceChange24h",
              "type": "int256"
            },
            {
              "internalType": "uint256",
              "name": "timestamp",
              "type": "uint256"
            },
            {
              "internalType": "string",
              "name": "asset",
              "type": "string"
            }
          ],
          "internalType": "struct SwarmFunctions.MarketData",
          "name": "",
          "type": "tuple"
        }
      ],
      "stateMutability": "view",
      "type": "function"
    },
    {
      "inputs": [
        {
          "internalType": "string",
          "name": "source",
          "type": "string"
        },
        {
          "internalType": "string",
          "name": "asset",
          "type": "string"
        }
      ],
      "name": "getSentimentData",
      "outputs": [
        {
          "components": [
            {
              "internalType": "int256",
              "name": "score",
              "type": "int256"
            },
            {
              "internalType": "uint256",
              "name": "volume",
              "type": "uint256"
            },
            {
              "internalType": "uint256",
              "name": "timestamp",
              "type": "uint256"
            },
            {
              "internalType": "string",
              "name": "source",
              "type": "string"
            }
          ],
          "internalType": "struct SwarmFunctions.SentimentData",
          "name": "",
          "type": "tuple"
        }
      ],
      "stateMutability": "view",
      "type": "function"
    },
    {
      "inputs": [
        {
          "internalType": "bytes32",
          "name": "requestId",
          "type": "bytes32"
        },
        {
          "internalType": "bytes",
          "name": "response",
          "type": "bytes"
        },
        {
          "internalType": "bytes",
          "name": "err",
          "type": "bytes"
        }
      ],
      "name": "handleOracleFulfillment",
      "outputs": [],
      "stateMutability": "nonpayable",
      "type": "function"
    },
    {
      "inputs": [
        {
          "internalType": "string",
          "name": "",
          "type": "string"
        }
      ],
      "name": "marketData",
      "outputs": [
        {
          "internalType": "uint256",
          "name": "price",
          "type": "uint256"
        },
        {
          "internalType": "uint256",
          "name": "volume24h",
          "type": "uint256"
        },
        {
          "internalType": "int256",
          "name": "priceChange24h",
          "type": "int256"
        },
        {
          "internalType": "uint256",
          "name": "timestamp",
          "type": "uint256"
        },
        {
          "internalType": "string",
          "name": "asset",
          "type": "string"
        }
      ],
      "stateMutability": "view",
      "type": "function"
    },
    {
      "inputs": [],
      "name": "marketDataSource",
      "outputs": [
        {
          "internalType": "string",
          "name": "",
          "type": "string"
        }
      ],
      "stateMutability": "view",
      "type": "function"
    },
    {
      "inputs": [],
      "name": "newsSentimentSource",
      "outputs": [
        {
          "internalType": "string",
          "name": "",
          "type": "string"
        }
      ],
      "stateMutability": "view",
      "type": "function"
    },
    {
      "inputs": [],
      "name": "owner",
      "outputs": [
        {
          "internalType": "address",
          "name": "",
          "type": "address"
        }
      ],
      "stateMutability": "view",
      "type": "function"
    },
    {
      "inputs": [
        {
          "internalType": "string[]",
          "name": "assets",
          "type": "string[]"
        }
      ],
      "name": "requestMarketData",
      "outputs": [
        {
          "internalType": "bytes32",
          "name": "requestId",
          "type": "bytes32"
        }
      ],
      "stateMutability": "nonpayable",
      "type": "function"
    },
    {
      "inputs": [
        {
          "internalType": "string[]",
          "name": "assets",
          "type": "string[]"
        }
      ],
      "name": "requestNewsSentiment",
      "outputs": [
        {
          "internalType": "bytes32",
          "name": "requestId",
          "type": "bytes32"
        }
      ],
      "stateMutability": "nonpayable",
      "type": "function"
    },
    {
      "inputs": [
        {
          "internalType": "string[]",
          "name": "assets",
          "type": "string[]"
        }
      ],
      "name": "requestTwitterSentiment",
      "outputs": [
        {
          "internalType": "bytes32",
          "name": "requestId",
          "type": "bytes32"
        }
      ],
      "stateMutability": "nonpayable",
      "type": "function"
    },
    {
      "inputs": [
        {
          "internalType": "string",
          "name": "",
          "type": "string"
        }
      ],
      "name": "sentimentData",
      "outputs": [
        {
          "internalType": "int256",
          "name": "score",
          "type": "int256"
        },
        {
          "internalType": "uint256",
          "name": "volume",
          "type": "uint256"
        },
        {
          "internalType": "uint256",
          "name": "timestamp",
          "type": "uint256"
        },
        {
          "internalType": "string",
          "name": "source",
          "type": "string"
        }
      ],
      "stateMutability": "view",
      "type": "function"
    },
    {
      "inputs": [
        {
          "internalType": "address",
          "name": "caller",
          "type": "address"
        },
        {
          "internalType": "bool",
          "name": "authorized",
          "type": "bool"
        }
      ],
      "name": "setAuthorizedCaller",
      "outputs": [],
      "stateMutability": "nonpayable",
      "type": "function"
    },
    {
      "inputs": [],
      "name": "subscriptionId",
      "outputs": [
        {
          "internalType": "uint64",
          "name": "",
          "type": "uint64"
        }
      ],
      "stateMutability": "view",
      "type": "function"
    },
    {
      "inputs": [
        {
          "internalType": "address",
          "name": "to",
          "type": "address"
        }
      ],
      "name": "transferOwnership",
      "outputs": [],
      "stateMutability": "nonpayable",
      "type": "function"
    },
    {
      "inputs": [],
      "name": "twitterSentimentSource",
      "outputs": [
        {
          "internalType": "string",
          "name": "",
          "type": "string"
        }
      ],
      "stateMutability": "view",
      "type": "function"
    },
    {
      "inputs": [
        {
          "internalType": "string",
          "name": "dataType",
          "type": "string"
        },
        {
          "internalType": "string",
          "name": "newSource",
          "type": "string"
        }
      ],
      "name": "updateSourceCode",
      "outputs": [],
      "stateMutability": "nonpayable",
      "type": "function"
    },
    {
      "inputs": [
        {
          "internalType": "uint64",
          "name": "_subscriptionId",
          "type": "uint64"
        },
        {
          "internalType": "uint32",
          "name": "_gasLimit",
          "type": "uint32"
        }
      ],
      "name": "updateSubscription",
      "outputs": [],
      "stateMutability": "nonpayable",
      "type": "function"
    }
  ],
  "bytecode": "0x60a034620018d5576001600160401b03601f62004df938819003828101601f19168501919084831186841017620018da57808692606094604052833981010312620018d55782516001600160a01b0381169290839003620018d557602092604084860151950151918216809203620018d557608052331562001890576a0493e000000000000000006000913360018060a01b0319845416178355600195866002556008549060075560018060601b0319161717600855600990620000c48254620018f0565b83811162001860575b50610cd38255818152838120917f636f6e737420626561726572546f6b656e203d20736563726574732e7477697483557f746572426561726572546f6b656e3b636f6e7374206173736574203d20617267868401557f735b305d3b636f6e7374207175657279203d2060247b61737365747d2028637260028401557f7970746f204f522063727970746f63757272656e637929202d69733a7265747760038401557f656574206c616e673a656e603b636f6e737420726573706f6e7365203d20617760048401557f6169742046756e6374696f6e732e6d616b654874747052657175657374287b2060058401557f2075726c3a202768747470733a2f2f6170692e747769747465722e636f6d2f3260068401557f2f7477656574732f7365617263682f726563656e74272c20206d6574686f643a60078401557f2027474554272c2020686561646572733a207b2027417574686f72697a61746960088401557f6f6e273a206042656172657220247b626561726572546f6b656e7d60207d2c2081840155600a917f20706172616d733a207b20202020277175657279273a2071756572792c20202083850155686d6553636f7265293b60b81b6033600b957f20276d61785f726573756c7473273a203130302c202020202774776565742e66878201557f69656c6473273a20277075626c69635f6d6574726963732c637265617465645f600c8201557f61742c636f6e746578745f616e6e6f746174696f6e732720207d7d293b696620600d8201557f2821726573706f6e73652e64617461207c7c2021726573706f6e73652e646174600e8201557f612e6461746129207b202072657475726e2046756e6374696f6e732e656e636f600f8201557f646555696e74323536283029202b2046756e6374696f6e732e656e636f64655560108201557f696e743235362830293b7d6c65742073656e74696d656e74203d20303b6c657460118201557f20746f74616c456e676167656d656e74203d20303b636f6e737420747765657460128201557f73203d20726573706f6e73652e646174612e646174613b666f722028636f6e7360138201557f74207477656574206f662074776565747329207b2020636f6e7374207465787460148201557f203d2074776565742e746578742e746f4c6f7765724361736528293b2020636f60158201557f6e7374206d657472696373203d2074776565742e7075626c69635f6d6574726960168201557f63733b2020636f6e737420656e676167656d656e74203d206d6574726963732e60178201557f726574776565745f636f756e74202b206d6574726963732e6c696b655f636f7560188201557f6e74202b206d6574726963732e7265706c795f636f756e743b202020202f2f2060198201557f57656967687465642073656e74696d656e74206261736564206f6e20656e6761601a8201557f67656d656e7420206c657420747765657453656e74696d656e74203d20303b20601b8201557f2069662028746578742e6d61746368282f5c62286d6f6f6e7c62756c6c697368601c8201557f7c70756d707c72616c6c797c73757267657c677265656e7c75707c6275797c68601d8201557f6f646c7c6469616d6f6e64295c622f67292920747765657453656e74696d656e601e8201557f74202b3d20323b202069662028746578742e6d61746368282f5c622862656172888201557f7c64756d707c63726173687c7265647c646f776e7c73656c6c7c72656b747c6c898201557f69717569646174295c622f67292920747765657453656e74696d656e74202d3d60218201557f20323b202069662028746578742e6d61746368282f5c6228676f6f647c67726560228201557f61747c616d617a696e677c657863656c6c656e747c706f736974697665295c6260238201557f2f67292920747765657453656e74696d656e74202b3d20313b2020696620287460248201557f6578742e6d61746368282f5c62286261647c7465727269626c657c617766756c60258201557f7c6e656761746976657c776f7272696564295c622f672929207477656574536560268201557f6e74696d656e74202d3d20313b2020202073656e74696d656e74202b3d20747760278201557f65657453656e74696d656e74202a204d6174682e6c6f6728656e676167656d6560288201557f6e74202b2031293b2020746f74616c456e676167656d656e74202b3d20656e6760298201557f6167656d656e743b7d636f6e7374206e6f726d616c697a656453656e74696d65602a8201557f6e74203d207477656574732e6c656e677468203e2030203f204d6174682e726f602b8201557f756e64282873656e74696d656e74202f207477656574732e6c656e6774682920602c8201557f2a203130303029203a20303b636f6e737420766f6c756d6553636f7265203d20602d8201557f4d6174682e6d696e287477656574732e6c656e677468202a2031302c20313030602e8201557f3030293b72657475726e2046756e6374696f6e732e656e636f646555696e7432602f8201557f3536284d6174682e6d6178282d31303030302c204d6174682e6d696e2831303060308201557f30302c206e6f726d616c697a656453656e74696d656e74292929202b2020202060318201557f2020202046756e6374696f6e732e656e636f646555696e7432353628766f6c7560328201550155620008868354620018f0565b85811162001830575b5061108183558281527f696f6e732e656e636f646555696e7432353628766f6c756d6553636f7265293b60418783207f636f6e7374206170694b6579203d20736563726574732e6e6577734170694b6581557f793b636f6e7374206173736574203d20617267735b305d3b636f6e73742071758a8201557f657279203d2060247b61737365747d20414e44202863727970746f637572726560028201557f6e6379204f522063727970746f204f5220626c6f636b636861696e29603b636f60038201557f6e737420726573706f6e7365203d2061776169742046756e6374696f6e732e6d60048201557f616b654874747052657175657374287b202075726c3a202768747470733a2f2f60058201557f6e6577736170692e6f72672f76322f65766572797468696e67272c20206d657460068201557f686f643a2027474554272c2020706172616d733a207b202020202771273a207160078201557f756572792c20202020276c616e6775616765273a2027656e272c20202020277360088201557f6f72744279273a20277075626c69736865644174272c20202020277061676553858201557f697a65273a2035302c20202020276170694b6579273a206170694b657920207d868201557f7d293b6966202821726573706f6e73652e64617461207c7c2021726573706f6e878201557f73652e646174612e61727469636c657329207b202072657475726e2046756e63600c8201557f74696f6e732e656e636f646555696e74323536283029202b2046756e6374696f600d8201557f6e732e656e636f646555696e743235362830293b7d6c65742073656e74696d65600e8201557f6e74203d20303b6c657420746f74616c53636f7265203d20303b636f6e737420600f8201557f61727469636c6573203d20726573706f6e73652e646174612e61727469636c6560108201557f733b666f722028636f6e73742061727469636c65206f662061727469636c657360118201557f29207b2020636f6e7374207469746c65203d202861727469636c652e7469746c60128201557f65207c7c202727292e746f4c6f7765724361736528293b2020636f6e7374206460138201557f65736372697074696f6e203d202861727469636c652e6465736372697074696f60148201557f6e207c7c202727292e746f4c6f7765724361736528293b2020636f6e7374206360158201557f6f6e74656e74203d207469746c65202b20272027202b2064657363726970746960168201557f6f6e3b202020206c65742061727469636c6553656e74696d656e74203d20303b60178201557f20202f2f20506f73697469766520696e64696361746f7273202069662028636f60188201557f6e74656e742e6d61746368282f5c622873757267657c72616c6c797c6761696e60198201557f733f7c726973657c62756c6c7c706f7369746976657c67726f7774687c61646f601a8201557f7074696f6e7c627265616b7468726f756768295c622f6729292061727469636c601b8201557f6553656e74696d656e74202b3d20333b202069662028636f6e74656e742e6d61601c8201557f746368282f5c6228696e6372656173657c75707c686967687c7374726f6e677c601d8201557f6f7074696d69737469637c62756c6c697368295c622f6729292061727469636c601e8201557f6553656e74696d656e74202b3d20323b202069662028636f6e74656e742e6d61888201557f746368282f5c6228676f6f647c6265747465727c696d70726f7665647c70726f898201557f6d6973696e677c706f74656e7469616c295c622f6729292061727469636c655360218201557f656e74696d656e74202b3d20313b202020202f2f204e6567617469766520696e60228201557f64696361746f7273202069662028636f6e74656e742e6d61746368282f5c622860238201557f63726173687c706c756e67657c64756d707c626561727c636f6c6c617073657c60248201557f66726175647c6861636b7c62616e6e65643f295c622f6729292061727469636c60258201557f6553656e74696d656e74202d3d20333b202069662028636f6e74656e742e6d6160268201557f746368282f5c622866616c6c7c64726f707c6465636c696e657c646f776e7c7760278201557f65616b7c636f6e6365726e7c7269736b295c622f6729292061727469636c655360288201557f656e74696d656e74202d3d20323b202069662028636f6e74656e742e6d61746360298201557f68282f5c62286261647c776f7273657c6e656761746976657c7761726e696e67602a8201557f7c766f6c6174696c65295c622f6729292061727469636c6553656e74696d656e602b8201557f74202d3d20313b202020202f2f2057656967687420627920736f757263652063602c8201557f7265646962696c6974792028726f75676820686575726973746963292020636f602d8201557f6e737420736f75726365203d202861727469636c652e736f757263652e6e616d602e8201557f65207c7c202727292e746f4c6f7765724361736528293b20206c657420776569602f8201557f676874203d20313b202069662028736f757263652e696e636c7564657328277260308201557f6575746572732729207c7c20736f757263652e696e636c756465732827626c6f60318201557f6f6d626572672729207c7c20736f757263652e696e636c75646573282777736a60328201557f27292920776569676874203d20323b202069662028736f757263652e696e636c60338201557f756465732827636f696e6465736b2729207c7c20736f757263652e696e636c7560348201557f6465732827636f696e74656c65677261706827292920776569676874203d203160358201557f2e353b2020202073656e74696d656e74202b3d2061727469636c6553656e746960368201557f6d656e74202a207765696768743b2020746f74616c53636f7265202b3d204d6160378201557f74682e6162732861727469636c6553656e74696d656e7429202a20776569676860388201557f743b7d636f6e7374206e6f726d616c697a656453656e74696d656e74203d207460398201557f6f74616c53636f7265203e2030203f204d6174682e726f756e64282873656e74603a8201557f696d656e74202f20746f74616c53636f726529202a20313030303029203a2030603b8201557f3b636f6e737420766f6c756d6553636f7265203d204d6174682e6d696e286172603c8201557f7469636c65732e6c656e677468202a2032302c203130303030293b7265747572603d8201557f6e2046756e6374696f6e732e656e636f646555696e74323536284d6174682e6d603e8201557f6178282d31303030302c204d6174682e6d696e2831303030302c206e6f726d61603f8201557f6c697a656453656e74696d656e74292929202b202020202020202046756e637460408201550155620012698454620018f0565b85811162001803575b50937f692e636f696e6765636b6f2e636f6d2f6170692f76332f73696d706c652f7072847f654874747052657175657374287b202075726c3a206068747470733a2f2f617088957f6365526573706f6e7365203d2061776169742046756e6374696f6e732e6d616b7f642870726963654368616e6765323468202a20313030293b202f2f2062617369967f3b696620286173736574203d3d3d2027425443272920636f696e4964203d202760249c6c63654368616e6765427073293b60981b9e9c61091b7f7320706f696e747372657475726e2046756e6374696f6e732e656e636f6465559d55878152209b7f636f6e7374206173736574203d20617267735b305d3b6c657420636f696e49648d558c01557f626974636f696e273b656c736520696620286173736574203d3d3d202745544860028c01557f272920636f696e4964203d2027657468657265756d273b656c7365206966202860038c01557f6173736574203d3d3d20274c494e4b272920636f696e4964203d20276368616960048c01557f6e6c696e6b273b656c736520696620286173736574203d3d3d2027554e49272960058c01557f20636f696e4964203d2027756e6973776170273b656c736520636f696e49642060068c01557f3d2061737365742e746f4c6f7765724361736528293b2f2f204765742063757260078c01557f72656e7420707269636520616e64203234682064617461636f6e73742070726960088c01558a01558801558601557f696365602c20206d6574686f643a2027474554272c2020706172616d733a207b600c8601557f2020202027696473273a20636f696e49642c202020202776735f63757272656e600d8601557f63696573273a2027757364272c2020202027696e636c7564655f323468725f76600e8601557f6f6c273a202774727565272c2020202027696e636c7564655f323468725f6368600f8601557f616e6765273a202774727565272c2020202027696e636c7564655f6d61726b6560108601557f745f636170273a2027747275652720207d7d293b69662028217072696365526560118601557f73706f6e73652e64617461207c7c20217072696365526573706f6e73652e646160128601557f74615b636f696e49645d29207b20207468726f77206e6577204572726f72282760138601557f50726963652064617461206e6f7420666f756e6420666f722027202b2061737360148601557f6574293b7d636f6e73742064617461203d207072696365526573706f6e73652e60158601557f646174615b636f696e49645d3b636f6e73742063757272656e7450726963652060168601557f3d20646174612e7573643b636f6e737420766f6c756d65323468203d2064617460178601557f612e7573645f3234685f766f6c207c7c20303b636f6e7374207072696365436860188601557f616e6765323468203d20646174612e7573645f3234685f6368616e6765207c7c60198601557f20303b2f2f20436f6e7665727420746f20636f6e747261637420666f726d6174601a8601557f636f6e7374207072696365576569203d204d6174682e726f756e642863757272601b8601557f656e745072696365202a2031653138293b636f6e737420766f6c756d65576569601c8601557f203d204d6174682e726f756e6428766f6c756d65323468202a2031653138293b601d8601557f636f6e73742070726963654368616e6765427073203d204d6174682e726f756e601e8601558401558201557f696e7432353628707269636557656929202b202020202020202046756e63746960218201557f6f6e732e656e636f646555696e7432353628766f6c756d6557656929202b202060228201557f20202020202046756e6374696f6e732e656e636f6465496e7432353628707269602382015501556040516134cb90816200192e82396080518181816104bd0152611d820152f35b848252602586888420920160051c820191015b81811062001825575062001272565b828155880162001816565b83825287604287898520930160051c830192015b828110620018545750506200088f565b83815501889062001844565b82825285603485878520930160051c830192015b82811062001884575050620000cd565b83815501869062001874565b60405162461bcd60e51b815260048101849052601860248201527f43616e6e6f7420736574206f776e657220746f207a65726f00000000000000006044820152606490fd5b600080fd5b634e487b7160e01b600052604160045260246000fd5b90600182811c9216801562001922575b60208310146200190c57565b634e487b7160e01b600052602260045260246000fd5b91607f16916200190056fe6080604052600436101561001257600080fd5b60003560e01c806306a36b3e1461018757806309c1ba2e146101825780630ca761751461017d5780631b728f921461017857806328d788e11461017357806328e7d7091461016e5780634352433b14610169578063454bbd2914610164578063536fff6c1461015f57806354d5430c1461015a578063562921ec146101555780635bdadb9b1461015057806363b4f7601461014b57806373de930d1461014657806379ba5097146101415780638bf090461461013c5780638d4dd402146101375780638da5cb5b146101325780638dbe7b9d1461012d578063eadbfb9914610128578063f26cb84114610123578063f2fde38b1461011e5763f68016b71461011957600080fd5b61133f565b611284565b6111a3565b611115565b6110b7565b61108e565b61103d565b611021565b610f62565b610e9e565b610ddf565b610d8d565b610ca5565b610c75565b610c36565b610be0565b610b65565b610a5a565b6105e1565b61052e565b61046e565b610336565b6101dd565b9060206003198301126101d8576004356001600160401b03928382116101d857806023830112156101d85781600401359384116101d85760248460051b830101116101d8576024019190565b600080fd5b346101d8576101eb3661018c565b3360009081526006602052604090205490919060ff161580610321575b61030f576020917f15bf77cca79349502b7d15e6aca126e8439b253f30b2beaf6c0818455bac167261029a61027961023e6113b8565b61024f61024961083c565b82612159565b61026361025d368789611401565b82612196565b61027461026e612c50565b82612170565b611f86565b600854600754916001600160401b0363ffffffff8360401c16921690611d2a565b9283926102f36102a86103ea565b8581526102b3612c70565b888201526102c2368486611401565b6040820152426060820152336080820152600060a08201526102ee866000526003602052604060002090565b611ac0565b610304604051928392339184612c9a565b0390a2604051908152f35b604051635c427cd960e01b8152600490fd5b506000546001600160a01b0316331415610208565b346101d85760003660031901126101d85760206001600160401b0360085416604051908152f35b634e487b7160e01b600052604160045260246000fd5b608081019081106001600160401b0382111761038e57604052565b61035d565b60a081019081106001600160401b0382111761038e57604052565b604081019081106001600160401b0382111761038e57604052565b90601f801991011681019081106001600160401b0382111761038e57604052565b6040519060c082018281106001600160401b0382111761038e57604052565b6040519061041682610373565b565b81601f820112156101d8578035906001600160401b03821161038e576040519261044c601f8401601f1916602001856103c9565b828452602083830101116101d857816000926020809301838601378301015290565b346101d85760603660031901126101d8576004356001600160401b036024358181116101d8576104a2903690600401610418565b906044359081116101d8576104bb903690600401610418565b7f00000000000000000000000000000000000000000000000000000000000000006001600160a01b0316330361051c576104f59183612e88565b7f85e1543bf2f84fe80c6badbce3648c8539ad1df4d2b3d822938ca0538be727e6600080a2005b60405163c6829f8360e01b8152600490fd5b346101d85760403660031901126101d8576004356001600160401b0381168091036101d8576024359063ffffffff821682036101d85761056c611366565b6bffffffff00000000000000006008549260401b16916bffffffffffffffffffffffff19161717600855600080f35b9060406003198301126101d8576001600160401b036004358181116101d857836105c791600401610418565b926024359182116101d8576105de91600401610418565b90565b346101d8576105ef3661059b565b906105f8611366565b60409081516020918282018261060e8284610b02565b0392610622601f19948581018352826103c9565b5190208451701d1dda5d1d195c97dcd95b9d1a5b595b9d607a1b8582019081529061065881601184015b038681018352826103c9565b5190200361066f575050505061066d906117f1565b005b83518381019061068f816106838486610b02565b038581018352826103c9565b51902084516d1b995ddcd7dcd95b9d1a5b595b9d60921b858201908152906106ba81600e840161064c565b519020036106cf575050505061066d90611708565b83516106ee816106e28682018095610b02565b038481018352826103c9565b519020916107248451918201928261071885600b906a6d61726b65745f6461746160a81b81520190565b039081018352826103c9565b51902003610736575061066d9061161f565b51637cb6688960e11b8152600490fd5b90600182811c92168015610776575b602083101461076057565b634e487b7160e01b600052602260045260246000fd5b91607f1691610755565b60405190600082600b549161079483610746565b8083529260019081811690811561081a57506001146107bb575b50610416925003836103c9565b600b600090815291507f0175b7a638427703f0dbe7bb9bbf987a2551717b34e79f33b5b1008d1fa01db95b8483106107ff57506104169350508101602001386107ae565b81935090816020925483858a010152019101909185926107e6565b90506020925061041694915060ff191682840152151560051b820101386107ae565b60405190600082600a549161085083610746565b8083529260019081811690811561081a57506001146108765750610416925003836103c9565b600a600090815291507fc65a7bb8d6351c1cf70c95a316cc6a92839c986682d98bc35f958f4883f9d2a85b8483106108ba57506104169350508101602001386107ae565b81935090816020925483858a010152019101909185926108a1565b60405190600082600954916108e983610746565b8083529260019081811690811561081a575060011461090f5750610416925003836103c9565b6009600090815291507f6e1540171b6c0c960b71a7020d9f60077f6af931a8bbf590da0223dacf75c7af5b84831061095357506104169350508101602001386107ae565b81935090816020925483858a0101520191019091859261093a565b906040519182600082549261098284610746565b9081845260019485811690816000146109ef57506001146109ac575b5050610416925003836103c9565b9093915060005260209081600020936000915b8183106109d75750506104169350820101388061099e565b855488840185015294850194879450918301916109bf565b91505061041694506020925060ff191682840152151560051b820101388061099e565b60005b838110610a255750506000910152565b8181015183820152602001610a15565b90602091610a4e81518092818552858086019101610a12565b601f01601f1916010190565b346101d85760203660031901126101d857600435600052600360205260406000208054610a896001830161096e565b9160ff60046003830154920154610ab2604051958695865260a0602087015260a0860190610a35565b60408501939093526001600160a01b038116606085015260a01c16151560808301520390f35b60206003198201126101d857600435906001600160401b0382116101d8576105de91600401610418565b90610b1560209282815194859201610a12565b0190565b6020610b32918160405193828580945193849201610a12565b8101600581520301902090565b6020610b58918160405193828580945193849201610a12565b8101600481520301902090565b346101d857610b7b610b7636610ad8565b610b19565b8054610bc6600183015492600281015490610b9d60046003830154920161096e565b91604051958695865260208601526040850152606084015260a0608084015260a0830190610a35565b0390f35b600435906001600160a01b03821682036101d857565b346101d85760403660031901126101d857610bf9610bca565b602435908115158092036101d857610c0f611366565b60018060a01b0316600052600660205260406000209060ff80198354169116179055600080f35b346101d85760203660031901126101d8576001600160a01b03610c57610bca565b166000526006602052602060ff604060002054166040519015158152f35b346101d85760003660031901126101d857610bc6610c91610780565b604051918291602083526020830190610a35565b346101d857610cb336610ad8565b610d7b610d44610d0b610d36610d06610d10610d0b60405167747769747465725f60c01b6020820152610d066028828b610cf68151809260208686019101610a12565b81010360088101845201826103c9565b610b3f565b613412565b95604051928391610d3060208401600590646e6577735f60d81b81520190565b90610b02565b03601f1981018352826103c9565b602080610d6f610d67610d57875161344b565b610d618651613462565b90613479565b612710900590565b9401519101519061223c565b60408051928352602083019190915290f35b346101d85760003660031901126101d857610bc6610c9161083c565b60a060606105de936020845280516020850152602081015160408501526040810151828501520151916080808201520190610a35565b346101d857610bc6610df03661059b565b610e8f6003610e67604093610d066021865197610e0c89610373565b6000895260608060209a60008c82015260008b820152015287519381610e3b86935180928d8087019101610a12565b8201605f60f81b8b820152610e58825180938d8785019101610a12565b010360018101845201826103c9565b835194610e7386610373565b815486526001820154908601526002810154848601520161096e565b60608301525191829182610da9565b346101d857610eac3661018c565b3360009081526006602052604090205490919060ff161580610f4d575b61030f576020917f15bf77cca79349502b7d15e6aca126e8439b253f30b2beaf6c0818455bac1672610f23610279610eff6113b8565b610f0a6102496108d5565b610f1861025d368789611401565b61027461026e611471565b928392610f3c610f316103ea565b8581526102b3611494565b610304604051928392339184611cbe565b506000546001600160a01b0316331415610ec9565b346101d85760008060031936011261101e576001546001600160a01b039081163303610fe05781546001600160a01b0316600080546001600160a01b0319163317905590600180546001600160a01b03191690553391167f8be0079c531659141344cd1fd0a4f28419497f9722a3daafe3b4186f6b6457e08380a380f35b60405162461bcd60e51b815260206004820152601660248201527526bab9ba10313290383937b837b9b2b21037bbb732b960511b6044820152606490fd5b80fd5b346101d85760003660031901126101d857610bc6610c916108d5565b346101d85761104e610d0636610ad8565b8054610bc660018301549261106a60036002830154920161096e565b90604051948594855260208501526040840152608060608401526080830190610a35565b346101d85760003660031901126101d8576000546040516001600160a01b039091168152602090f35b346101d85760003660031901126101d8576020600754604051908152f35b60c060806105de936020845280516020850152602081015160408501526040810151606085015260608101518285015201519160a0808201520190610a35565b346101d857610bc661115861112936610ad8565b6060608060405161113981610393565b6000815260006020820152600060408201526000838201520152610b19565b61119260046040519261116a84610393565b805484526001810154602085015260028101546040850152600381015460608501520161096e565b6080820152604051918291826110d5565b346101d8576111b13661018c565b3360009081526006602052604090205490919060ff16158061126f575b61030f576111da6113b8565b916111e3610780565b80511561125d57611233610279857f15bf77cca79349502b7d15e6aca126e8439b253f30b2beaf6c0818455bac16729360006020985260006040830152606082015261027461025d368789611401565b92839261124c6112416103ea565b8581526102b3612cd8565b610304604051928392339184612cff565b6040516322ce3edd60e01b8152600490fd5b506000546001600160a01b03163314156111ce565b346101d85760203660031901126101d85761129d610bca565b6112a5611366565b6001600160a01b03163381146112fa57600180546001600160a01b031916821790556000546001600160a01b03167fed8889f560326eb138920d842192f0eb3dd22b4f139c87a2c57538e05bae1278600080a3005b60405162461bcd60e51b815260206004820152601760248201527f43616e6e6f74207472616e7366657220746f2073656c660000000000000000006044820152606490fd5b346101d85760003660031901126101d857602060085463ffffffff6040519160401c168152f35b6000546001600160a01b0316330361137a57565b60405162461bcd60e51b815260206004820152601660248201527527b7363c9031b0b63630b1363290313c9037bbb732b960511b6044820152606490fd5b6040519060e082018281106001600160401b0382111761038e57604052606060c08360008152600060208201526000604082015282808201528260808201528260a08201520152565b9092916001600160401b0380851161038e578460051b604051936020809561142b828501826103c9565b8098815201918101938085116101d85781925b85841061144e5750505050505050565b83358581116101d85787916114668484938701610418565b81520193019261143e565b6040519061147e826103ae565b60078252663a3bb4ba3a32b960c91b6020830152565b604051906114a1826103ae565b60118252701d1dda5d1d195c97dcd95b9d1a5b595b9d607a1b6020830152565b8181106114cc575050565b600081556001016114c1565b90601f82116114e5575050565b61041691600b6000527f0175b7a638427703f0dbe7bb9bbf987a2551717b34e79f33b5b1008d1fa01db9906020601f840160051c8301931061152f575b601f0160051c01906114c1565b9091508190611522565b90601f8211611546575050565b61041691600a6000527fc65a7bb8d6351c1cf70c95a316cc6a92839c986682d98bc35f958f4883f9d2a8906020601f840160051c8301931061152f57601f0160051c01906114c1565b90601f821161159c575050565b6104169160096000527f6e1540171b6c0c960b71a7020d9f60077f6af931a8bbf590da0223dacf75c7af906020601f840160051c8301931061152f57601f0160051c01906114c1565b9190601f81116115f457505050565b610416926000526020600020906020601f840160051c8301931061152f57601f0160051c01906114c1565b9081516001600160401b03811161038e576116448161163f600b54610746565b6114d8565b602080601f83116001146116805750819293600092611675575b50508160011b916000199060031b1c191617600b55565b01519050388061165e565b90601f198316946116b3600b6000527f0175b7a638427703f0dbe7bb9bbf987a2551717b34e79f33b5b1008d1fa01db990565b926000905b8782106116f05750508360019596106116d7575b505050811b01600b55565b015160001960f88460031b161c191690553880806116cc565b806001859682949686015181550195019301906116b8565b9081516001600160401b03811161038e5761172d81611728600a54610746565b611539565b602080601f8311600114611769575081929360009261175e575b50508160011b916000199060031b1c191617600a55565b015190503880611747565b90601f1983169461179c600a6000527fc65a7bb8d6351c1cf70c95a316cc6a92839c986682d98bc35f958f4883f9d2a890565b926000905b8782106117d95750508360019596106117c0575b505050811b01600a55565b015160001960f88460031b161c191690553880806117b5565b806001859682949686015181550195019301906117a1565b9081516001600160401b03811161038e5761181681611811600954610746565b61158f565b602080601f83116001146118525750819293600092611847575b50508160011b916000199060031b1c191617600955565b015190503880611830565b90601f1983169461188560096000527f6e1540171b6c0c960b71a7020d9f60077f6af931a8bbf590da0223dacf75c7af90565b926000905b8782106118c25750508360019596106118a9575b505050811b01600955565b015160001960f88460031b161c1916905538808061189e565b8060018596829496860151815501950193019061188a565b91909182516001600160401b03811161038e57611901816118fb8454610746565b846115e5565b602080601f831160011461193d575081929394600092611932575b50508160011b916000199060031b1c1916179055565b01519050388061191c565b90601f1983169561195385600052602060002090565b926000905b88821061199057505083600195969710611977575b505050811b019055565b015160001960f88460031b161c1916905538808061196d565b80600185968294968601518155019501930190611958565b634e487b7160e01b600052601160045260246000fd5b908160011b91808304600214901517156119d457565b6119a8565b81519168010000000000000000831161038e578154838355808410611a3c575b50611a0e602080920192600052602060002090565b6000925b848410611a20575050505050565b60018382611a30839451866118da565b01920193019290611a12565b6000838152846020822092830192015b828110611a5a5750506119f9565b80611a6760019254610746565b80611a74575b5001611a4c565b601f908181118414611a8c5750508281555b38611a6d565b83611aae92611aa085600052602060002090565b920160051c820191016114c1565b60008181526020812081835555611a86565b9080518255600191828101602080840151948551916001600160401b03831161038e57611af783611af18654610746565b866115e5565b80601f8411600114611b9c5750928280600494611b77979460a0976104169b600094611b91575b50501b916000199060031b1c19161790555b611b416040860151600283016119d9565b606085015160038201556080850151910180546001600160a01b0319166001600160a01b03909216919091178155920151151590565b815460ff60a01b191690151560a01b60ff60a01b16179055565b015192503880611b1e565b9193949596601f198416611bb587600052602060002090565b936000905b828210611c0357505093610416989793611b77979360a097938360049810611bea575b505050811b019055611b30565b015160001960f88460031b161c19169055388080611bdd565b808886978294978701518155019601940190611bba565b908060209392818452848401376000828201840152601f01601f1916010190565b90808352602080930192838260051b850194846000925b858410611c63575050505050505090565b9091929394959681810384528735601e19843603018112156101d85783018681019190356001600160401b0381116101d85780360383136101d857611cad88928392600195611c1a565b990194019401929594939190611c52565b91604091611cff919594956060855260116060860152701d1dda5d1d195c97dcd95b9d1a5b595b9d607a1b608086015260a0602086015260a0850191611c3b565b6001600160a01b03909416910152565b908160209103126101d8575190565b6040513d6000823e3d90fd5b92906020926001600160401b039263ffffffff611d69604051978896879663230e93b160e11b885216600487015260a0602487015260a4860190610a35565b60016044860152921660648401526084830152038160007f00000000000000000000000000000000000000000000000000000000000000006001600160a01b03165af1908115611e1357600091611de5575b50807f1131472297a800fee664d1d89cfa8f7676ff07189ecc53f80bbb5f4969099db8600080a290565b611e06915060203d8111611e0c575b611dfe81836103c9565b810190611d0f565b38611dbb565b503d611df4565b611d1e565b60405190611e25826103ae565b600c82526b31b7b232a637b1b0ba34b7b760a11b6020830152565b634e487b7160e01b600052602160045260246000fd5b60031115611e6057565b611e40565b60405190611e72826103ae565b60088252676c616e677561676560c01b6020830152565b60011115611e6057565b60405190611ea0826103ae565b6006825265736f7572636560d01b6020830152565b60405190611ec2826103ae565b60048252636172677360e01b6020830152565b60001981146119d45760010190565b634e487b7160e01b600052603260045260246000fd5b8051821015611f0e5760209160051b010190565b611ee4565b60405190611f20826103ae565b600f82526e39b2b1b932ba39a637b1b0ba34b7b760891b6020830152565b60405190611f4b826103ae565b60078252667365637265747360c81b6020830152565b60405190611f6e826103ae565b600982526862797465734172677360b81b6020830152565b611f8e6121cf565b90611fa0611f9a611e18565b83612911565b611fbd8151611fae81611e56565b611fb781611e56565b8361229b565b611fc8611f9a611e65565b611fe26040820151611fd981611e89565b611fb781611e89565b611fed611f9a611e93565b611ffb606082015183612911565b60a08101805151612100575b506080810190815151612080575b60c0915001805151612028575b50515190565b91612034611f9a611f61565b61203d82612995565b60005b8351805182101561206d579061206361205c8261206894611efa565b518561285c565b611ed5565b612040565b5050915061207a81612a21565b38612022565b60208101805161208f81611e56565b61209881611e56565b156120ee5760c0926120d16120e9926120b86120b2611f13565b88612911565b516120c281611e56565b6120cb81611e56565b8661229b565b6120e26120dc611f3e565b86612911565b518461285c565b612015565b60405163a80d31f760e01b8152600490fd5b9261211261210c611eb5565b84612911565b61211b83612995565b60005b84518051821015612146579061206361213a8261214194611efa565b5186612911565b61211e565b5050925061215382612a21565b38612007565b81511561125d576000808252604082015260600152565b815115612184576001602082015260800152565b60405163e889636f60e01b8152600490fd5b8151156121a35760a00152565b60405163fe936cb760e01b8152600490fd5b604051906121c2826103ae565b6000602083606081520152565b6040516121db816103ae565b6121e36121b5565b80825260208201600081526121f66121b5565b5061010060208301526040518092526000825261012082019182106101d8576000916040525290565b601f198101919082116119d457565b90602082018092116119d457565b919082018092116119d457565b906122526121b5565b50601f811680612281575b50806020830152604051908183526000825281016020019081106101d85760405290565b602003602081116119d45781018091116119d4573861225d565b908151916122a76121b5565b5082515160018101908181116119d4576020850151811015612300575b60c2602061041696519283010153805182116122f8575b5050604051916020830152602082526122f3826103ae565b61285c565b5238806122db565b8160011b94828604600214831517156119d4576020816123326104169861232b60c295519184612249565b50826127a4565b50965050506122c4565b6123446121b5565b5080515160018101908181116119d457602083015181101561237d575b605b6020845192830101538051821161237957505090565b5290565b8160011b828104600214831517156119d4576123a69061239f85519186612249565b50846127a4565b50612361565b6123b46121b5565b5080515160018101908181116119d45760208301518110156123e9575b605a6020845192830101538051821161237957505090565b8160011b828104600214831517156119d45761240b9061239f85519186612249565b506123d1565b6124196121b5565b5080515160018101908181116119d457602083015181101561244e575b60596020845192830101538051821161237957505090565b8160011b828104600214831517156119d4576124709061239f85519186612249565b50612436565b61247e6121b5565b5080515160018101908181116119d45760208301518110156124b3575b60586020845192830101538051821161237957505090565b8160011b828104600214831517156119d4576124d59061239f85519186612249565b5061249b565b6124e36121b5565b5080515160018101908181116119d4576020830151811015612518575b607b6020845192830101538051821161237957505090565b8160011b828104600214831517156119d45761253a9061239f85519186612249565b50612500565b6125486121b5565b5080515160018101908181116119d457602083015181101561257d575b607a6020845192830101538051821161237957505090565b8160011b828104600214831517156119d45761259f9061239f85519186612249565b50612565565b6125ad6121b5565b5080515160018101908181116119d45760208301518110156125e2575b60796020845192830101538051821161237957505090565b8160011b828104600214831517156119d4576126049061239f85519186612249565b506125ca565b6126126121b5565b5080515160018101908181116119d4576020830151811015612647575b60786020845192830101538051821161237957505090565b8160011b828104600214831517156119d4576126699061239f85519186612249565b5061262f565b906126786121b5565b5081515160018101918282116119d45760208401518210156126ab575b6020845192830101538051821161237957505090565b8260011b838104600214841517156119d4576126d4906126cd86519187612249565b50856127a4565b50612695565b906126e782519183612249565b506126f06121b5565b508051906126fc6121b5565b5061270a8151831115612855565b82515192612718838561223c565b91602092828480940151821161278d575b5183815197820101968211612785575b505001915b8181101561275f5760001991036101000a0190811990511690825116179052565b919261277a612774612780928651815261222e565b9461222e565b9261221f565b61273e565b523880612739565b61279f612799836119be565b826126da565b612729565b906127ad6121b5565b5080516127b86121b5565b506127c68251821115612855565b825151916127d4828461223c565b602091829182870151811161283e575b865183815197820101968211612836575b505001915b8181101561281c5760001991036101000a019081199051169082511617905290565b919261277a612774612831928651815261222e565b6127fa565b5238806127f5565b61285061284a826119be565b886126da565b6127e4565b156101d857565b81516128939291906001600160401b03811690601782116128965761288b9150604060ff84519216179061266f565b505b516127a4565b50565b5060ff81116128bb576128b5906128ad8351612476565b508251612bea565b5061288d565b61ffff81116128da576128b5906128d28351612411565b508251612b83565b63ffffffff81116128fb576128b5906128f383516123ac565b508251612b1a565b6128b590612909835161233c565b508251612aae565b81516128939291906001600160401b03811690601782116129405761288b9150606060ff84519216179061266f565b5060ff8111612957576128b5906128ad835161260a565b61ffff811161296e576128b5906128d283516125a5565b63ffffffff8111612987576128b5906128f38351612540565b6128b59061290983516124db565b8051906129a06121b5565b5081515160018101908181116119d45760208401518110156129ee575b609f60208095519283010153805182116129e6575b505001805190600182018092116119d45752565b5238806129d2565b8160011b93828504600214831517156119d457602081612a17829761232b609f95519184612249565b50955050506129bd565b805190612a2c6121b5565b5081515160018101908181116119d4576020840151811015612a7b575b60ff6020809551928301015380518211612a73575b50500180516000198101919082116119d45752565b523880612a5e565b8160011b93828504600214831517156119d457602081612aa4829761232b60ff95519184612249565b5095505050612a49565b90612ab76121b5565b508151518060080191826008116119d45760208401518311612af9575b6008845192830101906001600160401b03198251161790528051821161237957505090565b8260011b838104600214841517156119d457612b1590856126da565b612ad4565b90612b236121b5565b508151518060040191826004116119d45760208401518311612b62575b60048451928301019063ffffffff198251161790528051821161237957505090565b8260011b838104600214841517156119d457612b7e90856126da565b612b40565b90612b8c6121b5565b508151518060020191826002116119d45760208401518311612bc9575b60028451928301019061ffff198251161790528051821161237957505090565b8260011b838104600214841517156119d457612be590856126da565b612ba9565b90612bf36121b5565b508151518060010191826001116119d45760208401518311612c2f575b60018451928301019060ff198251161790528051821161237957505090565b8260011b838104600214841517156119d457612c4b90856126da565b612c10565b60405190612c5d826103ae565b60048252636e65777360e01b6020830152565b60405190612c7d826103ae565b600e82526d1b995ddcd7dcd95b9d1a5b595b9d60921b6020830152565b91604091611cff9195949560608552600e60608601526d1b995ddcd7dcd95b9d1a5b595b9d60921b608086015260a0602086015260a0850191611c3b565b60405190612ce5826103ae565b600b82526a6d61726b65745f6461746160a81b6020830152565b91604091611cff9195949560608552600b60608601526a6d61726b65745f6461746160a81b608086015260a0602086015260a0850191611c3b565b600092918154612d4981610746565b92600191808316908115612da25750600114612d66575b50505050565b90919293945060005260209081600020906000915b858310612d915750505050019038808080612d60565b805485840152918301918101612d7b565b60ff1916845250505081151590910201915038808080612d60565b805415611f0e57600052602060002090600090565b909291604082526000918454612de781610746565b958660408401526001918281169081600014612e605750600114612e1b575b50506105de9394506020818403910152610a35565b9095919350600052602080600020956000965b838810612e4c575050505060606105de939483010191849338612e06565b805486890160600152968201968101612e2e565b91505060609294506105de9596915060ff191682850152151560051b83010191849338612e06565b9190612e9e836000526003602052604060002090565b9160038301541561305d5760048301805460ff60a01b1916600160a01b179055516130585781612f8060017fcee9c1baa43553b2448ea9021b8ac9f16fee9b4f8e8ae109ccfe1f7cf656bdc0940191604090815160209081810181612f038289612d3a565b0391612f17601f19938481018352826103c9565b5190208451701d1dda5d1d195c97dcd95b9d1a5b595b9d607a1b84820190815290612f458160118401610683565b51902003612f85575050612f67612f616002612f769301612dbd565b5061096e565b612f6f611471565b908661317e565b5192839283612dd2565b0390a2565b835182810190612f99816106e2848b612d3a565b51902084516d1b995ddcd7dcd95b9d1a5b595b9d60921b84820190815290612fc481600e8401610683565b51902003612fed575050612fe0612f616002612fe89301612dbd565b612f6f612c50565b612f76565b835182810190613001816106e2848b612d3a565b5190209161302b8551918201928261071885600b906a6d61726b65745f6461746160a81b81520190565b5190201461303a575b50612f76565b61304c612f6160026130529301612dbd565b8561324f565b38613034565b505050565b604051632589d98f60e11b8152600490fd5b815181556020606060038285015193600194858201556040860151600282015501930151908151916001600160401b03831161038e576130b9836130b38754610746565b876115e5565b81601f84116001146130f257509282939183926000946130e7575b50501b916000199060031b1c1916179055565b0151925038806130d4565b919083601f19811661310988600052602060002090565b946000905b88838310613128575050501061197757505050811b019055565b85870151885590960195948501948793509081019061310e565b61315a90602060405192828480945193849201610a12565b810103902090565b6105de9392606092825260208201528160408201520190610a35565b919082519260409384811015613196575b5050505050565b818591810103126101d8576132427fac11ae47dbb7c28bc4e0c09f664f0b8cbdda8d77259bab0eb98e0282121371d593613237610d36613205886020870151960151968951928391610d30602088516131f481838801848d01610a12565b850101600190605f60f81b81520190565b613232613210610409565b868152876020820152428a82015284606082015261322d83610b3f565b61306f565b613142565b955193849384613162565b0390a2388080808061318f565b8051606081101561325f57505050565b81606091810103126101d8576020908181015160606040830151920151936040519361328a85610393565b82855280850190848252600460408701968888526060810142815260808201948686526132b687610b19565b9251835551986001998a840155516002830155516003820155019151958651916001600160401b03831161038e576132f283611af18654610746565b80601f8411600114613375575091808061334c9593612f8097957fc6d4535f78ddc5dca36d9ad48bc2c0fc3c4ea53f47b8c3f3467d91f3ad2b275e9b60009461336a575b50501b916000199060031b1c1916179055613142565b94604051938493846040919493926060820195825260208201520152565b015192503880613336565b919394959697601f19841661338f87600052602060002090565b936000905b8282106133fb5750509261334c959285927fc6d4535f78ddc5dca36d9ad48bc2c0fc3c4ea53f47b8c3f3467d91f3ad2b275e9b9a9996612f809996106133e2575b505050811b019055613142565b015160001960f88460031b161c191690553880806133d5565b808886978294978701518155019601940190613394565b9060405161341f81610373565b6060613446600383958054855260018101546020860152600281015460408601520161096e565b910152565b90610fa0918281029281840514901517156119d457565b90611770918281029281840514901517156119d457565b919091600083820193841291129080158216911516176119d45756fea26469706673582212206086d8ca25dab022b0093b4036f8c830bb67d722eef7d572de5a6d77f54ea6ad64736f6c63430008140033",
  "linkReferences": {},
  "deployedLinkReferences": {}
}