{
  "_format": "hh-sol-artifact-1",
  "contractName": "PredictionMarket",
  "sourceName": "contracts/core/PredictionMarket.sol",
  "abi": [
    {
      "inputs": [
        {
          "internalType": "address",
          "name": "_vrfCoordinator",
          "type": "address"
        },
        {
          "internalType": "uint64",
          "name": "_subscriptionId",
          "type": "uint64"
        },
        {
          "internalType": "bytes32",
          "name": "_keyHash",
          "type": "bytes32"
        },
        {
          "internalType": "address",
          "name": "_bettingToken",
          "type": "address"
        },
        {
          "internalType": "address",
          "name": "_feeRecipient",
          "type": "address"
        }
      ],
      "stateMutability": "nonpayable",
      "type": "constructor"
    },
    {
      "inputs": [],
      "name": "EnforcedPause",
      "type": "error"
    },
    {
      "inputs": [],
      "name": "ExpectedPause",
      "type": "error"
    },
    {
      "inputs": [
        {
          "internalType": "address",
          "name": "have",
          "type": "address"
        },
        {
          "internalType": "address",
          "name": "want",
          "type": "address"
        }
      ],
      "name": "OnlyCoordinatorCanFulfill",
      "type": "error"
    },
    {
      "inputs": [
        {
          "internalType": "address",
          "name": "owner",
          "type": "address"
        }
      ],
      "name": "OwnableInvalidOwner",
      "type": "error"
    },
    {
      "inputs": [
        {
          "internalType": "address",
          "name": "account",
          "type": "address"
        }
      ],
      "name": "OwnableUnauthorizedAccount",
      "type": "error"
    },
    {
      "inputs": [],
      "name": "ReentrancyGuardReentrantCall",
      "type": "error"
    },
    {
      "inputs": [
        {
          "internalType": "address",
          "name": "token",
          "type": "address"
        }
      ],
      "name": "SafeERC20FailedOperation",
      "type": "error"
    },
    {
      "anonymous": false,
      "inputs": [
        {
          "indexed": true,
          "internalType": "address",
          "name": "agent",
          "type": "address"
        },
        {
          "indexed": false,
          "internalType": "bool",
          "name": "authorized",
          "type": "bool"
        }
      ],
      "name": "AgentAuthorized",
      "type": "event"
    },
    {
      "anonymous": false,
      "inputs": [
        {
          "indexed": true,
          "internalType": "uint256",
          "name": "marketId",
          "type": "uint256"
        },
        {
          "indexed": true,
          "internalType": "address",
          "name": "agent",
          "type": "address"
        },
        {
          "indexed": false,
          "internalType": "bool",
          "name": "prediction",
          "type": "bool"
        },
        {
          "indexed": false,
          "internalType": "uint256",
          "name": "confidence",
          "type": "uint256"
        }
      ],
      "name": "AgentPredictionSubmitted",
      "type": "event"
    },
    {
      "anonymous": false,
      "inputs": [
        {
          "indexed": true,
          "internalType": "uint256",
          "name": "marketId",
          "type": "uint256"
        },
        {
          "indexed": true,
          "internalType": "address",
          "name": "user",
          "type": "address"
        },
        {
          "indexed": false,
          "internalType": "bool",
          "name": "side",
          "type": "bool"
        },
        {
          "indexed": false,
          "internalType": "uint256",
          "name": "amount",
          "type": "uint256"
        }
      ],
      "name": "BetPlaced",
      "type": "event"
    },
    {
      "anonymous": false,
      "inputs": [
        {
          "indexed": true,
          "internalType": "uint256",
          "name": "marketId",
          "type": "uint256"
        },
        {
          "indexed": false,
          "internalType": "uint256",
          "name": "totalVolume",
          "type": "uint256"
        },
        {
          "indexed": false,
          "internalType": "uint256",
          "name": "avgPrice",
          "type": "uint256"
        }
      ],
      "name": "CrossChainSyncReceived",
      "type": "event"
    },
    {
      "anonymous": false,
      "inputs": [
        {
          "indexed": true,
          "internalType": "uint256",
          "name": "marketId",
          "type": "uint256"
        },
        {
          "indexed": false,
          "internalType": "int256",
          "name": "sentiment",
          "type": "int256"
        },
        {
          "indexed": false,
          "internalType": "uint256",
          "name": "volume",
          "type": "uint256"
        },
        {
          "indexed": false,
          "internalType": "uint256",
          "name": "price",
          "type": "uint256"
        }
      ],
      "name": "ExternalDataUpdated",
      "type": "event"
    },
    {
      "anonymous": false,
      "inputs": [
        {
          "indexed": true,
          "internalType": "uint256",
          "name": "marketId",
          "type": "uint256"
        },
        {
          "indexed": false,
          "internalType": "string",
          "name": "question",
          "type": "string"
        },
        {
          "indexed": false,
          "internalType": "string",
          "name": "category",
          "type": "string"
        },
        {
          "indexed": false,
          "internalType": "uint256",
          "name": "endTime",
          "type": "uint256"
        },
        {
          "indexed": false,
          "internalType": "address",
          "name": "creator",
          "type": "address"
        }
      ],
      "name": "MarketCreated",
      "type": "event"
    },
    {
      "anonymous": false,
      "inputs": [
        {
          "indexed": true,
          "internalType": "uint256",
          "name": "marketId",
          "type": "uint256"
        }
      ],
      "name": "MarketPaused",
      "type": "event"
    },
    {
      "anonymous": false,
      "inputs": [
        {
          "indexed": true,
          "internalType": "uint256",
          "name": "marketId",
          "type": "uint256"
        },
        {
          "indexed": false,
          "internalType": "bool",
          "name": "outcome",
          "type": "bool"
        },
        {
          "indexed": false,
          "internalType": "uint256",
          "name": "totalVolume",
          "type": "uint256"
        }
      ],
      "name": "MarketResolved",
      "type": "event"
    },
    {
      "anonymous": false,
      "inputs": [
        {
          "indexed": true,
          "internalType": "address",
          "name": "previousOwner",
          "type": "address"
        },
        {
          "indexed": true,
          "internalType": "address",
          "name": "newOwner",
          "type": "address"
        }
      ],
      "name": "OwnershipTransferred",
      "type": "event"
    },
    {
      "anonymous": false,
      "inputs": [
        {
          "indexed": false,
          "internalType": "address",
          "name": "account",
          "type": "address"
        }
      ],
      "name": "Paused",
      "type": "event"
    },
    {
      "anonymous": false,
      "inputs": [
        {
          "indexed": true,
          "internalType": "uint256",
          "name": "marketId",
          "type": "uint256"
        },
        {
          "indexed": false,
          "internalType": "int256",
          "name": "predictionScore",
          "type": "int256"
        }
      ],
      "name": "PredictionScoreUpdated",
      "type": "event"
    },
    {
      "anonymous": false,
      "inputs": [
        {
          "indexed": false,
          "internalType": "address",
          "name": "account",
          "type": "address"
        }
      ],
      "name": "Unpaused",
      "type": "event"
    },
    {
      "anonymous": false,
      "inputs": [
        {
          "indexed": true,
          "internalType": "uint256",
          "name": "marketId",
          "type": "uint256"
        },
        {
          "indexed": true,
          "internalType": "address",
          "name": "user",
          "type": "address"
        },
        {
          "indexed": false,
          "internalType": "uint256",
          "name": "amount",
          "type": "uint256"
        }
      ],
      "name": "WinningsClaimed",
      "type": "event"
    },
    {
      "inputs": [
        {
          "internalType": "uint256",
          "name": "",
          "type": "uint256"
        },
        {
          "internalType": "uint256",
          "name": "",
          "type": "uint256"
        }
      ],
      "name": "agentPredictions",
      "outputs": [
        {
          "internalType": "address",
          "name": "agent",
          "type": "address"
        },
        {
          "internalType": "uint256",
          "name": "marketId",
          "type": "uint256"
        },
        {
          "internalType": "bool",
          "name": "prediction",
          "type": "bool"
        },
        {
          "internalType": "uint256",
          "name": "confidence",
          "type": "uint256"
        },
        {
          "internalType": "uint256",
          "name": "timestamp",
          "type": "uint256"
        },
        {
          "internalType": "string",
          "name": "reasoning",
          "type": "string"
        }
      ],
      "stateMutability": "view",
      "type": "function"
    },
    {
      "inputs": [
        {
          "internalType": "address",
          "name": "",
          "type": "address"
        }
      ],
      "name": "agentReputation",
      "outputs": [
        {
          "internalType": "uint256",
          "name": "",
          "type": "uint256"
        }
      ],
      "stateMutability": "view",
      "type": "function"
    },
    {
      "inputs": [
        {
          "internalType": "address",
          "name": "",
          "type": "address"
        }
      ],
      "name": "authorizedAgents",
      "outputs": [
        {
          "internalType": "bool",
          "name": "",
          "type": "bool"
        }
      ],
      "stateMutability": "view",
      "type": "function"
    },
    {
      "inputs": [],
      "name": "bettingToken",
      "outputs": [
        {
          "internalType": "contract IERC20",
          "name": "",
          "type": "address"
        }
      ],
      "stateMutability": "view",
      "type": "function"
    },
    {
      "inputs": [
        {
          "internalType": "uint256",
          "name": "_marketId",
          "type": "uint256"
        },
        {
          "internalType": "address",
          "name": "_user",
          "type": "address"
        }
      ],
      "name": "calculateWinnings",
      "outputs": [
        {
          "internalType": "uint256",
          "name": "",
          "type": "uint256"
        }
      ],
      "stateMutability": "view",
      "type": "function"
    },
    {
      "inputs": [
        {
          "internalType": "bytes",
          "name": "",
          "type": "bytes"
        }
      ],
      "name": "checkUpkeep",
      "outputs": [
        {
          "internalType": "bool",
          "name": "upkeepNeeded",
          "type": "bool"
        },
        {
          "internalType": "bytes",
          "name": "performData",
          "type": "bytes"
        }
      ],
      "stateMutability": "view",
      "type": "function"
    },
    {
      "inputs": [
        {
          "internalType": "uint256",
          "name": "_marketId",
          "type": "uint256"
        }
      ],
      "name": "claimWinnings",
      "outputs": [],
      "stateMutability": "nonpayable",
      "type": "function"
    },
    {
      "inputs": [
        {
          "internalType": "string",
          "name": "_question",
          "type": "string"
        },
        {
          "internalType": "string",
          "name": "_category",
          "type": "string"
        },
        {
          "internalType": "uint256",
          "name": "_endTime",
          "type": "uint256"
        },
        {
          "internalType": "uint256",
          "name": "_creatorFee",
          "type": "uint256"
        }
      ],
      "name": "createMarket",
      "outputs": [
        {
          "internalType": "uint256",
          "name": "",
          "type": "uint256"
        }
      ],
      "stateMutability": "nonpayable",
      "type": "function"
    },
    {
      "inputs": [],
      "name": "feeRecipient",
      "outputs": [
        {
          "internalType": "address",
          "name": "",
          "type": "address"
        }
      ],
      "stateMutability": "view",
      "type": "function"
    },
    {
      "inputs": [
        {
          "internalType": "uint256",
          "name": "_marketId",
          "type": "uint256"
        }
      ],
      "name": "getAgentPredictions",
      "outputs": [
        {
          "components": [
            {
              "internalType": "address",
              "name": "agent",
              "type": "address"
            },
            {
              "internalType": "uint256",
              "name": "marketId",
              "type": "uint256"
            },
            {
              "internalType": "bool",
              "name": "prediction",
              "type": "bool"
            },
            {
              "internalType": "uint256",
              "name": "confidence",
              "type": "uint256"
            },
            {
              "internalType": "uint256",
              "name": "timestamp",
              "type": "uint256"
            },
            {
              "internalType": "string",
              "name": "reasoning",
              "type": "string"
            }
          ],
          "internalType": "struct PredictionMarket.AgentPrediction[]",
          "name": "",
          "type": "tuple[]"
        }
      ],
      "stateMutability": "view",
      "type": "function"
    },
    {
      "inputs": [
        {
          "internalType": "uint256",
          "name": "_marketId",
          "type": "uint256"
        }
      ],
      "name": "getMarket",
      "outputs": [
        {
          "components": [
            {
              "internalType": "uint256",
              "name": "id",
              "type": "uint256"
            },
            {
              "internalType": "string",
              "name": "question",
              "type": "string"
            },
            {
              "internalType": "string",
              "name": "category",
              "type": "string"
            },
            {
              "internalType": "uint256",
              "name": "createdAt",
              "type": "uint256"
            },
            {
              "internalType": "uint256",
              "name": "endTime",
              "type": "uint256"
            },
            {
              "internalType": "uint256",
              "name": "resolutionTime",
              "type": "uint256"
            },
            {
              "internalType": "bool",
              "name": "resolved",
              "type": "bool"
            },
            {
              "internalType": "bool",
              "name": "outcome",
              "type": "bool"
            },
            {
              "internalType": "uint256",
              "name": "totalYesAmount",
              "type": "uint256"
            },
            {
              "internalType": "uint256",
              "name": "totalNoAmount",
              "type": "uint256"
            },
            {
              "internalType": "uint256",
              "name": "totalVolume",
              "type": "uint256"
            },
            {
              "internalType": "address",
              "name": "creator",
              "type": "address"
            },
            {
              "internalType": "uint256",
              "name": "creatorFee",
              "type": "uint256"
            },
            {
              "internalType": "bool",
              "name": "active",
              "type": "bool"
            }
          ],
          "internalType": "struct PredictionMarket.Market",
          "name": "",
          "type": "tuple"
        }
      ],
      "stateMutability": "view",
      "type": "function"
    },
    {
      "inputs": [
        {
          "internalType": "uint256",
          "name": "_marketId",
          "type": "uint256"
        }
      ],
      "name": "getMarketStats",
      "outputs": [
        {
          "internalType": "uint256",
          "name": "totalVolume",
          "type": "uint256"
        },
        {
          "internalType": "uint256",
          "name": "yesVolume",
          "type": "uint256"
        },
        {
          "internalType": "uint256",
          "name": "noVolume",
          "type": "uint256"
        },
        {
          "internalType": "uint256",
          "name": "currentYesPrice",
          "type": "uint256"
        },
        {
          "internalType": "uint256",
          "name": "currentNoPrice",
          "type": "uint256"
        }
      ],
      "stateMutability": "view",
      "type": "function"
    },
    {
      "inputs": [
        {
          "internalType": "uint256",
          "name": "_marketId",
          "type": "uint256"
        }
      ],
      "name": "getMathematicalPrediction",
      "outputs": [
        {
          "internalType": "int256",
          "name": "predictionScore",
          "type": "int256"
        },
        {
          "internalType": "uint256",
          "name": "confidence",
          "type": "uint256"
        },
        {
          "internalType": "string",
          "name": "reasoning",
          "type": "string"
        }
      ],
      "stateMutability": "view",
      "type": "function"
    },
    {
      "inputs": [
        {
          "internalType": "uint256",
          "name": "_marketId",
          "type": "uint256"
        },
        {
          "internalType": "address",
          "name": "_user",
          "type": "address"
        }
      ],
      "name": "getPosition",
      "outputs": [
        {
          "components": [
            {
              "internalType": "uint256",
              "name": "marketId",
              "type": "uint256"
            },
            {
              "internalType": "address",
              "name": "user",
              "type": "address"
            },
            {
              "internalType": "uint256",
              "name": "yesAmount",
              "type": "uint256"
            },
            {
              "internalType": "uint256",
              "name": "noAmount",
              "type": "uint256"
            },
            {
              "internalType": "bool",
              "name": "claimed",
              "type": "bool"
            }
          ],
          "internalType": "struct PredictionMarket.Position",
          "name": "",
          "type": "tuple"
        }
      ],
      "stateMutability": "view",
      "type": "function"
    },
    {
      "inputs": [
        {
          "internalType": "uint256",
          "name": "_marketId",
          "type": "uint256"
        },
        {
          "internalType": "bool",
          "name": "_side",
          "type": "bool"
        }
      ],
      "name": "getPrice",
      "outputs": [
        {
          "internalType": "uint256",
          "name": "",
          "type": "uint256"
        }
      ],
      "stateMutability": "view",
      "type": "function"
    },
    {
      "inputs": [
        {
          "internalType": "uint256",
          "name": "",
          "type": "uint256"
        }
      ],
      "name": "markets",
      "outputs": [
        {
          "internalType": "uint256",
          "name": "id",
          "type": "uint256"
        },
        {
          "internalType": "string",
          "name": "question",
          "type": "string"
        },
        {
          "internalType": "string",
          "name": "category",
          "type": "string"
        },
        {
          "internalType": "uint256",
          "name": "createdAt",
          "type": "uint256"
        },
        {
          "internalType": "uint256",
          "name": "endTime",
          "type": "uint256"
        },
        {
          "internalType": "uint256",
          "name": "resolutionTime",
          "type": "uint256"
        },
        {
          "internalType": "bool",
          "name": "resolved",
          "type": "bool"
        },
        {
          "internalType": "bool",
          "name": "outcome",
          "type": "bool"
        },
        {
          "internalType": "uint256",
          "name": "totalYesAmount",
          "type": "uint256"
        },
        {
          "internalType": "uint256",
          "name": "totalNoAmount",
          "type": "uint256"
        },
        {
          "internalType": "uint256",
          "name": "totalVolume",
          "type": "uint256"
        },
        {
          "internalType": "address",
          "name": "creator",
          "type": "address"
        },
        {
          "internalType": "uint256",
          "name": "creatorFee",
          "type": "uint256"
        },
        {
          "internalType": "bool",
          "name": "active",
          "type": "bool"
        }
      ],
      "stateMutability": "view",
      "type": "function"
    },
    {
      "inputs": [],
      "name": "maxBetAmount",
      "outputs": [
        {
          "internalType": "uint256",
          "name": "",
          "type": "uint256"
        }
      ],
      "stateMutability": "view",
      "type": "function"
    },
    {
      "inputs": [],
      "name": "minBetAmount",
      "outputs": [
        {
          "internalType": "uint256",
          "name": "",
          "type": "uint256"
        }
      ],
      "stateMutability": "view",
      "type": "function"
    },
    {
      "inputs": [],
      "name": "nextMarketId",
      "outputs": [
        {
          "internalType": "uint256",
          "name": "",
          "type": "uint256"
        }
      ],
      "stateMutability": "view",
      "type": "function"
    },
    {
      "inputs": [],
      "name": "owner",
      "outputs": [
        {
          "internalType": "address",
          "name": "",
          "type": "address"
        }
      ],
      "stateMutability": "view",
      "type": "function"
    },
    {
      "inputs": [],
      "name": "pause",
      "outputs": [],
      "stateMutability": "nonpayable",
      "type": "function"
    },
    {
      "inputs": [
        {
          "internalType": "uint256",
          "name": "_marketId",
          "type": "uint256"
        }
      ],
      "name": "pauseMarket",
      "outputs": [],
      "stateMutability": "nonpayable",
      "type": "function"
    },
    {
      "inputs": [],
      "name": "paused",
      "outputs": [
        {
          "internalType": "bool",
          "name": "",
          "type": "bool"
        }
      ],
      "stateMutability": "view",
      "type": "function"
    },
    {
      "inputs": [
        {
          "internalType": "bytes",
          "name": "performData",
          "type": "bytes"
        }
      ],
      "name": "performUpkeep",
      "outputs": [],
      "stateMutability": "nonpayable",
      "type": "function"
    },
    {
      "inputs": [
        {
          "internalType": "uint256",
          "name": "_marketId",
          "type": "uint256"
        },
        {
          "internalType": "bool",
          "name": "_side",
          "type": "bool"
        },
        {
          "internalType": "uint256",
          "name": "_amount",
          "type": "uint256"
        }
      ],
      "name": "placeBet",
      "outputs": [],
      "stateMutability": "nonpayable",
      "type": "function"
    },
    {
      "inputs": [],
      "name": "platformFee",
      "outputs": [
        {
          "internalType": "uint256",
          "name": "",
          "type": "uint256"
        }
      ],
      "stateMutability": "view",
      "type": "function"
    },
    {
      "inputs": [
        {
          "internalType": "uint256",
          "name": "",
          "type": "uint256"
        },
        {
          "internalType": "address",
          "name": "",
          "type": "address"
        }
      ],
      "name": "positions",
      "outputs": [
        {
          "internalType": "uint256",
          "name": "marketId",
          "type": "uint256"
        },
        {
          "internalType": "address",
          "name": "user",
          "type": "address"
        },
        {
          "internalType": "uint256",
          "name": "yesAmount",
          "type": "uint256"
        },
        {
          "internalType": "uint256",
          "name": "noAmount",
          "type": "uint256"
        },
        {
          "internalType": "bool",
          "name": "claimed",
          "type": "bool"
        }
      ],
      "stateMutability": "view",
      "type": "function"
    },
    {
      "inputs": [
        {
          "internalType": "uint256",
          "name": "requestId",
          "type": "uint256"
        },
        {
          "internalType": "uint256[]",
          "name": "randomWords",
          "type": "uint256[]"
        }
      ],
      "name": "rawFulfillRandomWords",
      "outputs": [],
      "stateMutability": "nonpayable",
      "type": "function"
    },
    {
      "inputs": [],
      "name": "renounceOwnership",
      "outputs": [],
      "stateMutability": "nonpayable",
      "type": "function"
    },
    {
      "inputs": [
        {
          "internalType": "uint256",
          "name": "_marketId",
          "type": "uint256"
        },
        {
          "internalType": "bool",
          "name": "_outcome",
          "type": "bool"
        }
      ],
      "name": "resolveMarket",
      "outputs": [],
      "stateMutability": "nonpayable",
      "type": "function"
    },
    {
      "inputs": [
        {
          "internalType": "address",
          "name": "_agent",
          "type": "address"
        },
        {
          "internalType": "bool",
          "name": "_authorized",
          "type": "bool"
        }
      ],
      "name": "setAgentAuthorization",
      "outputs": [],
      "stateMutability": "nonpayable",
      "type": "function"
    },
    {
      "inputs": [
        {
          "internalType": "uint256",
          "name": "_minAmount",
          "type": "uint256"
        },
        {
          "internalType": "uint256",
          "name": "_maxAmount",
          "type": "uint256"
        }
      ],
      "name": "setBettingLimits",
      "outputs": [],
      "stateMutability": "nonpayable",
      "type": "function"
    },
    {
      "inputs": [
        {
          "internalType": "uint256",
          "name": "_fee",
          "type": "uint256"
        }
      ],
      "name": "setPlatformFee",
      "outputs": [],
      "stateMutability": "nonpayable",
      "type": "function"
    },
    {
      "inputs": [
        {
          "internalType": "address",
          "name": "_ccipContract",
          "type": "address"
        }
      ],
      "name": "setSwarmCCIPContract",
      "outputs": [],
      "stateMutability": "nonpayable",
      "type": "function"
    },
    {
      "inputs": [
        {
          "internalType": "address",
          "name": "_functionsContract",
          "type": "address"
        }
      ],
      "name": "setSwarmFunctionsContract",
      "outputs": [],
      "stateMutability": "nonpayable",
      "type": "function"
    },
    {
      "inputs": [
        {
          "internalType": "uint256",
          "name": "_marketId",
          "type": "uint256"
        },
        {
          "internalType": "bool",
          "name": "_prediction",
          "type": "bool"
        },
        {
          "internalType": "uint256",
          "name": "_confidence",
          "type": "uint256"
        },
        {
          "internalType": "string",
          "name": "_reasoning",
          "type": "string"
        }
      ],
      "name": "submitAgentPrediction",
      "outputs": [],
      "stateMutability": "nonpayable",
      "type": "function"
    },
    {
      "inputs": [],
      "name": "swarmCCIPContract",
      "outputs": [
        {
          "internalType": "address",
          "name": "",
          "type": "address"
        }
      ],
      "stateMutability": "view",
      "type": "function"
    },
    {
      "inputs": [],
      "name": "swarmFunctionsContract",
      "outputs": [
        {
          "internalType": "address",
          "name": "",
          "type": "address"
        }
      ],
      "stateMutability": "view",
      "type": "function"
    },
    {
      "inputs": [
        {
          "internalType": "uint256",
          "name": "_marketId",
          "type": "uint256"
        },
        {
          "internalType": "uint256",
          "name": "_totalVolume",
          "type": "uint256"
        },
        {
          "internalType": "uint256",
          "name": "_avgPrice",
          "type": "uint256"
        }
      ],
      "name": "syncFromCrossChain",
      "outputs": [],
      "stateMutability": "nonpayable",
      "type": "function"
    },
    {
      "inputs": [
        {
          "internalType": "address",
          "name": "newOwner",
          "type": "address"
        }
      ],
      "name": "transferOwnership",
      "outputs": [],
      "stateMutability": "nonpayable",
      "type": "function"
    },
    {
      "inputs": [],
      "name": "unpause",
      "outputs": [],
      "stateMutability": "nonpayable",
      "type": "function"
    },
    {
      "inputs": [
        {
          "internalType": "address",
          "name": "_agent",
          "type": "address"
        },
        {
          "internalType": "uint256",
          "name": "_newReputation",
          "type": "uint256"
        }
      ],
      "name": "updateAgentReputation",
      "outputs": [],
      "stateMutability": "nonpayable",
      "type": "function"
    },
    {
      "inputs": [
        {
          "internalType": "uint256",
          "name": "_marketId",
          "type": "uint256"
        },
        {
          "internalType": "int256",
          "name": "sentiment",
          "type": "int256"
        },
        {
          "internalType": "uint256",
          "name": "volume",
          "type": "uint256"
        },
        {
          "internalType": "uint256",
          "name": "price",
          "type": "uint256"
        }
      ],
      "name": "updateMarketWithExternalData",
      "outputs": [],
      "stateMutability": "nonpayable",
      "type": "function"
    },
    {
      "inputs": [],
      "name": "withdrawFees",
      "outputs": [],
      "stateMutability": "nonpayable",
      "type": "function"
    }
  ],
  "bytecode": "0x60a03462000183576001600160401b0390601f620033ec38819003918201601f191683019184831184841017620001885780849260a09460405283398101031262000183576200004f816200019e565b9160208201519081168103620001835760408201519162000081608062000079606084016200019e565b92016200019e565b9033156200016a576000549060018060a01b03199433868416176000556040519660018060a01b03958694853391167f8be0079c531659141344cd1fd0a4f28419497f9722a3daafe3b4186f6b6457e0600080a36001805581608052600160085560fa600955662386f26fc10000600a55683635c9adc5dea00000600b5566010003000186a060018060501b0319601054161760105584600e5491600160a01b600160e01b039060a01b1692169063ffffffff60e01b161717600e55600f551683600d541617600d551690600c541617600c556132389081620001b48239608051816121910152f35b604051631e4fbdf760e01b815260006004820152602490fd5b600080fd5b634e487b7160e01b600052604160045260246000fd5b51906001600160a01b0382168203620001835756fe6080604052600436101561001257600080fd5b60003560e01c80630911e8641461268057806310cfa3ef1461265757806311c3c0241461259957806312e8e2c31461253b5780631a38cac6146123635780631fe543e31461215f57806326232a2e1461214157806339b6ee1914611c125780633a3d3d35146119a15780633f4ba83a14611937578063406ef2ef1461191957806342b22323146118d657806343425e88146118ad5780634585e33b146117a4578063469048401461177b578063476343ee1461163657806354de6e32146115fc5780635705b61a146115d657806357bde4461461149c57806358057fe5146114335780635c975abb14611410578063677bd9ff146112565780636e04ff0d14611099578063715018a6146110405780637d7bdec014610cc15780638456cb5914610c675780638905aa8914610b215780638da5cb5b14610af85780638e6bf35b146109955780639259b27414610913578063a108ce5f146108f4578063a136effe1461085e578063b1283e771461075d578063cab11d5d1461073f578063cf86d579146106fc578063d29f541d14610627578063e684d718146105ad578063eb44fdd31461039e578063efd760651461035f578063f15cc40614610331578063f2fde38b146102a8578063fa968eea1461028a578063fc12524c1461022e5763fdd91baf1461020057600080fd5b34610229576000366003190112610229576013546040516001600160a01b039091168152602090f35b600080fd5b346102295760203660031901126102295760043561024a612a5c565b806000526003602052600c60406000200160ff1981541690557f0b939016779c3297135b58aed6d343cf103faf818ea07a7c5f87b03a9bd87297600080a2005b34610229576000366003190112610229576020600a54604051908152f35b34610229576020366003190112610229576102c161272d565b6102c9612a5c565b6001600160a01b0390811690811561031857600054826001600160601b0360a01b821617600055167f8be0079c531659141344cd1fd0a4f28419497f9722a3daafe3b4186f6b6457e0600080a3005b604051631e4fbdf760e01b815260006004820152602490fd5b3461022957604036600319011261022957602061035761034f612743565b600435612c4f565b604051908152f35b34610229576020366003190112610229576001600160a01b0361038061272d565b166000526006602052602060ff604060002054166040519015158152f35b346102295760203660031901126102295760006101a06040516103c081612768565b82815260606020820152606060408201528260608201528260808201528260a08201528260c08201528260e0820152826101008201528261012082015282610140820152826101608201528261018082015201526004356000526003602052604060002060ff600c6040519261043584612768565b80548452610445600182016129b6565b6020850152610456600282016129b6565b60408501526003810154606085015260048101546080850152600581015460a0850152826006820154818116151560c087015260081c16151560e085015260078101546101008501526008810154610120850152600981015461014085015260018060a01b03600a82015416610160850152600b81015461018085015201541615156101a0820152604051809160208252805160208301526101a061052561050f60208401516101c060408701526101e086019061290a565b6040840151858203601f1901606087015261290a565b9160608101516080850152608081015160a085015260a081015160c085015260c0810151151560e085015260e0810151151561010085015261010081015161012085015261012081015161014085015261014081015161016085015260018060a01b036101608201511661018085015261018081015182850152015115156101c08301520390f35b346102295760403660031901126102295760a06105c8612743565b60043560005260046020526040600020600180841b03809216600052602052604060002080549160018201541690600281015460ff60046003840154930154169260405194855260208501526040840152606083015215156080820152f35b346102295760403660031901126102295760a0610642612743565b600060806040516106528161279f565b828152826020820152826040820152826060820152015260043560005260046020526040600020600180841b0380921660005260205260406000206040519061069a8261279f565b80549283835280600183015416906020840191825260028301549160408501928352608060ff60046003870154966060890197885201541695019415158552604051958652511660208501525160408401525160608301525115156080820152f35b346102295760203660031901126102295761071561272d565b61071d612a5c565b601280546001600160a01b0319166001600160a01b0392909216919091179055005b34610229576000366003190112610229576020600b54604051908152f35b34610229576020366003190112610229576004356000526003602052604060002080546001820161078d906129b6565b9161079a600282016129b6565b6003820154916004810154600582015460068301546007840154600885015491600986015493600160a01b60019003600a8801541695600b88015497600c015460ff16986040519c8d9c8d528c6101c06020819201528d016107fb9161290a565b8c810360408e015261080c9161290a565b9960608c015260808b015260a08a015260ff8116151560c08a015260081c60ff16151560e089015261010088015261012087015261014086015261016085015261018084015215156101a08301520390f35b346102295761086c3661294a565b90600052600560205260406000209081548110156102295761088d91612960565b5060018060a01b038154166108f060018301549260ff6002820154169060038101546108c06005600484015493016129b6565b9260405196879687526020870152151560408601526060850152608084015260c060a084015260c083019061290a565b0390f35b34610229576109023661294a565b9061090b612a5c565b600a55600b55005b346102295760403660031901126102295761092c61272d565b60243590610938612a5c565b612710821161095b576001600160a01b0316600090815260076020526040902055005b60405162461bcd60e51b815260206004820152601260248201527124b73b30b634b2103932b83aba30ba34b7b760711b6044820152606490fd5b34610229576020806003193601126102295760043560005260059081815260406000208054916109c4836127f6565b926109d260405194856127d5565b8084528184018093600052826000206000915b838310610a8c5750505050604051928184019082855251809152604081818601961b85010192916000955b828710610a1d5785850386f35b909192938280610a7c600193603f198a82030186528851858060a01b0381511682528381015184830152604081015115156040830152606080820151908301526080808201519083015260a0809101519160c08092820152019061290a565b9601920196019592919092610a10565b600685600192604099979951610aa181612784565b848060a01b038654168152848601548382015260ff600287015416151560408201526003860154606082015260048601546080820152610ae28c87016129b6565b60a08201528152019201920191909593956109e5565b34610229576000366003190112610229576000546040516001600160a01b039091168152602090f35b3461022957602036600319011261022957600435806000526003602052604060002090610b5460ff600c84015416612a97565b610b676008600784015493015483612b16565b80159283610c5d5761271090818102918183041490151715610c2e5781610b8d91612c22565b925b610b9884612eef565b92600052600560205260406000205490670de0b6b3a764000090818411600014610c44575050611388905b6005811115610c0857506108f091610be1610bea9261138890612b16565b60011c94612f33565b6040519384938452602084015260606040840152606083019061290a565b916103e892838102938185041490151715610c2e57610be1610bea926108f09490612b16565b634e487b7160e01b600052601160045260246000fd5b6113889081850291858304141715610c2e570490610bc3565b5061138892610b8f565b3461022957600036600319011261022957610c80612a5c565b610c88612b7f565b600160ff1960025416176002557f62e78cea01bee320cd4e420270b5ea74000d11b0c9f74754ebdbfc544b05a2586020604051338152a1005b3461022957608036600319011261022957600435610cdd612759565b906001600160401b0360443560643582811161022957610d0190369060040161286b565b336000526020926006845260ff6040600020541615610ffb578460005260038452610d3660ff600c6040600020015416612a97565b8460005260038452610d516004604060002001544210612ad7565b6127108311610fb65784600052600584526040600020604051610d7381612784565b338152858101908782526040810190891515825260608101878152608082019142835260a08101978852855468010000000000000000811015610f8a57610dc1906001978882018155612960565b949094610fa057600595610e079260018060a01b039051166001600160601b0360a01b8754161786555187860155511515600285019060ff801983541691151516179055565b516003830155516004820155019251948551928311610f8a57610e2a845461297c565b601f8111610f41575b5080601f8411600114610eb2575091808092610ea29695947f22ba00c7a927fe8ff7a3feb6f006712ec7adb8e2006183b6f9e437f45fdc030c98600094610ea7575b50501b916000199060031b1c19161790555b60408051951515865260208601919091523394918291820190565b0390a3005b015192508a80610e75565b91939495601f1984168660005283600020936000905b828210610f2a575050917f22ba00c7a927fe8ff7a3feb6f006712ec7adb8e2006183b6f9e437f45fdc030c9795939185610ea298969410610f11575b505050811b019055610e87565b015160001960f88460031b161c19169055888080610f04565b808886978294978701518155019601940190610ec8565b8460005281600020601f850160051c810191838610610f80575b601f0160051c019083905b828110610f74575050610e33565b60008155018390610f66565b9091508190610f5b565b634e487b7160e01b600052604160045260246000fd5b634e487b7160e01b600052600060045260246000fd5b60405162461bcd60e51b815260048101859052601860248201527f496e76616c696420636f6e666964656e6365206c6576656c00000000000000006044820152606490fd5b60405162461bcd60e51b815260048101859052601760248201527f4e6f7420616e20617574686f72697a6564206167656e740000000000000000006044820152606490fd5b3461022957600036600319011261022957611059612a5c565b600080546001600160a01b0319811682556001600160a01b03167f8be0079c531659141344cd1fd0a4f28419497f9722a3daafe3b4186f6b6457e08280a3005b34610229576110a7366128c1565b5050604051610ca081018181106001600160401b03821117610f8a57604052606490818152602091610c803684840137600091600191829083600854905b6111b9575b5050506110f6836127f6565b9061110460405192836127d5565b838252611110846127f6565b9185810191601f1980940136843760005b86811061118f57505060405193604085019187808701525180925260608501929160005b8882821061117c57886108f0896111648a828b039081018352826127d5565b6040805194859415158552840152604083019061290a565b8451865294850194909301928201611145565b806111a06111b19284989598612d5b565b516111ab8289612d5b565b52612a88565b949194611121565b8083969593108061124d575b15611244578560005260038752604060002060ff9081600c820154169182611235575b5081611226575b50611209575b61120183949596612a88565b9294936110e5565b61120161121d86886111ab88998899612d5b565b959450506111f5565b600491500154421015886111ef565b600682015416159150896111e8565b829495506110ea565b508185106111c5565b346102295760208060031936011261022957600435611273612b9d565b806000526003825260406000209160048152604060002033600052815260ff6006604060002094015416156113d6576004830180549360ff851661139f5760028101541590811591611391575b501561135e576112d03384612c4f565b93841561132b5760ff19166001179055600d547f5380cf6fe903b40c6d5a9e0dfbca2f3a423f0a21520b4d5947ed5169bdba946d919061131c90859033906001600160a01b0316612bc0565b6040519384523393a360018055005b60405162461bcd60e51b815260048101849052600b60248201526a4e6f2077696e6e696e677360a81b6044820152606490fd5b60405162461bcd60e51b815260048101839052600b60248201526a2737903837b9b4ba34b7b760a91b6044820152606490fd5b6003915001541515856112c0565b60405162461bcd60e51b815260048101849052600f60248201526e105b1c9958591e4818db185a5b5959608a1b6044820152606490fd5b6064906040519062461bcd60e51b82526004820152601360248201527213585c9ad95d081b9bdd081c995cdbdb1d9959606a1b6044820152fd5b3461022957600036600319011261022957602060ff600254166040519015158152f35b346102295760203660031901126102295760a06004358060005260036020526040600020600860078201549101549161146c8383612b16565b9261147f61147983613110565b92613153565b926040519485526020850152604084015260608301526080820152f35b34610229576040366003190112610229576004356114b8612759565b6114c0612a5c565b8160005260036020526040600020906114df60ff600c84015416612a97565b6004820154421061159a57600682019182549060ff82166115555761ffff1990911682151560081b61ff0016176001179092557f6d4d544f5a6dcf38d77a232d3ef7358625c74877a1ad954fcb507872e7a05eaf916009905b4260058201550154604080519215158352602083019190915290a2005b60405162461bcd60e51b815260206004820152601760248201527f4d61726b657420616c7265616479207265736f6c7665640000000000000000006044820152606490fd5b60405162461bcd60e51b815260206004820152601460248201527313585c9ad95d081a185cc81b9bdd08195b99195960621b6044820152606490fd5b346102295760403660031901126102295760206103576115f4612759565b600435613174565b34610229576020366003190112610229576001600160a01b0361161d61272d565b1660005260076020526020604060002054604051908152f35b346102295760003660031901126102295761164f612a5c565b600d546040516370a0823160e01b81523060048201526001600160a01b039182169060208082602481865afa91821561176f57600092611740575b506000906001906008908154925b8381106116d75750505050808211156116cd576116b491612c42565b905b816116bd57005b6116cb92600c541690612bc0565b005b50506000906116b6565b8060005260038252604060002060ff80600c830154169081611731575b50611709575b5061170490612a88565b611698565b61170491956117248286600761172a95015491015490612b16565b90612b16565b94906116fa565b9050600682015416158a6116f4565b9080925081813d8311611768575b61175881836127d5565b810103126102295751908461168a565b503d61174e565b6040513d6000823e3d90fd5b3461022957600036600319011261022957600c546040516001600160a01b039091168152602090f35b34610229576117b2366128c1565b81016020918281830312610229576001600160401b03918135838111610229576117dc920161280d565b9060005b82518110156116cb576117f38184612d5b565b5190600e549185600f5460a460105491600060405197889485936305d3b1d360e41b855260048501528a8260a01c16602485015261ffff81881c16604485015263ffffffff90818116606486015260301c16608484015260018060a01b03165af1801561176f5760009061187e575b611879935060005260118652604060002055612a88565b6117e0565b508583813d83116118a6575b61189481836127d5565b81010312610229576118799251611862565b503d61188a565b3461022957600036600319011261022957600d546040516001600160a01b039091168152602090f35b34610229576020366003190112610229576118ef61272d565b6118f7612a5c565b601380546001600160a01b0319166001600160a01b0392909216919091179055005b34610229576000366003190112610229576020600854604051908152f35b3461022957600036600319011261022957611950612a5c565b60025460ff81161561198f5760ff19166002557f5db9ee0a495bf2e6ff9c91a7834c1ba4fdd244a5e8aa4e537bd38aeae4b073aa6020604051338152a1005b604051638dfc202b60e01b8152600490fd5b34610229576080366003190112610229576012546004359060443590602480359160643591906001600160a01b03163303611bce578460005260036020526119f360ff600c6040600020015416612a97565b8460005260036020526040600020611a146008600783015492015482612b16565b908115611bc45761271090818102918183041490151715611baf5790611a3991612c22565b610bb89081850291858305811486151715611b9a576064871115611b6257611a9b91611a8e91611a716107d05b612710809705612d6f565b90600092611b588111600014611b5257506109c319925050612d6f565b60009085611b4857612d6f565b91611aa587612d8b565b906103e891828102928184051490151715611b3457506020947fdfd82827a4d074a51145f27623314dcd4bfd0c3345240b4a2ac311b02b0ab72c9694611b1a611b158a967f6caba359401716ab4b75ed4c95934c00b69a7ba1e57eed590cd110ea9f16b5aa966060960590612d6f565b612ed0565b95604051928352878301526040820152a2604051908152a2005b634e487b7160e01b60009081526011600452fd5b6105dc9150612d6f565b1015612d6f576109c49150612d6f565b6014870287810560141488151715611b855791611a8e91611a71611a9b94611a66565b84634e487b7160e01b60005260116004526000fd5b83634e487b7160e01b60005260116004526000fd5b82634e487b7160e01b60005260116004526000fd5b5050611388611a39565b606490601e6040519162461bcd60e51b8352602060048401528201527f4f6e6c7920537761726d46756e6374696f6e732063616e2075706461746500006044820152fd5b34610229576080366003190112610229576004356001600160401b03811161022957611c4290369060040161286b565b6024356001600160401b03811161022957611c6190369060040161286b565b4260443511156120fc576103e8606435116120c05760085490611c8382612a88565b600855604051611c9281612768565b8281528360208201528160408201524260608201526044356080820152600060a0820152600060c0820152600060e08201526000610100820152600061012082015260006101408201523361016082015260643561018082015260016101a08201528260005260036020526040600020908051825560208101518051906001600160401b038211610f8a578190611d2c600186015461297c565b601f811161206d575b50602090601f8311600114611ffb57600092611ff0575b50508160011b916000199060031b1c19161760018301555b60408101518051906001600160401b038211610f8a57611d87600285015461297c565b601f8111611fa9575b509160209693918695938890601f8311600114611f055793600c6101a0611ee19585611ed49996611ec0967f52105760953315619bb79834bd5f30e171e178d6354e6ced3fc3ba13a79c6f509c9a600092611efa575b50508160011b916000199060031b1c19161760028501555b606081015160038501556080810151600485015560a08101516005850155611e5a60068501611e3f60c08401511515829060ff801983541691151516179055565b60e0830151815461ff00191690151560081b61ff0016179055565b610100810151600785015561012081015160088501556101408101516009850155600a840160018060a01b03610160830151166001600160601b0360a01b825416179055610180810151600b8501550151151591019060ff801983541691151516179055565b60405193849360808552608085019061290a565b908382038985015261290a565b60443560408301523360608301520390a2604051908152f35b015190508f80611de6565b9060028501600052896000209160005b601f1985168110611f8f57506101a0611ee195600186611ec0967f52105760953315619bb79834bd5f30e171e178d6354e6ced3fc3ba13a79c6f509c9a96600c96611ed49d9a601f19811610611f76575b505050811b016002850155611dfe565b015160001960f88460031b161c191690558f8080611f66565b8183015184558a9950600190930192918b01918b01611f15565b600285016000526020600020601f840160051c810160208510611fe9575b601f830160051c82018110611fdd575050611d90565b60008155600101611fc7565b5080611fc7565b015190508780611d4c565b9250600185016000526020600020906000935b601f1984168510612052576001945083601f19811610612039575b505050811b016001830155611d64565b015160001960f88460031b161c19169055878080612029565b8181015183556020948501946001909301929091019061200e565b909150600185016000526020600020601f840160051c8101602085106120b9575b90849392915b601f830160051c820181106120aa575050611d35565b60008155859450600101612094565b508061208e565b60405162461bcd60e51b8152602060048201526014602482015273086e4cac2e8dee440cccaca40e8dede40d0d2ced60631b6044820152606490fd5b60405162461bcd60e51b815260206004820152601e60248201527f456e642074696d65206d75737420626520696e207468652066757475726500006044820152606490fd5b34610229576000366003190112610229576020600954604051908152f35b34610229576040366003190112610229576024356001600160401b0381116102295761218f90369060040161280d565b7f00000000000000000000000000000000000000000000000000000000000000006001600160a01b031633819003612345575060043560005260116020526040600020549081600052600360205260406000209060068201549060ff82161580612337575b6121fa57005b600560205260406000209260009160009460009060008154915b8282106122b5575050505080511561229f577f6d4d544f5a6dcf38d77a232d3ef7358625c74877a1ad954fcb507872e7a05eaf9460099360018060208195015116148860005260056020526040600020541515600014612296575011935b61ff001990911661ffff199091161783151560081b61ff0016176006820155611538565b91505093612272565b634e487b7160e01b600052603260045260246000fd5b909192956122c38383612960565b509060018060a01b03825416600052600760205260ff60026122ef604060002054600386015490612c0f565b930154161561231e57816123096123159361230f93612b16565b98612b16565b92612a88565b90929192612214565b9698816123316123159361230f93612b16565b9a612b16565b5060ff600c840154166121f4565b6044906040519063073e64fd60e21b82523360048301526024820152fd5b346102295760603660031901126102295760043561237f612759565b9060443561238b612b9d565b612393612b7f565b81600052600360205260406000206123b160ff600c83015416612a97565b6123c060048201544210612ad7565b600a548210158061252f575b156124f557600d546040516323b872dd60e01b6020820152336024820152306044820152606480820185905281527f4af71b021e799c62c158bd54636ca8da2fa26115a21a2dc6efe486ec104fd15f936124c6939092600992612440916001600160a01b031661243b8261279f565b612b23565b856000526004602052604060002033600052602052604060002086815560018101336001600160601b0360a01b825416179055876000146124cf57600201612489848254612b16565b90556007810161249a848254612b16565b90555b016124a9828254612b16565b905560408051951515865260208601919091523394918291820190565b0390a360018055005b6003016124dd848254612b16565b9055600881016124ee848254612b16565b905561249d565b60405162461bcd60e51b8152602060048201526012602482015271125b9d985b1a590818995d08185b5bdd5b9d60721b6044820152606490fd5b50600b548211156123cc565b3461022957602036600319011261022957600435612557612a5c565b6103e8811161256557600955005b60405162461bcd60e51b815260206004820152600c60248201526b08ccaca40e8dede40d0d2ced60a31b6044820152606490fd5b3461022957606036600319011261022957601354600435906001600160a01b03163303612612578060005260036020526125dd60ff600c6040600020015416612a97565b7fc28e60afe9e0a9ad46ec94bfcbced22d60f2f02a15a4cac6f2012270da8d92a16040805160243581526044356020820152a2005b60405162461bcd60e51b815260206004820152601760248201527f4f6e6c7920537761726d434349502063616e2073796e630000000000000000006044820152606490fd5b34610229576000366003190112610229576012546040516001600160a01b039091168152602090f35b346102295760403660031901126102295761269961272d565b7f1b06338d0edf2ba8ccee31e466ab37b376418209af6a85c55c51e89a51e33bde60206126c4612759565b926126cd612a5c565b6001600160a01b031660008181526006835260409020805460ff191660ff8615151617905592808061271c575b61270a575b6040519015158152a2005b600782526113886040600020556126ff565b5060078252604060002054156126fa565b600435906001600160a01b038216820361022957565b602435906001600160a01b038216820361022957565b60243590811515820361022957565b6101c081019081106001600160401b03821117610f8a57604052565b60c081019081106001600160401b03821117610f8a57604052565b60a081019081106001600160401b03821117610f8a57604052565b606081019081106001600160401b03821117610f8a57604052565b90601f801991011681019081106001600160401b03821117610f8a57604052565b6001600160401b038111610f8a5760051b60200190565b81601f8201121561022957803591612824836127f6565b9261283260405194856127d5565b808452602092838086019260051b820101928311610229578301905b82821061285c575050505090565b8135815290830190830161284e565b81601f82011215610229578035906001600160401b038211610f8a576040519261289f601f8401601f1916602001856127d5565b8284526020838301011161022957816000926020809301838601378301015290565b906020600319830112610229576004356001600160401b039283821161022957806023830112156102295781600401359384116102295760248483010111610229576024019190565b919082519283825260005b848110612936575050826000602080949584010152601f8019910116010190565b602081830181015184830182015201612915565b6040906003190112610229576004359060243590565b805482101561229f576000526006602060002091020190600090565b90600182811c921680156129ac575b602083101461299657565b634e487b7160e01b600052602260045260246000fd5b91607f169161298b565b90604051918260008254926129ca8461297c565b908184526001948581169081600014612a3957506001146129f6575b50506129f4925003836127d5565b565b9093915060005260209081600020936000915b818310612a215750506129f4935082010138806129e6565b85548884018501529485019487945091830191612a09565b9150506129f494506020925060ff191682840152151560051b82010138806129e6565b6000546001600160a01b03163303612a7057565b60405163118cdaa760e01b8152336004820152602490fd5b6000198114610c2e5760010190565b15612a9e57565b60405162461bcd60e51b81526020600482015260116024820152704d61726b6574206e6f742061637469766560781b6044820152606490fd5b15612ade57565b60405162461bcd60e51b815260206004820152601060248201526f13585c9ad95d081a185cc8195b99195960821b6044820152606490fd5b91908201809211610c2e57565b906000602091828151910182855af11561176f576000513d612b7657506001600160a01b0381163b155b612b545750565b604051635274afe760e01b81526001600160a01b039091166004820152602490fd5b60011415612b4d565b60ff60025416612b8b57565b60405163d93c066560e01b8152600490fd5b600260015414612bae576002600155565b604051633ee5aeb560e01b8152600490fd5b60405163a9059cbb60e01b60208201526001600160a01b03909216602483015260448083019390935291815260808101916001600160401b03831182841017610f8a576129f492604052612b23565b81810292918115918404141715610c2e57565b8115612c2c570490565b634e487b7160e01b600052601260045260246000fd5b91908203918211610c2e57565b6000908152600360205260408120916004602052604082209060018060a01b0316825260205260408120600683015460ff8116158015612d4d575b612d465760078401549160ff600886015492612ca68486612b16565b5060081c16918215612d3f57835b8315612d375750915b15612d2d5760020154925b83158015612d25575b612d1d575092612710612d0e612d08612cf9612d1595612cf4612d1a9989612c0f565b612c22565b93600b60095491015490612b16565b83612c0f565b0492612b16565b612c42565b90565b935050505090565b508215612cd1565b6003015492612cc8565b905091612cbd565b8093612cb4565b5050905090565b5060ff600483015416612c8a565b805182101561229f5760209160051b010190565b91909160008382019384129112908015821691151617610c2e57565b6000908152602090600582526040908181209283548015612ec8579293908293839584935b828510612e1057505050505082158015600014612e0957612df557600160ff1b8214600019841416612de157500590565b634e487b7160e01b81526011600452602490fd5b634e487b7160e01b81526012600452602490fd5b5091505090565b909192939695612e208883612960565b509060018060a01b0382541687526007865260ff6002612e48868a2054600386015490612c0f565b9301541615612ebe57612710905b81830291888112600160ff1b851416612eaa57808305841490151715612e965791612309612e8792612e8d94612d6f565b97612a88565b93929190612db0565b634e487b7160e01b88526011600452602488fd5b634e487b7160e01b89526011600452602489fd5b61270f1990612e56565b505091505090565b61270f19808212612eea5750612710808213612eea575090565b905090565b611f408111612f2b576107d090818110612f23576117708111612f1a57610fa011612d1a5750600090565b50506107cf1990565b505061138890565b506113871990565b9067016345785d8a0000116130c657611f40811161307e576107d0811061303a576117708111612fef57610fa011612fa857604051612f71816127ba565b602181527f42616c616e636564206d61726b6574202d206e65757472616c206f75746c6f6f6020820152606b60f81b604082015290565b604051612fb4816127ba565b602581527f42656172697368207472656e64202d20736f6d6520737570706f7274206578706020820152641958dd195960da1b604082015290565b50604051612ffc816127ba565b602881527f42756c6c697368207472656e64202d20736f6d6520726573697374616e636520602082015267195e1c1958dd195960c21b604082015290565b50604051613047816127ba565b602181527f45787472656d656c792062656172697368202d20626f756e6365206c696b656c6020820152607960f81b604082015290565b5060405161308b816127ba565b602581527f45787472656d656c792062756c6c697368202d20636f7272656374696f6e206c602082015264696b656c7960d81b604082015290565b50604051604081018181106001600160401b03821117610f8a57604052601e81527f4c6f7720766f6c756d65202d20696e73756666696369656e7420646174610000602082015290565b600052600360205260406000206131306008600783015492015482612b16565b8015612f235761271091828102928184041490151715610c2e57612d1a91612c22565b60005260036020526040600020613130600860078301549201548092612b16565b91906000928352600360205260408320600860078201549101546131988183612b16565b9283156131f757156131d85750612710908181029181830414901517156131c457612d1a929350612c22565b634e487b7160e01b84526011600452602484fd5b612710808202925081159183041417156131c457612d1a929350612c22565b50611388945050505056fea26469706673582212202dc40812de9c01224b71c3791f64bcd48632e8a8972534d63428dd991aa4593364736f6c63430008140033",
  "linkReferences": {},
  "deployedLinkReferences": {}
}