{"contracts/core/PredictionMarket.sol":{"PredictionMarket":{"abi":[{"inputs":[{"internalType":"address","name":"_vrfCoordinator","type":"address"},{"internalType":"uint64","name":"_subscriptionId","type":"uint64"},{"internalType":"bytes32","name":"_keyHash","type":"bytes32"},{"internalType":"address","name":"_bettingToken","type":"address"},{"internalType":"address","name":"_feeRecipient","type":"address"}],"stateMutability":"nonpayable","type":"constructor"},{"inputs":[],"name":"EnforcedPause","type":"error"},{"inputs":[],"name":"ExpectedPause","type":"error"},{"inputs":[{"internalType":"address","name":"have","type":"address"},{"internalType":"address","name":"want","type":"address"}],"name":"OnlyCoordinatorCanFulfill","type":"error"},{"inputs":[{"internalType":"address","name":"owner","type":"address"}],"name":"OwnableInvalidOwner","type":"error"},{"inputs":[{"internalType":"address","name":"account","type":"address"}],"name":"OwnableUnauthorizedAccount","type":"error"},{"inputs":[],"name":"ReentrancyGuardReentrantCall","type":"error"},{"inputs":[{"internalType":"address","name":"token","type":"address"}],"name":"SafeERC20FailedOperation","type":"error"},{"anonymous":false,"inputs":[{"indexed":true,"internalType":"address","name":"agent","type":"address"},{"indexed":false,"internalType":"bool","name":"authorized","type":"bool"}],"name":"AgentAuthorized","type":"event"},{"anonymous":false,"inputs":[{"indexed":true,"internalType":"uint256","name":"marketId","type":"uint256"},{"indexed":true,"internalType":"address","name":"agent","type":"address"},{"indexed":false,"internalType":"bool","name":"prediction","type":"bool"},{"indexed":false,"internalType":"uint256","name":"confidence","type":"uint256"}],"name":"AgentPredictionSubmitted","type":"event"},{"anonymous":false,"inputs":[{"indexed":true,"internalType":"uint256","name":"marketId","type":"uint256"},{"indexed":true,"internalType":"address","name":"user","type":"address"},{"indexed":false,"internalType":"bool","name":"side","type":"bool"},{"indexed":false,"internalType":"uint256","name":"amount","type":"uint256"}],"name":"BetPlaced","type":"event"},{"anonymous":false,"inputs":[{"indexed":true,"internalType":"uint256","name":"marketId","type":"uint256"},{"indexed":false,"internalType":"uint256","name":"totalVolume","type":"uint256"},{"indexed":false,"internalType":"uint256","name":"avgPrice","type":"uint256"}],"name":"CrossChainSyncReceived","type":"event"},{"anonymous":false,"inputs":[{"indexed":true,"internalType":"uint256","name":"marketId","type":"uint256"},{"indexed":false,"internalType":"int256","name":"sentiment","type":"int256"},{"indexed":false,"internalType":"uint256","name":"volume","type":"uint256"},{"indexed":false,"internalType":"uint256","name":"price","type":"uint256"}],"name":"ExternalDataUpdated","type":"event"},{"anonymous":false,"inputs":[{"indexed":true,"internalType":"uint256","name":"marketId","type":"uint256"},{"indexed":false,"internalType":"string","name":"question","type":"string"},{"indexed":false,"internalType":"string","name":"category","type":"string"},{"indexed":false,"internalType":"uint256","name":"endTime","type":"uint256"},{"indexed":false,"internalType":"address","name":"creator","type":"address"}],"name":"MarketCreated","type":"event"},{"anonymous":false,"inputs":[{"indexed":true,"internalType":"uint256","name":"marketId","type":"uint256"}],"name":"MarketPaused","type":"event"},{"anonymous":false,"inputs":[{"indexed":true,"internalType":"uint256","name":"marketId","type":"uint256"},{"indexed":false,"internalType":"bool","name":"outcome","type":"bool"},{"indexed":false,"internalType":"uint256","name":"totalVolume","type":"uint256"}],"name":"MarketResolved","type":"event"},{"anonymous":false,"inputs":[{"indexed":true,"internalType":"address","name":"previousOwner","type":"address"},{"indexed":true,"internalType":"address","name":"newOwner","type":"address"}],"name":"OwnershipTransferred","type":"event"},{"anonymous":false,"inputs":[{"indexed":false,"internalType":"address","name":"account","type":"address"}],"name":"Paused","type":"event"},{"anonymous":false,"inputs":[{"indexed":true,"internalType":"uint256","name":"marketId","type":"uint256"},{"indexed":false,"internalType":"int256","name":"predictionScore","type":"int256"}],"name":"PredictionScoreUpdated","type":"event"},{"anonymous":false,"inputs":[{"indexed":false,"internalType":"address","name":"account","type":"address"}],"name":"Unpaused","type":"event"},{"anonymous":false,"inputs":[{"indexed":true,"internalType":"uint256","name":"marketId","type":"uint256"},{"indexed":true,"internalType":"address","name":"user","type":"address"},{"indexed":false,"internalType":"uint256","name":"amount","type":"uint256"}],"name":"WinningsClaimed","type":"event"},{"inputs":[{"internalType":"uint256","name":"","type":"uint256"},{"internalType":"uint256","name":"","type":"uint256"}],"name":"agentPredictions","outputs":[{"internalType":"address","name":"agent","type":"address"},{"internalType":"uint256","name":"marketId","type":"uint256"},{"internalType":"bool","name":"prediction","type":"bool"},{"internalType":"uint256","name":"confidence","type":"uint256"},{"internalType":"uint256","name":"timestamp","type":"uint256"},{"internalType":"string","name":"reasoning","type":"string"}],"stateMutability":"view","type":"function"},{"inputs":[{"internalType":"address","name":"","type":"address"}],"name":"agentReputation","outputs":[{"internalType":"uint256","name":"","type":"uint256"}],"stateMutability":"view","type":"function"},{"inputs":[{"internalType":"address","name":"","type":"address"}],"name":"authorizedAgents","outputs":[{"internalType":"bool","name":"","type":"bool"}],"stateMutability":"view","type":"function"},{"inputs":[],"name":"bettingToken","outputs":[{"internalType":"contract IERC20","name":"","type":"address"}],"stateMutability":"view","type":"function"},{"inputs":[{"internalType":"uint256","name":"_marketId","type":"uint256"},{"internalType":"address","name":"_user","type":"address"}],"name":"calculateWinnings","outputs":[{"internalType":"uint256","name":"","type":"uint256"}],"stateMutability":"view","type":"function"},{"inputs":[{"internalType":"bytes","name":"","type":"bytes"}],"name":"checkUpkeep","outputs":[{"internalType":"bool","name":"upkeepNeeded","type":"bool"},{"internalType":"bytes","name":"performData","type":"bytes"}],"stateMutability":"view","type":"function"},{"inputs":[{"internalType":"uint256","name":"_marketId","type":"uint256"}],"name":"claimWinnings","outputs":[],"stateMutability":"nonpayable","type":"function"},{"inputs":[{"internalType":"string","name":"_question","type":"string"},{"internalType":"string","name":"_category","type":"string"},{"internalType":"uint256","name":"_endTime","type":"uint256"},{"internalType":"uint256","name":"_creatorFee","type":"uint256"}],"name":"createMarket","outputs":[{"internalType":"uint256","name":"","type":"uint256"}],"stateMutability":"nonpayable","type":"function"},{"inputs":[],"name":"feeRecipient","outputs":[{"internalType":"address","name":"","type":"address"}],"stateMutability":"view","type":"function"},{"inputs":[{"internalType":"uint256","name":"_marketId","type":"uint256"}],"name":"getAgentPredictions","outputs":[{"components":[{"internalType":"address","name":"agent","type":"address"},{"internalType":"uint256","name":"marketId","type":"uint256"},{"internalType":"bool","name":"prediction","type":"bool"},{"internalType":"uint256","name":"confidence","type":"uint256"},{"internalType":"uint256","name":"timestamp","type":"uint256"},{"internalType":"string","name":"reasoning","type":"string"}],"internalType":"struct PredictionMarket.AgentPrediction[]","name":"","type":"tuple[]"}],"stateMutability":"view","type":"function"},{"inputs":[{"internalType":"uint256","name":"_marketId","type":"uint256"}],"name":"getMarket","outputs":[{"components":[{"internalType":"uint256","name":"id","type":"uint256"},{"internalType":"string","name":"question","type":"string"},{"internalType":"string","name":"category","type":"string"},{"internalType":"uint256","name":"createdAt","type":"uint256"},{"internalType":"uint256","name":"endTime","type":"uint256"},{"internalType":"uint256","name":"resolutionTime","type":"uint256"},{"internalType":"bool","name":"resolved","type":"bool"},{"internalType":"bool","name":"outcome","type":"bool"},{"internalType":"uint256","name":"totalYesAmount","type":"uint256"},{"internalType":"uint256","name":"totalNoAmount","type":"uint256"},{"internalType":"uint256","name":"totalVolume","type":"uint256"},{"internalType":"address","name":"creator","type":"address"},{"internalType":"uint256","name":"creatorFee","type":"uint256"},{"internalType":"bool","name":"active","type":"bool"}],"internalType":"struct PredictionMarket.Market","name":"","type":"tuple"}],"stateMutability":"view","type":"function"},{"inputs":[{"internalType":"uint256","name":"_marketId","type":"uint256"}],"name":"getMarketStats","outputs":[{"internalType":"uint256","name":"totalVolume","type":"uint256"},{"internalType":"uint256","name":"yesVolume","type":"uint256"},{"internalType":"uint256","name":"noVolume","type":"uint256"},{"internalType":"uint256","name":"currentYesPrice","type":"uint256"},{"internalType":"uint256","name":"currentNoPrice","type":"uint256"}],"stateMutability":"view","type":"function"},{"inputs":[{"internalType":"uint256","name":"_marketId","type":"uint256"}],"name":"getMathematicalPrediction","outputs":[{"internalType":"int256","name":"predictionScore","type":"int256"},{"internalType":"uint256","name":"confidence","type":"uint256"},{"internalType":"string","name":"reasoning","type":"string"}],"stateMutability":"view","type":"function"},{"inputs":[{"internalType":"uint256","name":"_marketId","type":"uint256"},{"internalType":"address","name":"_user","type":"address"}],"name":"getPosition","outputs":[{"components":[{"internalType":"uint256","name":"marketId","type":"uint256"},{"internalType":"address","name":"user","type":"address"},{"internalType":"uint256","name":"yesAmount","type":"uint256"},{"internalType":"uint256","name":"noAmount","type":"uint256"},{"internalType":"bool","name":"claimed","type":"bool"}],"internalType":"struct PredictionMarket.Position","name":"","type":"tuple"}],"stateMutability":"view","type":"function"},{"inputs":[{"internalType":"uint256","name":"_marketId","type":"uint256"},{"internalType":"bool","name":"_side","type":"bool"}],"name":"getPrice","outputs":[{"internalType":"uint256","name":"","type":"uint256"}],"stateMutability":"view","type":"function"},{"inputs":[{"internalType":"uint256","name":"","type":"uint256"}],"name":"markets","outputs":[{"internalType":"uint256","name":"id","type":"uint256"},{"internalType":"string","name":"question","type":"string"},{"internalType":"string","name":"category","type":"string"},{"internalType":"uint256","name":"createdAt","type":"uint256"},{"internalType":"uint256","name":"endTime","type":"uint256"},{"internalType":"uint256","name":"resolutionTime","type":"uint256"},{"internalType":"bool","name":"resolved","type":"bool"},{"internalType":"bool","name":"outcome","type":"bool"},{"internalType":"uint256","name":"totalYesAmount","type":"uint256"},{"internalType":"uint256","name":"totalNoAmount","type":"uint256"},{"internalType":"uint256","name":"totalVolume","type":"uint256"},{"internalType":"address","name":"creator","type":"address"},{"internalType":"uint256","name":"creatorFee","type":"uint256"},{"internalType":"bool","name":"active","type":"bool"}],"stateMutability":"view","type":"function"},{"inputs":[],"name":"maxBetAmount","outputs":[{"internalType":"uint256","name":"","type":"uint256"}],"stateMutability":"view","type":"function"},{"inputs":[],"name":"minBetAmount","outputs":[{"internalType":"uint256","name":"","type":"uint256"}],"stateMutability":"view","type":"function"},{"inputs":[],"name":"nextMarketId","outputs":[{"internalType":"uint256","name":"","type":"uint256"}],"stateMutability":"view","type":"function"},{"inputs":[],"name":"owner","outputs":[{"internalType":"address","name":"","type":"address"}],"stateMutability":"view","type":"function"},{"inputs":[],"name":"pause","outputs":[],"stateMutability":"nonpayable","type":"function"},{"inputs":[{"internalType":"uint256","name":"_marketId","type":"uint256"}],"name":"pauseMarket","outputs":[],"stateMutability":"nonpayable","type":"function"},{"inputs":[],"name":"paused","outputs":[{"internalType":"bool","name":"","type":"bool"}],"stateMutability":"view","type":"function"},{"inputs":[{"internalType":"bytes","name":"performData","type":"bytes"}],"name":"performUpkeep","outputs":[],"stateMutability":"nonpayable","type":"function"},{"inputs":[{"internalType":"uint256","name":"_marketId","type":"uint256"},{"internalType":"bool","name":"_side","type":"bool"},{"internalType":"uint256","name":"_amount","type":"uint256"}],"name":"placeBet","outputs":[],"stateMutability":"nonpayable","type":"function"},{"inputs":[],"name":"platformFee","outputs":[{"internalType":"uint256","name":"","type":"uint256"}],"stateMutability":"view","type":"function"},{"inputs":[{"internalType":"uint256","name":"","type":"uint256"},{"internalType":"address","name":"","type":"address"}],"name":"positions","outputs":[{"internalType":"uint256","name":"marketId","type":"uint256"},{"internalType":"address","name":"user","type":"address"},{"internalType":"uint256","name":"yesAmount","type":"uint256"},{"internalType":"uint256","name":"noAmount","type":"uint256"},{"internalType":"bool","name":"claimed","type":"bool"}],"stateMutability":"view","type":"function"},{"inputs":[{"internalType":"uint256","name":"requestId","type":"uint256"},{"internalType":"uint256[]","name":"randomWords","type":"uint256[]"}],"name":"rawFulfillRandomWords","outputs":[],"stateMutability":"nonpayable","type":"function"},{"inputs":[],"name":"renounceOwnership","outputs":[],"stateMutability":"nonpayable","type":"function"},{"inputs":[{"internalType":"uint256","name":"_marketId","type":"uint256"},{"internalType":"bool","name":"_outcome","type":"bool"}],"name":"resolveMarket","outputs":[],"stateMutability":"nonpayable","type":"function"},{"inputs":[{"internalType":"address","name":"_agent","type":"address"},{"internalType":"bool","name":"_authorized","type":"bool"}],"name":"setAgentAuthorization","outputs":[],"stateMutability":"nonpayable","type":"function"},{"inputs":[{"internalType":"uint256","name":"_minAmount","type":"uint256"},{"internalType":"uint256","name":"_maxAmount","type":"uint256"}],"name":"setBettingLimits","outputs":[],"stateMutability":"nonpayable","type":"function"},{"inputs":[{"internalType":"uint256","name":"_fee","type":"uint256"}],"name":"setPlatformFee","outputs":[],"stateMutability":"nonpayable","type":"function"},{"inputs":[{"internalType":"address","name":"_ccipContract","type":"address"}],"name":"setSwarmCCIPContract","outputs":[],"stateMutability":"nonpayable","type":"function"},{"inputs":[{"internalType":"address","name":"_functionsContract","type":"address"}],"name":"setSwarmFunctionsContract","outputs":[],"stateMutability":"nonpayable","type":"function"},{"inputs":[{"internalType":"uint256","name":"_marketId","type":"uint256"},{"internalType":"bool","name":"_prediction","type":"bool"},{"internalType":"uint256","name":"_confidence","type":"uint256"},{"internalType":"string","name":"_reasoning","type":"string"}],"name":"submitAgentPrediction","outputs":[],"stateMutability":"nonpayable","type":"function"},{"inputs":[],"name":"swarmCCIPContract","outputs":[{"internalType":"address","name":"","type":"address"}],"stateMutability":"view","type":"function"},{"inputs":[],"name":"swarmFunctionsContract","outputs":[{"internalType":"address","name":"","type":"address"}],"stateMutability":"view","type":"function"},{"inputs":[{"internalType":"uint256","name":"_marketId","type":"uint256"},{"internalType":"uint256","name":"_totalVolume","type":"uint256"},{"internalType":"uint256","name":"_avgPrice","type":"uint256"}],"name":"syncFromCrossChain","outputs":[],"stateMutability":"nonpayable","type":"function"},{"inputs":[{"internalType":"address","name":"newOwner","type":"address"}],"name":"transferOwnership","outputs":[],"stateMutability":"nonpayable","type":"function"},{"inputs":[],"name":"unpause","outputs":[],"stateMutability":"nonpayable","type":"function"},{"inputs":[{"internalType":"address","name":"_agent","type":"address"},{"internalType":"uint256","name":"_newReputation","type":"uint256"}],"name":"updateAgentReputation","outputs":[],"stateMutability":"nonpayable","type":"function"},{"inputs":[{"internalType":"uint256","name":"_marketId","type":"uint256"},{"internalType":"int256","name":"sentiment","type":"int256"},{"internalType":"uint256","name":"volume","type":"uint256"},{"internalType":"uint256","name":"price","type":"uint256"}],"name":"updateMarketWithExternalData","outputs":[],"stateMutability":"nonpayable","type":"function"},{"inputs":[],"name":"withdrawFees","outputs":[],"stateMutability":"nonpayable","type":"function"}],"evm":{"bytecode":{"linkReferences":{},"object":"60a03462000183576001600160401b0390601f620033ec38819003918201601f191683019184831184841017620001885780849260a09460405283398101031262000183576200004f816200019e565b9160208201519081168103620001835760408201519162000081608062000079606084016200019e565b92016200019e565b9033156200016a576000549060018060a01b03199433868416176000556040519660018060a01b03958694853391167f8be0079c531659141344cd1fd0a4f28419497f9722a3daafe3b4186f6b6457e0600080a36001805581608052600160085560fa600955662386f26fc10000600a55683635c9adc5dea00000600b5566010003000186a060018060501b0319601054161760105584600e5491600160a01b600160e01b039060a01b1692169063ffffffff60e01b161717600e55600f551683600d541617600d551690600c541617600c556132389081620001b48239608051816121910152f35b604051631e4fbdf760e01b815260006004820152602490fd5b600080fd5b634e487b7160e01b600052604160045260246000fd5b51906001600160a01b0382168203620001835756fe6080604052600436101561001257600080fd5b60003560e01c80630911e8641461268057806310cfa3ef1461265757806311c3c0241461259957806312e8e2c31461253b5780631a38cac6146123635780631fe543e31461215f57806326232a2e1461214157806339b6ee1914611c125780633a3d3d35146119a15780633f4ba83a14611937578063406ef2ef1461191957806342b22323146118d657806343425e88146118ad5780634585e33b146117a4578063469048401461177b578063476343ee1461163657806354de6e32146115fc5780635705b61a146115d657806357bde4461461149c57806358057fe5146114335780635c975abb14611410578063677bd9ff146112565780636e04ff0d14611099578063715018a6146110405780637d7bdec014610cc15780638456cb5914610c675780638905aa8914610b215780638da5cb5b14610af85780638e6bf35b146109955780639259b27414610913578063a108ce5f146108f4578063a136effe1461085e578063b1283e771461075d578063cab11d5d1461073f578063cf86d579146106fc578063d29f541d14610627578063e684d718146105ad578063eb44fdd31461039e578063efd760651461035f578063f15cc40614610331578063f2fde38b146102a8578063fa968eea1461028a578063fc12524c1461022e5763fdd91baf1461020057600080fd5b34610229576000366003190112610229576013546040516001600160a01b039091168152602090f35b600080fd5b346102295760203660031901126102295760043561024a612a5c565b806000526003602052600c60406000200160ff1981541690557f0b939016779c3297135b58aed6d343cf103faf818ea07a7c5f87b03a9bd87297600080a2005b34610229576000366003190112610229576020600a54604051908152f35b34610229576020366003190112610229576102c161272d565b6102c9612a5c565b6001600160a01b0390811690811561031857600054826001600160601b0360a01b821617600055167f8be0079c531659141344cd1fd0a4f28419497f9722a3daafe3b4186f6b6457e0600080a3005b604051631e4fbdf760e01b815260006004820152602490fd5b3461022957604036600319011261022957602061035761034f612743565b600435612c4f565b604051908152f35b34610229576020366003190112610229576001600160a01b0361038061272d565b166000526006602052602060ff604060002054166040519015158152f35b346102295760203660031901126102295760006101a06040516103c081612768565b82815260606020820152606060408201528260608201528260808201528260a08201528260c08201528260e0820152826101008201528261012082015282610140820152826101608201528261018082015201526004356000526003602052604060002060ff600c6040519261043584612768565b80548452610445600182016129b6565b6020850152610456600282016129b6565b60408501526003810154606085015260048101546080850152600581015460a0850152826006820154818116151560c087015260081c16151560e085015260078101546101008501526008810154610120850152600981015461014085015260018060a01b03600a82015416610160850152600b81015461018085015201541615156101a0820152604051809160208252805160208301526101a061052561050f60208401516101c060408701526101e086019061290a565b6040840151858203601f1901606087015261290a565b9160608101516080850152608081015160a085015260a081015160c085015260c0810151151560e085015260e0810151151561010085015261010081015161012085015261012081015161014085015261014081015161016085015260018060a01b036101608201511661018085015261018081015182850152015115156101c08301520390f35b346102295760403660031901126102295760a06105c8612743565b60043560005260046020526040600020600180841b03809216600052602052604060002080549160018201541690600281015460ff60046003840154930154169260405194855260208501526040840152606083015215156080820152f35b346102295760403660031901126102295760a0610642612743565b600060806040516106528161279f565b828152826020820152826040820152826060820152015260043560005260046020526040600020600180841b0380921660005260205260406000206040519061069a8261279f565b80549283835280600183015416906020840191825260028301549160408501928352608060ff60046003870154966060890197885201541695019415158552604051958652511660208501525160408401525160608301525115156080820152f35b346102295760203660031901126102295761071561272d565b61071d612a5c565b601280546001600160a01b0319166001600160a01b0392909216919091179055005b34610229576000366003190112610229576020600b54604051908152f35b34610229576020366003190112610229576004356000526003602052604060002080546001820161078d906129b6565b9161079a600282016129b6565b6003820154916004810154600582015460068301546007840154600885015491600986015493600160a01b60019003600a8801541695600b88015497600c015460ff16986040519c8d9c8d528c6101c06020819201528d016107fb9161290a565b8c810360408e015261080c9161290a565b9960608c015260808b015260a08a015260ff8116151560c08a015260081c60ff16151560e089015261010088015261012087015261014086015261016085015261018084015215156101a08301520390f35b346102295761086c3661294a565b90600052600560205260406000209081548110156102295761088d91612960565b5060018060a01b038154166108f060018301549260ff6002820154169060038101546108c06005600484015493016129b6565b9260405196879687526020870152151560408601526060850152608084015260c060a084015260c083019061290a565b0390f35b34610229576109023661294a565b9061090b612a5c565b600a55600b55005b346102295760403660031901126102295761092c61272d565b60243590610938612a5c565b612710821161095b576001600160a01b0316600090815260076020526040902055005b60405162461bcd60e51b815260206004820152601260248201527124b73b30b634b2103932b83aba30ba34b7b760711b6044820152606490fd5b34610229576020806003193601126102295760043560005260059081815260406000208054916109c4836127f6565b926109d260405194856127d5565b8084528184018093600052826000206000915b838310610a8c5750505050604051928184019082855251809152604081818601961b85010192916000955b828710610a1d5785850386f35b909192938280610a7c600193603f198a82030186528851858060a01b0381511682528381015184830152604081015115156040830152606080820151908301526080808201519083015260a0809101519160c08092820152019061290a565b9601920196019592919092610a10565b600685600192604099979951610aa181612784565b848060a01b038654168152848601548382015260ff600287015416151560408201526003860154606082015260048601546080820152610ae28c87016129b6565b60a08201528152019201920191909593956109e5565b34610229576000366003190112610229576000546040516001600160a01b039091168152602090f35b3461022957602036600319011261022957600435806000526003602052604060002090610b5460ff600c84015416612a97565b610b676008600784015493015483612b16565b80159283610c5d5761271090818102918183041490151715610c2e5781610b8d91612c22565b925b610b9884612eef565b92600052600560205260406000205490670de0b6b3a764000090818411600014610c44575050611388905b6005811115610c0857506108f091610be1610bea9261138890612b16565b60011c94612f33565b6040519384938452602084015260606040840152606083019061290a565b916103e892838102938185041490151715610c2e57610be1610bea926108f09490612b16565b634e487b7160e01b600052601160045260246000fd5b6113889081850291858304141715610c2e570490610bc3565b5061138892610b8f565b3461022957600036600319011261022957610c80612a5c565b610c88612b7f565b600160ff1960025416176002557f62e78cea01bee320cd4e420270b5ea74000d11b0c9f74754ebdbfc544b05a2586020604051338152a1005b3461022957608036600319011261022957600435610cdd612759565b906001600160401b0360443560643582811161022957610d0190369060040161286b565b336000526020926006845260ff6040600020541615610ffb578460005260038452610d3660ff600c6040600020015416612a97565b8460005260038452610d516004604060002001544210612ad7565b6127108311610fb65784600052600584526040600020604051610d7381612784565b338152858101908782526040810190891515825260608101878152608082019142835260a08101978852855468010000000000000000811015610f8a57610dc1906001978882018155612960565b949094610fa057600595610e079260018060a01b039051166001600160601b0360a01b8754161786555187860155511515600285019060ff801983541691151516179055565b516003830155516004820155019251948551928311610f8a57610e2a845461297c565b601f8111610f41575b5080601f8411600114610eb2575091808092610ea29695947f22ba00c7a927fe8ff7a3feb6f006712ec7adb8e2006183b6f9e437f45fdc030c98600094610ea7575b50501b916000199060031b1c19161790555b60408051951515865260208601919091523394918291820190565b0390a3005b015192508a80610e75565b91939495601f1984168660005283600020936000905b828210610f2a575050917f22ba00c7a927fe8ff7a3feb6f006712ec7adb8e2006183b6f9e437f45fdc030c9795939185610ea298969410610f11575b505050811b019055610e87565b015160001960f88460031b161c19169055888080610f04565b808886978294978701518155019601940190610ec8565b8460005281600020601f850160051c810191838610610f80575b601f0160051c019083905b828110610f74575050610e33565b60008155018390610f66565b9091508190610f5b565b634e487b7160e01b600052604160045260246000fd5b634e487b7160e01b600052600060045260246000fd5b60405162461bcd60e51b815260048101859052601860248201527f496e76616c696420636f6e666964656e6365206c6576656c00000000000000006044820152606490fd5b60405162461bcd60e51b815260048101859052601760248201527f4e6f7420616e20617574686f72697a6564206167656e740000000000000000006044820152606490fd5b3461022957600036600319011261022957611059612a5c565b600080546001600160a01b0319811682556001600160a01b03167f8be0079c531659141344cd1fd0a4f28419497f9722a3daafe3b4186f6b6457e08280a3005b34610229576110a7366128c1565b5050604051610ca081018181106001600160401b03821117610f8a57604052606490818152602091610c803684840137600091600191829083600854905b6111b9575b5050506110f6836127f6565b9061110460405192836127d5565b838252611110846127f6565b9185810191601f1980940136843760005b86811061118f57505060405193604085019187808701525180925260608501929160005b8882821061117c57886108f0896111648a828b039081018352826127d5565b6040805194859415158552840152604083019061290a565b8451865294850194909301928201611145565b806111a06111b19284989598612d5b565b516111ab8289612d5b565b52612a88565b949194611121565b8083969593108061124d575b15611244578560005260038752604060002060ff9081600c820154169182611235575b5081611226575b50611209575b61120183949596612a88565b9294936110e5565b61120161121d86886111ab88998899612d5b565b959450506111f5565b600491500154421015886111ef565b600682015416159150896111e8565b829495506110ea565b508185106111c5565b346102295760208060031936011261022957600435611273612b9d565b806000526003825260406000209160048152604060002033600052815260ff6006604060002094015416156113d6576004830180549360ff851661139f5760028101541590811591611391575b501561135e576112d03384612c4f565b93841561132b5760ff19166001179055600d547f5380cf6fe903b40c6d5a9e0dfbca2f3a423f0a21520b4d5947ed5169bdba946d919061131c90859033906001600160a01b0316612bc0565b6040519384523393a360018055005b60405162461bcd60e51b815260048101849052600b60248201526a4e6f2077696e6e696e677360a81b6044820152606490fd5b60405162461bcd60e51b815260048101839052600b60248201526a2737903837b9b4ba34b7b760a91b6044820152606490fd5b6003915001541515856112c0565b60405162461bcd60e51b815260048101849052600f60248201526e105b1c9958591e4818db185a5b5959608a1b6044820152606490fd5b6064906040519062461bcd60e51b82526004820152601360248201527213585c9ad95d081b9bdd081c995cdbdb1d9959606a1b6044820152fd5b3461022957600036600319011261022957602060ff600254166040519015158152f35b346102295760203660031901126102295760a06004358060005260036020526040600020600860078201549101549161146c8383612b16565b9261147f61147983613110565b92613153565b926040519485526020850152604084015260608301526080820152f35b34610229576040366003190112610229576004356114b8612759565b6114c0612a5c565b8160005260036020526040600020906114df60ff600c84015416612a97565b6004820154421061159a57600682019182549060ff82166115555761ffff1990911682151560081b61ff0016176001179092557f6d4d544f5a6dcf38d77a232d3ef7358625c74877a1ad954fcb507872e7a05eaf916009905b4260058201550154604080519215158352602083019190915290a2005b60405162461bcd60e51b815260206004820152601760248201527f4d61726b657420616c7265616479207265736f6c7665640000000000000000006044820152606490fd5b60405162461bcd60e51b815260206004820152601460248201527313585c9ad95d081a185cc81b9bdd08195b99195960621b6044820152606490fd5b346102295760403660031901126102295760206103576115f4612759565b600435613174565b34610229576020366003190112610229576001600160a01b0361161d61272d565b1660005260076020526020604060002054604051908152f35b346102295760003660031901126102295761164f612a5c565b600d546040516370a0823160e01b81523060048201526001600160a01b039182169060208082602481865afa91821561176f57600092611740575b506000906001906008908154925b8381106116d75750505050808211156116cd576116b491612c42565b905b816116bd57005b6116cb92600c541690612bc0565b005b50506000906116b6565b8060005260038252604060002060ff80600c830154169081611731575b50611709575b5061170490612a88565b611698565b61170491956117248286600761172a95015491015490612b16565b90612b16565b94906116fa565b9050600682015416158a6116f4565b9080925081813d8311611768575b61175881836127d5565b810103126102295751908461168a565b503d61174e565b6040513d6000823e3d90fd5b3461022957600036600319011261022957600c546040516001600160a01b039091168152602090f35b34610229576117b2366128c1565b81016020918281830312610229576001600160401b03918135838111610229576117dc920161280d565b9060005b82518110156116cb576117f38184612d5b565b5190600e549185600f5460a460105491600060405197889485936305d3b1d360e41b855260048501528a8260a01c16602485015261ffff81881c16604485015263ffffffff90818116606486015260301c16608484015260018060a01b03165af1801561176f5760009061187e575b611879935060005260118652604060002055612a88565b6117e0565b508583813d83116118a6575b61189481836127d5565b81010312610229576118799251611862565b503d61188a565b3461022957600036600319011261022957600d546040516001600160a01b039091168152602090f35b34610229576020366003190112610229576118ef61272d565b6118f7612a5c565b601380546001600160a01b0319166001600160a01b0392909216919091179055005b34610229576000366003190112610229576020600854604051908152f35b3461022957600036600319011261022957611950612a5c565b60025460ff81161561198f5760ff19166002557f5db9ee0a495bf2e6ff9c91a7834c1ba4fdd244a5e8aa4e537bd38aeae4b073aa6020604051338152a1005b604051638dfc202b60e01b8152600490fd5b34610229576080366003190112610229576012546004359060443590602480359160643591906001600160a01b03163303611bce578460005260036020526119f360ff600c6040600020015416612a97565b8460005260036020526040600020611a146008600783015492015482612b16565b908115611bc45761271090818102918183041490151715611baf5790611a3991612c22565b610bb89081850291858305811486151715611b9a576064871115611b6257611a9b91611a8e91611a716107d05b612710809705612d6f565b90600092611b588111600014611b5257506109c319925050612d6f565b60009085611b4857612d6f565b91611aa587612d8b565b906103e891828102928184051490151715611b3457506020947fdfd82827a4d074a51145f27623314dcd4bfd0c3345240b4a2ac311b02b0ab72c9694611b1a611b158a967f6caba359401716ab4b75ed4c95934c00b69a7ba1e57eed590cd110ea9f16b5aa966060960590612d6f565b612ed0565b95604051928352878301526040820152a2604051908152a2005b634e487b7160e01b60009081526011600452fd5b6105dc9150612d6f565b1015612d6f576109c49150612d6f565b6014870287810560141488151715611b855791611a8e91611a71611a9b94611a66565b84634e487b7160e01b60005260116004526000fd5b83634e487b7160e01b60005260116004526000fd5b82634e487b7160e01b60005260116004526000fd5b5050611388611a39565b606490601e6040519162461bcd60e51b8352602060048401528201527f4f6e6c7920537761726d46756e6374696f6e732063616e2075706461746500006044820152fd5b34610229576080366003190112610229576004356001600160401b03811161022957611c4290369060040161286b565b6024356001600160401b03811161022957611c6190369060040161286b565b4260443511156120fc576103e8606435116120c05760085490611c8382612a88565b600855604051611c9281612768565b8281528360208201528160408201524260608201526044356080820152600060a0820152600060c0820152600060e08201526000610100820152600061012082015260006101408201523361016082015260643561018082015260016101a08201528260005260036020526040600020908051825560208101518051906001600160401b038211610f8a578190611d2c600186015461297c565b601f811161206d575b50602090601f8311600114611ffb57600092611ff0575b50508160011b916000199060031b1c19161760018301555b60408101518051906001600160401b038211610f8a57611d87600285015461297c565b601f8111611fa9575b509160209693918695938890601f8311600114611f055793600c6101a0611ee19585611ed49996611ec0967f52105760953315619bb79834bd5f30e171e178d6354e6ced3fc3ba13a79c6f509c9a600092611efa575b50508160011b916000199060031b1c19161760028501555b606081015160038501556080810151600485015560a08101516005850155611e5a60068501611e3f60c08401511515829060ff801983541691151516179055565b60e0830151815461ff00191690151560081b61ff0016179055565b610100810151600785015561012081015160088501556101408101516009850155600a840160018060a01b03610160830151166001600160601b0360a01b825416179055610180810151600b8501550151151591019060ff801983541691151516179055565b60405193849360808552608085019061290a565b908382038985015261290a565b60443560408301523360608301520390a2604051908152f35b015190508f80611de6565b9060028501600052896000209160005b601f1985168110611f8f57506101a0611ee195600186611ec0967f52105760953315619bb79834bd5f30e171e178d6354e6ced3fc3ba13a79c6f509c9a96600c96611ed49d9a601f19811610611f76575b505050811b016002850155611dfe565b015160001960f88460031b161c191690558f8080611f66565b8183015184558a9950600190930192918b01918b01611f15565b600285016000526020600020601f840160051c810160208510611fe9575b601f830160051c82018110611fdd575050611d90565b60008155600101611fc7565b5080611fc7565b015190508780611d4c565b9250600185016000526020600020906000935b601f1984168510612052576001945083601f19811610612039575b505050811b016001830155611d64565b015160001960f88460031b161c19169055878080612029565b8181015183556020948501946001909301929091019061200e565b909150600185016000526020600020601f840160051c8101602085106120b9575b90849392915b601f830160051c820181106120aa575050611d35565b60008155859450600101612094565b508061208e565b60405162461bcd60e51b8152602060048201526014602482015273086e4cac2e8dee440cccaca40e8dede40d0d2ced60631b6044820152606490fd5b60405162461bcd60e51b815260206004820152601e60248201527f456e642074696d65206d75737420626520696e207468652066757475726500006044820152606490fd5b34610229576000366003190112610229576020600954604051908152f35b34610229576040366003190112610229576024356001600160401b0381116102295761218f90369060040161280d565b7f00000000000000000000000000000000000000000000000000000000000000006001600160a01b031633819003612345575060043560005260116020526040600020549081600052600360205260406000209060068201549060ff82161580612337575b6121fa57005b600560205260406000209260009160009460009060008154915b8282106122b5575050505080511561229f577f6d4d544f5a6dcf38d77a232d3ef7358625c74877a1ad954fcb507872e7a05eaf9460099360018060208195015116148860005260056020526040600020541515600014612296575011935b61ff001990911661ffff199091161783151560081b61ff0016176006820155611538565b91505093612272565b634e487b7160e01b600052603260045260246000fd5b909192956122c38383612960565b509060018060a01b03825416600052600760205260ff60026122ef604060002054600386015490612c0f565b930154161561231e57816123096123159361230f93612b16565b98612b16565b92612a88565b90929192612214565b9698816123316123159361230f93612b16565b9a612b16565b5060ff600c840154166121f4565b6044906040519063073e64fd60e21b82523360048301526024820152fd5b346102295760603660031901126102295760043561237f612759565b9060443561238b612b9d565b612393612b7f565b81600052600360205260406000206123b160ff600c83015416612a97565b6123c060048201544210612ad7565b600a548210158061252f575b156124f557600d546040516323b872dd60e01b6020820152336024820152306044820152606480820185905281527f4af71b021e799c62c158bd54636ca8da2fa26115a21a2dc6efe486ec104fd15f936124c6939092600992612440916001600160a01b031661243b8261279f565b612b23565b856000526004602052604060002033600052602052604060002086815560018101336001600160601b0360a01b825416179055876000146124cf57600201612489848254612b16565b90556007810161249a848254612b16565b90555b016124a9828254612b16565b905560408051951515865260208601919091523394918291820190565b0390a360018055005b6003016124dd848254612b16565b9055600881016124ee848254612b16565b905561249d565b60405162461bcd60e51b8152602060048201526012602482015271125b9d985b1a590818995d08185b5bdd5b9d60721b6044820152606490fd5b50600b548211156123cc565b3461022957602036600319011261022957600435612557612a5c565b6103e8811161256557600955005b60405162461bcd60e51b815260206004820152600c60248201526b08ccaca40e8dede40d0d2ced60a31b6044820152606490fd5b3461022957606036600319011261022957601354600435906001600160a01b03163303612612578060005260036020526125dd60ff600c6040600020015416612a97565b7fc28e60afe9e0a9ad46ec94bfcbced22d60f2f02a15a4cac6f2012270da8d92a16040805160243581526044356020820152a2005b60405162461bcd60e51b815260206004820152601760248201527f4f6e6c7920537761726d434349502063616e2073796e630000000000000000006044820152606490fd5b34610229576000366003190112610229576012546040516001600160a01b039091168152602090f35b346102295760403660031901126102295761269961272d565b7f1b06338d0edf2ba8ccee31e466ab37b376418209af6a85c55c51e89a51e33bde60206126c4612759565b926126cd612a5c565b6001600160a01b031660008181526006835260409020805460ff191660ff8615151617905592808061271c575b61270a575b6040519015158152a2005b600782526113886040600020556126ff565b5060078252604060002054156126fa565b600435906001600160a01b038216820361022957565b602435906001600160a01b038216820361022957565b60243590811515820361022957565b6101c081019081106001600160401b03821117610f8a57604052565b60c081019081106001600160401b03821117610f8a57604052565b60a081019081106001600160401b03821117610f8a57604052565b606081019081106001600160401b03821117610f8a57604052565b90601f801991011681019081106001600160401b03821117610f8a57604052565b6001600160401b038111610f8a5760051b60200190565b81601f8201121561022957803591612824836127f6565b9261283260405194856127d5565b808452602092838086019260051b820101928311610229578301905b82821061285c575050505090565b8135815290830190830161284e565b81601f82011215610229578035906001600160401b038211610f8a576040519261289f601f8401601f1916602001856127d5565b8284526020838301011161022957816000926020809301838601378301015290565b906020600319830112610229576004356001600160401b039283821161022957806023830112156102295781600401359384116102295760248483010111610229576024019190565b919082519283825260005b848110612936575050826000602080949584010152601f8019910116010190565b602081830181015184830182015201612915565b6040906003190112610229576004359060243590565b805482101561229f576000526006602060002091020190600090565b90600182811c921680156129ac575b602083101461299657565b634e487b7160e01b600052602260045260246000fd5b91607f169161298b565b90604051918260008254926129ca8461297c565b908184526001948581169081600014612a3957506001146129f6575b50506129f4925003836127d5565b565b9093915060005260209081600020936000915b818310612a215750506129f4935082010138806129e6565b85548884018501529485019487945091830191612a09565b9150506129f494506020925060ff191682840152151560051b82010138806129e6565b6000546001600160a01b03163303612a7057565b60405163118cdaa760e01b8152336004820152602490fd5b6000198114610c2e5760010190565b15612a9e57565b60405162461bcd60e51b81526020600482015260116024820152704d61726b6574206e6f742061637469766560781b6044820152606490fd5b15612ade57565b60405162461bcd60e51b815260206004820152601060248201526f13585c9ad95d081a185cc8195b99195960821b6044820152606490fd5b91908201809211610c2e57565b906000602091828151910182855af11561176f576000513d612b7657506001600160a01b0381163b155b612b545750565b604051635274afe760e01b81526001600160a01b039091166004820152602490fd5b60011415612b4d565b60ff60025416612b8b57565b60405163d93c066560e01b8152600490fd5b600260015414612bae576002600155565b604051633ee5aeb560e01b8152600490fd5b60405163a9059cbb60e01b60208201526001600160a01b03909216602483015260448083019390935291815260808101916001600160401b03831182841017610f8a576129f492604052612b23565b81810292918115918404141715610c2e57565b8115612c2c570490565b634e487b7160e01b600052601260045260246000fd5b91908203918211610c2e57565b6000908152600360205260408120916004602052604082209060018060a01b0316825260205260408120600683015460ff8116158015612d4d575b612d465760078401549160ff600886015492612ca68486612b16565b5060081c16918215612d3f57835b8315612d375750915b15612d2d5760020154925b83158015612d25575b612d1d575092612710612d0e612d08612cf9612d1595612cf4612d1a9989612c0f565b612c22565b93600b60095491015490612b16565b83612c0f565b0492612b16565b612c42565b90565b935050505090565b508215612cd1565b6003015492612cc8565b905091612cbd565b8093612cb4565b5050905090565b5060ff600483015416612c8a565b805182101561229f5760209160051b010190565b91909160008382019384129112908015821691151617610c2e57565b6000908152602090600582526040908181209283548015612ec8579293908293839584935b828510612e1057505050505082158015600014612e0957612df557600160ff1b8214600019841416612de157500590565b634e487b7160e01b81526011600452602490fd5b634e487b7160e01b81526012600452602490fd5b5091505090565b909192939695612e208883612960565b509060018060a01b0382541687526007865260ff6002612e48868a2054600386015490612c0f565b9301541615612ebe57612710905b81830291888112600160ff1b851416612eaa57808305841490151715612e965791612309612e8792612e8d94612d6f565b97612a88565b93929190612db0565b634e487b7160e01b88526011600452602488fd5b634e487b7160e01b89526011600452602489fd5b61270f1990612e56565b505091505090565b61270f19808212612eea5750612710808213612eea575090565b905090565b611f408111612f2b576107d090818110612f23576117708111612f1a57610fa011612d1a5750600090565b50506107cf1990565b505061138890565b506113871990565b9067016345785d8a0000116130c657611f40811161307e576107d0811061303a576117708111612fef57610fa011612fa857604051612f71816127ba565b602181527f42616c616e636564206d61726b6574202d206e65757472616c206f75746c6f6f6020820152606b60f81b604082015290565b604051612fb4816127ba565b602581527f42656172697368207472656e64202d20736f6d6520737570706f7274206578706020820152641958dd195960da1b604082015290565b50604051612ffc816127ba565b602881527f42756c6c697368207472656e64202d20736f6d6520726573697374616e636520602082015267195e1c1958dd195960c21b604082015290565b50604051613047816127ba565b602181527f45787472656d656c792062656172697368202d20626f756e6365206c696b656c6020820152607960f81b604082015290565b5060405161308b816127ba565b602581527f45787472656d656c792062756c6c697368202d20636f7272656374696f6e206c602082015264696b656c7960d81b604082015290565b50604051604081018181106001600160401b03821117610f8a57604052601e81527f4c6f7720766f6c756d65202d20696e73756666696369656e7420646174610000602082015290565b600052600360205260406000206131306008600783015492015482612b16565b8015612f235761271091828102928184041490151715610c2e57612d1a91612c22565b60005260036020526040600020613130600860078301549201548092612b16565b91906000928352600360205260408320600860078201549101546131988183612b16565b9283156131f757156131d85750612710908181029181830414901517156131c457612d1a929350612c22565b634e487b7160e01b84526011600452602484fd5b612710808202925081159183041417156131c457612d1a929350612c22565b50611388945050505056fea26469706673582212202dc40812de9c01224b71c3791f64bcd48632e8a8972534d63428dd991aa4593364736f6c63430008140033","opcodes":"PUSH1 0xA0 CALLVALUE PUSH3 0x183 JUMPI PUSH1 0x1 PUSH1 0x1 PUSH1 0x40 SHL SUB SWAP1 PUSH1 0x1F PUSH3 0x33EC CODESIZE DUP2 SWAP1 SUB SWAP2 DUP3 ADD PUSH1 0x1F NOT AND DUP4 ADD SWAP2 DUP5 DUP4 GT DUP5 DUP5 LT OR PUSH3 0x188 JUMPI DUP1 DUP5 SWAP3 PUSH1 0xA0 SWAP5 PUSH1 0x40 MSTORE DUP4 CODECOPY DUP2 ADD SUB SLT PUSH3 0x183 JUMPI PUSH3 0x4F DUP2 PUSH3 0x19E JUMP JUMPDEST SWAP2 PUSH1 0x20 DUP3 ADD MLOAD SWAP1 DUP2 AND DUP2 SUB PUSH3 0x183 JUMPI PUSH1 0x40 DUP3 ADD MLOAD SWAP2 PUSH3 0x81 PUSH1 0x80 PUSH3 0x79 PUSH1 0x60 DUP5 ADD PUSH3 0x19E JUMP JUMPDEST SWAP3 ADD PUSH3 0x19E JUMP JUMPDEST SWAP1 CALLER ISZERO PUSH3 0x16A JUMPI PUSH1 0x0 SLOAD SWAP1 PUSH1 0x1 DUP1 PUSH1 0xA0 SHL SUB NOT SWAP5 CALLER DUP7 DUP5 AND OR PUSH1 0x0 SSTORE PUSH1 0x40 MLOAD SWAP7 PUSH1 0x1 DUP1 PUSH1 0xA0 SHL SUB SWAP6 DUP7 SWAP5 DUP6 CALLER SWAP2 AND PUSH32 0x8BE0079C531659141344CD1FD0A4F28419497F9722A3DAAFE3B4186F6B6457E0 PUSH1 0x0 DUP1 LOG3 PUSH1 0x1 DUP1 SSTORE DUP2 PUSH1 0x80 MSTORE PUSH1 0x1 PUSH1 0x8 SSTORE PUSH1 0xFA PUSH1 0x9 SSTORE PUSH7 0x2386F26FC10000 PUSH1 0xA SSTORE PUSH9 0x3635C9ADC5DEA00000 PUSH1 0xB SSTORE PUSH7 0x10003000186A0 PUSH1 0x1 DUP1 PUSH1 0x50 SHL SUB NOT PUSH1 0x10 SLOAD AND OR PUSH1 0x10 SSTORE DUP5 PUSH1 0xE SLOAD SWAP2 PUSH1 0x1 PUSH1 0xA0 SHL PUSH1 0x1 PUSH1 0xE0 SHL SUB SWAP1 PUSH1 0xA0 SHL AND SWAP3 AND SWAP1 PUSH4 0xFFFFFFFF PUSH1 0xE0 SHL AND OR OR PUSH1 0xE SSTORE PUSH1 0xF SSTORE AND DUP4 PUSH1 0xD SLOAD AND OR PUSH1 0xD SSTORE AND SWAP1 PUSH1 0xC SLOAD AND OR PUSH1 0xC SSTORE PUSH2 0x3238 SWAP1 DUP2 PUSH3 0x1B4 DUP3 CODECOPY PUSH1 0x80 MLOAD DUP2 PUSH2 0x2191 ADD MSTORE RETURN JUMPDEST PUSH1 0x40 MLOAD PUSH4 0x1E4FBDF7 PUSH1 0xE0 SHL DUP2 MSTORE PUSH1 0x0 PUSH1 0x4 DUP3 ADD MSTORE PUSH1 0x24 SWAP1 REVERT JUMPDEST PUSH1 0x0 DUP1 REVERT JUMPDEST PUSH4 0x4E487B71 PUSH1 0xE0 SHL PUSH1 0x0 MSTORE PUSH1 0x41 PUSH1 0x4 MSTORE PUSH1 0x24 PUSH1 0x0 REVERT JUMPDEST MLOAD SWAP1 PUSH1 0x1 PUSH1 0x1 PUSH1 0xA0 SHL SUB DUP3 AND DUP3 SUB PUSH3 0x183 JUMPI JUMP INVALID PUSH1 0x80 PUSH1 0x40 MSTORE PUSH1 0x4 CALLDATASIZE LT ISZERO PUSH2 0x12 JUMPI PUSH1 0x0 DUP1 REVERT JUMPDEST PUSH1 0x0 CALLDATALOAD PUSH1 0xE0 SHR DUP1 PUSH4 0x911E864 EQ PUSH2 0x2680 JUMPI DUP1 PUSH4 0x10CFA3EF EQ PUSH2 0x2657 JUMPI DUP1 PUSH4 0x11C3C024 EQ PUSH2 0x2599 JUMPI DUP1 PUSH4 0x12E8E2C3 EQ PUSH2 0x253B JUMPI DUP1 PUSH4 0x1A38CAC6 EQ PUSH2 0x2363 JUMPI DUP1 PUSH4 0x1FE543E3 EQ PUSH2 0x215F JUMPI DUP1 PUSH4 0x26232A2E EQ PUSH2 0x2141 JUMPI DUP1 PUSH4 0x39B6EE19 EQ PUSH2 0x1C12 JUMPI DUP1 PUSH4 0x3A3D3D35 EQ PUSH2 0x19A1 JUMPI DUP1 PUSH4 0x3F4BA83A EQ PUSH2 0x1937 JUMPI DUP1 PUSH4 0x406EF2EF EQ PUSH2 0x1919 JUMPI DUP1 PUSH4 0x42B22323 EQ PUSH2 0x18D6 JUMPI DUP1 PUSH4 0x43425E88 EQ PUSH2 0x18AD JUMPI DUP1 PUSH4 0x4585E33B EQ PUSH2 0x17A4 JUMPI DUP1 PUSH4 0x46904840 EQ PUSH2 0x177B JUMPI DUP1 PUSH4 0x476343EE EQ PUSH2 0x1636 JUMPI DUP1 PUSH4 0x54DE6E32 EQ PUSH2 0x15FC JUMPI DUP1 PUSH4 0x5705B61A EQ PUSH2 0x15D6 JUMPI DUP1 PUSH4 0x57BDE446 EQ PUSH2 0x149C JUMPI DUP1 PUSH4 0x58057FE5 EQ PUSH2 0x1433 JUMPI DUP1 PUSH4 0x5C975ABB EQ PUSH2 0x1410 JUMPI DUP1 PUSH4 0x677BD9FF EQ PUSH2 0x1256 JUMPI DUP1 PUSH4 0x6E04FF0D EQ PUSH2 0x1099 JUMPI DUP1 PUSH4 0x715018A6 EQ PUSH2 0x1040 JUMPI DUP1 PUSH4 0x7D7BDEC0 EQ PUSH2 0xCC1 JUMPI DUP1 PUSH4 0x8456CB59 EQ PUSH2 0xC67 JUMPI DUP1 PUSH4 0x8905AA89 EQ PUSH2 0xB21 JUMPI DUP1 PUSH4 0x8DA5CB5B EQ PUSH2 0xAF8 JUMPI DUP1 PUSH4 0x8E6BF35B EQ PUSH2 0x995 JUMPI DUP1 PUSH4 0x9259B274 EQ PUSH2 0x913 JUMPI DUP1 PUSH4 0xA108CE5F EQ PUSH2 0x8F4 JUMPI DUP1 PUSH4 0xA136EFFE EQ PUSH2 0x85E JUMPI DUP1 PUSH4 0xB1283E77 EQ PUSH2 0x75D JUMPI DUP1 PUSH4 0xCAB11D5D EQ PUSH2 0x73F JUMPI DUP1 PUSH4 0xCF86D579 EQ PUSH2 0x6FC JUMPI DUP1 PUSH4 0xD29F541D EQ PUSH2 0x627 JUMPI DUP1 PUSH4 0xE684D718 EQ PUSH2 0x5AD JUMPI DUP1 PUSH4 0xEB44FDD3 EQ PUSH2 0x39E JUMPI DUP1 PUSH4 0xEFD76065 EQ PUSH2 0x35F JUMPI DUP1 PUSH4 0xF15CC406 EQ PUSH2 0x331 JUMPI DUP1 PUSH4 0xF2FDE38B EQ PUSH2 0x2A8 JUMPI DUP1 PUSH4 0xFA968EEA EQ PUSH2 0x28A JUMPI DUP1 PUSH4 0xFC12524C EQ PUSH2 0x22E JUMPI PUSH4 0xFDD91BAF EQ PUSH2 0x200 JUMPI PUSH1 0x0 DUP1 REVERT JUMPDEST CALLVALUE PUSH2 0x229 JUMPI PUSH1 0x0 CALLDATASIZE PUSH1 0x3 NOT ADD SLT PUSH2 0x229 JUMPI PUSH1 0x13 SLOAD PUSH1 0x40 MLOAD PUSH1 0x1 PUSH1 0x1 PUSH1 0xA0 SHL SUB SWAP1 SWAP2 AND DUP2 MSTORE PUSH1 0x20 SWAP1 RETURN JUMPDEST PUSH1 0x0 DUP1 REVERT JUMPDEST CALLVALUE PUSH2 0x229 JUMPI PUSH1 0x20 CALLDATASIZE PUSH1 0x3 NOT ADD SLT PUSH2 0x229 JUMPI PUSH1 0x4 CALLDATALOAD PUSH2 0x24A PUSH2 0x2A5C JUMP JUMPDEST DUP1 PUSH1 0x0 MSTORE PUSH1 0x3 PUSH1 0x20 MSTORE PUSH1 0xC PUSH1 0x40 PUSH1 0x0 KECCAK256 ADD PUSH1 0xFF NOT DUP2 SLOAD AND SWAP1 SSTORE PUSH32 0xB939016779C3297135B58AED6D343CF103FAF818EA07A7C5F87B03A9BD87297 PUSH1 0x0 DUP1 LOG2 STOP JUMPDEST CALLVALUE PUSH2 0x229 JUMPI PUSH1 0x0 CALLDATASIZE PUSH1 0x3 NOT ADD SLT PUSH2 0x229 JUMPI PUSH1 0x20 PUSH1 0xA SLOAD PUSH1 0x40 MLOAD SWAP1 DUP2 MSTORE RETURN JUMPDEST CALLVALUE PUSH2 0x229 JUMPI PUSH1 0x20 CALLDATASIZE PUSH1 0x3 NOT ADD SLT PUSH2 0x229 JUMPI PUSH2 0x2C1 PUSH2 0x272D JUMP JUMPDEST PUSH2 0x2C9 PUSH2 0x2A5C JUMP JUMPDEST PUSH1 0x1 PUSH1 0x1 PUSH1 0xA0 SHL SUB SWAP1 DUP2 AND SWAP1 DUP2 ISZERO PUSH2 0x318 JUMPI PUSH1 0x0 SLOAD DUP3 PUSH1 0x1 PUSH1 0x1 PUSH1 0x60 SHL SUB PUSH1 0xA0 SHL DUP3 AND OR PUSH1 0x0 SSTORE AND PUSH32 0x8BE0079C531659141344CD1FD0A4F28419497F9722A3DAAFE3B4186F6B6457E0 PUSH1 0x0 DUP1 LOG3 STOP JUMPDEST PUSH1 0x40 MLOAD PUSH4 0x1E4FBDF7 PUSH1 0xE0 SHL DUP2 MSTORE PUSH1 0x0 PUSH1 0x4 DUP3 ADD MSTORE PUSH1 0x24 SWAP1 REVERT JUMPDEST CALLVALUE PUSH2 0x229 JUMPI PUSH1 0x40 CALLDATASIZE PUSH1 0x3 NOT ADD SLT PUSH2 0x229 JUMPI PUSH1 0x20 PUSH2 0x357 PUSH2 0x34F PUSH2 0x2743 JUMP JUMPDEST PUSH1 0x4 CALLDATALOAD PUSH2 0x2C4F JUMP JUMPDEST PUSH1 0x40 MLOAD SWAP1 DUP2 MSTORE RETURN JUMPDEST CALLVALUE PUSH2 0x229 JUMPI PUSH1 0x20 CALLDATASIZE PUSH1 0x3 NOT ADD SLT PUSH2 0x229 JUMPI PUSH1 0x1 PUSH1 0x1 PUSH1 0xA0 SHL SUB PUSH2 0x380 PUSH2 0x272D JUMP JUMPDEST AND PUSH1 0x0 MSTORE PUSH1 0x6 PUSH1 0x20 MSTORE PUSH1 0x20 PUSH1 0xFF PUSH1 0x40 PUSH1 0x0 KECCAK256 SLOAD AND PUSH1 0x40 MLOAD SWAP1 ISZERO ISZERO DUP2 MSTORE RETURN JUMPDEST CALLVALUE PUSH2 0x229 JUMPI PUSH1 0x20 CALLDATASIZE PUSH1 0x3 NOT ADD SLT PUSH2 0x229 JUMPI PUSH1 0x0 PUSH2 0x1A0 PUSH1 0x40 MLOAD PUSH2 0x3C0 DUP2 PUSH2 0x2768 JUMP JUMPDEST DUP3 DUP2 MSTORE PUSH1 0x60 PUSH1 0x20 DUP3 ADD MSTORE PUSH1 0x60 PUSH1 0x40 DUP3 ADD MSTORE DUP3 PUSH1 0x60 DUP3 ADD MSTORE DUP3 PUSH1 0x80 DUP3 ADD MSTORE DUP3 PUSH1 0xA0 DUP3 ADD MSTORE DUP3 PUSH1 0xC0 DUP3 ADD MSTORE DUP3 PUSH1 0xE0 DUP3 ADD MSTORE DUP3 PUSH2 0x100 DUP3 ADD MSTORE DUP3 PUSH2 0x120 DUP3 ADD MSTORE DUP3 PUSH2 0x140 DUP3 ADD MSTORE DUP3 PUSH2 0x160 DUP3 ADD MSTORE DUP3 PUSH2 0x180 DUP3 ADD MSTORE ADD MSTORE PUSH1 0x4 CALLDATALOAD PUSH1 0x0 MSTORE PUSH1 0x3 PUSH1 0x20 MSTORE PUSH1 0x40 PUSH1 0x0 KECCAK256 PUSH1 0xFF PUSH1 0xC PUSH1 0x40 MLOAD SWAP3 PUSH2 0x435 DUP5 PUSH2 0x2768 JUMP JUMPDEST DUP1 SLOAD DUP5 MSTORE PUSH2 0x445 PUSH1 0x1 DUP3 ADD PUSH2 0x29B6 JUMP JUMPDEST PUSH1 0x20 DUP6 ADD MSTORE PUSH2 0x456 PUSH1 0x2 DUP3 ADD PUSH2 0x29B6 JUMP JUMPDEST PUSH1 0x40 DUP6 ADD MSTORE PUSH1 0x3 DUP2 ADD SLOAD PUSH1 0x60 DUP6 ADD MSTORE PUSH1 0x4 DUP2 ADD SLOAD PUSH1 0x80 DUP6 ADD MSTORE PUSH1 0x5 DUP2 ADD SLOAD PUSH1 0xA0 DUP6 ADD MSTORE DUP3 PUSH1 0x6 DUP3 ADD SLOAD DUP2 DUP2 AND ISZERO ISZERO PUSH1 0xC0 DUP8 ADD MSTORE PUSH1 0x8 SHR AND ISZERO ISZERO PUSH1 0xE0 DUP6 ADD MSTORE PUSH1 0x7 DUP2 ADD SLOAD PUSH2 0x100 DUP6 ADD MSTORE PUSH1 0x8 DUP2 ADD SLOAD PUSH2 0x120 DUP6 ADD MSTORE PUSH1 0x9 DUP2 ADD SLOAD PUSH2 0x140 DUP6 ADD MSTORE PUSH1 0x1 DUP1 PUSH1 0xA0 SHL SUB PUSH1 0xA DUP3 ADD SLOAD AND PUSH2 0x160 DUP6 ADD MSTORE PUSH1 0xB DUP2 ADD SLOAD PUSH2 0x180 DUP6 ADD MSTORE ADD SLOAD AND ISZERO ISZERO PUSH2 0x1A0 DUP3 ADD MSTORE PUSH1 0x40 MLOAD DUP1 SWAP2 PUSH1 0x20 DUP3 MSTORE DUP1 MLOAD PUSH1 0x20 DUP4 ADD MSTORE PUSH2 0x1A0 PUSH2 0x525 PUSH2 0x50F PUSH1 0x20 DUP5 ADD MLOAD PUSH2 0x1C0 PUSH1 0x40 DUP8 ADD MSTORE PUSH2 0x1E0 DUP7 ADD SWAP1 PUSH2 0x290A JUMP JUMPDEST PUSH1 0x40 DUP5 ADD MLOAD DUP6 DUP3 SUB PUSH1 0x1F NOT ADD PUSH1 0x60 DUP8 ADD MSTORE PUSH2 0x290A JUMP JUMPDEST SWAP2 PUSH1 0x60 DUP2 ADD MLOAD PUSH1 0x80 DUP6 ADD MSTORE PUSH1 0x80 DUP2 ADD MLOAD PUSH1 0xA0 DUP6 ADD MSTORE PUSH1 0xA0 DUP2 ADD MLOAD PUSH1 0xC0 DUP6 ADD MSTORE PUSH1 0xC0 DUP2 ADD MLOAD ISZERO ISZERO PUSH1 0xE0 DUP6 ADD MSTORE PUSH1 0xE0 DUP2 ADD MLOAD ISZERO ISZERO PUSH2 0x100 DUP6 ADD MSTORE PUSH2 0x100 DUP2 ADD MLOAD PUSH2 0x120 DUP6 ADD MSTORE PUSH2 0x120 DUP2 ADD MLOAD PUSH2 0x140 DUP6 ADD MSTORE PUSH2 0x140 DUP2 ADD MLOAD PUSH2 0x160 DUP6 ADD MSTORE PUSH1 0x1 DUP1 PUSH1 0xA0 SHL SUB PUSH2 0x160 DUP3 ADD MLOAD AND PUSH2 0x180 DUP6 ADD MSTORE PUSH2 0x180 DUP2 ADD MLOAD DUP3 DUP6 ADD MSTORE ADD MLOAD ISZERO ISZERO PUSH2 0x1C0 DUP4 ADD MSTORE SUB SWAP1 RETURN JUMPDEST CALLVALUE PUSH2 0x229 JUMPI PUSH1 0x40 CALLDATASIZE PUSH1 0x3 NOT ADD SLT PUSH2 0x229 JUMPI PUSH1 0xA0 PUSH2 0x5C8 PUSH2 0x2743 JUMP JUMPDEST PUSH1 0x4 CALLDATALOAD PUSH1 0x0 MSTORE PUSH1 0x4 PUSH1 0x20 MSTORE PUSH1 0x40 PUSH1 0x0 KECCAK256 PUSH1 0x1 DUP1 DUP5 SHL SUB DUP1 SWAP3 AND PUSH1 0x0 MSTORE PUSH1 0x20 MSTORE PUSH1 0x40 PUSH1 0x0 KECCAK256 DUP1 SLOAD SWAP2 PUSH1 0x1 DUP3 ADD SLOAD AND SWAP1 PUSH1 0x2 DUP2 ADD SLOAD PUSH1 0xFF PUSH1 0x4 PUSH1 0x3 DUP5 ADD SLOAD SWAP4 ADD SLOAD AND SWAP3 PUSH1 0x40 MLOAD SWAP5 DUP6 MSTORE PUSH1 0x20 DUP6 ADD MSTORE PUSH1 0x40 DUP5 ADD MSTORE PUSH1 0x60 DUP4 ADD MSTORE ISZERO ISZERO PUSH1 0x80 DUP3 ADD MSTORE RETURN JUMPDEST CALLVALUE PUSH2 0x229 JUMPI PUSH1 0x40 CALLDATASIZE PUSH1 0x3 NOT ADD SLT PUSH2 0x229 JUMPI PUSH1 0xA0 PUSH2 0x642 PUSH2 0x2743 JUMP JUMPDEST PUSH1 0x0 PUSH1 0x80 PUSH1 0x40 MLOAD PUSH2 0x652 DUP2 PUSH2 0x279F JUMP JUMPDEST DUP3 DUP2 MSTORE DUP3 PUSH1 0x20 DUP3 ADD MSTORE DUP3 PUSH1 0x40 DUP3 ADD MSTORE DUP3 PUSH1 0x60 DUP3 ADD MSTORE ADD MSTORE PUSH1 0x4 CALLDATALOAD PUSH1 0x0 MSTORE PUSH1 0x4 PUSH1 0x20 MSTORE PUSH1 0x40 PUSH1 0x0 KECCAK256 PUSH1 0x1 DUP1 DUP5 SHL SUB DUP1 SWAP3 AND PUSH1 0x0 MSTORE PUSH1 0x20 MSTORE PUSH1 0x40 PUSH1 0x0 KECCAK256 PUSH1 0x40 MLOAD SWAP1 PUSH2 0x69A DUP3 PUSH2 0x279F JUMP JUMPDEST DUP1 SLOAD SWAP3 DUP4 DUP4 MSTORE DUP1 PUSH1 0x1 DUP4 ADD SLOAD AND SWAP1 PUSH1 0x20 DUP5 ADD SWAP2 DUP3 MSTORE PUSH1 0x2 DUP4 ADD SLOAD SWAP2 PUSH1 0x40 DUP6 ADD SWAP3 DUP4 MSTORE PUSH1 0x80 PUSH1 0xFF PUSH1 0x4 PUSH1 0x3 DUP8 ADD SLOAD SWAP7 PUSH1 0x60 DUP10 ADD SWAP8 DUP9 MSTORE ADD SLOAD AND SWAP6 ADD SWAP5 ISZERO ISZERO DUP6 MSTORE PUSH1 0x40 MLOAD SWAP6 DUP7 MSTORE MLOAD AND PUSH1 0x20 DUP6 ADD MSTORE MLOAD PUSH1 0x40 DUP5 ADD MSTORE MLOAD PUSH1 0x60 DUP4 ADD MSTORE MLOAD ISZERO ISZERO PUSH1 0x80 DUP3 ADD MSTORE RETURN JUMPDEST CALLVALUE PUSH2 0x229 JUMPI PUSH1 0x20 CALLDATASIZE PUSH1 0x3 NOT ADD SLT PUSH2 0x229 JUMPI PUSH2 0x715 PUSH2 0x272D JUMP JUMPDEST PUSH2 0x71D PUSH2 0x2A5C JUMP JUMPDEST PUSH1 0x12 DUP1 SLOAD PUSH1 0x1 PUSH1 0x1 PUSH1 0xA0 SHL SUB NOT AND PUSH1 0x1 PUSH1 0x1 PUSH1 0xA0 SHL SUB SWAP3 SWAP1 SWAP3 AND SWAP2 SWAP1 SWAP2 OR SWAP1 SSTORE STOP JUMPDEST CALLVALUE PUSH2 0x229 JUMPI PUSH1 0x0 CALLDATASIZE PUSH1 0x3 NOT ADD SLT PUSH2 0x229 JUMPI PUSH1 0x20 PUSH1 0xB SLOAD PUSH1 0x40 MLOAD SWAP1 DUP2 MSTORE RETURN JUMPDEST CALLVALUE PUSH2 0x229 JUMPI PUSH1 0x20 CALLDATASIZE PUSH1 0x3 NOT ADD SLT PUSH2 0x229 JUMPI PUSH1 0x4 CALLDATALOAD PUSH1 0x0 MSTORE PUSH1 0x3 PUSH1 0x20 MSTORE PUSH1 0x40 PUSH1 0x0 KECCAK256 DUP1 SLOAD PUSH1 0x1 DUP3 ADD PUSH2 0x78D SWAP1 PUSH2 0x29B6 JUMP JUMPDEST SWAP2 PUSH2 0x79A PUSH1 0x2 DUP3 ADD PUSH2 0x29B6 JUMP JUMPDEST PUSH1 0x3 DUP3 ADD SLOAD SWAP2 PUSH1 0x4 DUP2 ADD SLOAD PUSH1 0x5 DUP3 ADD SLOAD PUSH1 0x6 DUP4 ADD SLOAD PUSH1 0x7 DUP5 ADD SLOAD PUSH1 0x8 DUP6 ADD SLOAD SWAP2 PUSH1 0x9 DUP7 ADD SLOAD SWAP4 PUSH1 0x1 PUSH1 0xA0 SHL PUSH1 0x1 SWAP1 SUB PUSH1 0xA DUP9 ADD SLOAD AND SWAP6 PUSH1 0xB DUP9 ADD SLOAD SWAP8 PUSH1 0xC ADD SLOAD PUSH1 0xFF AND SWAP9 PUSH1 0x40 MLOAD SWAP13 DUP14 SWAP13 DUP14 MSTORE DUP13 PUSH2 0x1C0 PUSH1 0x20 DUP2 SWAP3 ADD MSTORE DUP14 ADD PUSH2 0x7FB SWAP2 PUSH2 0x290A JUMP JUMPDEST DUP13 DUP2 SUB PUSH1 0x40 DUP15 ADD MSTORE PUSH2 0x80C SWAP2 PUSH2 0x290A JUMP JUMPDEST SWAP10 PUSH1 0x60 DUP13 ADD MSTORE PUSH1 0x80 DUP12 ADD MSTORE PUSH1 0xA0 DUP11 ADD MSTORE PUSH1 0xFF DUP2 AND ISZERO ISZERO PUSH1 0xC0 DUP11 ADD MSTORE PUSH1 0x8 SHR PUSH1 0xFF AND ISZERO ISZERO PUSH1 0xE0 DUP10 ADD MSTORE PUSH2 0x100 DUP9 ADD MSTORE PUSH2 0x120 DUP8 ADD MSTORE PUSH2 0x140 DUP7 ADD MSTORE PUSH2 0x160 DUP6 ADD MSTORE PUSH2 0x180 DUP5 ADD MSTORE ISZERO ISZERO PUSH2 0x1A0 DUP4 ADD MSTORE SUB SWAP1 RETURN JUMPDEST CALLVALUE PUSH2 0x229 JUMPI PUSH2 0x86C CALLDATASIZE PUSH2 0x294A JUMP JUMPDEST SWAP1 PUSH1 0x0 MSTORE PUSH1 0x5 PUSH1 0x20 MSTORE PUSH1 0x40 PUSH1 0x0 KECCAK256 SWAP1 DUP2 SLOAD DUP2 LT ISZERO PUSH2 0x229 JUMPI PUSH2 0x88D SWAP2 PUSH2 0x2960 JUMP JUMPDEST POP PUSH1 0x1 DUP1 PUSH1 0xA0 SHL SUB DUP2 SLOAD AND PUSH2 0x8F0 PUSH1 0x1 DUP4 ADD SLOAD SWAP3 PUSH1 0xFF PUSH1 0x2 DUP3 ADD SLOAD AND SWAP1 PUSH1 0x3 DUP2 ADD SLOAD PUSH2 0x8C0 PUSH1 0x5 PUSH1 0x4 DUP5 ADD SLOAD SWAP4 ADD PUSH2 0x29B6 JUMP JUMPDEST SWAP3 PUSH1 0x40 MLOAD SWAP7 DUP8 SWAP7 DUP8 MSTORE PUSH1 0x20 DUP8 ADD MSTORE ISZERO ISZERO PUSH1 0x40 DUP7 ADD MSTORE PUSH1 0x60 DUP6 ADD MSTORE PUSH1 0x80 DUP5 ADD MSTORE PUSH1 0xC0 PUSH1 0xA0 DUP5 ADD MSTORE PUSH1 0xC0 DUP4 ADD SWAP1 PUSH2 0x290A JUMP JUMPDEST SUB SWAP1 RETURN JUMPDEST CALLVALUE PUSH2 0x229 JUMPI PUSH2 0x902 CALLDATASIZE PUSH2 0x294A JUMP JUMPDEST SWAP1 PUSH2 0x90B PUSH2 0x2A5C JUMP JUMPDEST PUSH1 0xA SSTORE PUSH1 0xB SSTORE STOP JUMPDEST CALLVALUE PUSH2 0x229 JUMPI PUSH1 0x40 CALLDATASIZE PUSH1 0x3 NOT ADD SLT PUSH2 0x229 JUMPI PUSH2 0x92C PUSH2 0x272D JUMP JUMPDEST PUSH1 0x24 CALLDATALOAD SWAP1 PUSH2 0x938 PUSH2 0x2A5C JUMP JUMPDEST PUSH2 0x2710 DUP3 GT PUSH2 0x95B JUMPI PUSH1 0x1 PUSH1 0x1 PUSH1 0xA0 SHL SUB AND PUSH1 0x0 SWAP1 DUP2 MSTORE PUSH1 0x7 PUSH1 0x20 MSTORE PUSH1 0x40 SWAP1 KECCAK256 SSTORE STOP JUMPDEST PUSH1 0x40 MLOAD PUSH3 0x461BCD PUSH1 0xE5 SHL DUP2 MSTORE PUSH1 0x20 PUSH1 0x4 DUP3 ADD MSTORE PUSH1 0x12 PUSH1 0x24 DUP3 ADD MSTORE PUSH18 0x24B73B30B634B2103932B83ABA30BA34B7B7 PUSH1 0x71 SHL PUSH1 0x44 DUP3 ADD MSTORE PUSH1 0x64 SWAP1 REVERT JUMPDEST CALLVALUE PUSH2 0x229 JUMPI PUSH1 0x20 DUP1 PUSH1 0x3 NOT CALLDATASIZE ADD SLT PUSH2 0x229 JUMPI PUSH1 0x4 CALLDATALOAD PUSH1 0x0 MSTORE PUSH1 0x5 SWAP1 DUP2 DUP2 MSTORE PUSH1 0x40 PUSH1 0x0 KECCAK256 DUP1 SLOAD SWAP2 PUSH2 0x9C4 DUP4 PUSH2 0x27F6 JUMP JUMPDEST SWAP3 PUSH2 0x9D2 PUSH1 0x40 MLOAD SWAP5 DUP6 PUSH2 0x27D5 JUMP JUMPDEST DUP1 DUP5 MSTORE DUP2 DUP5 ADD DUP1 SWAP4 PUSH1 0x0 MSTORE DUP3 PUSH1 0x0 KECCAK256 PUSH1 0x0 SWAP2 JUMPDEST DUP4 DUP4 LT PUSH2 0xA8C JUMPI POP POP POP POP PUSH1 0x40 MLOAD SWAP3 DUP2 DUP5 ADD SWAP1 DUP3 DUP6 MSTORE MLOAD DUP1 SWAP2 MSTORE PUSH1 0x40 DUP2 DUP2 DUP7 ADD SWAP7 SHL DUP6 ADD ADD SWAP3 SWAP2 PUSH1 0x0 SWAP6 JUMPDEST DUP3 DUP8 LT PUSH2 0xA1D JUMPI DUP6 DUP6 SUB DUP7 RETURN JUMPDEST SWAP1 SWAP2 SWAP3 SWAP4 DUP3 DUP1 PUSH2 0xA7C PUSH1 0x1 SWAP4 PUSH1 0x3F NOT DUP11 DUP3 SUB ADD DUP7 MSTORE DUP9 MLOAD DUP6 DUP1 PUSH1 0xA0 SHL SUB DUP2 MLOAD AND DUP3 MSTORE DUP4 DUP2 ADD MLOAD DUP5 DUP4 ADD MSTORE PUSH1 0x40 DUP2 ADD MLOAD ISZERO ISZERO PUSH1 0x40 DUP4 ADD MSTORE PUSH1 0x60 DUP1 DUP3 ADD MLOAD SWAP1 DUP4 ADD MSTORE PUSH1 0x80 DUP1 DUP3 ADD MLOAD SWAP1 DUP4 ADD MSTORE PUSH1 0xA0 DUP1 SWAP2 ADD MLOAD SWAP2 PUSH1 0xC0 DUP1 SWAP3 DUP3 ADD MSTORE ADD SWAP1 PUSH2 0x290A JUMP JUMPDEST SWAP7 ADD SWAP3 ADD SWAP7 ADD SWAP6 SWAP3 SWAP2 SWAP1 SWAP3 PUSH2 0xA10 JUMP JUMPDEST PUSH1 0x6 DUP6 PUSH1 0x1 SWAP3 PUSH1 0x40 SWAP10 SWAP8 SWAP10 MLOAD PUSH2 0xAA1 DUP2 PUSH2 0x2784 JUMP JUMPDEST DUP5 DUP1 PUSH1 0xA0 SHL SUB DUP7 SLOAD AND DUP2 MSTORE DUP5 DUP7 ADD SLOAD DUP4 DUP3 ADD MSTORE PUSH1 0xFF PUSH1 0x2 DUP8 ADD SLOAD AND ISZERO ISZERO PUSH1 0x40 DUP3 ADD MSTORE PUSH1 0x3 DUP7 ADD SLOAD PUSH1 0x60 DUP3 ADD MSTORE PUSH1 0x4 DUP7 ADD SLOAD PUSH1 0x80 DUP3 ADD MSTORE PUSH2 0xAE2 DUP13 DUP8 ADD PUSH2 0x29B6 JUMP JUMPDEST PUSH1 0xA0 DUP3 ADD MSTORE DUP2 MSTORE ADD SWAP3 ADD SWAP3 ADD SWAP2 SWAP1 SWAP6 SWAP4 SWAP6 PUSH2 0x9E5 JUMP JUMPDEST CALLVALUE PUSH2 0x229 JUMPI PUSH1 0x0 CALLDATASIZE PUSH1 0x3 NOT ADD SLT PUSH2 0x229 JUMPI PUSH1 0x0 SLOAD PUSH1 0x40 MLOAD PUSH1 0x1 PUSH1 0x1 PUSH1 0xA0 SHL SUB SWAP1 SWAP2 AND DUP2 MSTORE PUSH1 0x20 SWAP1 RETURN JUMPDEST CALLVALUE PUSH2 0x229 JUMPI PUSH1 0x20 CALLDATASIZE PUSH1 0x3 NOT ADD SLT PUSH2 0x229 JUMPI PUSH1 0x4 CALLDATALOAD DUP1 PUSH1 0x0 MSTORE PUSH1 0x3 PUSH1 0x20 MSTORE PUSH1 0x40 PUSH1 0x0 KECCAK256 SWAP1 PUSH2 0xB54 PUSH1 0xFF PUSH1 0xC DUP5 ADD SLOAD AND PUSH2 0x2A97 JUMP JUMPDEST PUSH2 0xB67 PUSH1 0x8 PUSH1 0x7 DUP5 ADD SLOAD SWAP4 ADD SLOAD DUP4 PUSH2 0x2B16 JUMP JUMPDEST DUP1 ISZERO SWAP3 DUP4 PUSH2 0xC5D JUMPI PUSH2 0x2710 SWAP1 DUP2 DUP2 MUL SWAP2 DUP2 DUP4 DIV EQ SWAP1 ISZERO OR ISZERO PUSH2 0xC2E JUMPI DUP2 PUSH2 0xB8D SWAP2 PUSH2 0x2C22 JUMP JUMPDEST SWAP3 JUMPDEST PUSH2 0xB98 DUP5 PUSH2 0x2EEF JUMP JUMPDEST SWAP3 PUSH1 0x0 MSTORE PUSH1 0x5 PUSH1 0x20 MSTORE PUSH1 0x40 PUSH1 0x0 KECCAK256 SLOAD SWAP1 PUSH8 0xDE0B6B3A7640000 SWAP1 DUP2 DUP5 GT PUSH1 0x0 EQ PUSH2 0xC44 JUMPI POP POP PUSH2 0x1388 SWAP1 JUMPDEST PUSH1 0x5 DUP2 GT ISZERO PUSH2 0xC08 JUMPI POP PUSH2 0x8F0 SWAP2 PUSH2 0xBE1 PUSH2 0xBEA SWAP3 PUSH2 0x1388 SWAP1 PUSH2 0x2B16 JUMP JUMPDEST PUSH1 0x1 SHR SWAP5 PUSH2 0x2F33 JUMP JUMPDEST PUSH1 0x40 MLOAD SWAP4 DUP5 SWAP4 DUP5 MSTORE PUSH1 0x20 DUP5 ADD MSTORE PUSH1 0x60 PUSH1 0x40 DUP5 ADD MSTORE PUSH1 0x60 DUP4 ADD SWAP1 PUSH2 0x290A JUMP JUMPDEST SWAP2 PUSH2 0x3E8 SWAP3 DUP4 DUP2 MUL SWAP4 DUP2 DUP6 DIV EQ SWAP1 ISZERO OR ISZERO PUSH2 0xC2E JUMPI PUSH2 0xBE1 PUSH2 0xBEA SWAP3 PUSH2 0x8F0 SWAP5 SWAP1 PUSH2 0x2B16 JUMP JUMPDEST PUSH4 0x4E487B71 PUSH1 0xE0 SHL PUSH1 0x0 MSTORE PUSH1 0x11 PUSH1 0x4 MSTORE PUSH1 0x24 PUSH1 0x0 REVERT JUMPDEST PUSH2 0x1388 SWAP1 DUP2 DUP6 MUL SWAP2 DUP6 DUP4 DIV EQ OR ISZERO PUSH2 0xC2E JUMPI DIV SWAP1 PUSH2 0xBC3 JUMP JUMPDEST POP PUSH2 0x1388 SWAP3 PUSH2 0xB8F JUMP JUMPDEST CALLVALUE PUSH2 0x229 JUMPI PUSH1 0x0 CALLDATASIZE PUSH1 0x3 NOT ADD SLT PUSH2 0x229 JUMPI PUSH2 0xC80 PUSH2 0x2A5C JUMP JUMPDEST PUSH2 0xC88 PUSH2 0x2B7F JUMP JUMPDEST PUSH1 0x1 PUSH1 0xFF NOT PUSH1 0x2 SLOAD AND OR PUSH1 0x2 SSTORE PUSH32 0x62E78CEA01BEE320CD4E420270B5EA74000D11B0C9F74754EBDBFC544B05A258 PUSH1 0x20 PUSH1 0x40 MLOAD CALLER DUP2 MSTORE LOG1 STOP JUMPDEST CALLVALUE PUSH2 0x229 JUMPI PUSH1 0x80 CALLDATASIZE PUSH1 0x3 NOT ADD SLT PUSH2 0x229 JUMPI PUSH1 0x4 CALLDATALOAD PUSH2 0xCDD PUSH2 0x2759 JUMP JUMPDEST SWAP1 PUSH1 0x1 PUSH1 0x1 PUSH1 0x40 SHL SUB PUSH1 0x44 CALLDATALOAD PUSH1 0x64 CALLDATALOAD DUP3 DUP2 GT PUSH2 0x229 JUMPI PUSH2 0xD01 SWAP1 CALLDATASIZE SWAP1 PUSH1 0x4 ADD PUSH2 0x286B JUMP JUMPDEST CALLER PUSH1 0x0 MSTORE PUSH1 0x20 SWAP3 PUSH1 0x6 DUP5 MSTORE PUSH1 0xFF PUSH1 0x40 PUSH1 0x0 KECCAK256 SLOAD AND ISZERO PUSH2 0xFFB JUMPI DUP5 PUSH1 0x0 MSTORE PUSH1 0x3 DUP5 MSTORE PUSH2 0xD36 PUSH1 0xFF PUSH1 0xC PUSH1 0x40 PUSH1 0x0 KECCAK256 ADD SLOAD AND PUSH2 0x2A97 JUMP JUMPDEST DUP5 PUSH1 0x0 MSTORE PUSH1 0x3 DUP5 MSTORE PUSH2 0xD51 PUSH1 0x4 PUSH1 0x40 PUSH1 0x0 KECCAK256 ADD SLOAD TIMESTAMP LT PUSH2 0x2AD7 JUMP JUMPDEST PUSH2 0x2710 DUP4 GT PUSH2 0xFB6 JUMPI DUP5 PUSH1 0x0 MSTORE PUSH1 0x5 DUP5 MSTORE PUSH1 0x40 PUSH1 0x0 KECCAK256 PUSH1 0x40 MLOAD PUSH2 0xD73 DUP2 PUSH2 0x2784 JUMP JUMPDEST CALLER DUP2 MSTORE DUP6 DUP2 ADD SWAP1 DUP8 DUP3 MSTORE PUSH1 0x40 DUP2 ADD SWAP1 DUP10 ISZERO ISZERO DUP3 MSTORE PUSH1 0x60 DUP2 ADD DUP8 DUP2 MSTORE PUSH1 0x80 DUP3 ADD SWAP2 TIMESTAMP DUP4 MSTORE PUSH1 0xA0 DUP2 ADD SWAP8 DUP9 MSTORE DUP6 SLOAD PUSH9 0x10000000000000000 DUP2 LT ISZERO PUSH2 0xF8A JUMPI PUSH2 0xDC1 SWAP1 PUSH1 0x1 SWAP8 DUP9 DUP3 ADD DUP2 SSTORE PUSH2 0x2960 JUMP JUMPDEST SWAP5 SWAP1 SWAP5 PUSH2 0xFA0 JUMPI PUSH1 0x5 SWAP6 PUSH2 0xE07 SWAP3 PUSH1 0x1 DUP1 PUSH1 0xA0 SHL SUB SWAP1 MLOAD AND PUSH1 0x1 PUSH1 0x1 PUSH1 0x60 SHL SUB PUSH1 0xA0 SHL DUP8 SLOAD AND OR DUP7 SSTORE MLOAD DUP8 DUP7 ADD SSTORE MLOAD ISZERO ISZERO PUSH1 0x2 DUP6 ADD SWAP1 PUSH1 0xFF DUP1 NOT DUP4 SLOAD AND SWAP2 ISZERO ISZERO AND OR SWAP1 SSTORE JUMP JUMPDEST MLOAD PUSH1 0x3 DUP4 ADD SSTORE MLOAD PUSH1 0x4 DUP3 ADD SSTORE ADD SWAP3 MLOAD SWAP5 DUP6 MLOAD SWAP3 DUP4 GT PUSH2 0xF8A JUMPI PUSH2 0xE2A DUP5 SLOAD PUSH2 0x297C JUMP JUMPDEST PUSH1 0x1F DUP2 GT PUSH2 0xF41 JUMPI JUMPDEST POP DUP1 PUSH1 0x1F DUP5 GT PUSH1 0x1 EQ PUSH2 0xEB2 JUMPI POP SWAP2 DUP1 DUP1 SWAP3 PUSH2 0xEA2 SWAP7 SWAP6 SWAP5 PUSH32 0x22BA00C7A927FE8FF7A3FEB6F006712EC7ADB8E2006183B6F9E437F45FDC030C SWAP9 PUSH1 0x0 SWAP5 PUSH2 0xEA7 JUMPI JUMPDEST POP POP SHL SWAP2 PUSH1 0x0 NOT SWAP1 PUSH1 0x3 SHL SHR NOT AND OR SWAP1 SSTORE JUMPDEST PUSH1 0x40 DUP1 MLOAD SWAP6 ISZERO ISZERO DUP7 MSTORE PUSH1 0x20 DUP7 ADD SWAP2 SWAP1 SWAP2 MSTORE CALLER SWAP5 SWAP2 DUP3 SWAP2 DUP3 ADD SWAP1 JUMP JUMPDEST SUB SWAP1 LOG3 STOP JUMPDEST ADD MLOAD SWAP3 POP DUP11 DUP1 PUSH2 0xE75 JUMP JUMPDEST SWAP2 SWAP4 SWAP5 SWAP6 PUSH1 0x1F NOT DUP5 AND DUP7 PUSH1 0x0 MSTORE DUP4 PUSH1 0x0 KECCAK256 SWAP4 PUSH1 0x0 SWAP1 JUMPDEST DUP3 DUP3 LT PUSH2 0xF2A JUMPI POP POP SWAP2 PUSH32 0x22BA00C7A927FE8FF7A3FEB6F006712EC7ADB8E2006183B6F9E437F45FDC030C SWAP8 SWAP6 SWAP4 SWAP2 DUP6 PUSH2 0xEA2 SWAP9 SWAP7 SWAP5 LT PUSH2 0xF11 JUMPI JUMPDEST POP POP POP DUP2 SHL ADD SWAP1 SSTORE PUSH2 0xE87 JUMP JUMPDEST ADD MLOAD PUSH1 0x0 NOT PUSH1 0xF8 DUP5 PUSH1 0x3 SHL AND SHR NOT AND SWAP1 SSTORE DUP9 DUP1 DUP1 PUSH2 0xF04 JUMP JUMPDEST DUP1 DUP9 DUP7 SWAP8 DUP3 SWAP5 SWAP8 DUP8 ADD MLOAD DUP2 SSTORE ADD SWAP7 ADD SWAP5 ADD SWAP1 PUSH2 0xEC8 JUMP JUMPDEST DUP5 PUSH1 0x0 MSTORE DUP2 PUSH1 0x0 KECCAK256 PUSH1 0x1F DUP6 ADD PUSH1 0x5 SHR DUP2 ADD SWAP2 DUP4 DUP7 LT PUSH2 0xF80 JUMPI JUMPDEST PUSH1 0x1F ADD PUSH1 0x5 SHR ADD SWAP1 DUP4 SWAP1 JUMPDEST DUP3 DUP2 LT PUSH2 0xF74 JUMPI POP POP PUSH2 0xE33 JUMP JUMPDEST PUSH1 0x0 DUP2 SSTORE ADD DUP4 SWAP1 PUSH2 0xF66 JUMP JUMPDEST SWAP1 SWAP2 POP DUP2 SWAP1 PUSH2 0xF5B JUMP JUMPDEST PUSH4 0x4E487B71 PUSH1 0xE0 SHL PUSH1 0x0 MSTORE PUSH1 0x41 PUSH1 0x4 MSTORE PUSH1 0x24 PUSH1 0x0 REVERT JUMPDEST PUSH4 0x4E487B71 PUSH1 0xE0 SHL PUSH1 0x0 MSTORE PUSH1 0x0 PUSH1 0x4 MSTORE PUSH1 0x24 PUSH1 0x0 REVERT JUMPDEST PUSH1 0x40 MLOAD PUSH3 0x461BCD PUSH1 0xE5 SHL DUP2 MSTORE PUSH1 0x4 DUP2 ADD DUP6 SWAP1 MSTORE PUSH1 0x18 PUSH1 0x24 DUP3 ADD MSTORE PUSH32 0x496E76616C696420636F6E666964656E6365206C6576656C0000000000000000 PUSH1 0x44 DUP3 ADD MSTORE PUSH1 0x64 SWAP1 REVERT JUMPDEST PUSH1 0x40 MLOAD PUSH3 0x461BCD PUSH1 0xE5 SHL DUP2 MSTORE PUSH1 0x4 DUP2 ADD DUP6 SWAP1 MSTORE PUSH1 0x17 PUSH1 0x24 DUP3 ADD MSTORE PUSH32 0x4E6F7420616E20617574686F72697A6564206167656E74000000000000000000 PUSH1 0x44 DUP3 ADD MSTORE PUSH1 0x64 SWAP1 REVERT JUMPDEST CALLVALUE PUSH2 0x229 JUMPI PUSH1 0x0 CALLDATASIZE PUSH1 0x3 NOT ADD SLT PUSH2 0x229 JUMPI PUSH2 0x1059 PUSH2 0x2A5C JUMP JUMPDEST PUSH1 0x0 DUP1 SLOAD PUSH1 0x1 PUSH1 0x1 PUSH1 0xA0 SHL SUB NOT DUP2 AND DUP3 SSTORE PUSH1 0x1 PUSH1 0x1 PUSH1 0xA0 SHL SUB AND PUSH32 0x8BE0079C531659141344CD1FD0A4F28419497F9722A3DAAFE3B4186F6B6457E0 DUP3 DUP1 LOG3 STOP JUMPDEST CALLVALUE PUSH2 0x229 JUMPI PUSH2 0x10A7 CALLDATASIZE PUSH2 0x28C1 JUMP JUMPDEST POP POP PUSH1 0x40 MLOAD PUSH2 0xCA0 DUP2 ADD DUP2 DUP2 LT PUSH1 0x1 PUSH1 0x1 PUSH1 0x40 SHL SUB DUP3 GT OR PUSH2 0xF8A JUMPI PUSH1 0x40 MSTORE PUSH1 0x64 SWAP1 DUP2 DUP2 MSTORE PUSH1 0x20 SWAP2 PUSH2 0xC80 CALLDATASIZE DUP5 DUP5 ADD CALLDATACOPY PUSH1 0x0 SWAP2 PUSH1 0x1 SWAP2 DUP3 SWAP1 DUP4 PUSH1 0x8 SLOAD SWAP1 JUMPDEST PUSH2 0x11B9 JUMPI JUMPDEST POP POP POP PUSH2 0x10F6 DUP4 PUSH2 0x27F6 JUMP JUMPDEST SWAP1 PUSH2 0x1104 PUSH1 0x40 MLOAD SWAP3 DUP4 PUSH2 0x27D5 JUMP JUMPDEST DUP4 DUP3 MSTORE PUSH2 0x1110 DUP5 PUSH2 0x27F6 JUMP JUMPDEST SWAP2 DUP6 DUP2 ADD SWAP2 PUSH1 0x1F NOT DUP1 SWAP5 ADD CALLDATASIZE DUP5 CALLDATACOPY PUSH1 0x0 JUMPDEST DUP7 DUP2 LT PUSH2 0x118F JUMPI POP POP PUSH1 0x40 MLOAD SWAP4 PUSH1 0x40 DUP6 ADD SWAP2 DUP8 DUP1 DUP8 ADD MSTORE MLOAD DUP1 SWAP3 MSTORE PUSH1 0x60 DUP6 ADD SWAP3 SWAP2 PUSH1 0x0 JUMPDEST DUP9 DUP3 DUP3 LT PUSH2 0x117C JUMPI DUP9 PUSH2 0x8F0 DUP10 PUSH2 0x1164 DUP11 DUP3 DUP12 SUB SWAP1 DUP2 ADD DUP4 MSTORE DUP3 PUSH2 0x27D5 JUMP JUMPDEST PUSH1 0x40 DUP1 MLOAD SWAP5 DUP6 SWAP5 ISZERO ISZERO DUP6 MSTORE DUP5 ADD MSTORE PUSH1 0x40 DUP4 ADD SWAP1 PUSH2 0x290A JUMP JUMPDEST DUP5 MLOAD DUP7 MSTORE SWAP5 DUP6 ADD SWAP5 SWAP1 SWAP4 ADD SWAP3 DUP3 ADD PUSH2 0x1145 JUMP JUMPDEST DUP1 PUSH2 0x11A0 PUSH2 0x11B1 SWAP3 DUP5 SWAP9 SWAP6 SWAP9 PUSH2 0x2D5B JUMP JUMPDEST MLOAD PUSH2 0x11AB DUP3 DUP10 PUSH2 0x2D5B JUMP JUMPDEST MSTORE PUSH2 0x2A88 JUMP JUMPDEST SWAP5 SWAP2 SWAP5 PUSH2 0x1121 JUMP JUMPDEST DUP1 DUP4 SWAP7 SWAP6 SWAP4 LT DUP1 PUSH2 0x124D JUMPI JUMPDEST ISZERO PUSH2 0x1244 JUMPI DUP6 PUSH1 0x0 MSTORE PUSH1 0x3 DUP8 MSTORE PUSH1 0x40 PUSH1 0x0 KECCAK256 PUSH1 0xFF SWAP1 DUP2 PUSH1 0xC DUP3 ADD SLOAD AND SWAP2 DUP3 PUSH2 0x1235 JUMPI JUMPDEST POP DUP2 PUSH2 0x1226 JUMPI JUMPDEST POP PUSH2 0x1209 JUMPI JUMPDEST PUSH2 0x1201 DUP4 SWAP5 SWAP6 SWAP7 PUSH2 0x2A88 JUMP JUMPDEST SWAP3 SWAP5 SWAP4 PUSH2 0x10E5 JUMP JUMPDEST PUSH2 0x1201 PUSH2 0x121D DUP7 DUP9 PUSH2 0x11AB DUP9 SWAP10 DUP9 SWAP10 PUSH2 0x2D5B JUMP JUMPDEST SWAP6 SWAP5 POP POP PUSH2 0x11F5 JUMP JUMPDEST PUSH1 0x4 SWAP2 POP ADD SLOAD TIMESTAMP LT ISZERO DUP9 PUSH2 0x11EF JUMP JUMPDEST PUSH1 0x6 DUP3 ADD SLOAD AND ISZERO SWAP2 POP DUP10 PUSH2 0x11E8 JUMP JUMPDEST DUP3 SWAP5 SWAP6 POP PUSH2 0x10EA JUMP JUMPDEST POP DUP2 DUP6 LT PUSH2 0x11C5 JUMP JUMPDEST CALLVALUE PUSH2 0x229 JUMPI PUSH1 0x20 DUP1 PUSH1 0x3 NOT CALLDATASIZE ADD SLT PUSH2 0x229 JUMPI PUSH1 0x4 CALLDATALOAD PUSH2 0x1273 PUSH2 0x2B9D JUMP JUMPDEST DUP1 PUSH1 0x0 MSTORE PUSH1 0x3 DUP3 MSTORE PUSH1 0x40 PUSH1 0x0 KECCAK256 SWAP2 PUSH1 0x4 DUP2 MSTORE PUSH1 0x40 PUSH1 0x0 KECCAK256 CALLER PUSH1 0x0 MSTORE DUP2 MSTORE PUSH1 0xFF PUSH1 0x6 PUSH1 0x40 PUSH1 0x0 KECCAK256 SWAP5 ADD SLOAD AND ISZERO PUSH2 0x13D6 JUMPI PUSH1 0x4 DUP4 ADD DUP1 SLOAD SWAP4 PUSH1 0xFF DUP6 AND PUSH2 0x139F JUMPI PUSH1 0x2 DUP2 ADD SLOAD ISZERO SWAP1 DUP2 ISZERO SWAP2 PUSH2 0x1391 JUMPI JUMPDEST POP ISZERO PUSH2 0x135E JUMPI PUSH2 0x12D0 CALLER DUP5 PUSH2 0x2C4F JUMP JUMPDEST SWAP4 DUP5 ISZERO PUSH2 0x132B JUMPI PUSH1 0xFF NOT AND PUSH1 0x1 OR SWAP1 SSTORE PUSH1 0xD SLOAD PUSH32 0x5380CF6FE903B40C6D5A9E0DFBCA2F3A423F0A21520B4D5947ED5169BDBA946D SWAP2 SWAP1 PUSH2 0x131C SWAP1 DUP6 SWAP1 CALLER SWAP1 PUSH1 0x1 PUSH1 0x1 PUSH1 0xA0 SHL SUB AND PUSH2 0x2BC0 JUMP JUMPDEST PUSH1 0x40 MLOAD SWAP4 DUP5 MSTORE CALLER SWAP4 LOG3 PUSH1 0x1 DUP1 SSTORE STOP JUMPDEST PUSH1 0x40 MLOAD PUSH3 0x461BCD PUSH1 0xE5 SHL DUP2 MSTORE PUSH1 0x4 DUP2 ADD DUP5 SWAP1 MSTORE PUSH1 0xB PUSH1 0x24 DUP3 ADD MSTORE PUSH11 0x4E6F2077696E6E696E6773 PUSH1 0xA8 SHL PUSH1 0x44 DUP3 ADD MSTORE PUSH1 0x64 SWAP1 REVERT JUMPDEST PUSH1 0x40 MLOAD PUSH3 0x461BCD PUSH1 0xE5 SHL DUP2 MSTORE PUSH1 0x4 DUP2 ADD DUP4 SWAP1 MSTORE PUSH1 0xB PUSH1 0x24 DUP3 ADD MSTORE PUSH11 0x2737903837B9B4BA34B7B7 PUSH1 0xA9 SHL PUSH1 0x44 DUP3 ADD MSTORE PUSH1 0x64 SWAP1 REVERT JUMPDEST PUSH1 0x3 SWAP2 POP ADD SLOAD ISZERO ISZERO DUP6 PUSH2 0x12C0 JUMP JUMPDEST PUSH1 0x40 MLOAD PUSH3 0x461BCD PUSH1 0xE5 SHL DUP2 MSTORE PUSH1 0x4 DUP2 ADD DUP5 SWAP1 MSTORE PUSH1 0xF PUSH1 0x24 DUP3 ADD MSTORE PUSH15 0x105B1C9958591E4818DB185A5B5959 PUSH1 0x8A SHL PUSH1 0x44 DUP3 ADD MSTORE PUSH1 0x64 SWAP1 REVERT JUMPDEST PUSH1 0x64 SWAP1 PUSH1 0x40 MLOAD SWAP1 PUSH3 0x461BCD PUSH1 0xE5 SHL DUP3 MSTORE PUSH1 0x4 DUP3 ADD MSTORE PUSH1 0x13 PUSH1 0x24 DUP3 ADD MSTORE PUSH19 0x13585C9AD95D081B9BDD081C995CDBDB1D9959 PUSH1 0x6A SHL PUSH1 0x44 DUP3 ADD MSTORE REVERT JUMPDEST CALLVALUE PUSH2 0x229 JUMPI PUSH1 0x0 CALLDATASIZE PUSH1 0x3 NOT ADD SLT PUSH2 0x229 JUMPI PUSH1 0x20 PUSH1 0xFF PUSH1 0x2 SLOAD AND PUSH1 0x40 MLOAD SWAP1 ISZERO ISZERO DUP2 MSTORE RETURN JUMPDEST CALLVALUE PUSH2 0x229 JUMPI PUSH1 0x20 CALLDATASIZE PUSH1 0x3 NOT ADD SLT PUSH2 0x229 JUMPI PUSH1 0xA0 PUSH1 0x4 CALLDATALOAD DUP1 PUSH1 0x0 MSTORE PUSH1 0x3 PUSH1 0x20 MSTORE PUSH1 0x40 PUSH1 0x0 KECCAK256 PUSH1 0x8 PUSH1 0x7 DUP3 ADD SLOAD SWAP2 ADD SLOAD SWAP2 PUSH2 0x146C DUP4 DUP4 PUSH2 0x2B16 JUMP JUMPDEST SWAP3 PUSH2 0x147F PUSH2 0x1479 DUP4 PUSH2 0x3110 JUMP JUMPDEST SWAP3 PUSH2 0x3153 JUMP JUMPDEST SWAP3 PUSH1 0x40 MLOAD SWAP5 DUP6 MSTORE PUSH1 0x20 DUP6 ADD MSTORE PUSH1 0x40 DUP5 ADD MSTORE PUSH1 0x60 DUP4 ADD MSTORE PUSH1 0x80 DUP3 ADD MSTORE RETURN JUMPDEST CALLVALUE PUSH2 0x229 JUMPI PUSH1 0x40 CALLDATASIZE PUSH1 0x3 NOT ADD SLT PUSH2 0x229 JUMPI PUSH1 0x4 CALLDATALOAD PUSH2 0x14B8 PUSH2 0x2759 JUMP JUMPDEST PUSH2 0x14C0 PUSH2 0x2A5C JUMP JUMPDEST DUP2 PUSH1 0x0 MSTORE PUSH1 0x3 PUSH1 0x20 MSTORE PUSH1 0x40 PUSH1 0x0 KECCAK256 SWAP1 PUSH2 0x14DF PUSH1 0xFF PUSH1 0xC DUP5 ADD SLOAD AND PUSH2 0x2A97 JUMP JUMPDEST PUSH1 0x4 DUP3 ADD SLOAD TIMESTAMP LT PUSH2 0x159A JUMPI PUSH1 0x6 DUP3 ADD SWAP2 DUP3 SLOAD SWAP1 PUSH1 0xFF DUP3 AND PUSH2 0x1555 JUMPI PUSH2 0xFFFF NOT SWAP1 SWAP2 AND DUP3 ISZERO ISZERO PUSH1 0x8 SHL PUSH2 0xFF00 AND OR PUSH1 0x1 OR SWAP1 SWAP3 SSTORE PUSH32 0x6D4D544F5A6DCF38D77A232D3EF7358625C74877A1AD954FCB507872E7A05EAF SWAP2 PUSH1 0x9 SWAP1 JUMPDEST TIMESTAMP PUSH1 0x5 DUP3 ADD SSTORE ADD SLOAD PUSH1 0x40 DUP1 MLOAD SWAP3 ISZERO ISZERO DUP4 MSTORE PUSH1 0x20 DUP4 ADD SWAP2 SWAP1 SWAP2 MSTORE SWAP1 LOG2 STOP JUMPDEST PUSH1 0x40 MLOAD PUSH3 0x461BCD PUSH1 0xE5 SHL DUP2 MSTORE PUSH1 0x20 PUSH1 0x4 DUP3 ADD MSTORE PUSH1 0x17 PUSH1 0x24 DUP3 ADD MSTORE PUSH32 0x4D61726B657420616C7265616479207265736F6C766564000000000000000000 PUSH1 0x44 DUP3 ADD MSTORE PUSH1 0x64 SWAP1 REVERT JUMPDEST PUSH1 0x40 MLOAD PUSH3 0x461BCD PUSH1 0xE5 SHL DUP2 MSTORE PUSH1 0x20 PUSH1 0x4 DUP3 ADD MSTORE PUSH1 0x14 PUSH1 0x24 DUP3 ADD MSTORE PUSH20 0x13585C9AD95D081A185CC81B9BDD08195B991959 PUSH1 0x62 SHL PUSH1 0x44 DUP3 ADD MSTORE PUSH1 0x64 SWAP1 REVERT JUMPDEST CALLVALUE PUSH2 0x229 JUMPI PUSH1 0x40 CALLDATASIZE PUSH1 0x3 NOT ADD SLT PUSH2 0x229 JUMPI PUSH1 0x20 PUSH2 0x357 PUSH2 0x15F4 PUSH2 0x2759 JUMP JUMPDEST PUSH1 0x4 CALLDATALOAD PUSH2 0x3174 JUMP JUMPDEST CALLVALUE PUSH2 0x229 JUMPI PUSH1 0x20 CALLDATASIZE PUSH1 0x3 NOT ADD SLT PUSH2 0x229 JUMPI PUSH1 0x1 PUSH1 0x1 PUSH1 0xA0 SHL SUB PUSH2 0x161D PUSH2 0x272D JUMP JUMPDEST AND PUSH1 0x0 MSTORE PUSH1 0x7 PUSH1 0x20 MSTORE PUSH1 0x20 PUSH1 0x40 PUSH1 0x0 KECCAK256 SLOAD PUSH1 0x40 MLOAD SWAP1 DUP2 MSTORE RETURN JUMPDEST CALLVALUE PUSH2 0x229 JUMPI PUSH1 0x0 CALLDATASIZE PUSH1 0x3 NOT ADD SLT PUSH2 0x229 JUMPI PUSH2 0x164F PUSH2 0x2A5C JUMP JUMPDEST PUSH1 0xD SLOAD PUSH1 0x40 MLOAD PUSH4 0x70A08231 PUSH1 0xE0 SHL DUP2 MSTORE ADDRESS PUSH1 0x4 DUP3 ADD MSTORE PUSH1 0x1 PUSH1 0x1 PUSH1 0xA0 SHL SUB SWAP2 DUP3 AND SWAP1 PUSH1 0x20 DUP1 DUP3 PUSH1 0x24 DUP2 DUP7 GAS STATICCALL SWAP2 DUP3 ISZERO PUSH2 0x176F JUMPI PUSH1 0x0 SWAP3 PUSH2 0x1740 JUMPI JUMPDEST POP PUSH1 0x0 SWAP1 PUSH1 0x1 SWAP1 PUSH1 0x8 SWAP1 DUP2 SLOAD SWAP3 JUMPDEST DUP4 DUP2 LT PUSH2 0x16D7 JUMPI POP POP POP POP DUP1 DUP3 GT ISZERO PUSH2 0x16CD JUMPI PUSH2 0x16B4 SWAP2 PUSH2 0x2C42 JUMP JUMPDEST SWAP1 JUMPDEST DUP2 PUSH2 0x16BD JUMPI STOP JUMPDEST PUSH2 0x16CB SWAP3 PUSH1 0xC SLOAD AND SWAP1 PUSH2 0x2BC0 JUMP JUMPDEST STOP JUMPDEST POP POP PUSH1 0x0 SWAP1 PUSH2 0x16B6 JUMP JUMPDEST DUP1 PUSH1 0x0 MSTORE PUSH1 0x3 DUP3 MSTORE PUSH1 0x40 PUSH1 0x0 KECCAK256 PUSH1 0xFF DUP1 PUSH1 0xC DUP4 ADD SLOAD AND SWAP1 DUP2 PUSH2 0x1731 JUMPI JUMPDEST POP PUSH2 0x1709 JUMPI JUMPDEST POP PUSH2 0x1704 SWAP1 PUSH2 0x2A88 JUMP JUMPDEST PUSH2 0x1698 JUMP JUMPDEST PUSH2 0x1704 SWAP2 SWAP6 PUSH2 0x1724 DUP3 DUP7 PUSH1 0x7 PUSH2 0x172A SWAP6 ADD SLOAD SWAP2 ADD SLOAD SWAP1 PUSH2 0x2B16 JUMP JUMPDEST SWAP1 PUSH2 0x2B16 JUMP JUMPDEST SWAP5 SWAP1 PUSH2 0x16FA JUMP JUMPDEST SWAP1 POP PUSH1 0x6 DUP3 ADD SLOAD AND ISZERO DUP11 PUSH2 0x16F4 JUMP JUMPDEST SWAP1 DUP1 SWAP3 POP DUP2 DUP2 RETURNDATASIZE DUP4 GT PUSH2 0x1768 JUMPI JUMPDEST PUSH2 0x1758 DUP2 DUP4 PUSH2 0x27D5 JUMP JUMPDEST DUP2 ADD SUB SLT PUSH2 0x229 JUMPI MLOAD SWAP1 DUP5 PUSH2 0x168A JUMP JUMPDEST POP RETURNDATASIZE PUSH2 0x174E JUMP JUMPDEST PUSH1 0x40 MLOAD RETURNDATASIZE PUSH1 0x0 DUP3 RETURNDATACOPY RETURNDATASIZE SWAP1 REVERT JUMPDEST CALLVALUE PUSH2 0x229 JUMPI PUSH1 0x0 CALLDATASIZE PUSH1 0x3 NOT ADD SLT PUSH2 0x229 JUMPI PUSH1 0xC SLOAD PUSH1 0x40 MLOAD PUSH1 0x1 PUSH1 0x1 PUSH1 0xA0 SHL SUB SWAP1 SWAP2 AND DUP2 MSTORE PUSH1 0x20 SWAP1 RETURN JUMPDEST CALLVALUE PUSH2 0x229 JUMPI PUSH2 0x17B2 CALLDATASIZE PUSH2 0x28C1 JUMP JUMPDEST DUP2 ADD PUSH1 0x20 SWAP2 DUP3 DUP2 DUP4 SUB SLT PUSH2 0x229 JUMPI PUSH1 0x1 PUSH1 0x1 PUSH1 0x40 SHL SUB SWAP2 DUP2 CALLDATALOAD DUP4 DUP2 GT PUSH2 0x229 JUMPI PUSH2 0x17DC SWAP3 ADD PUSH2 0x280D JUMP JUMPDEST SWAP1 PUSH1 0x0 JUMPDEST DUP3 MLOAD DUP2 LT ISZERO PUSH2 0x16CB JUMPI PUSH2 0x17F3 DUP2 DUP5 PUSH2 0x2D5B JUMP JUMPDEST MLOAD SWAP1 PUSH1 0xE SLOAD SWAP2 DUP6 PUSH1 0xF SLOAD PUSH1 0xA4 PUSH1 0x10 SLOAD SWAP2 PUSH1 0x0 PUSH1 0x40 MLOAD SWAP8 DUP9 SWAP5 DUP6 SWAP4 PUSH4 0x5D3B1D3 PUSH1 0xE4 SHL DUP6 MSTORE PUSH1 0x4 DUP6 ADD MSTORE DUP11 DUP3 PUSH1 0xA0 SHR AND PUSH1 0x24 DUP6 ADD MSTORE PUSH2 0xFFFF DUP2 DUP9 SHR AND PUSH1 0x44 DUP6 ADD MSTORE PUSH4 0xFFFFFFFF SWAP1 DUP2 DUP2 AND PUSH1 0x64 DUP7 ADD MSTORE PUSH1 0x30 SHR AND PUSH1 0x84 DUP5 ADD MSTORE PUSH1 0x1 DUP1 PUSH1 0xA0 SHL SUB AND GAS CALL DUP1 ISZERO PUSH2 0x176F JUMPI PUSH1 0x0 SWAP1 PUSH2 0x187E JUMPI JUMPDEST PUSH2 0x1879 SWAP4 POP PUSH1 0x0 MSTORE PUSH1 0x11 DUP7 MSTORE PUSH1 0x40 PUSH1 0x0 KECCAK256 SSTORE PUSH2 0x2A88 JUMP JUMPDEST PUSH2 0x17E0 JUMP JUMPDEST POP DUP6 DUP4 DUP2 RETURNDATASIZE DUP4 GT PUSH2 0x18A6 JUMPI JUMPDEST PUSH2 0x1894 DUP2 DUP4 PUSH2 0x27D5 JUMP JUMPDEST DUP2 ADD SUB SLT PUSH2 0x229 JUMPI PUSH2 0x1879 SWAP3 MLOAD PUSH2 0x1862 JUMP JUMPDEST POP RETURNDATASIZE PUSH2 0x188A JUMP JUMPDEST CALLVALUE PUSH2 0x229 JUMPI PUSH1 0x0 CALLDATASIZE PUSH1 0x3 NOT ADD SLT PUSH2 0x229 JUMPI PUSH1 0xD SLOAD PUSH1 0x40 MLOAD PUSH1 0x1 PUSH1 0x1 PUSH1 0xA0 SHL SUB SWAP1 SWAP2 AND DUP2 MSTORE PUSH1 0x20 SWAP1 RETURN JUMPDEST CALLVALUE PUSH2 0x229 JUMPI PUSH1 0x20 CALLDATASIZE PUSH1 0x3 NOT ADD SLT PUSH2 0x229 JUMPI PUSH2 0x18EF PUSH2 0x272D JUMP JUMPDEST PUSH2 0x18F7 PUSH2 0x2A5C JUMP JUMPDEST PUSH1 0x13 DUP1 SLOAD PUSH1 0x1 PUSH1 0x1 PUSH1 0xA0 SHL SUB NOT AND PUSH1 0x1 PUSH1 0x1 PUSH1 0xA0 SHL SUB SWAP3 SWAP1 SWAP3 AND SWAP2 SWAP1 SWAP2 OR SWAP1 SSTORE STOP JUMPDEST CALLVALUE PUSH2 0x229 JUMPI PUSH1 0x0 CALLDATASIZE PUSH1 0x3 NOT ADD SLT PUSH2 0x229 JUMPI PUSH1 0x20 PUSH1 0x8 SLOAD PUSH1 0x40 MLOAD SWAP1 DUP2 MSTORE RETURN JUMPDEST CALLVALUE PUSH2 0x229 JUMPI PUSH1 0x0 CALLDATASIZE PUSH1 0x3 NOT ADD SLT PUSH2 0x229 JUMPI PUSH2 0x1950 PUSH2 0x2A5C JUMP JUMPDEST PUSH1 0x2 SLOAD PUSH1 0xFF DUP2 AND ISZERO PUSH2 0x198F JUMPI PUSH1 0xFF NOT AND PUSH1 0x2 SSTORE PUSH32 0x5DB9EE0A495BF2E6FF9C91A7834C1BA4FDD244A5E8AA4E537BD38AEAE4B073AA PUSH1 0x20 PUSH1 0x40 MLOAD CALLER DUP2 MSTORE LOG1 STOP JUMPDEST PUSH1 0x40 MLOAD PUSH4 0x8DFC202B PUSH1 0xE0 SHL DUP2 MSTORE PUSH1 0x4 SWAP1 REVERT JUMPDEST CALLVALUE PUSH2 0x229 JUMPI PUSH1 0x80 CALLDATASIZE PUSH1 0x3 NOT ADD SLT PUSH2 0x229 JUMPI PUSH1 0x12 SLOAD PUSH1 0x4 CALLDATALOAD SWAP1 PUSH1 0x44 CALLDATALOAD SWAP1 PUSH1 0x24 DUP1 CALLDATALOAD SWAP2 PUSH1 0x64 CALLDATALOAD SWAP2 SWAP1 PUSH1 0x1 PUSH1 0x1 PUSH1 0xA0 SHL SUB AND CALLER SUB PUSH2 0x1BCE JUMPI DUP5 PUSH1 0x0 MSTORE PUSH1 0x3 PUSH1 0x20 MSTORE PUSH2 0x19F3 PUSH1 0xFF PUSH1 0xC PUSH1 0x40 PUSH1 0x0 KECCAK256 ADD SLOAD AND PUSH2 0x2A97 JUMP JUMPDEST DUP5 PUSH1 0x0 MSTORE PUSH1 0x3 PUSH1 0x20 MSTORE PUSH1 0x40 PUSH1 0x0 KECCAK256 PUSH2 0x1A14 PUSH1 0x8 PUSH1 0x7 DUP4 ADD SLOAD SWAP3 ADD SLOAD DUP3 PUSH2 0x2B16 JUMP JUMPDEST SWAP1 DUP2 ISZERO PUSH2 0x1BC4 JUMPI PUSH2 0x2710 SWAP1 DUP2 DUP2 MUL SWAP2 DUP2 DUP4 DIV EQ SWAP1 ISZERO OR ISZERO PUSH2 0x1BAF JUMPI SWAP1 PUSH2 0x1A39 SWAP2 PUSH2 0x2C22 JUMP JUMPDEST PUSH2 0xBB8 SWAP1 DUP2 DUP6 MUL SWAP2 DUP6 DUP4 SDIV DUP2 EQ DUP7 ISZERO OR ISZERO PUSH2 0x1B9A JUMPI PUSH1 0x64 DUP8 GT ISZERO PUSH2 0x1B62 JUMPI PUSH2 0x1A9B SWAP2 PUSH2 0x1A8E SWAP2 PUSH2 0x1A71 PUSH2 0x7D0 JUMPDEST PUSH2 0x2710 DUP1 SWAP8 SDIV PUSH2 0x2D6F JUMP JUMPDEST SWAP1 PUSH1 0x0 SWAP3 PUSH2 0x1B58 DUP2 GT PUSH1 0x0 EQ PUSH2 0x1B52 JUMPI POP PUSH2 0x9C3 NOT SWAP3 POP POP PUSH2 0x2D6F JUMP JUMPDEST PUSH1 0x0 SWAP1 DUP6 PUSH2 0x1B48 JUMPI PUSH2 0x2D6F JUMP JUMPDEST SWAP2 PUSH2 0x1AA5 DUP8 PUSH2 0x2D8B JUMP JUMPDEST SWAP1 PUSH2 0x3E8 SWAP2 DUP3 DUP2 MUL SWAP3 DUP2 DUP5 SDIV EQ SWAP1 ISZERO OR ISZERO PUSH2 0x1B34 JUMPI POP PUSH1 0x20 SWAP5 PUSH32 0xDFD82827A4D074A51145F27623314DCD4BFD0C3345240B4A2AC311B02B0AB72C SWAP7 SWAP5 PUSH2 0x1B1A PUSH2 0x1B15 DUP11 SWAP7 PUSH32 0x6CABA359401716AB4B75ED4C95934C00B69A7BA1E57EED590CD110EA9F16B5AA SWAP7 PUSH1 0x60 SWAP7 SDIV SWAP1 PUSH2 0x2D6F JUMP JUMPDEST PUSH2 0x2ED0 JUMP JUMPDEST SWAP6 PUSH1 0x40 MLOAD SWAP3 DUP4 MSTORE DUP8 DUP4 ADD MSTORE PUSH1 0x40 DUP3 ADD MSTORE LOG2 PUSH1 0x40 MLOAD SWAP1 DUP2 MSTORE LOG2 STOP JUMPDEST PUSH4 0x4E487B71 PUSH1 0xE0 SHL PUSH1 0x0 SWAP1 DUP2 MSTORE PUSH1 0x11 PUSH1 0x4 MSTORE REVERT JUMPDEST PUSH2 0x5DC SWAP2 POP PUSH2 0x2D6F JUMP JUMPDEST LT ISZERO PUSH2 0x2D6F JUMPI PUSH2 0x9C4 SWAP2 POP PUSH2 0x2D6F JUMP JUMPDEST PUSH1 0x14 DUP8 MUL DUP8 DUP2 SDIV PUSH1 0x14 EQ DUP9 ISZERO OR ISZERO PUSH2 0x1B85 JUMPI SWAP2 PUSH2 0x1A8E SWAP2 PUSH2 0x1A71 PUSH2 0x1A9B SWAP5 PUSH2 0x1A66 JUMP JUMPDEST DUP5 PUSH4 0x4E487B71 PUSH1 0xE0 SHL PUSH1 0x0 MSTORE PUSH1 0x11 PUSH1 0x4 MSTORE PUSH1 0x0 REVERT JUMPDEST DUP4 PUSH4 0x4E487B71 PUSH1 0xE0 SHL PUSH1 0x0 MSTORE PUSH1 0x11 PUSH1 0x4 MSTORE PUSH1 0x0 REVERT JUMPDEST DUP3 PUSH4 0x4E487B71 PUSH1 0xE0 SHL PUSH1 0x0 MSTORE PUSH1 0x11 PUSH1 0x4 MSTORE PUSH1 0x0 REVERT JUMPDEST POP POP PUSH2 0x1388 PUSH2 0x1A39 JUMP JUMPDEST PUSH1 0x64 SWAP1 PUSH1 0x1E PUSH1 0x40 MLOAD SWAP2 PUSH3 0x461BCD PUSH1 0xE5 SHL DUP4 MSTORE PUSH1 0x20 PUSH1 0x4 DUP5 ADD MSTORE DUP3 ADD MSTORE PUSH32 0x4F6E6C7920537761726D46756E6374696F6E732063616E207570646174650000 PUSH1 0x44 DUP3 ADD MSTORE REVERT JUMPDEST CALLVALUE PUSH2 0x229 JUMPI PUSH1 0x80 CALLDATASIZE PUSH1 0x3 NOT ADD SLT PUSH2 0x229 JUMPI PUSH1 0x4 CALLDATALOAD PUSH1 0x1 PUSH1 0x1 PUSH1 0x40 SHL SUB DUP2 GT PUSH2 0x229 JUMPI PUSH2 0x1C42 SWAP1 CALLDATASIZE SWAP1 PUSH1 0x4 ADD PUSH2 0x286B JUMP JUMPDEST PUSH1 0x24 CALLDATALOAD PUSH1 0x1 PUSH1 0x1 PUSH1 0x40 SHL SUB DUP2 GT PUSH2 0x229 JUMPI PUSH2 0x1C61 SWAP1 CALLDATASIZE SWAP1 PUSH1 0x4 ADD PUSH2 0x286B JUMP JUMPDEST TIMESTAMP PUSH1 0x44 CALLDATALOAD GT ISZERO PUSH2 0x20FC JUMPI PUSH2 0x3E8 PUSH1 0x64 CALLDATALOAD GT PUSH2 0x20C0 JUMPI PUSH1 0x8 SLOAD SWAP1 PUSH2 0x1C83 DUP3 PUSH2 0x2A88 JUMP JUMPDEST PUSH1 0x8 SSTORE PUSH1 0x40 MLOAD PUSH2 0x1C92 DUP2 PUSH2 0x2768 JUMP JUMPDEST DUP3 DUP2 MSTORE DUP4 PUSH1 0x20 DUP3 ADD MSTORE DUP2 PUSH1 0x40 DUP3 ADD MSTORE TIMESTAMP PUSH1 0x60 DUP3 ADD MSTORE PUSH1 0x44 CALLDATALOAD PUSH1 0x80 DUP3 ADD MSTORE PUSH1 0x0 PUSH1 0xA0 DUP3 ADD MSTORE PUSH1 0x0 PUSH1 0xC0 DUP3 ADD MSTORE PUSH1 0x0 PUSH1 0xE0 DUP3 ADD MSTORE PUSH1 0x0 PUSH2 0x100 DUP3 ADD MSTORE PUSH1 0x0 PUSH2 0x120 DUP3 ADD MSTORE PUSH1 0x0 PUSH2 0x140 DUP3 ADD MSTORE CALLER PUSH2 0x160 DUP3 ADD MSTORE PUSH1 0x64 CALLDATALOAD PUSH2 0x180 DUP3 ADD MSTORE PUSH1 0x1 PUSH2 0x1A0 DUP3 ADD MSTORE DUP3 PUSH1 0x0 MSTORE PUSH1 0x3 PUSH1 0x20 MSTORE PUSH1 0x40 PUSH1 0x0 KECCAK256 SWAP1 DUP1 MLOAD DUP3 SSTORE PUSH1 0x20 DUP2 ADD MLOAD DUP1 MLOAD SWAP1 PUSH1 0x1 PUSH1 0x1 PUSH1 0x40 SHL SUB DUP3 GT PUSH2 0xF8A JUMPI DUP2 SWAP1 PUSH2 0x1D2C PUSH1 0x1 DUP7 ADD SLOAD PUSH2 0x297C JUMP JUMPDEST PUSH1 0x1F DUP2 GT PUSH2 0x206D JUMPI JUMPDEST POP PUSH1 0x20 SWAP1 PUSH1 0x1F DUP4 GT PUSH1 0x1 EQ PUSH2 0x1FFB JUMPI PUSH1 0x0 SWAP3 PUSH2 0x1FF0 JUMPI JUMPDEST POP POP DUP2 PUSH1 0x1 SHL SWAP2 PUSH1 0x0 NOT SWAP1 PUSH1 0x3 SHL SHR NOT AND OR PUSH1 0x1 DUP4 ADD SSTORE JUMPDEST PUSH1 0x40 DUP2 ADD MLOAD DUP1 MLOAD SWAP1 PUSH1 0x1 PUSH1 0x1 PUSH1 0x40 SHL SUB DUP3 GT PUSH2 0xF8A JUMPI PUSH2 0x1D87 PUSH1 0x2 DUP6 ADD SLOAD PUSH2 0x297C JUMP JUMPDEST PUSH1 0x1F DUP2 GT PUSH2 0x1FA9 JUMPI JUMPDEST POP SWAP2 PUSH1 0x20 SWAP7 SWAP4 SWAP2 DUP7 SWAP6 SWAP4 DUP9 SWAP1 PUSH1 0x1F DUP4 GT PUSH1 0x1 EQ PUSH2 0x1F05 JUMPI SWAP4 PUSH1 0xC PUSH2 0x1A0 PUSH2 0x1EE1 SWAP6 DUP6 PUSH2 0x1ED4 SWAP10 SWAP7 PUSH2 0x1EC0 SWAP7 PUSH32 0x52105760953315619BB79834BD5F30E171E178D6354E6CED3FC3BA13A79C6F50 SWAP13 SWAP11 PUSH1 0x0 SWAP3 PUSH2 0x1EFA JUMPI JUMPDEST POP POP DUP2 PUSH1 0x1 SHL SWAP2 PUSH1 0x0 NOT SWAP1 PUSH1 0x3 SHL SHR NOT AND OR PUSH1 0x2 DUP6 ADD SSTORE JUMPDEST PUSH1 0x60 DUP2 ADD MLOAD PUSH1 0x3 DUP6 ADD SSTORE PUSH1 0x80 DUP2 ADD MLOAD PUSH1 0x4 DUP6 ADD SSTORE PUSH1 0xA0 DUP2 ADD MLOAD PUSH1 0x5 DUP6 ADD SSTORE PUSH2 0x1E5A PUSH1 0x6 DUP6 ADD PUSH2 0x1E3F PUSH1 0xC0 DUP5 ADD MLOAD ISZERO ISZERO DUP3 SWAP1 PUSH1 0xFF DUP1 NOT DUP4 SLOAD AND SWAP2 ISZERO ISZERO AND OR SWAP1 SSTORE JUMP JUMPDEST PUSH1 0xE0 DUP4 ADD MLOAD DUP2 SLOAD PUSH2 0xFF00 NOT AND SWAP1 ISZERO ISZERO PUSH1 0x8 SHL PUSH2 0xFF00 AND OR SWAP1 SSTORE JUMP JUMPDEST PUSH2 0x100 DUP2 ADD MLOAD PUSH1 0x7 DUP6 ADD SSTORE PUSH2 0x120 DUP2 ADD MLOAD PUSH1 0x8 DUP6 ADD SSTORE PUSH2 0x140 DUP2 ADD MLOAD PUSH1 0x9 DUP6 ADD SSTORE PUSH1 0xA DUP5 ADD PUSH1 0x1 DUP1 PUSH1 0xA0 SHL SUB PUSH2 0x160 DUP4 ADD MLOAD AND PUSH1 0x1 PUSH1 0x1 PUSH1 0x60 SHL SUB PUSH1 0xA0 SHL DUP3 SLOAD AND OR SWAP1 SSTORE PUSH2 0x180 DUP2 ADD MLOAD PUSH1 0xB DUP6 ADD SSTORE ADD MLOAD ISZERO ISZERO SWAP2 ADD SWAP1 PUSH1 0xFF DUP1 NOT DUP4 SLOAD AND SWAP2 ISZERO ISZERO AND OR SWAP1 SSTORE JUMP JUMPDEST PUSH1 0x40 MLOAD SWAP4 DUP5 SWAP4 PUSH1 0x80 DUP6 MSTORE PUSH1 0x80 DUP6 ADD SWAP1 PUSH2 0x290A JUMP JUMPDEST SWAP1 DUP4 DUP3 SUB DUP10 DUP6 ADD MSTORE PUSH2 0x290A JUMP JUMPDEST PUSH1 0x44 CALLDATALOAD PUSH1 0x40 DUP4 ADD MSTORE CALLER PUSH1 0x60 DUP4 ADD MSTORE SUB SWAP1 LOG2 PUSH1 0x40 MLOAD SWAP1 DUP2 MSTORE RETURN JUMPDEST ADD MLOAD SWAP1 POP DUP16 DUP1 PUSH2 0x1DE6 JUMP JUMPDEST SWAP1 PUSH1 0x2 DUP6 ADD PUSH1 0x0 MSTORE DUP10 PUSH1 0x0 KECCAK256 SWAP2 PUSH1 0x0 JUMPDEST PUSH1 0x1F NOT DUP6 AND DUP2 LT PUSH2 0x1F8F JUMPI POP PUSH2 0x1A0 PUSH2 0x1EE1 SWAP6 PUSH1 0x1 DUP7 PUSH2 0x1EC0 SWAP7 PUSH32 0x52105760953315619BB79834BD5F30E171E178D6354E6CED3FC3BA13A79C6F50 SWAP13 SWAP11 SWAP7 PUSH1 0xC SWAP7 PUSH2 0x1ED4 SWAP14 SWAP11 PUSH1 0x1F NOT DUP2 AND LT PUSH2 0x1F76 JUMPI JUMPDEST POP POP POP DUP2 SHL ADD PUSH1 0x2 DUP6 ADD SSTORE PUSH2 0x1DFE JUMP JUMPDEST ADD MLOAD PUSH1 0x0 NOT PUSH1 0xF8 DUP5 PUSH1 0x3 SHL AND SHR NOT AND SWAP1 SSTORE DUP16 DUP1 DUP1 PUSH2 0x1F66 JUMP JUMPDEST DUP2 DUP4 ADD MLOAD DUP5 SSTORE DUP11 SWAP10 POP PUSH1 0x1 SWAP1 SWAP4 ADD SWAP3 SWAP2 DUP12 ADD SWAP2 DUP12 ADD PUSH2 0x1F15 JUMP JUMPDEST PUSH1 0x2 DUP6 ADD PUSH1 0x0 MSTORE PUSH1 0x20 PUSH1 0x0 KECCAK256 PUSH1 0x1F DUP5 ADD PUSH1 0x5 SHR DUP2 ADD PUSH1 0x20 DUP6 LT PUSH2 0x1FE9 JUMPI JUMPDEST PUSH1 0x1F DUP4 ADD PUSH1 0x5 SHR DUP3 ADD DUP2 LT PUSH2 0x1FDD JUMPI POP POP PUSH2 0x1D90 JUMP JUMPDEST PUSH1 0x0 DUP2 SSTORE PUSH1 0x1 ADD PUSH2 0x1FC7 JUMP JUMPDEST POP DUP1 PUSH2 0x1FC7 JUMP JUMPDEST ADD MLOAD SWAP1 POP DUP8 DUP1 PUSH2 0x1D4C JUMP JUMPDEST SWAP3 POP PUSH1 0x1 DUP6 ADD PUSH1 0x0 MSTORE PUSH1 0x20 PUSH1 0x0 KECCAK256 SWAP1 PUSH1 0x0 SWAP4 JUMPDEST PUSH1 0x1F NOT DUP5 AND DUP6 LT PUSH2 0x2052 JUMPI PUSH1 0x1 SWAP5 POP DUP4 PUSH1 0x1F NOT DUP2 AND LT PUSH2 0x2039 JUMPI JUMPDEST POP POP POP DUP2 SHL ADD PUSH1 0x1 DUP4 ADD SSTORE PUSH2 0x1D64 JUMP JUMPDEST ADD MLOAD PUSH1 0x0 NOT PUSH1 0xF8 DUP5 PUSH1 0x3 SHL AND SHR NOT AND SWAP1 SSTORE DUP8 DUP1 DUP1 PUSH2 0x2029 JUMP JUMPDEST DUP2 DUP2 ADD MLOAD DUP4 SSTORE PUSH1 0x20 SWAP5 DUP6 ADD SWAP5 PUSH1 0x1 SWAP1 SWAP4 ADD SWAP3 SWAP1 SWAP2 ADD SWAP1 PUSH2 0x200E JUMP JUMPDEST SWAP1 SWAP2 POP PUSH1 0x1 DUP6 ADD PUSH1 0x0 MSTORE PUSH1 0x20 PUSH1 0x0 KECCAK256 PUSH1 0x1F DUP5 ADD PUSH1 0x5 SHR DUP2 ADD PUSH1 0x20 DUP6 LT PUSH2 0x20B9 JUMPI JUMPDEST SWAP1 DUP5 SWAP4 SWAP3 SWAP2 JUMPDEST PUSH1 0x1F DUP4 ADD PUSH1 0x5 SHR DUP3 ADD DUP2 LT PUSH2 0x20AA JUMPI POP POP PUSH2 0x1D35 JUMP JUMPDEST PUSH1 0x0 DUP2 SSTORE DUP6 SWAP5 POP PUSH1 0x1 ADD PUSH2 0x2094 JUMP JUMPDEST POP DUP1 PUSH2 0x208E JUMP JUMPDEST PUSH1 0x40 MLOAD PUSH3 0x461BCD PUSH1 0xE5 SHL DUP2 MSTORE PUSH1 0x20 PUSH1 0x4 DUP3 ADD MSTORE PUSH1 0x14 PUSH1 0x24 DUP3 ADD MSTORE PUSH20 0x86E4CAC2E8DEE440CCCACA40E8DEDE40D0D2CED PUSH1 0x63 SHL PUSH1 0x44 DUP3 ADD MSTORE PUSH1 0x64 SWAP1 REVERT JUMPDEST PUSH1 0x40 MLOAD PUSH3 0x461BCD PUSH1 0xE5 SHL DUP2 MSTORE PUSH1 0x20 PUSH1 0x4 DUP3 ADD MSTORE PUSH1 0x1E PUSH1 0x24 DUP3 ADD MSTORE PUSH32 0x456E642074696D65206D75737420626520696E20746865206675747572650000 PUSH1 0x44 DUP3 ADD MSTORE PUSH1 0x64 SWAP1 REVERT JUMPDEST CALLVALUE PUSH2 0x229 JUMPI PUSH1 0x0 CALLDATASIZE PUSH1 0x3 NOT ADD SLT PUSH2 0x229 JUMPI PUSH1 0x20 PUSH1 0x9 SLOAD PUSH1 0x40 MLOAD SWAP1 DUP2 MSTORE RETURN JUMPDEST CALLVALUE PUSH2 0x229 JUMPI PUSH1 0x40 CALLDATASIZE PUSH1 0x3 NOT ADD SLT PUSH2 0x229 JUMPI PUSH1 0x24 CALLDATALOAD PUSH1 0x1 PUSH1 0x1 PUSH1 0x40 SHL SUB DUP2 GT PUSH2 0x229 JUMPI PUSH2 0x218F SWAP1 CALLDATASIZE SWAP1 PUSH1 0x4 ADD PUSH2 0x280D JUMP JUMPDEST PUSH32 0x0 PUSH1 0x1 PUSH1 0x1 PUSH1 0xA0 SHL SUB AND CALLER DUP2 SWAP1 SUB PUSH2 0x2345 JUMPI POP PUSH1 0x4 CALLDATALOAD PUSH1 0x0 MSTORE PUSH1 0x11 PUSH1 0x20 MSTORE PUSH1 0x40 PUSH1 0x0 KECCAK256 SLOAD SWAP1 DUP2 PUSH1 0x0 MSTORE PUSH1 0x3 PUSH1 0x20 MSTORE PUSH1 0x40 PUSH1 0x0 KECCAK256 SWAP1 PUSH1 0x6 DUP3 ADD SLOAD SWAP1 PUSH1 0xFF DUP3 AND ISZERO DUP1 PUSH2 0x2337 JUMPI JUMPDEST PUSH2 0x21FA JUMPI STOP JUMPDEST PUSH1 0x5 PUSH1 0x20 MSTORE PUSH1 0x40 PUSH1 0x0 KECCAK256 SWAP3 PUSH1 0x0 SWAP2 PUSH1 0x0 SWAP5 PUSH1 0x0 SWAP1 PUSH1 0x0 DUP2 SLOAD SWAP2 JUMPDEST DUP3 DUP3 LT PUSH2 0x22B5 JUMPI POP POP POP POP DUP1 MLOAD ISZERO PUSH2 0x229F JUMPI PUSH32 0x6D4D544F5A6DCF38D77A232D3EF7358625C74877A1AD954FCB507872E7A05EAF SWAP5 PUSH1 0x9 SWAP4 PUSH1 0x1 DUP1 PUSH1 0x20 DUP2 SWAP6 ADD MLOAD AND EQ DUP9 PUSH1 0x0 MSTORE PUSH1 0x5 PUSH1 0x20 MSTORE PUSH1 0x40 PUSH1 0x0 KECCAK256 SLOAD ISZERO ISZERO PUSH1 0x0 EQ PUSH2 0x2296 JUMPI POP GT SWAP4 JUMPDEST PUSH2 0xFF00 NOT SWAP1 SWAP2 AND PUSH2 0xFFFF NOT SWAP1 SWAP2 AND OR DUP4 ISZERO ISZERO PUSH1 0x8 SHL PUSH2 0xFF00 AND OR PUSH1 0x6 DUP3 ADD SSTORE PUSH2 0x1538 JUMP JUMPDEST SWAP2 POP POP SWAP4 PUSH2 0x2272 JUMP JUMPDEST PUSH4 0x4E487B71 PUSH1 0xE0 SHL PUSH1 0x0 MSTORE PUSH1 0x32 PUSH1 0x4 MSTORE PUSH1 0x24 PUSH1 0x0 REVERT JUMPDEST SWAP1 SWAP2 SWAP3 SWAP6 PUSH2 0x22C3 DUP4 DUP4 PUSH2 0x2960 JUMP JUMPDEST POP SWAP1 PUSH1 0x1 DUP1 PUSH1 0xA0 SHL SUB DUP3 SLOAD AND PUSH1 0x0 MSTORE PUSH1 0x7 PUSH1 0x20 MSTORE PUSH1 0xFF PUSH1 0x2 PUSH2 0x22EF PUSH1 0x40 PUSH1 0x0 KECCAK256 SLOAD PUSH1 0x3 DUP7 ADD SLOAD SWAP1 PUSH2 0x2C0F JUMP JUMPDEST SWAP4 ADD SLOAD AND ISZERO PUSH2 0x231E JUMPI DUP2 PUSH2 0x2309 PUSH2 0x2315 SWAP4 PUSH2 0x230F SWAP4 PUSH2 0x2B16 JUMP JUMPDEST SWAP9 PUSH2 0x2B16 JUMP JUMPDEST SWAP3 PUSH2 0x2A88 JUMP JUMPDEST SWAP1 SWAP3 SWAP2 SWAP3 PUSH2 0x2214 JUMP JUMPDEST SWAP7 SWAP9 DUP2 PUSH2 0x2331 PUSH2 0x2315 SWAP4 PUSH2 0x230F SWAP4 PUSH2 0x2B16 JUMP JUMPDEST SWAP11 PUSH2 0x2B16 JUMP JUMPDEST POP PUSH1 0xFF PUSH1 0xC DUP5 ADD SLOAD AND PUSH2 0x21F4 JUMP JUMPDEST PUSH1 0x44 SWAP1 PUSH1 0x40 MLOAD SWAP1 PUSH4 0x73E64FD PUSH1 0xE2 SHL DUP3 MSTORE CALLER PUSH1 0x4 DUP4 ADD MSTORE PUSH1 0x24 DUP3 ADD MSTORE REVERT JUMPDEST CALLVALUE PUSH2 0x229 JUMPI PUSH1 0x60 CALLDATASIZE PUSH1 0x3 NOT ADD SLT PUSH2 0x229 JUMPI PUSH1 0x4 CALLDATALOAD PUSH2 0x237F PUSH2 0x2759 JUMP JUMPDEST SWAP1 PUSH1 0x44 CALLDATALOAD PUSH2 0x238B PUSH2 0x2B9D JUMP JUMPDEST PUSH2 0x2393 PUSH2 0x2B7F JUMP JUMPDEST DUP2 PUSH1 0x0 MSTORE PUSH1 0x3 PUSH1 0x20 MSTORE PUSH1 0x40 PUSH1 0x0 KECCAK256 PUSH2 0x23B1 PUSH1 0xFF PUSH1 0xC DUP4 ADD SLOAD AND PUSH2 0x2A97 JUMP JUMPDEST PUSH2 0x23C0 PUSH1 0x4 DUP3 ADD SLOAD TIMESTAMP LT PUSH2 0x2AD7 JUMP JUMPDEST PUSH1 0xA SLOAD DUP3 LT ISZERO DUP1 PUSH2 0x252F JUMPI JUMPDEST ISZERO PUSH2 0x24F5 JUMPI PUSH1 0xD SLOAD PUSH1 0x40 MLOAD PUSH4 0x23B872DD PUSH1 0xE0 SHL PUSH1 0x20 DUP3 ADD MSTORE CALLER PUSH1 0x24 DUP3 ADD MSTORE ADDRESS PUSH1 0x44 DUP3 ADD MSTORE PUSH1 0x64 DUP1 DUP3 ADD DUP6 SWAP1 MSTORE DUP2 MSTORE PUSH32 0x4AF71B021E799C62C158BD54636CA8DA2FA26115A21A2DC6EFE486EC104FD15F SWAP4 PUSH2 0x24C6 SWAP4 SWAP1 SWAP3 PUSH1 0x9 SWAP3 PUSH2 0x2440 SWAP2 PUSH1 0x1 PUSH1 0x1 PUSH1 0xA0 SHL SUB AND PUSH2 0x243B DUP3 PUSH2 0x279F JUMP JUMPDEST PUSH2 0x2B23 JUMP JUMPDEST DUP6 PUSH1 0x0 MSTORE PUSH1 0x4 PUSH1 0x20 MSTORE PUSH1 0x40 PUSH1 0x0 KECCAK256 CALLER PUSH1 0x0 MSTORE PUSH1 0x20 MSTORE PUSH1 0x40 PUSH1 0x0 KECCAK256 DUP7 DUP2 SSTORE PUSH1 0x1 DUP2 ADD CALLER PUSH1 0x1 PUSH1 0x1 PUSH1 0x60 SHL SUB PUSH1 0xA0 SHL DUP3 SLOAD AND OR SWAP1 SSTORE DUP8 PUSH1 0x0 EQ PUSH2 0x24CF JUMPI PUSH1 0x2 ADD PUSH2 0x2489 DUP5 DUP3 SLOAD PUSH2 0x2B16 JUMP JUMPDEST SWAP1 SSTORE PUSH1 0x7 DUP2 ADD PUSH2 0x249A DUP5 DUP3 SLOAD PUSH2 0x2B16 JUMP JUMPDEST SWAP1 SSTORE JUMPDEST ADD PUSH2 0x24A9 DUP3 DUP3 SLOAD PUSH2 0x2B16 JUMP JUMPDEST SWAP1 SSTORE PUSH1 0x40 DUP1 MLOAD SWAP6 ISZERO ISZERO DUP7 MSTORE PUSH1 0x20 DUP7 ADD SWAP2 SWAP1 SWAP2 MSTORE CALLER SWAP5 SWAP2 DUP3 SWAP2 DUP3 ADD SWAP1 JUMP JUMPDEST SUB SWAP1 LOG3 PUSH1 0x1 DUP1 SSTORE STOP JUMPDEST PUSH1 0x3 ADD PUSH2 0x24DD DUP5 DUP3 SLOAD PUSH2 0x2B16 JUMP JUMPDEST SWAP1 SSTORE PUSH1 0x8 DUP2 ADD PUSH2 0x24EE DUP5 DUP3 SLOAD PUSH2 0x2B16 JUMP JUMPDEST SWAP1 SSTORE PUSH2 0x249D JUMP JUMPDEST PUSH1 0x40 MLOAD PUSH3 0x461BCD PUSH1 0xE5 SHL DUP2 MSTORE PUSH1 0x20 PUSH1 0x4 DUP3 ADD MSTORE PUSH1 0x12 PUSH1 0x24 DUP3 ADD MSTORE PUSH18 0x125B9D985B1A590818995D08185B5BDD5B9D PUSH1 0x72 SHL PUSH1 0x44 DUP3 ADD MSTORE PUSH1 0x64 SWAP1 REVERT JUMPDEST POP PUSH1 0xB SLOAD DUP3 GT ISZERO PUSH2 0x23CC JUMP JUMPDEST CALLVALUE PUSH2 0x229 JUMPI PUSH1 0x20 CALLDATASIZE PUSH1 0x3 NOT ADD SLT PUSH2 0x229 JUMPI PUSH1 0x4 CALLDATALOAD PUSH2 0x2557 PUSH2 0x2A5C JUMP JUMPDEST PUSH2 0x3E8 DUP2 GT PUSH2 0x2565 JUMPI PUSH1 0x9 SSTORE STOP JUMPDEST PUSH1 0x40 MLOAD PUSH3 0x461BCD PUSH1 0xE5 SHL DUP2 MSTORE PUSH1 0x20 PUSH1 0x4 DUP3 ADD MSTORE PUSH1 0xC PUSH1 0x24 DUP3 ADD MSTORE PUSH12 0x8CCACA40E8DEDE40D0D2CED PUSH1 0xA3 SHL PUSH1 0x44 DUP3 ADD MSTORE PUSH1 0x64 SWAP1 REVERT JUMPDEST CALLVALUE PUSH2 0x229 JUMPI PUSH1 0x60 CALLDATASIZE PUSH1 0x3 NOT ADD SLT PUSH2 0x229 JUMPI PUSH1 0x13 SLOAD PUSH1 0x4 CALLDATALOAD SWAP1 PUSH1 0x1 PUSH1 0x1 PUSH1 0xA0 SHL SUB AND CALLER SUB PUSH2 0x2612 JUMPI DUP1 PUSH1 0x0 MSTORE PUSH1 0x3 PUSH1 0x20 MSTORE PUSH2 0x25DD PUSH1 0xFF PUSH1 0xC PUSH1 0x40 PUSH1 0x0 KECCAK256 ADD SLOAD AND PUSH2 0x2A97 JUMP JUMPDEST PUSH32 0xC28E60AFE9E0A9AD46EC94BFCBCED22D60F2F02A15A4CAC6F2012270DA8D92A1 PUSH1 0x40 DUP1 MLOAD PUSH1 0x24 CALLDATALOAD DUP2 MSTORE PUSH1 0x44 CALLDATALOAD PUSH1 0x20 DUP3 ADD MSTORE LOG2 STOP JUMPDEST PUSH1 0x40 MLOAD PUSH3 0x461BCD PUSH1 0xE5 SHL DUP2 MSTORE PUSH1 0x20 PUSH1 0x4 DUP3 ADD MSTORE PUSH1 0x17 PUSH1 0x24 DUP3 ADD MSTORE PUSH32 0x4F6E6C7920537761726D434349502063616E2073796E63000000000000000000 PUSH1 0x44 DUP3 ADD MSTORE PUSH1 0x64 SWAP1 REVERT JUMPDEST CALLVALUE PUSH2 0x229 JUMPI PUSH1 0x0 CALLDATASIZE PUSH1 0x3 NOT ADD SLT PUSH2 0x229 JUMPI PUSH1 0x12 SLOAD PUSH1 0x40 MLOAD PUSH1 0x1 PUSH1 0x1 PUSH1 0xA0 SHL SUB SWAP1 SWAP2 AND DUP2 MSTORE PUSH1 0x20 SWAP1 RETURN JUMPDEST CALLVALUE PUSH2 0x229 JUMPI PUSH1 0x40 CALLDATASIZE PUSH1 0x3 NOT ADD SLT PUSH2 0x229 JUMPI PUSH2 0x2699 PUSH2 0x272D JUMP JUMPDEST PUSH32 0x1B06338D0EDF2BA8CCEE31E466AB37B376418209AF6A85C55C51E89A51E33BDE PUSH1 0x20 PUSH2 0x26C4 PUSH2 0x2759 JUMP JUMPDEST SWAP3 PUSH2 0x26CD PUSH2 0x2A5C JUMP JUMPDEST PUSH1 0x1 PUSH1 0x1 PUSH1 0xA0 SHL SUB AND PUSH1 0x0 DUP2 DUP2 MSTORE PUSH1 0x6 DUP4 MSTORE PUSH1 0x40 SWAP1 KECCAK256 DUP1 SLOAD PUSH1 0xFF NOT AND PUSH1 0xFF DUP7 ISZERO ISZERO AND OR SWAP1 SSTORE SWAP3 DUP1 DUP1 PUSH2 0x271C JUMPI JUMPDEST PUSH2 0x270A JUMPI JUMPDEST PUSH1 0x40 MLOAD SWAP1 ISZERO ISZERO DUP2 MSTORE LOG2 STOP JUMPDEST PUSH1 0x7 DUP3 MSTORE PUSH2 0x1388 PUSH1 0x40 PUSH1 0x0 KECCAK256 SSTORE PUSH2 0x26FF JUMP JUMPDEST POP PUSH1 0x7 DUP3 MSTORE PUSH1 0x40 PUSH1 0x0 KECCAK256 SLOAD ISZERO PUSH2 0x26FA JUMP JUMPDEST PUSH1 0x4 CALLDATALOAD SWAP1 PUSH1 0x1 PUSH1 0x1 PUSH1 0xA0 SHL SUB DUP3 AND DUP3 SUB PUSH2 0x229 JUMPI JUMP JUMPDEST PUSH1 0x24 CALLDATALOAD SWAP1 PUSH1 0x1 PUSH1 0x1 PUSH1 0xA0 SHL SUB DUP3 AND DUP3 SUB PUSH2 0x229 JUMPI JUMP JUMPDEST PUSH1 0x24 CALLDATALOAD SWAP1 DUP2 ISZERO ISZERO DUP3 SUB PUSH2 0x229 JUMPI JUMP JUMPDEST PUSH2 0x1C0 DUP2 ADD SWAP1 DUP2 LT PUSH1 0x1 PUSH1 0x1 PUSH1 0x40 SHL SUB DUP3 GT OR PUSH2 0xF8A JUMPI PUSH1 0x40 MSTORE JUMP JUMPDEST PUSH1 0xC0 DUP2 ADD SWAP1 DUP2 LT PUSH1 0x1 PUSH1 0x1 PUSH1 0x40 SHL SUB DUP3 GT OR PUSH2 0xF8A JUMPI PUSH1 0x40 MSTORE JUMP JUMPDEST PUSH1 0xA0 DUP2 ADD SWAP1 DUP2 LT PUSH1 0x1 PUSH1 0x1 PUSH1 0x40 SHL SUB DUP3 GT OR PUSH2 0xF8A JUMPI PUSH1 0x40 MSTORE JUMP JUMPDEST PUSH1 0x60 DUP2 ADD SWAP1 DUP2 LT PUSH1 0x1 PUSH1 0x1 PUSH1 0x40 SHL SUB DUP3 GT OR PUSH2 0xF8A JUMPI PUSH1 0x40 MSTORE JUMP JUMPDEST SWAP1 PUSH1 0x1F DUP1 NOT SWAP2 ADD AND DUP2 ADD SWAP1 DUP2 LT PUSH1 0x1 PUSH1 0x1 PUSH1 0x40 SHL SUB DUP3 GT OR PUSH2 0xF8A JUMPI PUSH1 0x40 MSTORE JUMP JUMPDEST PUSH1 0x1 PUSH1 0x1 PUSH1 0x40 SHL SUB DUP2 GT PUSH2 0xF8A JUMPI PUSH1 0x5 SHL PUSH1 0x20 ADD SWAP1 JUMP JUMPDEST DUP2 PUSH1 0x1F DUP3 ADD SLT ISZERO PUSH2 0x229 JUMPI DUP1 CALLDATALOAD SWAP2 PUSH2 0x2824 DUP4 PUSH2 0x27F6 JUMP JUMPDEST SWAP3 PUSH2 0x2832 PUSH1 0x40 MLOAD SWAP5 DUP6 PUSH2 0x27D5 JUMP JUMPDEST DUP1 DUP5 MSTORE PUSH1 0x20 SWAP3 DUP4 DUP1 DUP7 ADD SWAP3 PUSH1 0x5 SHL DUP3 ADD ADD SWAP3 DUP4 GT PUSH2 0x229 JUMPI DUP4 ADD SWAP1 JUMPDEST DUP3 DUP3 LT PUSH2 0x285C JUMPI POP POP POP POP SWAP1 JUMP JUMPDEST DUP2 CALLDATALOAD DUP2 MSTORE SWAP1 DUP4 ADD SWAP1 DUP4 ADD PUSH2 0x284E JUMP JUMPDEST DUP2 PUSH1 0x1F DUP3 ADD SLT ISZERO PUSH2 0x229 JUMPI DUP1 CALLDATALOAD SWAP1 PUSH1 0x1 PUSH1 0x1 PUSH1 0x40 SHL SUB DUP3 GT PUSH2 0xF8A JUMPI PUSH1 0x40 MLOAD SWAP3 PUSH2 0x289F PUSH1 0x1F DUP5 ADD PUSH1 0x1F NOT AND PUSH1 0x20 ADD DUP6 PUSH2 0x27D5 JUMP JUMPDEST DUP3 DUP5 MSTORE PUSH1 0x20 DUP4 DUP4 ADD ADD GT PUSH2 0x229 JUMPI DUP2 PUSH1 0x0 SWAP3 PUSH1 0x20 DUP1 SWAP4 ADD DUP4 DUP7 ADD CALLDATACOPY DUP4 ADD ADD MSTORE SWAP1 JUMP JUMPDEST SWAP1 PUSH1 0x20 PUSH1 0x3 NOT DUP4 ADD SLT PUSH2 0x229 JUMPI PUSH1 0x4 CALLDATALOAD PUSH1 0x1 PUSH1 0x1 PUSH1 0x40 SHL SUB SWAP3 DUP4 DUP3 GT PUSH2 0x229 JUMPI DUP1 PUSH1 0x23 DUP4 ADD SLT ISZERO PUSH2 0x229 JUMPI DUP2 PUSH1 0x4 ADD CALLDATALOAD SWAP4 DUP5 GT PUSH2 0x229 JUMPI PUSH1 0x24 DUP5 DUP4 ADD ADD GT PUSH2 0x229 JUMPI PUSH1 0x24 ADD SWAP2 SWAP1 JUMP JUMPDEST SWAP2 SWAP1 DUP3 MLOAD SWAP3 DUP4 DUP3 MSTORE PUSH1 0x0 JUMPDEST DUP5 DUP2 LT PUSH2 0x2936 JUMPI POP POP DUP3 PUSH1 0x0 PUSH1 0x20 DUP1 SWAP5 SWAP6 DUP5 ADD ADD MSTORE PUSH1 0x1F DUP1 NOT SWAP2 ADD AND ADD ADD SWAP1 JUMP JUMPDEST PUSH1 0x20 DUP2 DUP4 ADD DUP2 ADD MLOAD DUP5 DUP4 ADD DUP3 ADD MSTORE ADD PUSH2 0x2915 JUMP JUMPDEST PUSH1 0x40 SWAP1 PUSH1 0x3 NOT ADD SLT PUSH2 0x229 JUMPI PUSH1 0x4 CALLDATALOAD SWAP1 PUSH1 0x24 CALLDATALOAD SWAP1 JUMP JUMPDEST DUP1 SLOAD DUP3 LT ISZERO PUSH2 0x229F JUMPI PUSH1 0x0 MSTORE PUSH1 0x6 PUSH1 0x20 PUSH1 0x0 KECCAK256 SWAP2 MUL ADD SWAP1 PUSH1 0x0 SWAP1 JUMP JUMPDEST SWAP1 PUSH1 0x1 DUP3 DUP2 SHR SWAP3 AND DUP1 ISZERO PUSH2 0x29AC JUMPI JUMPDEST PUSH1 0x20 DUP4 LT EQ PUSH2 0x2996 JUMPI JUMP JUMPDEST PUSH4 0x4E487B71 PUSH1 0xE0 SHL PUSH1 0x0 MSTORE PUSH1 0x22 PUSH1 0x4 MSTORE PUSH1 0x24 PUSH1 0x0 REVERT JUMPDEST SWAP2 PUSH1 0x7F AND SWAP2 PUSH2 0x298B JUMP JUMPDEST SWAP1 PUSH1 0x40 MLOAD SWAP2 DUP3 PUSH1 0x0 DUP3 SLOAD SWAP3 PUSH2 0x29CA DUP5 PUSH2 0x297C JUMP JUMPDEST SWAP1 DUP2 DUP5 MSTORE PUSH1 0x1 SWAP5 DUP6 DUP2 AND SWAP1 DUP2 PUSH1 0x0 EQ PUSH2 0x2A39 JUMPI POP PUSH1 0x1 EQ PUSH2 0x29F6 JUMPI JUMPDEST POP POP PUSH2 0x29F4 SWAP3 POP SUB DUP4 PUSH2 0x27D5 JUMP JUMPDEST JUMP JUMPDEST SWAP1 SWAP4 SWAP2 POP PUSH1 0x0 MSTORE PUSH1 0x20 SWAP1 DUP2 PUSH1 0x0 KECCAK256 SWAP4 PUSH1 0x0 SWAP2 JUMPDEST DUP2 DUP4 LT PUSH2 0x2A21 JUMPI POP POP PUSH2 0x29F4 SWAP4 POP DUP3 ADD ADD CODESIZE DUP1 PUSH2 0x29E6 JUMP JUMPDEST DUP6 SLOAD DUP9 DUP5 ADD DUP6 ADD MSTORE SWAP5 DUP6 ADD SWAP5 DUP8 SWAP5 POP SWAP2 DUP4 ADD SWAP2 PUSH2 0x2A09 JUMP JUMPDEST SWAP2 POP POP PUSH2 0x29F4 SWAP5 POP PUSH1 0x20 SWAP3 POP PUSH1 0xFF NOT AND DUP3 DUP5 ADD MSTORE ISZERO ISZERO PUSH1 0x5 SHL DUP3 ADD ADD CODESIZE DUP1 PUSH2 0x29E6 JUMP JUMPDEST PUSH1 0x0 SLOAD PUSH1 0x1 PUSH1 0x1 PUSH1 0xA0 SHL SUB AND CALLER SUB PUSH2 0x2A70 JUMPI JUMP JUMPDEST PUSH1 0x40 MLOAD PUSH4 0x118CDAA7 PUSH1 0xE0 SHL DUP2 MSTORE CALLER PUSH1 0x4 DUP3 ADD MSTORE PUSH1 0x24 SWAP1 REVERT JUMPDEST PUSH1 0x0 NOT DUP2 EQ PUSH2 0xC2E JUMPI PUSH1 0x1 ADD SWAP1 JUMP JUMPDEST ISZERO PUSH2 0x2A9E JUMPI JUMP JUMPDEST PUSH1 0x40 MLOAD PUSH3 0x461BCD PUSH1 0xE5 SHL DUP2 MSTORE PUSH1 0x20 PUSH1 0x4 DUP3 ADD MSTORE PUSH1 0x11 PUSH1 0x24 DUP3 ADD MSTORE PUSH17 0x4D61726B6574206E6F7420616374697665 PUSH1 0x78 SHL PUSH1 0x44 DUP3 ADD MSTORE PUSH1 0x64 SWAP1 REVERT JUMPDEST ISZERO PUSH2 0x2ADE JUMPI JUMP JUMPDEST PUSH1 0x40 MLOAD PUSH3 0x461BCD PUSH1 0xE5 SHL DUP2 MSTORE PUSH1 0x20 PUSH1 0x4 DUP3 ADD MSTORE PUSH1 0x10 PUSH1 0x24 DUP3 ADD MSTORE PUSH16 0x13585C9AD95D081A185CC8195B991959 PUSH1 0x82 SHL PUSH1 0x44 DUP3 ADD MSTORE PUSH1 0x64 SWAP1 REVERT JUMPDEST SWAP2 SWAP1 DUP3 ADD DUP1 SWAP3 GT PUSH2 0xC2E JUMPI JUMP JUMPDEST SWAP1 PUSH1 0x0 PUSH1 0x20 SWAP2 DUP3 DUP2 MLOAD SWAP2 ADD DUP3 DUP6 GAS CALL ISZERO PUSH2 0x176F JUMPI PUSH1 0x0 MLOAD RETURNDATASIZE PUSH2 0x2B76 JUMPI POP PUSH1 0x1 PUSH1 0x1 PUSH1 0xA0 SHL SUB DUP2 AND EXTCODESIZE ISZERO JUMPDEST PUSH2 0x2B54 JUMPI POP JUMP JUMPDEST PUSH1 0x40 MLOAD PUSH4 0x5274AFE7 PUSH1 0xE0 SHL DUP2 MSTORE PUSH1 0x1 PUSH1 0x1 PUSH1 0xA0 SHL SUB SWAP1 SWAP2 AND PUSH1 0x4 DUP3 ADD MSTORE PUSH1 0x24 SWAP1 REVERT JUMPDEST PUSH1 0x1 EQ ISZERO PUSH2 0x2B4D JUMP JUMPDEST PUSH1 0xFF PUSH1 0x2 SLOAD AND PUSH2 0x2B8B JUMPI JUMP JUMPDEST PUSH1 0x40 MLOAD PUSH4 0xD93C0665 PUSH1 0xE0 SHL DUP2 MSTORE PUSH1 0x4 SWAP1 REVERT JUMPDEST PUSH1 0x2 PUSH1 0x1 SLOAD EQ PUSH2 0x2BAE JUMPI PUSH1 0x2 PUSH1 0x1 SSTORE JUMP JUMPDEST PUSH1 0x40 MLOAD PUSH4 0x3EE5AEB5 PUSH1 0xE0 SHL DUP2 MSTORE PUSH1 0x4 SWAP1 REVERT JUMPDEST PUSH1 0x40 MLOAD PUSH4 0xA9059CBB PUSH1 0xE0 SHL PUSH1 0x20 DUP3 ADD MSTORE PUSH1 0x1 PUSH1 0x1 PUSH1 0xA0 SHL SUB SWAP1 SWAP3 AND PUSH1 0x24 DUP4 ADD MSTORE PUSH1 0x44 DUP1 DUP4 ADD SWAP4 SWAP1 SWAP4 MSTORE SWAP2 DUP2 MSTORE PUSH1 0x80 DUP2 ADD SWAP2 PUSH1 0x1 PUSH1 0x1 PUSH1 0x40 SHL SUB DUP4 GT DUP3 DUP5 LT OR PUSH2 0xF8A JUMPI PUSH2 0x29F4 SWAP3 PUSH1 0x40 MSTORE PUSH2 0x2B23 JUMP JUMPDEST DUP2 DUP2 MUL SWAP3 SWAP2 DUP2 ISZERO SWAP2 DUP5 DIV EQ OR ISZERO PUSH2 0xC2E JUMPI JUMP JUMPDEST DUP2 ISZERO PUSH2 0x2C2C JUMPI DIV SWAP1 JUMP JUMPDEST PUSH4 0x4E487B71 PUSH1 0xE0 SHL PUSH1 0x0 MSTORE PUSH1 0x12 PUSH1 0x4 MSTORE PUSH1 0x24 PUSH1 0x0 REVERT JUMPDEST SWAP2 SWAP1 DUP3 SUB SWAP2 DUP3 GT PUSH2 0xC2E JUMPI JUMP JUMPDEST PUSH1 0x0 SWAP1 DUP2 MSTORE PUSH1 0x3 PUSH1 0x20 MSTORE PUSH1 0x40 DUP2 KECCAK256 SWAP2 PUSH1 0x4 PUSH1 0x20 MSTORE PUSH1 0x40 DUP3 KECCAK256 SWAP1 PUSH1 0x1 DUP1 PUSH1 0xA0 SHL SUB AND DUP3 MSTORE PUSH1 0x20 MSTORE PUSH1 0x40 DUP2 KECCAK256 PUSH1 0x6 DUP4 ADD SLOAD PUSH1 0xFF DUP2 AND ISZERO DUP1 ISZERO PUSH2 0x2D4D JUMPI JUMPDEST PUSH2 0x2D46 JUMPI PUSH1 0x7 DUP5 ADD SLOAD SWAP2 PUSH1 0xFF PUSH1 0x8 DUP7 ADD SLOAD SWAP3 PUSH2 0x2CA6 DUP5 DUP7 PUSH2 0x2B16 JUMP JUMPDEST POP PUSH1 0x8 SHR AND SWAP2 DUP3 ISZERO PUSH2 0x2D3F JUMPI DUP4 JUMPDEST DUP4 ISZERO PUSH2 0x2D37 JUMPI POP SWAP2 JUMPDEST ISZERO PUSH2 0x2D2D JUMPI PUSH1 0x2 ADD SLOAD SWAP3 JUMPDEST DUP4 ISZERO DUP1 ISZERO PUSH2 0x2D25 JUMPI JUMPDEST PUSH2 0x2D1D JUMPI POP SWAP3 PUSH2 0x2710 PUSH2 0x2D0E PUSH2 0x2D08 PUSH2 0x2CF9 PUSH2 0x2D15 SWAP6 PUSH2 0x2CF4 PUSH2 0x2D1A SWAP10 DUP10 PUSH2 0x2C0F JUMP JUMPDEST PUSH2 0x2C22 JUMP JUMPDEST SWAP4 PUSH1 0xB PUSH1 0x9 SLOAD SWAP2 ADD SLOAD SWAP1 PUSH2 0x2B16 JUMP JUMPDEST DUP4 PUSH2 0x2C0F JUMP JUMPDEST DIV SWAP3 PUSH2 0x2B16 JUMP JUMPDEST PUSH2 0x2C42 JUMP JUMPDEST SWAP1 JUMP JUMPDEST SWAP4 POP POP POP POP SWAP1 JUMP JUMPDEST POP DUP3 ISZERO PUSH2 0x2CD1 JUMP JUMPDEST PUSH1 0x3 ADD SLOAD SWAP3 PUSH2 0x2CC8 JUMP JUMPDEST SWAP1 POP SWAP2 PUSH2 0x2CBD JUMP JUMPDEST DUP1 SWAP4 PUSH2 0x2CB4 JUMP JUMPDEST POP POP SWAP1 POP SWAP1 JUMP JUMPDEST POP PUSH1 0xFF PUSH1 0x4 DUP4 ADD SLOAD AND PUSH2 0x2C8A JUMP JUMPDEST DUP1 MLOAD DUP3 LT ISZERO PUSH2 0x229F JUMPI PUSH1 0x20 SWAP2 PUSH1 0x5 SHL ADD ADD SWAP1 JUMP JUMPDEST SWAP2 SWAP1 SWAP2 PUSH1 0x0 DUP4 DUP3 ADD SWAP4 DUP5 SLT SWAP2 SLT SWAP1 DUP1 ISZERO DUP3 AND SWAP2 ISZERO AND OR PUSH2 0xC2E JUMPI JUMP JUMPDEST PUSH1 0x0 SWAP1 DUP2 MSTORE PUSH1 0x20 SWAP1 PUSH1 0x5 DUP3 MSTORE PUSH1 0x40 SWAP1 DUP2 DUP2 KECCAK256 SWAP3 DUP4 SLOAD DUP1 ISZERO PUSH2 0x2EC8 JUMPI SWAP3 SWAP4 SWAP1 DUP3 SWAP4 DUP4 SWAP6 DUP5 SWAP4 JUMPDEST DUP3 DUP6 LT PUSH2 0x2E10 JUMPI POP POP POP POP POP DUP3 ISZERO DUP1 ISZERO PUSH1 0x0 EQ PUSH2 0x2E09 JUMPI PUSH2 0x2DF5 JUMPI PUSH1 0x1 PUSH1 0xFF SHL DUP3 EQ PUSH1 0x0 NOT DUP5 EQ AND PUSH2 0x2DE1 JUMPI POP SDIV SWAP1 JUMP JUMPDEST PUSH4 0x4E487B71 PUSH1 0xE0 SHL DUP2 MSTORE PUSH1 0x11 PUSH1 0x4 MSTORE PUSH1 0x24 SWAP1 REVERT JUMPDEST PUSH4 0x4E487B71 PUSH1 0xE0 SHL DUP2 MSTORE PUSH1 0x12 PUSH1 0x4 MSTORE PUSH1 0x24 SWAP1 REVERT JUMPDEST POP SWAP2 POP POP SWAP1 JUMP JUMPDEST SWAP1 SWAP2 SWAP3 SWAP4 SWAP7 SWAP6 PUSH2 0x2E20 DUP9 DUP4 PUSH2 0x2960 JUMP JUMPDEST POP SWAP1 PUSH1 0x1 DUP1 PUSH1 0xA0 SHL SUB DUP3 SLOAD AND DUP8 MSTORE PUSH1 0x7 DUP7 MSTORE PUSH1 0xFF PUSH1 0x2 PUSH2 0x2E48 DUP7 DUP11 KECCAK256 SLOAD PUSH1 0x3 DUP7 ADD SLOAD SWAP1 PUSH2 0x2C0F JUMP JUMPDEST SWAP4 ADD SLOAD AND ISZERO PUSH2 0x2EBE JUMPI PUSH2 0x2710 SWAP1 JUMPDEST DUP2 DUP4 MUL SWAP2 DUP9 DUP2 SLT PUSH1 0x1 PUSH1 0xFF SHL DUP6 EQ AND PUSH2 0x2EAA JUMPI DUP1 DUP4 SDIV DUP5 EQ SWAP1 ISZERO OR ISZERO PUSH2 0x2E96 JUMPI SWAP2 PUSH2 0x2309 PUSH2 0x2E87 SWAP3 PUSH2 0x2E8D SWAP5 PUSH2 0x2D6F JUMP JUMPDEST SWAP8 PUSH2 0x2A88 JUMP JUMPDEST SWAP4 SWAP3 SWAP2 SWAP1 PUSH2 0x2DB0 JUMP JUMPDEST PUSH4 0x4E487B71 PUSH1 0xE0 SHL DUP9 MSTORE PUSH1 0x11 PUSH1 0x4 MSTORE PUSH1 0x24 DUP9 REVERT JUMPDEST PUSH4 0x4E487B71 PUSH1 0xE0 SHL DUP10 MSTORE PUSH1 0x11 PUSH1 0x4 MSTORE PUSH1 0x24 DUP10 REVERT JUMPDEST PUSH2 0x270F NOT SWAP1 PUSH2 0x2E56 JUMP JUMPDEST POP POP SWAP2 POP POP SWAP1 JUMP JUMPDEST PUSH2 0x270F NOT DUP1 DUP3 SLT PUSH2 0x2EEA JUMPI POP PUSH2 0x2710 DUP1 DUP3 SGT PUSH2 0x2EEA JUMPI POP SWAP1 JUMP JUMPDEST SWAP1 POP SWAP1 JUMP JUMPDEST PUSH2 0x1F40 DUP2 GT PUSH2 0x2F2B JUMPI PUSH2 0x7D0 SWAP1 DUP2 DUP2 LT PUSH2 0x2F23 JUMPI PUSH2 0x1770 DUP2 GT PUSH2 0x2F1A JUMPI PUSH2 0xFA0 GT PUSH2 0x2D1A JUMPI POP PUSH1 0x0 SWAP1 JUMP JUMPDEST POP POP PUSH2 0x7CF NOT SWAP1 JUMP JUMPDEST POP POP PUSH2 0x1388 SWAP1 JUMP JUMPDEST POP PUSH2 0x1387 NOT SWAP1 JUMP JUMPDEST SWAP1 PUSH8 0x16345785D8A0000 GT PUSH2 0x30C6 JUMPI PUSH2 0x1F40 DUP2 GT PUSH2 0x307E JUMPI PUSH2 0x7D0 DUP2 LT PUSH2 0x303A JUMPI PUSH2 0x1770 DUP2 GT PUSH2 0x2FEF JUMPI PUSH2 0xFA0 GT PUSH2 0x2FA8 JUMPI PUSH1 0x40 MLOAD PUSH2 0x2F71 DUP2 PUSH2 0x27BA JUMP JUMPDEST PUSH1 0x21 DUP2 MSTORE PUSH32 0x42616C616E636564206D61726B6574202D206E65757472616C206F75746C6F6F PUSH1 0x20 DUP3 ADD MSTORE PUSH1 0x6B PUSH1 0xF8 SHL PUSH1 0x40 DUP3 ADD MSTORE SWAP1 JUMP JUMPDEST PUSH1 0x40 MLOAD PUSH2 0x2FB4 DUP2 PUSH2 0x27BA JUMP JUMPDEST PUSH1 0x25 DUP2 MSTORE PUSH32 0x42656172697368207472656E64202D20736F6D6520737570706F727420657870 PUSH1 0x20 DUP3 ADD MSTORE PUSH5 0x1958DD1959 PUSH1 0xDA SHL PUSH1 0x40 DUP3 ADD MSTORE SWAP1 JUMP JUMPDEST POP PUSH1 0x40 MLOAD PUSH2 0x2FFC DUP2 PUSH2 0x27BA JUMP JUMPDEST PUSH1 0x28 DUP2 MSTORE PUSH32 0x42756C6C697368207472656E64202D20736F6D6520726573697374616E636520 PUSH1 0x20 DUP3 ADD MSTORE PUSH8 0x195E1C1958DD1959 PUSH1 0xC2 SHL PUSH1 0x40 DUP3 ADD MSTORE SWAP1 JUMP JUMPDEST POP PUSH1 0x40 MLOAD PUSH2 0x3047 DUP2 PUSH2 0x27BA JUMP JUMPDEST PUSH1 0x21 DUP2 MSTORE PUSH32 0x45787472656D656C792062656172697368202D20626F756E6365206C696B656C PUSH1 0x20 DUP3 ADD MSTORE PUSH1 0x79 PUSH1 0xF8 SHL PUSH1 0x40 DUP3 ADD MSTORE SWAP1 JUMP JUMPDEST POP PUSH1 0x40 MLOAD PUSH2 0x308B DUP2 PUSH2 0x27BA JUMP JUMPDEST PUSH1 0x25 DUP2 MSTORE PUSH32 0x45787472656D656C792062756C6C697368202D20636F7272656374696F6E206C PUSH1 0x20 DUP3 ADD MSTORE PUSH5 0x696B656C79 PUSH1 0xD8 SHL PUSH1 0x40 DUP3 ADD MSTORE SWAP1 JUMP JUMPDEST POP PUSH1 0x40 MLOAD PUSH1 0x40 DUP2 ADD DUP2 DUP2 LT PUSH1 0x1 PUSH1 0x1 PUSH1 0x40 SHL SUB DUP3 GT OR PUSH2 0xF8A JUMPI PUSH1 0x40 MSTORE PUSH1 0x1E DUP2 MSTORE PUSH32 0x4C6F7720766F6C756D65202D20696E73756666696369656E7420646174610000 PUSH1 0x20 DUP3 ADD MSTORE SWAP1 JUMP JUMPDEST PUSH1 0x0 MSTORE PUSH1 0x3 PUSH1 0x20 MSTORE PUSH1 0x40 PUSH1 0x0 KECCAK256 PUSH2 0x3130 PUSH1 0x8 PUSH1 0x7 DUP4 ADD SLOAD SWAP3 ADD SLOAD DUP3 PUSH2 0x2B16 JUMP JUMPDEST DUP1 ISZERO PUSH2 0x2F23 JUMPI PUSH2 0x2710 SWAP2 DUP3 DUP2 MUL SWAP3 DUP2 DUP5 DIV EQ SWAP1 ISZERO OR ISZERO PUSH2 0xC2E JUMPI PUSH2 0x2D1A SWAP2 PUSH2 0x2C22 JUMP JUMPDEST PUSH1 0x0 MSTORE PUSH1 0x3 PUSH1 0x20 MSTORE PUSH1 0x40 PUSH1 0x0 KECCAK256 PUSH2 0x3130 PUSH1 0x8 PUSH1 0x7 DUP4 ADD SLOAD SWAP3 ADD SLOAD DUP1 SWAP3 PUSH2 0x2B16 JUMP JUMPDEST SWAP2 SWAP1 PUSH1 0x0 SWAP3 DUP4 MSTORE PUSH1 0x3 PUSH1 0x20 MSTORE PUSH1 0x40 DUP4 KECCAK256 PUSH1 0x8 PUSH1 0x7 DUP3 ADD SLOAD SWAP2 ADD SLOAD PUSH2 0x3198 DUP2 DUP4 PUSH2 0x2B16 JUMP JUMPDEST SWAP3 DUP4 ISZERO PUSH2 0x31F7 JUMPI ISZERO PUSH2 0x31D8 JUMPI POP PUSH2 0x2710 SWAP1 DUP2 DUP2 MUL SWAP2 DUP2 DUP4 DIV EQ SWAP1 ISZERO OR ISZERO PUSH2 0x31C4 JUMPI PUSH2 0x2D1A SWAP3 SWAP4 POP PUSH2 0x2C22 JUMP JUMPDEST PUSH4 0x4E487B71 PUSH1 0xE0 SHL DUP5 MSTORE PUSH1 0x11 PUSH1 0x4 MSTORE PUSH1 0x24 DUP5 REVERT JUMPDEST PUSH2 0x2710 DUP1 DUP3 MUL SWAP3 POP DUP2 ISZERO SWAP2 DUP4 DIV EQ OR ISZERO PUSH2 0x31C4 JUMPI PUSH2 0x2D1A SWAP3 SWAP4 POP PUSH2 0x2C22 JUMP JUMPDEST POP PUSH2 0x1388 SWAP5 POP POP POP POP JUMP INVALID LOG2 PUSH5 0x6970667358 0x22 SLT KECCAK256 0x2D 0xC4 ADDMOD SLT 0xDE SWAP13 ADD 0x22 0x4B PUSH18 0xC3791F64BCD48632E8A8972534D63428DD99 BYTE LOG4 MSIZE CALLER PUSH5 0x736F6C6343 STOP ADDMOD EQ STOP CALLER "},"methodIdentifiers":{"agentPredictions(uint256,uint256)":"a136effe","agentReputation(address)":"54de6e32","authorizedAgents(address)":"efd76065","bettingToken()":"43425e88","calculateWinnings(uint256,address)":"f15cc406","checkUpkeep(bytes)":"6e04ff0d","claimWinnings(uint256)":"677bd9ff","createMarket(string,string,uint256,uint256)":"39b6ee19","feeRecipient()":"46904840","getAgentPredictions(uint256)":"8e6bf35b","getMarket(uint256)":"eb44fdd3","getMarketStats(uint256)":"58057fe5","getMathematicalPrediction(uint256)":"8905aa89","getPosition(uint256,address)":"d29f541d","getPrice(uint256,bool)":"5705b61a","markets(uint256)":"b1283e77","maxBetAmount()":"cab11d5d","minBetAmount()":"fa968eea","nextMarketId()":"406ef2ef","owner()":"8da5cb5b","pause()":"8456cb59","pauseMarket(uint256)":"fc12524c","paused()":"5c975abb","performUpkeep(bytes)":"4585e33b","placeBet(uint256,bool,uint256)":"1a38cac6","platformFee()":"26232a2e","positions(uint256,address)":"e684d718","rawFulfillRandomWords(uint256,uint256[])":"1fe543e3","renounceOwnership()":"715018a6","resolveMarket(uint256,bool)":"57bde446","setAgentAuthorization(address,bool)":"0911e864","setBettingLimits(uint256,uint256)":"a108ce5f","setPlatformFee(uint256)":"12e8e2c3","setSwarmCCIPContract(address)":"42b22323","setSwarmFunctionsContract(address)":"cf86d579","submitAgentPrediction(uint256,bool,uint256,string)":"7d7bdec0","swarmCCIPContract()":"fdd91baf","swarmFunctionsContract()":"10cfa3ef","syncFromCrossChain(uint256,uint256,uint256)":"11c3c024","transferOwnership(address)":"f2fde38b","unpause()":"3f4ba83a","updateAgentReputation(address,uint256)":"9259b274","updateMarketWithExternalData(uint256,int256,uint256,uint256)":"3a3d3d35","withdrawFees()":"476343ee"}}}}}