{"contracts/chainlink/SwarmFunctions.sol":{"SwarmFunctions":{"abi":[{"inputs":[{"internalType":"address","name":"router","type":"address"},{"internalType":"bytes32","name":"_donId","type":"bytes32"},{"internalType":"uint64","name":"_subscriptionId","type":"uint64"}],"stateMutability":"nonpayable","type":"constructor"},{"inputs":[],"name":"EmptyArgs","type":"error"},{"inputs":[],"name":"EmptySecrets","type":"error"},{"inputs":[],"name":"EmptySource","type":"error"},{"inputs":[],"name":"InvalidDataType","type":"error"},{"inputs":[],"name":"NoInlineSecrets","type":"error"},{"inputs":[],"name":"OnlyRouterCanFulfill","type":"error"},{"inputs":[],"name":"ReentrancyGuardReentrantCall","type":"error"},{"inputs":[],"name":"RequestNotFound","type":"error"},{"inputs":[],"name":"UnauthorizedCaller","type":"error"},{"anonymous":false,"inputs":[{"indexed":true,"internalType":"bytes32","name":"requestId","type":"bytes32"},{"indexed":false,"internalType":"string","name":"dataType","type":"string"},{"indexed":false,"internalType":"bytes","name":"response","type":"bytes"}],"name":"DataFulfilled","type":"event"},{"anonymous":false,"inputs":[{"indexed":true,"internalType":"bytes32","name":"requestId","type":"bytes32"},{"indexed":false,"internalType":"string","name":"dataType","type":"string"},{"indexed":false,"internalType":"string[]","name":"parameters","type":"string[]"},{"indexed":false,"internalType":"address","name":"requester","type":"address"}],"name":"DataRequested","type":"event"},{"anonymous":false,"inputs":[{"indexed":true,"internalType":"string","name":"asset","type":"string"},{"indexed":false,"internalType":"uint256","name":"price","type":"uint256"},{"indexed":false,"internalType":"uint256","name":"volume24h","type":"uint256"},{"indexed":false,"internalType":"int256","name":"priceChange24h","type":"int256"}],"name":"MarketDataUpdated","type":"event"},{"anonymous":false,"inputs":[{"indexed":true,"internalType":"address","name":"from","type":"address"},{"indexed":true,"internalType":"address","name":"to","type":"address"}],"name":"OwnershipTransferRequested","type":"event"},{"anonymous":false,"inputs":[{"indexed":true,"internalType":"address","name":"from","type":"address"},{"indexed":true,"internalType":"address","name":"to","type":"address"}],"name":"OwnershipTransferred","type":"event"},{"anonymous":false,"inputs":[{"indexed":true,"internalType":"bytes32","name":"id","type":"bytes32"}],"name":"RequestFulfilled","type":"event"},{"anonymous":false,"inputs":[{"indexed":true,"internalType":"bytes32","name":"id","type":"bytes32"}],"name":"RequestSent","type":"event"},{"anonymous":false,"inputs":[{"indexed":true,"internalType":"string","name":"key","type":"string"},{"indexed":false,"internalType":"int256","name":"score","type":"int256"},{"indexed":false,"internalType":"uint256","name":"volume","type":"uint256"},{"indexed":false,"internalType":"string","name":"source","type":"string"}],"name":"SentimentUpdated","type":"event"},{"inputs":[],"name":"acceptOwnership","outputs":[],"stateMutability":"nonpayable","type":"function"},{"inputs":[{"internalType":"address","name":"","type":"address"}],"name":"authorizedCallers","outputs":[{"internalType":"bool","name":"","type":"bool"}],"stateMutability":"view","type":"function"},{"inputs":[{"internalType":"bytes32","name":"","type":"bytes32"}],"name":"dataRequests","outputs":[{"internalType":"uint256","name":"requestId","type":"uint256"},{"internalType":"string","name":"dataType","type":"string"},{"internalType":"uint256","name":"timestamp","type":"uint256"},{"internalType":"address","name":"requester","type":"address"},{"internalType":"bool","name":"fulfilled","type":"bool"}],"stateMutability":"view","type":"function"},{"inputs":[],"name":"donId","outputs":[{"internalType":"bytes32","name":"","type":"bytes32"}],"stateMutability":"view","type":"function"},{"inputs":[],"name":"gasLimit","outputs":[{"internalType":"uint32","name":"","type":"uint32"}],"stateMutability":"view","type":"function"},{"inputs":[{"internalType":"string","name":"asset","type":"string"}],"name":"getAggregatedSentiment","outputs":[{"internalType":"int256","name":"score","type":"int256"},{"internalType":"uint256","name":"totalVolume","type":"uint256"}],"stateMutability":"view","type":"function"},{"inputs":[{"internalType":"string","name":"asset","type":"string"}],"name":"getMarketData","outputs":[{"components":[{"internalType":"uint256","name":"price","type":"uint256"},{"internalType":"uint256","name":"volume24h","type":"uint256"},{"internalType":"int256","name":"priceChange24h","type":"int256"},{"internalType":"uint256","name":"timestamp","type":"uint256"},{"internalType":"string","name":"asset","type":"string"}],"internalType":"struct SwarmFunctions.MarketData","name":"","type":"tuple"}],"stateMutability":"view","type":"function"},{"inputs":[{"internalType":"string","name":"source","type":"string"},{"internalType":"string","name":"asset","type":"string"}],"name":"getSentimentData","outputs":[{"components":[{"internalType":"int256","name":"score","type":"int256"},{"internalType":"uint256","name":"volume","type":"uint256"},{"internalType":"uint256","name":"timestamp","type":"uint256"},{"internalType":"string","name":"source","type":"string"}],"internalType":"struct SwarmFunctions.SentimentData","name":"","type":"tuple"}],"stateMutability":"view","type":"function"},{"inputs":[{"internalType":"bytes32","name":"requestId","type":"bytes32"},{"internalType":"bytes","name":"response","type":"bytes"},{"internalType":"bytes","name":"err","type":"bytes"}],"name":"handleOracleFulfillment","outputs":[],"stateMutability":"nonpayable","type":"function"},{"inputs":[{"internalType":"string","name":"","type":"string"}],"name":"marketData","outputs":[{"internalType":"uint256","name":"price","type":"uint256"},{"internalType":"uint256","name":"volume24h","type":"uint256"},{"internalType":"int256","name":"priceChange24h","type":"int256"},{"internalType":"uint256","name":"timestamp","type":"uint256"},{"internalType":"string","name":"asset","type":"string"}],"stateMutability":"view","type":"function"},{"inputs":[],"name":"marketDataSource","outputs":[{"internalType":"string","name":"","type":"string"}],"stateMutability":"view","type":"function"},{"inputs":[],"name":"newsSentimentSource","outputs":[{"internalType":"string","name":"","type":"string"}],"stateMutability":"view","type":"function"},{"inputs":[],"name":"owner","outputs":[{"internalType":"address","name":"","type":"address"}],"stateMutability":"view","type":"function"},{"inputs":[{"internalType":"string[]","name":"assets","type":"string[]"}],"name":"requestMarketData","outputs":[{"internalType":"bytes32","name":"requestId","type":"bytes32"}],"stateMutability":"nonpayable","type":"function"},{"inputs":[{"internalType":"string[]","name":"assets","type":"string[]"}],"name":"requestNewsSentiment","outputs":[{"internalType":"bytes32","name":"requestId","type":"bytes32"}],"stateMutability":"nonpayable","type":"function"},{"inputs":[{"internalType":"string[]","name":"assets","type":"string[]"}],"name":"requestTwitterSentiment","outputs":[{"internalType":"bytes32","name":"requestId","type":"bytes32"}],"stateMutability":"nonpayable","type":"function"},{"inputs":[{"internalType":"string","name":"","type":"string"}],"name":"sentimentData","outputs":[{"internalType":"int256","name":"score","type":"int256"},{"internalType":"uint256","name":"volume","type":"uint256"},{"internalType":"uint256","name":"timestamp","type":"uint256"},{"internalType":"string","name":"source","type":"string"}],"stateMutability":"view","type":"function"},{"inputs":[{"internalType":"address","name":"caller","type":"address"},{"internalType":"bool","name":"authorized","type":"bool"}],"name":"setAuthorizedCaller","outputs":[],"stateMutability":"nonpayable","type":"function"},{"inputs":[],"name":"subscriptionId","outputs":[{"internalType":"uint64","name":"","type":"uint64"}],"stateMutability":"view","type":"function"},{"inputs":[{"internalType":"address","name":"to","type":"address"}],"name":"transferOwnership","outputs":[],"stateMutability":"nonpayable","type":"function"},{"inputs":[],"name":"twitterSentimentSource","outputs":[{"internalType":"string","name":"","type":"string"}],"stateMutability":"view","type":"function"},{"inputs":[{"internalType":"string","name":"dataType","type":"string"},{"internalType":"string","name":"newSource","type":"string"}],"name":"updateSourceCode","outputs":[],"stateMutability":"nonpayable","type":"function"},{"inputs":[{"internalType":"uint64","name":"_subscriptionId","type":"uint64"},{"internalType":"uint32","name":"_gasLimit","type":"uint32"}],"name":"updateSubscription","outputs":[],"stateMutability":"nonpayable","type":"function"}],"evm":{"bytecode":{"linkReferences":{},"object":"60a0346200110b576001600160401b03601f6200464c38819003828101601f1916850191908483118684101762001110578086926060946040528339810103126200110b5782516001600160a01b03811692908390036200110b576020926040848601519501519182168092036200110b576080523315620010c6576a0493e000000000000000006000913360018060a01b0319845416178355600195866002556008549060075560018060601b0319161717600855600990620000c4825462001126565b83811162001096575b506107018255818152838120917f636f6e7374206170694b6579203d20736563726574732e74776974746572417083557f694b65793b636f6e7374206173736574203d20617267735b305d3b636f6e7374868401557f20726573706f6e7365203d2061776169742046756e6374696f6e732e6d616b6560028401557f4874747052657175657374287b202075726c3a206068747470733a2f2f61706960038401557f2e747769747465722e636f6d2f322f7477656574732f7365617263682f72656360048401557f656e74602c20206d6574686f643a2027474554272c2020686561646572733a2060058401557f7b20417574686f72697a6174696f6e3a206042656172657220247b6170694b6560068401557f797d60207d2c2020706172616d733a207b2071756572793a2060247b6173736560078401557f747d2063727970746f602c206d61785f726573756c74733a20313030207d7d2960088401557f3b6c65742073656e74696d656e74203d20303b6c657420766f6c756d65203d2081840155600a917f303b69662028726573706f6e73652e6461746120262620726573706f6e73652e838501557f46756e6374696f6e732e656e636f646555696e7432353628766f6c756d65293b601b600b957f646174612e6461746129207b2020766f6c756d65203d20726573706f6e73652e878201557f646174612e646174612e6c656e6774683b2020666f722028636f6e7374207477600c8201557f656574206f6620726573706f6e73652e646174612e6461746129207b20202020600d8201557f636f6e73742074657874203d2074776565742e746578742e746f4c6f77657243600e8201557f61736528293b2020202069662028746578742e696e636c75646573282762756c600f8201557f6c6973682729207c7c20746578742e696e636c7564657328276d6f6f6e27292060108201557f7c7c20746578742e696e636c75646573282775702729292073656e74696d656e60118201557f74202b3d20313b2020202069662028746578742e696e636c756465732827626560128201557f61726973682729207c7c20746578742e696e636c75646573282764756d70272960138201557f207c7c20746578742e696e636c756465732827646f776e2729292073656e746960148201557f6d656e74202d3d20313b20207d7d636f6e7374206e6f726d616c697a6564536560158201557f6e74696d656e74203d204d6174682e726f756e64282873656e74696d656e742060168201557f2f204d6174682e6d617828766f6c756d652c20312929202a203130303030293b60178201557f72657475726e2046756e6374696f6e732e656e636f646555696e74323536284d60188201557f6174682e6d6178282d31303030302c204d6174682e6d696e2831303030302c2060198201557f6e6f726d616c697a656453656e74696d656e74292929202b2020202020202020601a82015501556200050c835462001126565b85811162001066575b506109b983558281527f74696f6e732e656e636f646555696e7432353628766f6c756d65293b0000000060268783207f636f6e7374206170694b6579203d20736563726574732e6e6577734170694b6581557f793b636f6e7374206173736574203d20617267735b305d3b636f6e73742072658a8201557f73706f6e7365203d2061776169742046756e6374696f6e732e6d616b6548747460028201557f7052657175657374287b202075726c3a202768747470733a2f2f6e657773617060038201557f692e6f72672f76322f65766572797468696e67272c20206d6574686f643a202760048201557f474554272c2020706172616d733a207b20202020713a2060247b61737365747d60058201557f2063727970746f63757272656e6379602c202020206c616e67756167653a202760068201557f656e272c20202020736f727442793a20277075626c69736865644174272c202060078201557f20207061676553697a653a2035302c202020206170694b65793a206170694b6560088201557f7920207d7d293b6c65742073656e74696d656e74203d20303b6c657420766f6c858201557f756d65203d20303b69662028726573706f6e73652e6461746120262620726573868201557f706f6e73652e646174612e61727469636c657329207b2020766f6c756d65203d878201557f20726573706f6e73652e646174612e61727469636c65732e6c656e6774683b20600c8201557f20666f722028636f6e73742061727469636c65206f6620726573706f6e73652e600d8201557f646174612e61727469636c657329207b20202020636f6e7374207469746c6520600e8201557f3d202861727469636c652e7469746c65207c7c202727292e746f4c6f77657243600f8201557f61736528293b20202020636f6e7374206465736372697074696f6e203d20286160108201557f727469636c652e6465736372697074696f6e207c7c202727292e746f4c6f776560118201557f724361736528293b20202020636f6e73742074657874203d207469746c65202b60128201557f20272027202b206465736372697074696f6e3b2020202069662028746578742e60138201557f696e636c75646573282773757267652729207c7c20746578742e696e636c756460148201557f6573282772616c6c792729207c7c20746578742e696e636c756465732827676160158201557f696e2729292073656e74696d656e74202b3d20323b202020206966202874657860168201557f742e696e636c756465732827706f7369746976652729207c7c20746578742e6960178201557f6e636c75646573282762756c6c6973682729207c7c20746578742e696e636c7560188201557f6465732827726973652729292073656e74696d656e74202b3d20313b2020202060198201557f69662028746578742e696e636c75646573282763726173682729207c7c207465601a8201557f78742e696e636c756465732827706c756e67652729207c7c20746578742e696e601b8201557f636c75646573282764726f702729292073656e74696d656e74202d3d20323b20601c8201557f20202069662028746578742e696e636c7564657328276e656761746976652729601d8201557f207c7c20746578742e696e636c756465732827626561726973682729207c7c20601e8201557f746578742e696e636c75646573282766616c6c2729292073656e74696d656e74888201557f202d3d20313b20207d7d636f6e7374206e6f726d616c697a656453656e74696d898201557f656e74203d204d6174682e726f756e64282873656e74696d656e74202f204d6160218201557f74682e6d617828766f6c756d652c20312929202a203130303030293b7265747560228201557f726e2046756e6374696f6e732e656e636f646555696e74323536284d6174682e60238201557f6d6178282d31303030302c204d6174682e6d696e2831303030302c206e6f726d60248201557f616c697a656453656e74696d656e74292929202b202020202020202046756e636025820155015562000aed845462001126565b85811162001039575b50937f696b65793a206170694b657920207d7d293b6966202821726573706f6e73652e847f3a2061737365742c202020206d61726b65743a2027555344272c20202020617088957f474954414c5f43555252454e43595f4441494c59272c2020202073796d626f6c7f75726e2046756e6374696f6e732e656e636f646555696e743235362870726963967f6167654170694b65793b636f6e7374206173736574203d20617267735b305d3b60229c6a6963654368616e6765293b60a81b9e9c6108977f6529202b2046756e6374696f6e732e656e636f646555696e7432353628766f6c9d55878152209b7f636f6e7374206170694b6579203d20736563726574732e616c70686156616e748d558c01557f636f6e73742073796d626f6c203d206173736574203d3d3d202742544327203f60028c01557f202742544355534427203a206173736574203d3d3d202745544827203f20274560038c01557f544855534427203a206173736574202b2027555344273b636f6e73742072657360048c01557f706f6e7365203d2061776169742046756e6374696f6e732e6d616b654874747060058c01557f52657175657374287b202075726c3a202768747470733a2f2f7777772e616c7060068c01557f686176616e746167652e636f2f7175657279272c20206d6574686f643a20274760078c01557f4554272c2020706172616d733a207b2020202066756e6374696f6e3a2027444960088c01558a01558801558601557f64617461207c7c2021726573706f6e73652e646174615b2754696d6520536572600c8601557f69657320284469676974616c2043757272656e6379204461696c7929275d2920600d8601557f7b20207468726f77206e6577204572726f722827496e76616c69642072657370600e8601557f6f6e736527293b7d636f6e73742074696d65536572696573203d20726573706f600f8601557f6e73652e646174615b2754696d652053657269657320284469676974616c204360108601557f757272656e6379204461696c7929275d3b636f6e7374206461746573203d204f60118601557f626a6563742e6b6579732874696d65536572696573292e736f727428292e726560128601557f766572736528293b636f6e7374206c6174657374203d2074696d65536572696560138601557f735b64617465735b305d5d3b636f6e73742070726576696f7573203d2074696d60148601557f655365726965735b64617465735b315d5d3b636f6e7374207072696365203d2060158601557f4d6174682e726f756e64287061727365466c6f6174286c61746573745b27316160168601557f2e206f70656e202855534429275d29202a2031653138293b636f6e737420766f60178601557f6c756d65203d204d6174682e726f756e64287061727365466c6f6174286c617460188601557f6573745b27352e20766f6c756d65275d29202a2031653138293b636f6e73742060198601557f70726963654368616e6765203d204d6174682e726f756e642828287061727365601a8601557f466c6f6174286c61746573745b2731612e206f70656e202855534429275d2920601b8601557f2d207061727365466c6f61742870726576696f75735b2731612e206f70656e20601c8601557f2855534429275d2929202f207061727365466c6f61742870726576696f75735b601d8601557f2731612e206f70656e202855534429275d2929202a203130303030293b726574601e8601558401558201557f756d6529202b2046756e6374696f6e732e656e636f6465496e74323536287072602182015501556040516134e890816200116482396080518181816104bd0152611d6b0152f35b848252602386888420920160051c820191015b8181106200105b575062000af6565b82815588016200104c565b83825287602787898520930160051c830192015b8281106200108a57505062000515565b8381550188906200107a565b82825285601c85878520930160051c830192015b828110620010ba575050620000cd565b838155018690620010aa565b60405162461bcd60e51b815260048101849052601860248201527f43616e6e6f7420736574206f776e657220746f207a65726f00000000000000006044820152606490fd5b600080fd5b634e487b7160e01b600052604160045260246000fd5b90600182811c9216801562001158575b60208310146200114257565b634e487b7160e01b600052602260045260246000fd5b91607f16916200113656fe6080604052600436101561001257600080fd5b60003560e01c806306a36b3e1461018757806309c1ba2e146101825780630ca761751461017d5780631b728f921461017857806328d788e11461017357806328e7d7091461016e5780634352433b14610169578063454bbd2914610164578063536fff6c1461015f57806354d5430c1461015a578063562921ec146101555780635bdadb9b1461015057806363b4f7601461014b57806373de930d1461014657806379ba5097146101415780638bf090461461013c5780638d4dd402146101375780638da5cb5b146101325780638dbe7b9d1461012d578063eadbfb9914610128578063f26cb84114610123578063f2fde38b1461011e5763f68016b71461011957600080fd5b611322565b611267565b6111a3565b611115565b6110b7565b61108e565b61103d565b611021565b610f62565b610e9e565b610ddf565b610d8d565b610ca5565b610c75565b610c36565b610be0565b610b65565b610a5a565b6105e1565b61052e565b61046e565b610336565b6101dd565b9060206003198301126101d8576004356001600160401b03928382116101d857806023830112156101d85781600401359384116101d85760248460051b830101116101d8576024019190565b600080fd5b346101d8576101eb3661018c565b3360009081526006602052604090205490919060ff161580610321575b61030f576020917f15bf77cca79349502b7d15e6aca126e8439b253f30b2beaf6c0818455bac167261029a61027961023e61139b565b61024f61024961083c565b82612142565b61026361025d3687896113e4565b82612191565b61027461026e612c4b565b8261216b565b611f6f565b600854600754916001600160401b0363ffffffff8360401c16921690611d13565b9283926102f36102a86103ea565b8581526102b3612c6b565b888201526102c23684866113e4565b6040820152426060820152336080820152600060a08201526102ee866000526003602052604060002090565b611aa3565b610304604051928392339184612c95565b0390a2604051908152f35b604051635c427cd960e01b8152600490fd5b506000546001600160a01b0316331415610208565b346101d85760003660031901126101d85760206001600160401b0360085416604051908152f35b634e487b7160e01b600052604160045260246000fd5b608081019081106001600160401b0382111761038e57604052565b61035d565b60a081019081106001600160401b0382111761038e57604052565b604081019081106001600160401b0382111761038e57604052565b90601f801991011681019081106001600160401b0382111761038e57604052565b6040519060c082018281106001600160401b0382111761038e57604052565b6040519061041682610373565b565b81601f820112156101d8578035906001600160401b03821161038e576040519261044c601f8401601f1916602001856103c9565b828452602083830101116101d857816000926020809301838601378301015290565b346101d85760603660031901126101d8576004356001600160401b036024358181116101d8576104a2903690600401610418565b906044359081116101d8576104bb903690600401610418565b7f00000000000000000000000000000000000000000000000000000000000000006001600160a01b0316330361051c576104f59183612ea5565b7f85e1543bf2f84fe80c6badbce3648c8539ad1df4d2b3d822938ca0538be727e6600080a2005b60405163c6829f8360e01b8152600490fd5b346101d85760403660031901126101d8576004356001600160401b0381168091036101d8576024359063ffffffff821682036101d85761056c611349565b6bffffffff00000000000000006008549260401b16916bffffffffffffffffffffffff19161717600855600080f35b9060406003198301126101d8576001600160401b036004358181116101d857836105c791600401610418565b926024359182116101d8576105de91600401610418565b90565b346101d8576105ef3661059b565b906105f8611349565b60409081516020918282018261060e8284610b02565b0392610622601f19948581018352826103c9565b5190208451701d1dda5d1d195c97dcd95b9d1a5b595b9d607a1b8582019081529061065881601184015b038681018352826103c9565b5190200361066f575050505061066d906117d4565b005b83518381019061068f816106838486610b02565b038581018352826103c9565b51902084516d1b995ddcd7dcd95b9d1a5b595b9d60921b858201908152906106ba81600e840161064c565b519020036106cf575050505061066d906116eb565b83516106ee816106e28682018095610b02565b038481018352826103c9565b519020916107248451918201928261071885600b906a6d61726b65745f6461746160a81b81520190565b039081018352826103c9565b51902003610736575061066d90611602565b51637cb6688960e11b8152600490fd5b90600182811c92168015610776575b602083101461076057565b634e487b7160e01b600052602260045260246000fd5b91607f1691610755565b60405190600082600b549161079483610746565b8083529260019081811690811561081a57506001146107bb575b50610416925003836103c9565b600b600090815291507f0175b7a638427703f0dbe7bb9bbf987a2551717b34e79f33b5b1008d1fa01db95b8483106107ff57506104169350508101602001386107ae565b81935090816020925483858a010152019101909185926107e6565b90506020925061041694915060ff191682840152151560051b820101386107ae565b60405190600082600a549161085083610746565b8083529260019081811690811561081a57506001146108765750610416925003836103c9565b600a600090815291507fc65a7bb8d6351c1cf70c95a316cc6a92839c986682d98bc35f958f4883f9d2a85b8483106108ba57506104169350508101602001386107ae565b81935090816020925483858a010152019101909185926108a1565b60405190600082600954916108e983610746565b8083529260019081811690811561081a575060011461090f5750610416925003836103c9565b6009600090815291507f6e1540171b6c0c960b71a7020d9f60077f6af931a8bbf590da0223dacf75c7af5b84831061095357506104169350508101602001386107ae565b81935090816020925483858a0101520191019091859261093a565b906040519182600082549261098284610746565b9081845260019485811690816000146109ef57506001146109ac575b5050610416925003836103c9565b9093915060005260209081600020936000915b8183106109d75750506104169350820101388061099e565b855488840185015294850194879450918301916109bf565b91505061041694506020925060ff191682840152151560051b820101388061099e565b60005b838110610a255750506000910152565b8181015183820152602001610a15565b90602091610a4e81518092818552858086019101610a12565b601f01601f1916010190565b346101d85760203660031901126101d857600435600052600360205260406000208054610a896001830161096e565b9160ff60046003830154920154610ab2604051958695865260a0602087015260a0860190610a35565b60408501939093526001600160a01b038116606085015260a01c16151560808301520390f35b60206003198201126101d857600435906001600160401b0382116101d8576105de91600401610418565b90610b1560209282815194859201610a12565b0190565b6020610b32918160405193828580945193849201610a12565b8101600581520301902090565b6020610b58918160405193828580945193849201610a12565b8101600481520301902090565b346101d857610b7b610b7636610ad8565b610b19565b8054610bc6600183015492600281015490610b9d60046003830154920161096e565b91604051958695865260208601526040850152606084015260a0608084015260a0830190610a35565b0390f35b600435906001600160a01b03821682036101d857565b346101d85760403660031901126101d857610bf9610bca565b602435908115158092036101d857610c0f611349565b60018060a01b0316600052600660205260406000209060ff80198354169116179055600080f35b346101d85760203660031901126101d8576001600160a01b03610c57610bca565b166000526006602052602060ff604060002054166040519015158152f35b346101d85760003660031901126101d857610bc6610c91610780565b604051918291602083526020830190610a35565b346101d857610cb336610ad8565b610d7b610d44610d0b610d36610d06610d10610d0b60405167747769747465725f60c01b6020820152610d066028828b610cf68151809260208686019101610a12565b81010360088101845201826103c9565b610b3f565b61342f565b95604051928391610d3060208401600590646e6577735f60d81b81520190565b90610b02565b03601f1981018352826103c9565b602080610d6f610d67610d578751613468565b610d61865161347f565b90613496565b612710900590565b94015191015190612237565b60408051928352602083019190915290f35b346101d85760003660031901126101d857610bc6610c9161083c565b60a060606105de936020845280516020850152602081015160408501526040810151828501520151916080808201520190610a35565b346101d857610bc6610df03661059b565b610e8f6003610e67604093610d066021865197610e0c89610373565b6000895260608060209a60008c82015260008b820152015287519381610e3b86935180928d8087019101610a12565b8201605f60f81b8b820152610e58825180938d8785019101610a12565b010360018101845201826103c9565b835194610e7386610373565b815486526001820154908601526002810154848601520161096e565b60608301525191829182610da9565b346101d857610eac3661018c565b3360009081526006602052604090205490919060ff161580610f4d575b61030f576020917f15bf77cca79349502b7d15e6aca126e8439b253f30b2beaf6c0818455bac1672610f23610279610eff61139b565b610f0a6102496108d5565b610f1861025d3687896113e4565b61027461026e611454565b928392610f3c610f316103ea565b8581526102b3611477565b610304604051928392339184611ca7565b506000546001600160a01b0316331415610ec9565b346101d85760008060031936011261101e576001546001600160a01b039081163303610fe05781546001600160a01b0316600080546001600160a01b0319163317905590600180546001600160a01b03191690553391167f8be0079c531659141344cd1fd0a4f28419497f9722a3daafe3b4186f6b6457e08380a380f35b60405162461bcd60e51b815260206004820152601660248201527526bab9ba10313290383937b837b9b2b21037bbb732b960511b6044820152606490fd5b80fd5b346101d85760003660031901126101d857610bc6610c916108d5565b346101d85761104e610d0636610ad8565b8054610bc660018301549261106a60036002830154920161096e565b90604051948594855260208501526040840152608060608401526080830190610a35565b346101d85760003660031901126101d8576000546040516001600160a01b039091168152602090f35b346101d85760003660031901126101d8576020600754604051908152f35b60c060806105de936020845280516020850152602081015160408501526040810151606085015260608101518285015201519160a0808201520190610a35565b346101d857610bc661115861112936610ad8565b6060608060405161113981610393565b6000815260006020820152600060408201526000838201520152610b19565b61119260046040519261116a84610393565b805484526001810154602085015260028101546040850152600381015460608501520161096e565b6080820152604051918291826110d5565b346101d8576111b13661018c565b3360009081526006602052604090205490919060ff161580611252575b61030f576020917f15bf77cca79349502b7d15e6aca126e8439b253f30b2beaf6c0818455bac167261122861027961120461139b565b61120f610249610780565b61121d61025d3687896113e4565b61027461026e612cd3565b9283926112416112366103ea565b8581526102b3612cf5565b610304604051928392339184612d1c565b506000546001600160a01b03163314156111ce565b346101d85760203660031901126101d857611280610bca565b611288611349565b6001600160a01b03163381146112dd57600180546001600160a01b031916821790556000546001600160a01b03167fed8889f560326eb138920d842192f0eb3dd22b4f139c87a2c57538e05bae1278600080a3005b60405162461bcd60e51b815260206004820152601760248201527f43616e6e6f74207472616e7366657220746f2073656c660000000000000000006044820152606490fd5b346101d85760003660031901126101d857602060085463ffffffff6040519160401c168152f35b6000546001600160a01b0316330361135d57565b60405162461bcd60e51b815260206004820152601660248201527527b7363c9031b0b63630b1363290313c9037bbb732b960511b6044820152606490fd5b6040519060e082018281106001600160401b0382111761038e57604052606060c08360008152600060208201526000604082015282808201528260808201528260a08201520152565b9092916001600160401b0380851161038e578460051b604051936020809561140e828501826103c9565b8098815201918101938085116101d85781925b8584106114315750505050505050565b83358581116101d85787916114498484938701610418565b815201930192611421565b60405190611461826103ae565b60078252663a3bb4ba3a32b960c91b6020830152565b60405190611484826103ae565b60118252701d1dda5d1d195c97dcd95b9d1a5b595b9d607a1b6020830152565b8181106114af575050565b600081556001016114a4565b90601f82116114c8575050565b61041691600b6000527f0175b7a638427703f0dbe7bb9bbf987a2551717b34e79f33b5b1008d1fa01db9906020601f840160051c83019310611512575b601f0160051c01906114a4565b9091508190611505565b90601f8211611529575050565b61041691600a6000527fc65a7bb8d6351c1cf70c95a316cc6a92839c986682d98bc35f958f4883f9d2a8906020601f840160051c8301931061151257601f0160051c01906114a4565b90601f821161157f575050565b6104169160096000527f6e1540171b6c0c960b71a7020d9f60077f6af931a8bbf590da0223dacf75c7af906020601f840160051c8301931061151257601f0160051c01906114a4565b9190601f81116115d757505050565b610416926000526020600020906020601f840160051c8301931061151257601f0160051c01906114a4565b9081516001600160401b03811161038e5761162781611622600b54610746565b6114bb565b602080601f83116001146116635750819293600092611658575b50508160011b916000199060031b1c191617600b55565b015190503880611641565b90601f19831694611696600b6000527f0175b7a638427703f0dbe7bb9bbf987a2551717b34e79f33b5b1008d1fa01db990565b926000905b8782106116d35750508360019596106116ba575b505050811b01600b55565b015160001960f88460031b161c191690553880806116af565b8060018596829496860151815501950193019061169b565b9081516001600160401b03811161038e576117108161170b600a54610746565b61151c565b602080601f831160011461174c5750819293600092611741575b50508160011b916000199060031b1c191617600a55565b01519050388061172a565b90601f1983169461177f600a6000527fc65a7bb8d6351c1cf70c95a316cc6a92839c986682d98bc35f958f4883f9d2a890565b926000905b8782106117bc5750508360019596106117a3575b505050811b01600a55565b015160001960f88460031b161c19169055388080611798565b80600185968294968601518155019501930190611784565b9081516001600160401b03811161038e576117f9816117f4600954610746565b611572565b602080601f8311600114611835575081929360009261182a575b50508160011b916000199060031b1c191617600955565b015190503880611813565b90601f1983169461186860096000527f6e1540171b6c0c960b71a7020d9f60077f6af931a8bbf590da0223dacf75c7af90565b926000905b8782106118a557505083600195961061188c575b505050811b01600955565b015160001960f88460031b161c19169055388080611881565b8060018596829496860151815501950193019061186d565b91909182516001600160401b03811161038e576118e4816118de8454610746565b846115c8565b602080601f8311600114611920575081929394600092611915575b50508160011b916000199060031b1c1916179055565b0151905038806118ff565b90601f1983169561193685600052602060002090565b926000905b8882106119735750508360019596971061195a575b505050811b019055565b015160001960f88460031b161c19169055388080611950565b8060018596829496860151815501950193019061193b565b634e487b7160e01b600052601160045260246000fd5b908160011b91808304600214901517156119b757565b61198b565b81519168010000000000000000831161038e578154838355808410611a1f575b506119f1602080920192600052602060002090565b6000925b848410611a03575050505050565b60018382611a13839451866118bd565b019201930192906119f5565b6000838152846020822092830192015b828110611a3d5750506119dc565b80611a4a60019254610746565b80611a57575b5001611a2f565b601f908181118414611a6f5750508281555b38611a50565b83611a9192611a8385600052602060002090565b920160051c820191016114a4565b60008181526020812081835555611a69565b9080518255600191828101602080840151948551916001600160401b03831161038e57611ada83611ad48654610746565b866115c8565b80601f8411600114611b7f5750928280600494611b5a979460a0976104169b600094611b74575b50501b916000199060031b1c19161790555b611b246040860151600283016119bc565b606085015160038201556080850151910180546001600160a01b0319166001600160a01b03909216919091178155920151151590565b815460ff60a01b191690151560a01b60ff60a01b16179055565b015192503880611b01565b9193949596601f198416611b9887600052602060002090565b936000905b828210611be657505093610416989793611b5a979360a097938360049810611bcd575b505050811b019055611b13565b015160001960f88460031b161c19169055388080611bc0565b808886978294978701518155019601940190611b9d565b908060209392818452848401376000828201840152601f01601f1916010190565b9082818152602080910193818360051b82010194846000925b858410611c48575050505050505090565b90919293949596601f198282030184528735601e19843603018112156101d85783018681019190356001600160401b0381116101d85780360383136101d857611c9688928392600195611bfd565b990194019401929594939190611c37565b91604091611ce8919594956060855260116060860152701d1dda5d1d195c97dcd95b9d1a5b595b9d607a1b608086015260a0602086015260a0850191611c1e565b6001600160a01b03909416910152565b908160209103126101d8575190565b6040513d6000823e3d90fd5b92906020926001600160401b039263ffffffff611d52604051978896879663230e93b160e11b885216600487015260a0602487015260a4860190610a35565b60016044860152921660648401526084830152038160007f00000000000000000000000000000000000000000000000000000000000000006001600160a01b03165af1908115611dfc57600091611dce575b50807f1131472297a800fee664d1d89cfa8f7676ff07189ecc53f80bbb5f4969099db8600080a290565b611def915060203d8111611df5575b611de781836103c9565b810190611cf8565b38611da4565b503d611ddd565b611d07565b60405190611e0e826103ae565b600c82526b31b7b232a637b1b0ba34b7b760a11b6020830152565b634e487b7160e01b600052602160045260246000fd5b60031115611e4957565b611e29565b60405190611e5b826103ae565b60088252676c616e677561676560c01b6020830152565b60011115611e4957565b60405190611e89826103ae565b6006825265736f7572636560d01b6020830152565b60405190611eab826103ae565b60048252636172677360e01b6020830152565b60001981146119b75760010190565b634e487b7160e01b600052603260045260246000fd5b8051821015611ef75760209160051b010190565b611ecd565b60405190611f09826103ae565b600f82526e39b2b1b932ba39a637b1b0ba34b7b760891b6020830152565b60405190611f34826103ae565b60078252667365637265747360c81b6020830152565b60405190611f57826103ae565b600982526862797465734172677360b81b6020830152565b611f776121ca565b90611f89611f83611e01565b8361290c565b611fa68151611f9781611e3f565b611fa081611e3f565b83612296565b611fb1611f83611e4e565b611fcb6040820151611fc281611e72565b611fa081611e72565b611fd6611f83611e7c565b611fe460608201518361290c565b60a081018051516120e9575b506080810190815151612069575b60c0915001805151612011575b50515190565b9161201d611f83611f4a565b61202682612990565b60005b83518051821015612056579061204c6120458261205194611ee3565b5185612857565b611ebe565b612029565b5050915061206381612a1c565b3861200b565b60208101805161207881611e3f565b61208181611e3f565b156120d75760c0926120ba6120d2926120a161209b611efc565b8861290c565b516120ab81611e3f565b6120b481611e3f565b86612296565b6120cb6120c5611f27565b8661290c565b5184612857565b611ffe565b60405163a80d31f760e01b8152600490fd5b926120fb6120f5611e9e565b8461290c565b61210483612990565b60005b8451805182101561212f579061204c6121238261212a94611ee3565b518661290c565b612107565b5050925061213c82612a1c565b38611ff0565b815115612159576000808252604082015260600152565b6040516322ce3edd60e01b8152600490fd5b81511561217f576001602082015260800152565b60405163e889636f60e01b8152600490fd5b81511561219e5760a00152565b60405163fe936cb760e01b8152600490fd5b604051906121bd826103ae565b6000602083606081520152565b6040516121d6816103ae565b6121de6121b0565b80825260208201600081526121f16121b0565b5061010060208301526040518092526000825261012082019182106101d8576000916040525290565b601f198101919082116119b757565b90602082018092116119b757565b919082018092116119b757565b9061224d6121b0565b50601f81168061227c575b50806020830152604051908183526000825281016020019081106101d85760405290565b602003602081116119b75781018091116119b75738612258565b908151916122a26121b0565b5082515160018101908181116119b75760208501518110156122fb575b60c2602061041696519283010153805182116122f3575b5050604051916020830152602082526122ee826103ae565b612857565b5238806122d6565b8160011b94828604600214831517156119b75760208161232d6104169861232660c295519184612244565b508261279f565b50965050506122bf565b61233f6121b0565b5080515160018101908181116119b7576020830151811015612378575b605b6020845192830101538051821161237457505090565b5290565b8160011b828104600214831517156119b7576123a19061239a85519186612244565b508461279f565b5061235c565b6123af6121b0565b5080515160018101908181116119b75760208301518110156123e4575b605a6020845192830101538051821161237457505090565b8160011b828104600214831517156119b7576124069061239a85519186612244565b506123cc565b6124146121b0565b5080515160018101908181116119b7576020830151811015612449575b60596020845192830101538051821161237457505090565b8160011b828104600214831517156119b75761246b9061239a85519186612244565b50612431565b6124796121b0565b5080515160018101908181116119b75760208301518110156124ae575b60586020845192830101538051821161237457505090565b8160011b828104600214831517156119b7576124d09061239a85519186612244565b50612496565b6124de6121b0565b5080515160018101908181116119b7576020830151811015612513575b607b6020845192830101538051821161237457505090565b8160011b828104600214831517156119b7576125359061239a85519186612244565b506124fb565b6125436121b0565b5080515160018101908181116119b7576020830151811015612578575b607a6020845192830101538051821161237457505090565b8160011b828104600214831517156119b75761259a9061239a85519186612244565b50612560565b6125a86121b0565b5080515160018101908181116119b75760208301518110156125dd575b60796020845192830101538051821161237457505090565b8160011b828104600214831517156119b7576125ff9061239a85519186612244565b506125c5565b61260d6121b0565b5080515160018101908181116119b7576020830151811015612642575b60786020845192830101538051821161237457505090565b8160011b828104600214831517156119b7576126649061239a85519186612244565b5061262a565b906126736121b0565b5081515160018101918282116119b75760208401518210156126a6575b6020845192830101538051821161237457505090565b8260011b838104600214841517156119b7576126cf906126c886519187612244565b508561279f565b50612690565b906126e282519183612244565b506126eb6121b0565b508051906126f76121b0565b506127058151831115612850565b825151926127138385612237565b916020928284809401518211612788575b5183815197820101968211612780575b505001915b8181101561275a5760001991036101000a0190811990511690825116179052565b919261277561276f61277b9286518152612229565b94612229565b9261221a565b612739565b523880612734565b61279a612794836119a1565b826126d5565b612724565b906127a86121b0565b5080516127b36121b0565b506127c18251821115612850565b825151916127cf8284612237565b6020918291828701518111612839575b865183815197820101968211612831575b505001915b818110156128175760001991036101000a019081199051169082511617905290565b919261277561276f61282c9286518152612229565b6127f5565b5238806127f0565b61284b612845826119a1565b886126d5565b6127df565b156101d857565b815161288e9291906001600160401b0381169060178211612891576128869150604060ff84519216179061266a565b505b5161279f565b50565b5060ff81116128b6576128b0906128a88351612471565b508251612be5565b50612888565b61ffff81116128d5576128b0906128cd835161240c565b508251612b7e565b63ffffffff81116128f6576128b0906128ee83516123a7565b508251612b15565b6128b0906129048351612337565b508251612aa9565b815161288e9291906001600160401b038116906017821161293b576128869150606060ff84519216179061266a565b5060ff8111612952576128b0906128a88351612605565b61ffff8111612969576128b0906128cd83516125a0565b63ffffffff8111612982576128b0906128ee835161253b565b6128b09061290483516124d6565b80519061299b6121b0565b5081515160018101908181116119b75760208401518110156129e9575b609f60208095519283010153805182116129e1575b505001805190600182018092116119b75752565b5238806129cd565b8160011b93828504600214831517156119b757602081612a128297612326609f95519184612244565b50955050506129b8565b805190612a276121b0565b5081515160018101908181116119b7576020840151811015612a76575b60ff6020809551928301015380518211612a6e575b50500180516000198101919082116119b75752565b523880612a59565b8160011b93828504600214831517156119b757602081612a9f829761232660ff95519184612244565b5095505050612a44565b90612ab26121b0565b508151518060080191826008116119b75760208401518311612af4575b6008845192830101906001600160401b03198251161790528051821161237457505090565b8260011b838104600214841517156119b757612b1090856126d5565b612acf565b90612b1e6121b0565b508151518060040191826004116119b75760208401518311612b5d575b60048451928301019063ffffffff198251161790528051821161237457505090565b8260011b838104600214841517156119b757612b7990856126d5565b612b3b565b90612b876121b0565b508151518060020191826002116119b75760208401518311612bc4575b60028451928301019061ffff198251161790528051821161237457505090565b8260011b838104600214841517156119b757612be090856126d5565b612ba4565b90612bee6121b0565b508151518060010191826001116119b75760208401518311612c2a575b60018451928301019060ff198251161790528051821161237457505090565b8260011b838104600214841517156119b757612c4690856126d5565b612c0b565b60405190612c58826103ae565b60048252636e65777360e01b6020830152565b60405190612c78826103ae565b600e82526d1b995ddcd7dcd95b9d1a5b595b9d60921b6020830152565b91604091611ce89195949560608552600e60608601526d1b995ddcd7dcd95b9d1a5b595b9d60921b608086015260a0602086015260a0850191611c1e565b60405190612ce0826103ae565b60068252651b585c9ad95d60d21b6020830152565b60405190612d02826103ae565b600b82526a6d61726b65745f6461746160a81b6020830152565b91604091611ce89195949560608552600b60608601526a6d61726b65745f6461746160a81b608086015260a0602086015260a0850191611c1e565b600092918154612d6681610746565b92600191808316908115612dbf5750600114612d83575b50505050565b90919293945060005260209081600020906000915b858310612dae5750505050019038808080612d7d565b805485840152918301918101612d98565b60ff1916845250505081151590910201915038808080612d7d565b805415611ef757600052602060002090600090565b909291604082526000918454612e0481610746565b958660408401526001918281169081600014612e7d5750600114612e38575b50506105de9394506020818403910152610a35565b9095919350600052602080600020956000965b838810612e69575050505060606105de939483010191849338612e23565b805486890160600152968201968101612e4b565b91505060609294506105de9596915060ff191682850152151560051b83010191849338612e23565b9190612ebb836000526003602052604060002090565b9160038301541561307a5760048301805460ff60a01b1916600160a01b179055516130755781612f9d60017fcee9c1baa43553b2448ea9021b8ac9f16fee9b4f8e8ae109ccfe1f7cf656bdc0940191604090815160209081810181612f208289612d57565b0391612f34601f19938481018352826103c9565b5190208451701d1dda5d1d195c97dcd95b9d1a5b595b9d607a1b84820190815290612f628160118401610683565b51902003612fa2575050612f84612f7e6002612f939301612dda565b5061096e565b612f8c611454565b908661319b565b5192839283612def565b0390a2565b835182810190612fb6816106e2848b612d57565b51902084516d1b995ddcd7dcd95b9d1a5b595b9d60921b84820190815290612fe181600e8401610683565b5190200361300a575050612ffd612f7e60026130059301612dda565b612f8c612c4b565b612f93565b83518281019061301e816106e2848b612d57565b519020916130488551918201928261071885600b906a6d61726b65745f6461746160a81b81520190565b51902014613057575b50612f93565b613069612f7e600261306f9301612dda565b8561326c565b38613051565b505050565b604051632589d98f60e11b8152600490fd5b815181556020606060038285015193600194858201556040860151600282015501930151908151916001600160401b03831161038e576130d6836130d08754610746565b876115c8565b81601f841160011461310f5750928293918392600094613104575b50501b916000199060031b1c1916179055565b0151925038806130f1565b919083601f19811661312688600052602060002090565b946000905b88838310613145575050501061195a57505050811b019055565b85870151885590960195948501948793509081019061312b565b61317790602060405192828480945193849201610a12565b810103902090565b6105de9392606092825260208201528160408201520190610a35565b9190825192604093848110156131b3575b5050505050565b818591810103126101d85761325f7fac11ae47dbb7c28bc4e0c09f664f0b8cbdda8d77259bab0eb98e0282121371d593613254610d36613222886020870151960151968951928391610d306020885161321181838801848d01610a12565b850101600190605f60f81b81520190565b61324f61322d610409565b868152876020820152428a82015284606082015261324a83610b3f565b61308c565b61315f565b95519384938461317f565b0390a238808080806131ac565b8051606081101561327c57505050565b81606091810103126101d857602090818101516060604083015192015193604051936132a785610393565b82855280850190848252600460408701968888526060810142815260808201948686526132d387610b19565b9251835551986001998a840155516002830155516003820155019151958651916001600160401b03831161038e5761330f83611ad48654610746565b80601f841160011461339257509180806133699593612f9d97957fc6d4535f78ddc5dca36d9ad48bc2c0fc3c4ea53f47b8c3f3467d91f3ad2b275e9b600094613387575b50501b916000199060031b1c191617905561315f565b94604051938493846040919493926060820195825260208201520152565b015192503880613353565b919394959697601f1984166133ac87600052602060002090565b936000905b82821061341857505092613369959285927fc6d4535f78ddc5dca36d9ad48bc2c0fc3c4ea53f47b8c3f3467d91f3ad2b275e9b9a9996612f9d9996106133ff575b505050811b01905561315f565b015160001960f88460031b161c191690553880806133f2565b8088869782949787015181550196019401906133b1565b9060405161343c81610373565b6060613463600383958054855260018101546020860152600281015460408601520161096e565b910152565b90610fa0918281029281840514901517156119b757565b90611770918281029281840514901517156119b757565b919091600083820193841291129080158216911516176119b75756fea2646970667358221220ee9a091b86909446d21c60ceca75c4488fa996e755045af7318144f49253790564736f6c63430008140033","opcodes":"PUSH1 0xA0 CALLVALUE PUSH3 0x110B JUMPI PUSH1 0x1 PUSH1 0x1 PUSH1 0x40 SHL SUB PUSH1 0x1F PUSH3 0x464C CODESIZE DUP2 SWAP1 SUB DUP3 DUP2 ADD PUSH1 0x1F NOT AND DUP6 ADD SWAP2 SWAP1 DUP5 DUP4 GT DUP7 DUP5 LT OR PUSH3 0x1110 JUMPI DUP1 DUP7 SWAP3 PUSH1 0x60 SWAP5 PUSH1 0x40 MSTORE DUP4 CODECOPY DUP2 ADD SUB SLT PUSH3 0x110B JUMPI DUP3 MLOAD PUSH1 0x1 PUSH1 0x1 PUSH1 0xA0 SHL SUB DUP2 AND SWAP3 SWAP1 DUP4 SWAP1 SUB PUSH3 0x110B JUMPI PUSH1 0x20 SWAP3 PUSH1 0x40 DUP5 DUP7 ADD MLOAD SWAP6 ADD MLOAD SWAP2 DUP3 AND DUP1 SWAP3 SUB PUSH3 0x110B JUMPI PUSH1 0x80 MSTORE CALLER ISZERO PUSH3 0x10C6 JUMPI PUSH11 0x493E00000000000000000 PUSH1 0x0 SWAP2 CALLER PUSH1 0x1 DUP1 PUSH1 0xA0 SHL SUB NOT DUP5 SLOAD AND OR DUP4 SSTORE PUSH1 0x1 SWAP6 DUP7 PUSH1 0x2 SSTORE PUSH1 0x8 SLOAD SWAP1 PUSH1 0x7 SSTORE PUSH1 0x1 DUP1 PUSH1 0x60 SHL SUB NOT AND OR OR PUSH1 0x8 SSTORE PUSH1 0x9 SWAP1 PUSH3 0xC4 DUP3 SLOAD PUSH3 0x1126 JUMP JUMPDEST DUP4 DUP2 GT PUSH3 0x1096 JUMPI JUMPDEST POP PUSH2 0x701 DUP3 SSTORE DUP2 DUP2 MSTORE DUP4 DUP2 KECCAK256 SWAP2 PUSH32 0x636F6E7374206170694B6579203D20736563726574732E747769747465724170 DUP4 SSTORE PUSH32 0x694B65793B636F6E7374206173736574203D20617267735B305D3B636F6E7374 DUP7 DUP5 ADD SSTORE PUSH32 0x20726573706F6E7365203D2061776169742046756E6374696F6E732E6D616B65 PUSH1 0x2 DUP5 ADD SSTORE PUSH32 0x4874747052657175657374287B202075726C3A206068747470733A2F2F617069 PUSH1 0x3 DUP5 ADD SSTORE PUSH32 0x2E747769747465722E636F6D2F322F7477656574732F7365617263682F726563 PUSH1 0x4 DUP5 ADD SSTORE PUSH32 0x656E74602C20206D6574686F643A2027474554272C2020686561646572733A20 PUSH1 0x5 DUP5 ADD SSTORE PUSH32 0x7B20417574686F72697A6174696F6E3A206042656172657220247B6170694B65 PUSH1 0x6 DUP5 ADD SSTORE PUSH32 0x797D60207D2C2020706172616D733A207B2071756572793A2060247B61737365 PUSH1 0x7 DUP5 ADD SSTORE PUSH32 0x747D2063727970746F602C206D61785F726573756C74733A20313030207D7D29 PUSH1 0x8 DUP5 ADD SSTORE PUSH32 0x3B6C65742073656E74696D656E74203D20303B6C657420766F6C756D65203D20 DUP2 DUP5 ADD SSTORE PUSH1 0xA SWAP2 PUSH32 0x303B69662028726573706F6E73652E6461746120262620726573706F6E73652E DUP4 DUP6 ADD SSTORE PUSH32 0x46756E6374696F6E732E656E636F646555696E7432353628766F6C756D65293B PUSH1 0x1B PUSH1 0xB SWAP6 PUSH32 0x646174612E6461746129207B2020766F6C756D65203D20726573706F6E73652E DUP8 DUP3 ADD SSTORE PUSH32 0x646174612E646174612E6C656E6774683B2020666F722028636F6E7374207477 PUSH1 0xC DUP3 ADD SSTORE PUSH32 0x656574206F6620726573706F6E73652E646174612E6461746129207B20202020 PUSH1 0xD DUP3 ADD SSTORE PUSH32 0x636F6E73742074657874203D2074776565742E746578742E746F4C6F77657243 PUSH1 0xE DUP3 ADD SSTORE PUSH32 0x61736528293B2020202069662028746578742E696E636C75646573282762756C PUSH1 0xF DUP3 ADD SSTORE PUSH32 0x6C6973682729207C7C20746578742E696E636C7564657328276D6F6F6E272920 PUSH1 0x10 DUP3 ADD SSTORE PUSH32 0x7C7C20746578742E696E636C75646573282775702729292073656E74696D656E PUSH1 0x11 DUP3 ADD SSTORE PUSH32 0x74202B3D20313B2020202069662028746578742E696E636C7564657328276265 PUSH1 0x12 DUP3 ADD SSTORE PUSH32 0x61726973682729207C7C20746578742E696E636C75646573282764756D702729 PUSH1 0x13 DUP3 ADD SSTORE PUSH32 0x207C7C20746578742E696E636C756465732827646F776E2729292073656E7469 PUSH1 0x14 DUP3 ADD SSTORE PUSH32 0x6D656E74202D3D20313B20207D7D636F6E7374206E6F726D616C697A65645365 PUSH1 0x15 DUP3 ADD SSTORE PUSH32 0x6E74696D656E74203D204D6174682E726F756E64282873656E74696D656E7420 PUSH1 0x16 DUP3 ADD SSTORE PUSH32 0x2F204D6174682E6D617828766F6C756D652C20312929202A203130303030293B PUSH1 0x17 DUP3 ADD SSTORE PUSH32 0x72657475726E2046756E6374696F6E732E656E636F646555696E74323536284D PUSH1 0x18 DUP3 ADD SSTORE PUSH32 0x6174682E6D6178282D31303030302C204D6174682E6D696E2831303030302C20 PUSH1 0x19 DUP3 ADD SSTORE PUSH32 0x6E6F726D616C697A656453656E74696D656E74292929202B2020202020202020 PUSH1 0x1A DUP3 ADD SSTORE ADD SSTORE PUSH3 0x50C DUP4 SLOAD PUSH3 0x1126 JUMP JUMPDEST DUP6 DUP2 GT PUSH3 0x1066 JUMPI JUMPDEST POP PUSH2 0x9B9 DUP4 SSTORE DUP3 DUP2 MSTORE PUSH32 0x74696F6E732E656E636F646555696E7432353628766F6C756D65293B00000000 PUSH1 0x26 DUP8 DUP4 KECCAK256 PUSH32 0x636F6E7374206170694B6579203D20736563726574732E6E6577734170694B65 DUP2 SSTORE PUSH32 0x793B636F6E7374206173736574203D20617267735B305D3B636F6E7374207265 DUP11 DUP3 ADD SSTORE PUSH32 0x73706F6E7365203D2061776169742046756E6374696F6E732E6D616B65487474 PUSH1 0x2 DUP3 ADD SSTORE PUSH32 0x7052657175657374287B202075726C3A202768747470733A2F2F6E6577736170 PUSH1 0x3 DUP3 ADD SSTORE PUSH32 0x692E6F72672F76322F65766572797468696E67272C20206D6574686F643A2027 PUSH1 0x4 DUP3 ADD SSTORE PUSH32 0x474554272C2020706172616D733A207B20202020713A2060247B61737365747D PUSH1 0x5 DUP3 ADD SSTORE PUSH32 0x2063727970746F63757272656E6379602C202020206C616E67756167653A2027 PUSH1 0x6 DUP3 ADD SSTORE PUSH32 0x656E272C20202020736F727442793A20277075626C69736865644174272C2020 PUSH1 0x7 DUP3 ADD SSTORE PUSH32 0x20207061676553697A653A2035302C202020206170694B65793A206170694B65 PUSH1 0x8 DUP3 ADD SSTORE PUSH32 0x7920207D7D293B6C65742073656E74696D656E74203D20303B6C657420766F6C DUP6 DUP3 ADD SSTORE PUSH32 0x756D65203D20303B69662028726573706F6E73652E6461746120262620726573 DUP7 DUP3 ADD SSTORE PUSH32 0x706F6E73652E646174612E61727469636C657329207B2020766F6C756D65203D DUP8 DUP3 ADD SSTORE PUSH32 0x20726573706F6E73652E646174612E61727469636C65732E6C656E6774683B20 PUSH1 0xC DUP3 ADD SSTORE PUSH32 0x20666F722028636F6E73742061727469636C65206F6620726573706F6E73652E PUSH1 0xD DUP3 ADD SSTORE PUSH32 0x646174612E61727469636C657329207B20202020636F6E7374207469746C6520 PUSH1 0xE DUP3 ADD SSTORE PUSH32 0x3D202861727469636C652E7469746C65207C7C202727292E746F4C6F77657243 PUSH1 0xF DUP3 ADD SSTORE PUSH32 0x61736528293B20202020636F6E7374206465736372697074696F6E203D202861 PUSH1 0x10 DUP3 ADD SSTORE PUSH32 0x727469636C652E6465736372697074696F6E207C7C202727292E746F4C6F7765 PUSH1 0x11 DUP3 ADD SSTORE PUSH32 0x724361736528293B20202020636F6E73742074657874203D207469746C65202B PUSH1 0x12 DUP3 ADD SSTORE PUSH32 0x20272027202B206465736372697074696F6E3B2020202069662028746578742E PUSH1 0x13 DUP3 ADD SSTORE PUSH32 0x696E636C75646573282773757267652729207C7C20746578742E696E636C7564 PUSH1 0x14 DUP3 ADD SSTORE PUSH32 0x6573282772616C6C792729207C7C20746578742E696E636C7564657328276761 PUSH1 0x15 DUP3 ADD SSTORE PUSH32 0x696E2729292073656E74696D656E74202B3D20323B2020202069662028746578 PUSH1 0x16 DUP3 ADD SSTORE PUSH32 0x742E696E636C756465732827706F7369746976652729207C7C20746578742E69 PUSH1 0x17 DUP3 ADD SSTORE PUSH32 0x6E636C75646573282762756C6C6973682729207C7C20746578742E696E636C75 PUSH1 0x18 DUP3 ADD SSTORE PUSH32 0x6465732827726973652729292073656E74696D656E74202B3D20313B20202020 PUSH1 0x19 DUP3 ADD SSTORE PUSH32 0x69662028746578742E696E636C75646573282763726173682729207C7C207465 PUSH1 0x1A DUP3 ADD SSTORE PUSH32 0x78742E696E636C756465732827706C756E67652729207C7C20746578742E696E PUSH1 0x1B DUP3 ADD SSTORE PUSH32 0x636C75646573282764726F702729292073656E74696D656E74202D3D20323B20 PUSH1 0x1C DUP3 ADD SSTORE PUSH32 0x20202069662028746578742E696E636C7564657328276E656761746976652729 PUSH1 0x1D DUP3 ADD SSTORE PUSH32 0x207C7C20746578742E696E636C756465732827626561726973682729207C7C20 PUSH1 0x1E DUP3 ADD SSTORE PUSH32 0x746578742E696E636C75646573282766616C6C2729292073656E74696D656E74 DUP9 DUP3 ADD SSTORE PUSH32 0x202D3D20313B20207D7D636F6E7374206E6F726D616C697A656453656E74696D DUP10 DUP3 ADD SSTORE PUSH32 0x656E74203D204D6174682E726F756E64282873656E74696D656E74202F204D61 PUSH1 0x21 DUP3 ADD SSTORE PUSH32 0x74682E6D617828766F6C756D652C20312929202A203130303030293B72657475 PUSH1 0x22 DUP3 ADD SSTORE PUSH32 0x726E2046756E6374696F6E732E656E636F646555696E74323536284D6174682E PUSH1 0x23 DUP3 ADD SSTORE PUSH32 0x6D6178282D31303030302C204D6174682E6D696E2831303030302C206E6F726D PUSH1 0x24 DUP3 ADD SSTORE PUSH32 0x616C697A656453656E74696D656E74292929202B202020202020202046756E63 PUSH1 0x25 DUP3 ADD SSTORE ADD SSTORE PUSH3 0xAED DUP5 SLOAD PUSH3 0x1126 JUMP JUMPDEST DUP6 DUP2 GT PUSH3 0x1039 JUMPI JUMPDEST POP SWAP4 PUSH32 0x696B65793A206170694B657920207D7D293B6966202821726573706F6E73652E DUP5 PUSH32 0x3A2061737365742C202020206D61726B65743A2027555344272C202020206170 DUP9 SWAP6 PUSH32 0x474954414C5F43555252454E43595F4441494C59272C2020202073796D626F6C PUSH32 0x75726E2046756E6374696F6E732E656E636F646555696E743235362870726963 SWAP7 PUSH32 0x6167654170694B65793B636F6E7374206173736574203D20617267735B305D3B PUSH1 0x22 SWAP13 PUSH11 0x6963654368616E6765293B PUSH1 0xA8 SHL SWAP15 SWAP13 PUSH2 0x897 PUSH32 0x6529202B2046756E6374696F6E732E656E636F646555696E7432353628766F6C SWAP14 SSTORE DUP8 DUP2 MSTORE KECCAK256 SWAP12 PUSH32 0x636F6E7374206170694B6579203D20736563726574732E616C70686156616E74 DUP14 SSTORE DUP13 ADD SSTORE PUSH32 0x636F6E73742073796D626F6C203D206173736574203D3D3D202742544327203F PUSH1 0x2 DUP13 ADD SSTORE PUSH32 0x202742544355534427203A206173736574203D3D3D202745544827203F202745 PUSH1 0x3 DUP13 ADD SSTORE PUSH32 0x544855534427203A206173736574202B2027555344273B636F6E737420726573 PUSH1 0x4 DUP13 ADD SSTORE PUSH32 0x706F6E7365203D2061776169742046756E6374696F6E732E6D616B6548747470 PUSH1 0x5 DUP13 ADD SSTORE PUSH32 0x52657175657374287B202075726C3A202768747470733A2F2F7777772E616C70 PUSH1 0x6 DUP13 ADD SSTORE PUSH32 0x686176616E746167652E636F2F7175657279272C20206D6574686F643A202747 PUSH1 0x7 DUP13 ADD SSTORE PUSH32 0x4554272C2020706172616D733A207B2020202066756E6374696F6E3A20274449 PUSH1 0x8 DUP13 ADD SSTORE DUP11 ADD SSTORE DUP9 ADD SSTORE DUP7 ADD SSTORE PUSH32 0x64617461207C7C2021726573706F6E73652E646174615B2754696D6520536572 PUSH1 0xC DUP7 ADD SSTORE PUSH32 0x69657320284469676974616C2043757272656E6379204461696C7929275D2920 PUSH1 0xD DUP7 ADD SSTORE PUSH32 0x7B20207468726F77206E6577204572726F722827496E76616C69642072657370 PUSH1 0xE DUP7 ADD SSTORE PUSH32 0x6F6E736527293B7D636F6E73742074696D65536572696573203D20726573706F PUSH1 0xF DUP7 ADD SSTORE PUSH32 0x6E73652E646174615B2754696D652053657269657320284469676974616C2043 PUSH1 0x10 DUP7 ADD SSTORE PUSH32 0x757272656E6379204461696C7929275D3B636F6E7374206461746573203D204F PUSH1 0x11 DUP7 ADD SSTORE PUSH32 0x626A6563742E6B6579732874696D65536572696573292E736F727428292E7265 PUSH1 0x12 DUP7 ADD SSTORE PUSH32 0x766572736528293B636F6E7374206C6174657374203D2074696D655365726965 PUSH1 0x13 DUP7 ADD SSTORE PUSH32 0x735B64617465735B305D5D3B636F6E73742070726576696F7573203D2074696D PUSH1 0x14 DUP7 ADD SSTORE PUSH32 0x655365726965735B64617465735B315D5D3B636F6E7374207072696365203D20 PUSH1 0x15 DUP7 ADD SSTORE PUSH32 0x4D6174682E726F756E64287061727365466C6F6174286C61746573745B273161 PUSH1 0x16 DUP7 ADD SSTORE PUSH32 0x2E206F70656E202855534429275D29202A2031653138293B636F6E737420766F PUSH1 0x17 DUP7 ADD SSTORE PUSH32 0x6C756D65203D204D6174682E726F756E64287061727365466C6F6174286C6174 PUSH1 0x18 DUP7 ADD SSTORE PUSH32 0x6573745B27352E20766F6C756D65275D29202A2031653138293B636F6E737420 PUSH1 0x19 DUP7 ADD SSTORE PUSH32 0x70726963654368616E6765203D204D6174682E726F756E642828287061727365 PUSH1 0x1A DUP7 ADD SSTORE PUSH32 0x466C6F6174286C61746573745B2731612E206F70656E202855534429275D2920 PUSH1 0x1B DUP7 ADD SSTORE PUSH32 0x2D207061727365466C6F61742870726576696F75735B2731612E206F70656E20 PUSH1 0x1C DUP7 ADD SSTORE PUSH32 0x2855534429275D2929202F207061727365466C6F61742870726576696F75735B PUSH1 0x1D DUP7 ADD SSTORE PUSH32 0x2731612E206F70656E202855534429275D2929202A203130303030293B726574 PUSH1 0x1E DUP7 ADD SSTORE DUP5 ADD SSTORE DUP3 ADD SSTORE PUSH32 0x756D6529202B2046756E6374696F6E732E656E636F6465496E74323536287072 PUSH1 0x21 DUP3 ADD SSTORE ADD SSTORE PUSH1 0x40 MLOAD PUSH2 0x34E8 SWAP1 DUP2 PUSH3 0x1164 DUP3 CODECOPY PUSH1 0x80 MLOAD DUP2 DUP2 DUP2 PUSH2 0x4BD ADD MSTORE PUSH2 0x1D6B ADD MSTORE RETURN JUMPDEST DUP5 DUP3 MSTORE PUSH1 0x23 DUP7 DUP9 DUP5 KECCAK256 SWAP3 ADD PUSH1 0x5 SHR DUP3 ADD SWAP2 ADD JUMPDEST DUP2 DUP2 LT PUSH3 0x105B JUMPI POP PUSH3 0xAF6 JUMP JUMPDEST DUP3 DUP2 SSTORE DUP9 ADD PUSH3 0x104C JUMP JUMPDEST DUP4 DUP3 MSTORE DUP8 PUSH1 0x27 DUP8 DUP10 DUP6 KECCAK256 SWAP4 ADD PUSH1 0x5 SHR DUP4 ADD SWAP3 ADD JUMPDEST DUP3 DUP2 LT PUSH3 0x108A JUMPI POP POP PUSH3 0x515 JUMP JUMPDEST DUP4 DUP2 SSTORE ADD DUP9 SWAP1 PUSH3 0x107A JUMP JUMPDEST DUP3 DUP3 MSTORE DUP6 PUSH1 0x1C DUP6 DUP8 DUP6 KECCAK256 SWAP4 ADD PUSH1 0x5 SHR DUP4 ADD SWAP3 ADD JUMPDEST DUP3 DUP2 LT PUSH3 0x10BA JUMPI POP POP PUSH3 0xCD JUMP JUMPDEST DUP4 DUP2 SSTORE ADD DUP7 SWAP1 PUSH3 0x10AA JUMP JUMPDEST PUSH1 0x40 MLOAD PUSH3 0x461BCD PUSH1 0xE5 SHL DUP2 MSTORE PUSH1 0x4 DUP2 ADD DUP5 SWAP1 MSTORE PUSH1 0x18 PUSH1 0x24 DUP3 ADD MSTORE PUSH32 0x43616E6E6F7420736574206F776E657220746F207A65726F0000000000000000 PUSH1 0x44 DUP3 ADD MSTORE PUSH1 0x64 SWAP1 REVERT JUMPDEST PUSH1 0x0 DUP1 REVERT JUMPDEST PUSH4 0x4E487B71 PUSH1 0xE0 SHL PUSH1 0x0 MSTORE PUSH1 0x41 PUSH1 0x4 MSTORE PUSH1 0x24 PUSH1 0x0 REVERT JUMPDEST SWAP1 PUSH1 0x1 DUP3 DUP2 SHR SWAP3 AND DUP1 ISZERO PUSH3 0x1158 JUMPI JUMPDEST PUSH1 0x20 DUP4 LT EQ PUSH3 0x1142 JUMPI JUMP JUMPDEST PUSH4 0x4E487B71 PUSH1 0xE0 SHL PUSH1 0x0 MSTORE PUSH1 0x22 PUSH1 0x4 MSTORE PUSH1 0x24 PUSH1 0x0 REVERT JUMPDEST SWAP2 PUSH1 0x7F AND SWAP2 PUSH3 0x1136 JUMP INVALID PUSH1 0x80 PUSH1 0x40 MSTORE PUSH1 0x4 CALLDATASIZE LT ISZERO PUSH2 0x12 JUMPI PUSH1 0x0 DUP1 REVERT JUMPDEST PUSH1 0x0 CALLDATALOAD PUSH1 0xE0 SHR DUP1 PUSH4 0x6A36B3E EQ PUSH2 0x187 JUMPI DUP1 PUSH4 0x9C1BA2E EQ PUSH2 0x182 JUMPI DUP1 PUSH4 0xCA76175 EQ PUSH2 0x17D JUMPI DUP1 PUSH4 0x1B728F92 EQ PUSH2 0x178 JUMPI DUP1 PUSH4 0x28D788E1 EQ PUSH2 0x173 JUMPI DUP1 PUSH4 0x28E7D709 EQ PUSH2 0x16E JUMPI DUP1 PUSH4 0x4352433B EQ PUSH2 0x169 JUMPI DUP1 PUSH4 0x454BBD29 EQ PUSH2 0x164 JUMPI DUP1 PUSH4 0x536FFF6C EQ PUSH2 0x15F JUMPI DUP1 PUSH4 0x54D5430C EQ PUSH2 0x15A JUMPI DUP1 PUSH4 0x562921EC EQ PUSH2 0x155 JUMPI DUP1 PUSH4 0x5BDADB9B EQ PUSH2 0x150 JUMPI DUP1 PUSH4 0x63B4F760 EQ PUSH2 0x14B JUMPI DUP1 PUSH4 0x73DE930D EQ PUSH2 0x146 JUMPI DUP1 PUSH4 0x79BA5097 EQ PUSH2 0x141 JUMPI DUP1 PUSH4 0x8BF09046 EQ PUSH2 0x13C JUMPI DUP1 PUSH4 0x8D4DD402 EQ PUSH2 0x137 JUMPI DUP1 PUSH4 0x8DA5CB5B EQ PUSH2 0x132 JUMPI DUP1 PUSH4 0x8DBE7B9D EQ PUSH2 0x12D JUMPI DUP1 PUSH4 0xEADBFB99 EQ PUSH2 0x128 JUMPI DUP1 PUSH4 0xF26CB841 EQ PUSH2 0x123 JUMPI DUP1 PUSH4 0xF2FDE38B EQ PUSH2 0x11E JUMPI PUSH4 0xF68016B7 EQ PUSH2 0x119 JUMPI PUSH1 0x0 DUP1 REVERT JUMPDEST PUSH2 0x1322 JUMP JUMPDEST PUSH2 0x1267 JUMP JUMPDEST PUSH2 0x11A3 JUMP JUMPDEST PUSH2 0x1115 JUMP JUMPDEST PUSH2 0x10B7 JUMP JUMPDEST PUSH2 0x108E JUMP JUMPDEST PUSH2 0x103D JUMP JUMPDEST PUSH2 0x1021 JUMP JUMPDEST PUSH2 0xF62 JUMP JUMPDEST PUSH2 0xE9E JUMP JUMPDEST PUSH2 0xDDF JUMP JUMPDEST PUSH2 0xD8D JUMP JUMPDEST PUSH2 0xCA5 JUMP JUMPDEST PUSH2 0xC75 JUMP JUMPDEST PUSH2 0xC36 JUMP JUMPDEST PUSH2 0xBE0 JUMP JUMPDEST PUSH2 0xB65 JUMP JUMPDEST PUSH2 0xA5A JUMP JUMPDEST PUSH2 0x5E1 JUMP JUMPDEST PUSH2 0x52E JUMP JUMPDEST PUSH2 0x46E JUMP JUMPDEST PUSH2 0x336 JUMP JUMPDEST PUSH2 0x1DD JUMP JUMPDEST SWAP1 PUSH1 0x20 PUSH1 0x3 NOT DUP4 ADD SLT PUSH2 0x1D8 JUMPI PUSH1 0x4 CALLDATALOAD PUSH1 0x1 PUSH1 0x1 PUSH1 0x40 SHL SUB SWAP3 DUP4 DUP3 GT PUSH2 0x1D8 JUMPI DUP1 PUSH1 0x23 DUP4 ADD SLT ISZERO PUSH2 0x1D8 JUMPI DUP2 PUSH1 0x4 ADD CALLDATALOAD SWAP4 DUP5 GT PUSH2 0x1D8 JUMPI PUSH1 0x24 DUP5 PUSH1 0x5 SHL DUP4 ADD ADD GT PUSH2 0x1D8 JUMPI PUSH1 0x24 ADD SWAP2 SWAP1 JUMP JUMPDEST PUSH1 0x0 DUP1 REVERT JUMPDEST CALLVALUE PUSH2 0x1D8 JUMPI PUSH2 0x1EB CALLDATASIZE PUSH2 0x18C JUMP JUMPDEST CALLER PUSH1 0x0 SWAP1 DUP2 MSTORE PUSH1 0x6 PUSH1 0x20 MSTORE PUSH1 0x40 SWAP1 KECCAK256 SLOAD SWAP1 SWAP2 SWAP1 PUSH1 0xFF AND ISZERO DUP1 PUSH2 0x321 JUMPI JUMPDEST PUSH2 0x30F JUMPI PUSH1 0x20 SWAP2 PUSH32 0x15BF77CCA79349502B7D15E6ACA126E8439B253F30B2BEAF6C0818455BAC1672 PUSH2 0x29A PUSH2 0x279 PUSH2 0x23E PUSH2 0x139B JUMP JUMPDEST PUSH2 0x24F PUSH2 0x249 PUSH2 0x83C JUMP JUMPDEST DUP3 PUSH2 0x2142 JUMP JUMPDEST PUSH2 0x263 PUSH2 0x25D CALLDATASIZE DUP8 DUP10 PUSH2 0x13E4 JUMP JUMPDEST DUP3 PUSH2 0x2191 JUMP JUMPDEST PUSH2 0x274 PUSH2 0x26E PUSH2 0x2C4B JUMP JUMPDEST DUP3 PUSH2 0x216B JUMP JUMPDEST PUSH2 0x1F6F JUMP JUMPDEST PUSH1 0x8 SLOAD PUSH1 0x7 SLOAD SWAP2 PUSH1 0x1 PUSH1 0x1 PUSH1 0x40 SHL SUB PUSH4 0xFFFFFFFF DUP4 PUSH1 0x40 SHR AND SWAP3 AND SWAP1 PUSH2 0x1D13 JUMP JUMPDEST SWAP3 DUP4 SWAP3 PUSH2 0x2F3 PUSH2 0x2A8 PUSH2 0x3EA JUMP JUMPDEST DUP6 DUP2 MSTORE PUSH2 0x2B3 PUSH2 0x2C6B JUMP JUMPDEST DUP9 DUP3 ADD MSTORE PUSH2 0x2C2 CALLDATASIZE DUP5 DUP7 PUSH2 0x13E4 JUMP JUMPDEST PUSH1 0x40 DUP3 ADD MSTORE TIMESTAMP PUSH1 0x60 DUP3 ADD MSTORE CALLER PUSH1 0x80 DUP3 ADD MSTORE PUSH1 0x0 PUSH1 0xA0 DUP3 ADD MSTORE PUSH2 0x2EE DUP7 PUSH1 0x0 MSTORE PUSH1 0x3 PUSH1 0x20 MSTORE PUSH1 0x40 PUSH1 0x0 KECCAK256 SWAP1 JUMP JUMPDEST PUSH2 0x1AA3 JUMP JUMPDEST PUSH2 0x304 PUSH1 0x40 MLOAD SWAP3 DUP4 SWAP3 CALLER SWAP2 DUP5 PUSH2 0x2C95 JUMP JUMPDEST SUB SWAP1 LOG2 PUSH1 0x40 MLOAD SWAP1 DUP2 MSTORE RETURN JUMPDEST PUSH1 0x40 MLOAD PUSH4 0x5C427CD9 PUSH1 0xE0 SHL DUP2 MSTORE PUSH1 0x4 SWAP1 REVERT JUMPDEST POP PUSH1 0x0 SLOAD PUSH1 0x1 PUSH1 0x1 PUSH1 0xA0 SHL SUB AND CALLER EQ ISZERO PUSH2 0x208 JUMP JUMPDEST CALLVALUE PUSH2 0x1D8 JUMPI PUSH1 0x0 CALLDATASIZE PUSH1 0x3 NOT ADD SLT PUSH2 0x1D8 JUMPI PUSH1 0x20 PUSH1 0x1 PUSH1 0x1 PUSH1 0x40 SHL SUB PUSH1 0x8 SLOAD AND PUSH1 0x40 MLOAD SWAP1 DUP2 MSTORE RETURN JUMPDEST PUSH4 0x4E487B71 PUSH1 0xE0 SHL PUSH1 0x0 MSTORE PUSH1 0x41 PUSH1 0x4 MSTORE PUSH1 0x24 PUSH1 0x0 REVERT JUMPDEST PUSH1 0x80 DUP2 ADD SWAP1 DUP2 LT PUSH1 0x1 PUSH1 0x1 PUSH1 0x40 SHL SUB DUP3 GT OR PUSH2 0x38E JUMPI PUSH1 0x40 MSTORE JUMP JUMPDEST PUSH2 0x35D JUMP JUMPDEST PUSH1 0xA0 DUP2 ADD SWAP1 DUP2 LT PUSH1 0x1 PUSH1 0x1 PUSH1 0x40 SHL SUB DUP3 GT OR PUSH2 0x38E JUMPI PUSH1 0x40 MSTORE JUMP JUMPDEST PUSH1 0x40 DUP2 ADD SWAP1 DUP2 LT PUSH1 0x1 PUSH1 0x1 PUSH1 0x40 SHL SUB DUP3 GT OR PUSH2 0x38E JUMPI PUSH1 0x40 MSTORE JUMP JUMPDEST SWAP1 PUSH1 0x1F DUP1 NOT SWAP2 ADD AND DUP2 ADD SWAP1 DUP2 LT PUSH1 0x1 PUSH1 0x1 PUSH1 0x40 SHL SUB DUP3 GT OR PUSH2 0x38E JUMPI PUSH1 0x40 MSTORE JUMP JUMPDEST PUSH1 0x40 MLOAD SWAP1 PUSH1 0xC0 DUP3 ADD DUP3 DUP2 LT PUSH1 0x1 PUSH1 0x1 PUSH1 0x40 SHL SUB DUP3 GT OR PUSH2 0x38E JUMPI PUSH1 0x40 MSTORE JUMP JUMPDEST PUSH1 0x40 MLOAD SWAP1 PUSH2 0x416 DUP3 PUSH2 0x373 JUMP JUMPDEST JUMP JUMPDEST DUP2 PUSH1 0x1F DUP3 ADD SLT ISZERO PUSH2 0x1D8 JUMPI DUP1 CALLDATALOAD SWAP1 PUSH1 0x1 PUSH1 0x1 PUSH1 0x40 SHL SUB DUP3 GT PUSH2 0x38E JUMPI PUSH1 0x40 MLOAD SWAP3 PUSH2 0x44C PUSH1 0x1F DUP5 ADD PUSH1 0x1F NOT AND PUSH1 0x20 ADD DUP6 PUSH2 0x3C9 JUMP JUMPDEST DUP3 DUP5 MSTORE PUSH1 0x20 DUP4 DUP4 ADD ADD GT PUSH2 0x1D8 JUMPI DUP2 PUSH1 0x0 SWAP3 PUSH1 0x20 DUP1 SWAP4 ADD DUP4 DUP7 ADD CALLDATACOPY DUP4 ADD ADD MSTORE SWAP1 JUMP JUMPDEST CALLVALUE PUSH2 0x1D8 JUMPI PUSH1 0x60 CALLDATASIZE PUSH1 0x3 NOT ADD SLT PUSH2 0x1D8 JUMPI PUSH1 0x4 CALLDATALOAD PUSH1 0x1 PUSH1 0x1 PUSH1 0x40 SHL SUB PUSH1 0x24 CALLDATALOAD DUP2 DUP2 GT PUSH2 0x1D8 JUMPI PUSH2 0x4A2 SWAP1 CALLDATASIZE SWAP1 PUSH1 0x4 ADD PUSH2 0x418 JUMP JUMPDEST SWAP1 PUSH1 0x44 CALLDATALOAD SWAP1 DUP2 GT PUSH2 0x1D8 JUMPI PUSH2 0x4BB SWAP1 CALLDATASIZE SWAP1 PUSH1 0x4 ADD PUSH2 0x418 JUMP JUMPDEST PUSH32 0x0 PUSH1 0x1 PUSH1 0x1 PUSH1 0xA0 SHL SUB AND CALLER SUB PUSH2 0x51C JUMPI PUSH2 0x4F5 SWAP2 DUP4 PUSH2 0x2EA5 JUMP JUMPDEST PUSH32 0x85E1543BF2F84FE80C6BADBCE3648C8539AD1DF4D2B3D822938CA0538BE727E6 PUSH1 0x0 DUP1 LOG2 STOP JUMPDEST PUSH1 0x40 MLOAD PUSH4 0xC6829F83 PUSH1 0xE0 SHL DUP2 MSTORE PUSH1 0x4 SWAP1 REVERT JUMPDEST CALLVALUE PUSH2 0x1D8 JUMPI PUSH1 0x40 CALLDATASIZE PUSH1 0x3 NOT ADD SLT PUSH2 0x1D8 JUMPI PUSH1 0x4 CALLDATALOAD PUSH1 0x1 PUSH1 0x1 PUSH1 0x40 SHL SUB DUP2 AND DUP1 SWAP2 SUB PUSH2 0x1D8 JUMPI PUSH1 0x24 CALLDATALOAD SWAP1 PUSH4 0xFFFFFFFF DUP3 AND DUP3 SUB PUSH2 0x1D8 JUMPI PUSH2 0x56C PUSH2 0x1349 JUMP JUMPDEST PUSH12 0xFFFFFFFF0000000000000000 PUSH1 0x8 SLOAD SWAP3 PUSH1 0x40 SHL AND SWAP2 PUSH12 0xFFFFFFFFFFFFFFFFFFFFFFFF NOT AND OR OR PUSH1 0x8 SSTORE PUSH1 0x0 DUP1 RETURN JUMPDEST SWAP1 PUSH1 0x40 PUSH1 0x3 NOT DUP4 ADD SLT PUSH2 0x1D8 JUMPI PUSH1 0x1 PUSH1 0x1 PUSH1 0x40 SHL SUB PUSH1 0x4 CALLDATALOAD DUP2 DUP2 GT PUSH2 0x1D8 JUMPI DUP4 PUSH2 0x5C7 SWAP2 PUSH1 0x4 ADD PUSH2 0x418 JUMP JUMPDEST SWAP3 PUSH1 0x24 CALLDATALOAD SWAP2 DUP3 GT PUSH2 0x1D8 JUMPI PUSH2 0x5DE SWAP2 PUSH1 0x4 ADD PUSH2 0x418 JUMP JUMPDEST SWAP1 JUMP JUMPDEST CALLVALUE PUSH2 0x1D8 JUMPI PUSH2 0x5EF CALLDATASIZE PUSH2 0x59B JUMP JUMPDEST SWAP1 PUSH2 0x5F8 PUSH2 0x1349 JUMP JUMPDEST PUSH1 0x40 SWAP1 DUP2 MLOAD PUSH1 0x20 SWAP2 DUP3 DUP3 ADD DUP3 PUSH2 0x60E DUP3 DUP5 PUSH2 0xB02 JUMP JUMPDEST SUB SWAP3 PUSH2 0x622 PUSH1 0x1F NOT SWAP5 DUP6 DUP2 ADD DUP4 MSTORE DUP3 PUSH2 0x3C9 JUMP JUMPDEST MLOAD SWAP1 KECCAK256 DUP5 MLOAD PUSH17 0x1D1DDA5D1D195C97DCD95B9D1A5B595B9D PUSH1 0x7A SHL DUP6 DUP3 ADD SWAP1 DUP2 MSTORE SWAP1 PUSH2 0x658 DUP2 PUSH1 0x11 DUP5 ADD JUMPDEST SUB DUP7 DUP2 ADD DUP4 MSTORE DUP3 PUSH2 0x3C9 JUMP JUMPDEST MLOAD SWAP1 KECCAK256 SUB PUSH2 0x66F JUMPI POP POP POP POP PUSH2 0x66D SWAP1 PUSH2 0x17D4 JUMP JUMPDEST STOP JUMPDEST DUP4 MLOAD DUP4 DUP2 ADD SWAP1 PUSH2 0x68F DUP2 PUSH2 0x683 DUP5 DUP7 PUSH2 0xB02 JUMP JUMPDEST SUB DUP6 DUP2 ADD DUP4 MSTORE DUP3 PUSH2 0x3C9 JUMP JUMPDEST MLOAD SWAP1 KECCAK256 DUP5 MLOAD PUSH14 0x1B995DDCD7DCD95B9D1A5B595B9D PUSH1 0x92 SHL DUP6 DUP3 ADD SWAP1 DUP2 MSTORE SWAP1 PUSH2 0x6BA DUP2 PUSH1 0xE DUP5 ADD PUSH2 0x64C JUMP JUMPDEST MLOAD SWAP1 KECCAK256 SUB PUSH2 0x6CF JUMPI POP POP POP POP PUSH2 0x66D SWAP1 PUSH2 0x16EB JUMP JUMPDEST DUP4 MLOAD PUSH2 0x6EE DUP2 PUSH2 0x6E2 DUP7 DUP3 ADD DUP1 SWAP6 PUSH2 0xB02 JUMP JUMPDEST SUB DUP5 DUP2 ADD DUP4 MSTORE DUP3 PUSH2 0x3C9 JUMP JUMPDEST MLOAD SWAP1 KECCAK256 SWAP2 PUSH2 0x724 DUP5 MLOAD SWAP2 DUP3 ADD SWAP3 DUP3 PUSH2 0x718 DUP6 PUSH1 0xB SWAP1 PUSH11 0x6D61726B65745F64617461 PUSH1 0xA8 SHL DUP2 MSTORE ADD SWAP1 JUMP JUMPDEST SUB SWAP1 DUP2 ADD DUP4 MSTORE DUP3 PUSH2 0x3C9 JUMP JUMPDEST MLOAD SWAP1 KECCAK256 SUB PUSH2 0x736 JUMPI POP PUSH2 0x66D SWAP1 PUSH2 0x1602 JUMP JUMPDEST MLOAD PUSH4 0x7CB66889 PUSH1 0xE1 SHL DUP2 MSTORE PUSH1 0x4 SWAP1 REVERT JUMPDEST SWAP1 PUSH1 0x1 DUP3 DUP2 SHR SWAP3 AND DUP1 ISZERO PUSH2 0x776 JUMPI JUMPDEST PUSH1 0x20 DUP4 LT EQ PUSH2 0x760 JUMPI JUMP JUMPDEST PUSH4 0x4E487B71 PUSH1 0xE0 SHL PUSH1 0x0 MSTORE PUSH1 0x22 PUSH1 0x4 MSTORE PUSH1 0x24 PUSH1 0x0 REVERT JUMPDEST SWAP2 PUSH1 0x7F AND SWAP2 PUSH2 0x755 JUMP JUMPDEST PUSH1 0x40 MLOAD SWAP1 PUSH1 0x0 DUP3 PUSH1 0xB SLOAD SWAP2 PUSH2 0x794 DUP4 PUSH2 0x746 JUMP JUMPDEST DUP1 DUP4 MSTORE SWAP3 PUSH1 0x1 SWAP1 DUP2 DUP2 AND SWAP1 DUP2 ISZERO PUSH2 0x81A JUMPI POP PUSH1 0x1 EQ PUSH2 0x7BB JUMPI JUMPDEST POP PUSH2 0x416 SWAP3 POP SUB DUP4 PUSH2 0x3C9 JUMP JUMPDEST PUSH1 0xB PUSH1 0x0 SWAP1 DUP2 MSTORE SWAP2 POP PUSH32 0x175B7A638427703F0DBE7BB9BBF987A2551717B34E79F33B5B1008D1FA01DB9 JUMPDEST DUP5 DUP4 LT PUSH2 0x7FF JUMPI POP PUSH2 0x416 SWAP4 POP POP DUP2 ADD PUSH1 0x20 ADD CODESIZE PUSH2 0x7AE JUMP JUMPDEST DUP2 SWAP4 POP SWAP1 DUP2 PUSH1 0x20 SWAP3 SLOAD DUP4 DUP6 DUP11 ADD ADD MSTORE ADD SWAP2 ADD SWAP1 SWAP2 DUP6 SWAP3 PUSH2 0x7E6 JUMP JUMPDEST SWAP1 POP PUSH1 0x20 SWAP3 POP PUSH2 0x416 SWAP5 SWAP2 POP PUSH1 0xFF NOT AND DUP3 DUP5 ADD MSTORE ISZERO ISZERO PUSH1 0x5 SHL DUP3 ADD ADD CODESIZE PUSH2 0x7AE JUMP JUMPDEST PUSH1 0x40 MLOAD SWAP1 PUSH1 0x0 DUP3 PUSH1 0xA SLOAD SWAP2 PUSH2 0x850 DUP4 PUSH2 0x746 JUMP JUMPDEST DUP1 DUP4 MSTORE SWAP3 PUSH1 0x1 SWAP1 DUP2 DUP2 AND SWAP1 DUP2 ISZERO PUSH2 0x81A JUMPI POP PUSH1 0x1 EQ PUSH2 0x876 JUMPI POP PUSH2 0x416 SWAP3 POP SUB DUP4 PUSH2 0x3C9 JUMP JUMPDEST PUSH1 0xA PUSH1 0x0 SWAP1 DUP2 MSTORE SWAP2 POP PUSH32 0xC65A7BB8D6351C1CF70C95A316CC6A92839C986682D98BC35F958F4883F9D2A8 JUMPDEST DUP5 DUP4 LT PUSH2 0x8BA JUMPI POP PUSH2 0x416 SWAP4 POP POP DUP2 ADD PUSH1 0x20 ADD CODESIZE PUSH2 0x7AE JUMP JUMPDEST DUP2 SWAP4 POP SWAP1 DUP2 PUSH1 0x20 SWAP3 SLOAD DUP4 DUP6 DUP11 ADD ADD MSTORE ADD SWAP2 ADD SWAP1 SWAP2 DUP6 SWAP3 PUSH2 0x8A1 JUMP JUMPDEST PUSH1 0x40 MLOAD SWAP1 PUSH1 0x0 DUP3 PUSH1 0x9 SLOAD SWAP2 PUSH2 0x8E9 DUP4 PUSH2 0x746 JUMP JUMPDEST DUP1 DUP4 MSTORE SWAP3 PUSH1 0x1 SWAP1 DUP2 DUP2 AND SWAP1 DUP2 ISZERO PUSH2 0x81A JUMPI POP PUSH1 0x1 EQ PUSH2 0x90F JUMPI POP PUSH2 0x416 SWAP3 POP SUB DUP4 PUSH2 0x3C9 JUMP JUMPDEST PUSH1 0x9 PUSH1 0x0 SWAP1 DUP2 MSTORE SWAP2 POP PUSH32 0x6E1540171B6C0C960B71A7020D9F60077F6AF931A8BBF590DA0223DACF75C7AF JUMPDEST DUP5 DUP4 LT PUSH2 0x953 JUMPI POP PUSH2 0x416 SWAP4 POP POP DUP2 ADD PUSH1 0x20 ADD CODESIZE PUSH2 0x7AE JUMP JUMPDEST DUP2 SWAP4 POP SWAP1 DUP2 PUSH1 0x20 SWAP3 SLOAD DUP4 DUP6 DUP11 ADD ADD MSTORE ADD SWAP2 ADD SWAP1 SWAP2 DUP6 SWAP3 PUSH2 0x93A JUMP JUMPDEST SWAP1 PUSH1 0x40 MLOAD SWAP2 DUP3 PUSH1 0x0 DUP3 SLOAD SWAP3 PUSH2 0x982 DUP5 PUSH2 0x746 JUMP JUMPDEST SWAP1 DUP2 DUP5 MSTORE PUSH1 0x1 SWAP5 DUP6 DUP2 AND SWAP1 DUP2 PUSH1 0x0 EQ PUSH2 0x9EF JUMPI POP PUSH1 0x1 EQ PUSH2 0x9AC JUMPI JUMPDEST POP POP PUSH2 0x416 SWAP3 POP SUB DUP4 PUSH2 0x3C9 JUMP JUMPDEST SWAP1 SWAP4 SWAP2 POP PUSH1 0x0 MSTORE PUSH1 0x20 SWAP1 DUP2 PUSH1 0x0 KECCAK256 SWAP4 PUSH1 0x0 SWAP2 JUMPDEST DUP2 DUP4 LT PUSH2 0x9D7 JUMPI POP POP PUSH2 0x416 SWAP4 POP DUP3 ADD ADD CODESIZE DUP1 PUSH2 0x99E JUMP JUMPDEST DUP6 SLOAD DUP9 DUP5 ADD DUP6 ADD MSTORE SWAP5 DUP6 ADD SWAP5 DUP8 SWAP5 POP SWAP2 DUP4 ADD SWAP2 PUSH2 0x9BF JUMP JUMPDEST SWAP2 POP POP PUSH2 0x416 SWAP5 POP PUSH1 0x20 SWAP3 POP PUSH1 0xFF NOT AND DUP3 DUP5 ADD MSTORE ISZERO ISZERO PUSH1 0x5 SHL DUP3 ADD ADD CODESIZE DUP1 PUSH2 0x99E JUMP JUMPDEST PUSH1 0x0 JUMPDEST DUP4 DUP2 LT PUSH2 0xA25 JUMPI POP POP PUSH1 0x0 SWAP2 ADD MSTORE JUMP JUMPDEST DUP2 DUP2 ADD MLOAD DUP4 DUP3 ADD MSTORE PUSH1 0x20 ADD PUSH2 0xA15 JUMP JUMPDEST SWAP1 PUSH1 0x20 SWAP2 PUSH2 0xA4E DUP2 MLOAD DUP1 SWAP3 DUP2 DUP6 MSTORE DUP6 DUP1 DUP7 ADD SWAP2 ADD PUSH2 0xA12 JUMP JUMPDEST PUSH1 0x1F ADD PUSH1 0x1F NOT AND ADD ADD SWAP1 JUMP JUMPDEST CALLVALUE PUSH2 0x1D8 JUMPI PUSH1 0x20 CALLDATASIZE PUSH1 0x3 NOT ADD SLT PUSH2 0x1D8 JUMPI PUSH1 0x4 CALLDATALOAD PUSH1 0x0 MSTORE PUSH1 0x3 PUSH1 0x20 MSTORE PUSH1 0x40 PUSH1 0x0 KECCAK256 DUP1 SLOAD PUSH2 0xA89 PUSH1 0x1 DUP4 ADD PUSH2 0x96E JUMP JUMPDEST SWAP2 PUSH1 0xFF PUSH1 0x4 PUSH1 0x3 DUP4 ADD SLOAD SWAP3 ADD SLOAD PUSH2 0xAB2 PUSH1 0x40 MLOAD SWAP6 DUP7 SWAP6 DUP7 MSTORE PUSH1 0xA0 PUSH1 0x20 DUP8 ADD MSTORE PUSH1 0xA0 DUP7 ADD SWAP1 PUSH2 0xA35 JUMP JUMPDEST PUSH1 0x40 DUP6 ADD SWAP4 SWAP1 SWAP4 MSTORE PUSH1 0x1 PUSH1 0x1 PUSH1 0xA0 SHL SUB DUP2 AND PUSH1 0x60 DUP6 ADD MSTORE PUSH1 0xA0 SHR AND ISZERO ISZERO PUSH1 0x80 DUP4 ADD MSTORE SUB SWAP1 RETURN JUMPDEST PUSH1 0x20 PUSH1 0x3 NOT DUP3 ADD SLT PUSH2 0x1D8 JUMPI PUSH1 0x4 CALLDATALOAD SWAP1 PUSH1 0x1 PUSH1 0x1 PUSH1 0x40 SHL SUB DUP3 GT PUSH2 0x1D8 JUMPI PUSH2 0x5DE SWAP2 PUSH1 0x4 ADD PUSH2 0x418 JUMP JUMPDEST SWAP1 PUSH2 0xB15 PUSH1 0x20 SWAP3 DUP3 DUP2 MLOAD SWAP5 DUP6 SWAP3 ADD PUSH2 0xA12 JUMP JUMPDEST ADD SWAP1 JUMP JUMPDEST PUSH1 0x20 PUSH2 0xB32 SWAP2 DUP2 PUSH1 0x40 MLOAD SWAP4 DUP3 DUP6 DUP1 SWAP5 MLOAD SWAP4 DUP5 SWAP3 ADD PUSH2 0xA12 JUMP JUMPDEST DUP2 ADD PUSH1 0x5 DUP2 MSTORE SUB ADD SWAP1 KECCAK256 SWAP1 JUMP JUMPDEST PUSH1 0x20 PUSH2 0xB58 SWAP2 DUP2 PUSH1 0x40 MLOAD SWAP4 DUP3 DUP6 DUP1 SWAP5 MLOAD SWAP4 DUP5 SWAP3 ADD PUSH2 0xA12 JUMP JUMPDEST DUP2 ADD PUSH1 0x4 DUP2 MSTORE SUB ADD SWAP1 KECCAK256 SWAP1 JUMP JUMPDEST CALLVALUE PUSH2 0x1D8 JUMPI PUSH2 0xB7B PUSH2 0xB76 CALLDATASIZE PUSH2 0xAD8 JUMP JUMPDEST PUSH2 0xB19 JUMP JUMPDEST DUP1 SLOAD PUSH2 0xBC6 PUSH1 0x1 DUP4 ADD SLOAD SWAP3 PUSH1 0x2 DUP2 ADD SLOAD SWAP1 PUSH2 0xB9D PUSH1 0x4 PUSH1 0x3 DUP4 ADD SLOAD SWAP3 ADD PUSH2 0x96E JUMP JUMPDEST SWAP2 PUSH1 0x40 MLOAD SWAP6 DUP7 SWAP6 DUP7 MSTORE PUSH1 0x20 DUP7 ADD MSTORE PUSH1 0x40 DUP6 ADD MSTORE PUSH1 0x60 DUP5 ADD MSTORE PUSH1 0xA0 PUSH1 0x80 DUP5 ADD MSTORE PUSH1 0xA0 DUP4 ADD SWAP1 PUSH2 0xA35 JUMP JUMPDEST SUB SWAP1 RETURN JUMPDEST PUSH1 0x4 CALLDATALOAD SWAP1 PUSH1 0x1 PUSH1 0x1 PUSH1 0xA0 SHL SUB DUP3 AND DUP3 SUB PUSH2 0x1D8 JUMPI JUMP JUMPDEST CALLVALUE PUSH2 0x1D8 JUMPI PUSH1 0x40 CALLDATASIZE PUSH1 0x3 NOT ADD SLT PUSH2 0x1D8 JUMPI PUSH2 0xBF9 PUSH2 0xBCA JUMP JUMPDEST PUSH1 0x24 CALLDATALOAD SWAP1 DUP2 ISZERO ISZERO DUP1 SWAP3 SUB PUSH2 0x1D8 JUMPI PUSH2 0xC0F PUSH2 0x1349 JUMP JUMPDEST PUSH1 0x1 DUP1 PUSH1 0xA0 SHL SUB AND PUSH1 0x0 MSTORE PUSH1 0x6 PUSH1 0x20 MSTORE PUSH1 0x40 PUSH1 0x0 KECCAK256 SWAP1 PUSH1 0xFF DUP1 NOT DUP4 SLOAD AND SWAP2 AND OR SWAP1 SSTORE PUSH1 0x0 DUP1 RETURN JUMPDEST CALLVALUE PUSH2 0x1D8 JUMPI PUSH1 0x20 CALLDATASIZE PUSH1 0x3 NOT ADD SLT PUSH2 0x1D8 JUMPI PUSH1 0x1 PUSH1 0x1 PUSH1 0xA0 SHL SUB PUSH2 0xC57 PUSH2 0xBCA JUMP JUMPDEST AND PUSH1 0x0 MSTORE PUSH1 0x6 PUSH1 0x20 MSTORE PUSH1 0x20 PUSH1 0xFF PUSH1 0x40 PUSH1 0x0 KECCAK256 SLOAD AND PUSH1 0x40 MLOAD SWAP1 ISZERO ISZERO DUP2 MSTORE RETURN JUMPDEST CALLVALUE PUSH2 0x1D8 JUMPI PUSH1 0x0 CALLDATASIZE PUSH1 0x3 NOT ADD SLT PUSH2 0x1D8 JUMPI PUSH2 0xBC6 PUSH2 0xC91 PUSH2 0x780 JUMP JUMPDEST PUSH1 0x40 MLOAD SWAP2 DUP3 SWAP2 PUSH1 0x20 DUP4 MSTORE PUSH1 0x20 DUP4 ADD SWAP1 PUSH2 0xA35 JUMP JUMPDEST CALLVALUE PUSH2 0x1D8 JUMPI PUSH2 0xCB3 CALLDATASIZE PUSH2 0xAD8 JUMP JUMPDEST PUSH2 0xD7B PUSH2 0xD44 PUSH2 0xD0B PUSH2 0xD36 PUSH2 0xD06 PUSH2 0xD10 PUSH2 0xD0B PUSH1 0x40 MLOAD PUSH8 0x747769747465725F PUSH1 0xC0 SHL PUSH1 0x20 DUP3 ADD MSTORE PUSH2 0xD06 PUSH1 0x28 DUP3 DUP12 PUSH2 0xCF6 DUP2 MLOAD DUP1 SWAP3 PUSH1 0x20 DUP7 DUP7 ADD SWAP2 ADD PUSH2 0xA12 JUMP JUMPDEST DUP2 ADD SUB PUSH1 0x8 DUP2 ADD DUP5 MSTORE ADD DUP3 PUSH2 0x3C9 JUMP JUMPDEST PUSH2 0xB3F JUMP JUMPDEST PUSH2 0x342F JUMP JUMPDEST SWAP6 PUSH1 0x40 MLOAD SWAP3 DUP4 SWAP2 PUSH2 0xD30 PUSH1 0x20 DUP5 ADD PUSH1 0x5 SWAP1 PUSH5 0x6E6577735F PUSH1 0xD8 SHL DUP2 MSTORE ADD SWAP1 JUMP JUMPDEST SWAP1 PUSH2 0xB02 JUMP JUMPDEST SUB PUSH1 0x1F NOT DUP2 ADD DUP4 MSTORE DUP3 PUSH2 0x3C9 JUMP JUMPDEST PUSH1 0x20 DUP1 PUSH2 0xD6F PUSH2 0xD67 PUSH2 0xD57 DUP8 MLOAD PUSH2 0x3468 JUMP JUMPDEST PUSH2 0xD61 DUP7 MLOAD PUSH2 0x347F JUMP JUMPDEST SWAP1 PUSH2 0x3496 JUMP JUMPDEST PUSH2 0x2710 SWAP1 SDIV SWAP1 JUMP JUMPDEST SWAP5 ADD MLOAD SWAP2 ADD MLOAD SWAP1 PUSH2 0x2237 JUMP JUMPDEST PUSH1 0x40 DUP1 MLOAD SWAP3 DUP4 MSTORE PUSH1 0x20 DUP4 ADD SWAP2 SWAP1 SWAP2 MSTORE SWAP1 RETURN JUMPDEST CALLVALUE PUSH2 0x1D8 JUMPI PUSH1 0x0 CALLDATASIZE PUSH1 0x3 NOT ADD SLT PUSH2 0x1D8 JUMPI PUSH2 0xBC6 PUSH2 0xC91 PUSH2 0x83C JUMP JUMPDEST PUSH1 0xA0 PUSH1 0x60 PUSH2 0x5DE SWAP4 PUSH1 0x20 DUP5 MSTORE DUP1 MLOAD PUSH1 0x20 DUP6 ADD MSTORE PUSH1 0x20 DUP2 ADD MLOAD PUSH1 0x40 DUP6 ADD MSTORE PUSH1 0x40 DUP2 ADD MLOAD DUP3 DUP6 ADD MSTORE ADD MLOAD SWAP2 PUSH1 0x80 DUP1 DUP3 ADD MSTORE ADD SWAP1 PUSH2 0xA35 JUMP JUMPDEST CALLVALUE PUSH2 0x1D8 JUMPI PUSH2 0xBC6 PUSH2 0xDF0 CALLDATASIZE PUSH2 0x59B JUMP JUMPDEST PUSH2 0xE8F PUSH1 0x3 PUSH2 0xE67 PUSH1 0x40 SWAP4 PUSH2 0xD06 PUSH1 0x21 DUP7 MLOAD SWAP8 PUSH2 0xE0C DUP10 PUSH2 0x373 JUMP JUMPDEST PUSH1 0x0 DUP10 MSTORE PUSH1 0x60 DUP1 PUSH1 0x20 SWAP11 PUSH1 0x0 DUP13 DUP3 ADD MSTORE PUSH1 0x0 DUP12 DUP3 ADD MSTORE ADD MSTORE DUP8 MLOAD SWAP4 DUP2 PUSH2 0xE3B DUP7 SWAP4 MLOAD DUP1 SWAP3 DUP14 DUP1 DUP8 ADD SWAP2 ADD PUSH2 0xA12 JUMP JUMPDEST DUP3 ADD PUSH1 0x5F PUSH1 0xF8 SHL DUP12 DUP3 ADD MSTORE PUSH2 0xE58 DUP3 MLOAD DUP1 SWAP4 DUP14 DUP8 DUP6 ADD SWAP2 ADD PUSH2 0xA12 JUMP JUMPDEST ADD SUB PUSH1 0x1 DUP2 ADD DUP5 MSTORE ADD DUP3 PUSH2 0x3C9 JUMP JUMPDEST DUP4 MLOAD SWAP5 PUSH2 0xE73 DUP7 PUSH2 0x373 JUMP JUMPDEST DUP2 SLOAD DUP7 MSTORE PUSH1 0x1 DUP3 ADD SLOAD SWAP1 DUP7 ADD MSTORE PUSH1 0x2 DUP2 ADD SLOAD DUP5 DUP7 ADD MSTORE ADD PUSH2 0x96E JUMP JUMPDEST PUSH1 0x60 DUP4 ADD MSTORE MLOAD SWAP2 DUP3 SWAP2 DUP3 PUSH2 0xDA9 JUMP JUMPDEST CALLVALUE PUSH2 0x1D8 JUMPI PUSH2 0xEAC CALLDATASIZE PUSH2 0x18C JUMP JUMPDEST CALLER PUSH1 0x0 SWAP1 DUP2 MSTORE PUSH1 0x6 PUSH1 0x20 MSTORE PUSH1 0x40 SWAP1 KECCAK256 SLOAD SWAP1 SWAP2 SWAP1 PUSH1 0xFF AND ISZERO DUP1 PUSH2 0xF4D JUMPI JUMPDEST PUSH2 0x30F JUMPI PUSH1 0x20 SWAP2 PUSH32 0x15BF77CCA79349502B7D15E6ACA126E8439B253F30B2BEAF6C0818455BAC1672 PUSH2 0xF23 PUSH2 0x279 PUSH2 0xEFF PUSH2 0x139B JUMP JUMPDEST PUSH2 0xF0A PUSH2 0x249 PUSH2 0x8D5 JUMP JUMPDEST PUSH2 0xF18 PUSH2 0x25D CALLDATASIZE DUP8 DUP10 PUSH2 0x13E4 JUMP JUMPDEST PUSH2 0x274 PUSH2 0x26E PUSH2 0x1454 JUMP JUMPDEST SWAP3 DUP4 SWAP3 PUSH2 0xF3C PUSH2 0xF31 PUSH2 0x3EA JUMP JUMPDEST DUP6 DUP2 MSTORE PUSH2 0x2B3 PUSH2 0x1477 JUMP JUMPDEST PUSH2 0x304 PUSH1 0x40 MLOAD SWAP3 DUP4 SWAP3 CALLER SWAP2 DUP5 PUSH2 0x1CA7 JUMP JUMPDEST POP PUSH1 0x0 SLOAD PUSH1 0x1 PUSH1 0x1 PUSH1 0xA0 SHL SUB AND CALLER EQ ISZERO PUSH2 0xEC9 JUMP JUMPDEST CALLVALUE PUSH2 0x1D8 JUMPI PUSH1 0x0 DUP1 PUSH1 0x3 NOT CALLDATASIZE ADD SLT PUSH2 0x101E JUMPI PUSH1 0x1 SLOAD PUSH1 0x1 PUSH1 0x1 PUSH1 0xA0 SHL SUB SWAP1 DUP2 AND CALLER SUB PUSH2 0xFE0 JUMPI DUP2 SLOAD PUSH1 0x1 PUSH1 0x1 PUSH1 0xA0 SHL SUB AND PUSH1 0x0 DUP1 SLOAD PUSH1 0x1 PUSH1 0x1 PUSH1 0xA0 SHL SUB NOT AND CALLER OR SWAP1 SSTORE SWAP1 PUSH1 0x1 DUP1 SLOAD PUSH1 0x1 PUSH1 0x1 PUSH1 0xA0 SHL SUB NOT AND SWAP1 SSTORE CALLER SWAP2 AND PUSH32 0x8BE0079C531659141344CD1FD0A4F28419497F9722A3DAAFE3B4186F6B6457E0 DUP4 DUP1 LOG3 DUP1 RETURN JUMPDEST PUSH1 0x40 MLOAD PUSH3 0x461BCD PUSH1 0xE5 SHL DUP2 MSTORE PUSH1 0x20 PUSH1 0x4 DUP3 ADD MSTORE PUSH1 0x16 PUSH1 0x24 DUP3 ADD MSTORE PUSH22 0x26BAB9BA10313290383937B837B9B2B21037BBB732B9 PUSH1 0x51 SHL PUSH1 0x44 DUP3 ADD MSTORE PUSH1 0x64 SWAP1 REVERT JUMPDEST DUP1 REVERT JUMPDEST CALLVALUE PUSH2 0x1D8 JUMPI PUSH1 0x0 CALLDATASIZE PUSH1 0x3 NOT ADD SLT PUSH2 0x1D8 JUMPI PUSH2 0xBC6 PUSH2 0xC91 PUSH2 0x8D5 JUMP JUMPDEST CALLVALUE PUSH2 0x1D8 JUMPI PUSH2 0x104E PUSH2 0xD06 CALLDATASIZE PUSH2 0xAD8 JUMP JUMPDEST DUP1 SLOAD PUSH2 0xBC6 PUSH1 0x1 DUP4 ADD SLOAD SWAP3 PUSH2 0x106A PUSH1 0x3 PUSH1 0x2 DUP4 ADD SLOAD SWAP3 ADD PUSH2 0x96E JUMP JUMPDEST SWAP1 PUSH1 0x40 MLOAD SWAP5 DUP6 SWAP5 DUP6 MSTORE PUSH1 0x20 DUP6 ADD MSTORE PUSH1 0x40 DUP5 ADD MSTORE PUSH1 0x80 PUSH1 0x60 DUP5 ADD MSTORE PUSH1 0x80 DUP4 ADD SWAP1 PUSH2 0xA35 JUMP JUMPDEST CALLVALUE PUSH2 0x1D8 JUMPI PUSH1 0x0 CALLDATASIZE PUSH1 0x3 NOT ADD SLT PUSH2 0x1D8 JUMPI PUSH1 0x0 SLOAD PUSH1 0x40 MLOAD PUSH1 0x1 PUSH1 0x1 PUSH1 0xA0 SHL SUB SWAP1 SWAP2 AND DUP2 MSTORE PUSH1 0x20 SWAP1 RETURN JUMPDEST CALLVALUE PUSH2 0x1D8 JUMPI PUSH1 0x0 CALLDATASIZE PUSH1 0x3 NOT ADD SLT PUSH2 0x1D8 JUMPI PUSH1 0x20 PUSH1 0x7 SLOAD PUSH1 0x40 MLOAD SWAP1 DUP2 MSTORE RETURN JUMPDEST PUSH1 0xC0 PUSH1 0x80 PUSH2 0x5DE SWAP4 PUSH1 0x20 DUP5 MSTORE DUP1 MLOAD PUSH1 0x20 DUP6 ADD MSTORE PUSH1 0x20 DUP2 ADD MLOAD PUSH1 0x40 DUP6 ADD MSTORE PUSH1 0x40 DUP2 ADD MLOAD PUSH1 0x60 DUP6 ADD MSTORE PUSH1 0x60 DUP2 ADD MLOAD DUP3 DUP6 ADD MSTORE ADD MLOAD SWAP2 PUSH1 0xA0 DUP1 DUP3 ADD MSTORE ADD SWAP1 PUSH2 0xA35 JUMP JUMPDEST CALLVALUE PUSH2 0x1D8 JUMPI PUSH2 0xBC6 PUSH2 0x1158 PUSH2 0x1129 CALLDATASIZE PUSH2 0xAD8 JUMP JUMPDEST PUSH1 0x60 PUSH1 0x80 PUSH1 0x40 MLOAD PUSH2 0x1139 DUP2 PUSH2 0x393 JUMP JUMPDEST PUSH1 0x0 DUP2 MSTORE PUSH1 0x0 PUSH1 0x20 DUP3 ADD MSTORE PUSH1 0x0 PUSH1 0x40 DUP3 ADD MSTORE PUSH1 0x0 DUP4 DUP3 ADD MSTORE ADD MSTORE PUSH2 0xB19 JUMP JUMPDEST PUSH2 0x1192 PUSH1 0x4 PUSH1 0x40 MLOAD SWAP3 PUSH2 0x116A DUP5 PUSH2 0x393 JUMP JUMPDEST DUP1 SLOAD DUP5 MSTORE PUSH1 0x1 DUP2 ADD SLOAD PUSH1 0x20 DUP6 ADD MSTORE PUSH1 0x2 DUP2 ADD SLOAD PUSH1 0x40 DUP6 ADD MSTORE PUSH1 0x3 DUP2 ADD SLOAD PUSH1 0x60 DUP6 ADD MSTORE ADD PUSH2 0x96E JUMP JUMPDEST PUSH1 0x80 DUP3 ADD MSTORE PUSH1 0x40 MLOAD SWAP2 DUP3 SWAP2 DUP3 PUSH2 0x10D5 JUMP JUMPDEST CALLVALUE PUSH2 0x1D8 JUMPI PUSH2 0x11B1 CALLDATASIZE PUSH2 0x18C JUMP JUMPDEST CALLER PUSH1 0x0 SWAP1 DUP2 MSTORE PUSH1 0x6 PUSH1 0x20 MSTORE PUSH1 0x40 SWAP1 KECCAK256 SLOAD SWAP1 SWAP2 SWAP1 PUSH1 0xFF AND ISZERO DUP1 PUSH2 0x1252 JUMPI JUMPDEST PUSH2 0x30F JUMPI PUSH1 0x20 SWAP2 PUSH32 0x15BF77CCA79349502B7D15E6ACA126E8439B253F30B2BEAF6C0818455BAC1672 PUSH2 0x1228 PUSH2 0x279 PUSH2 0x1204 PUSH2 0x139B JUMP JUMPDEST PUSH2 0x120F PUSH2 0x249 PUSH2 0x780 JUMP JUMPDEST PUSH2 0x121D PUSH2 0x25D CALLDATASIZE DUP8 DUP10 PUSH2 0x13E4 JUMP JUMPDEST PUSH2 0x274 PUSH2 0x26E PUSH2 0x2CD3 JUMP JUMPDEST SWAP3 DUP4 SWAP3 PUSH2 0x1241 PUSH2 0x1236 PUSH2 0x3EA JUMP JUMPDEST DUP6 DUP2 MSTORE PUSH2 0x2B3 PUSH2 0x2CF5 JUMP JUMPDEST PUSH2 0x304 PUSH1 0x40 MLOAD SWAP3 DUP4 SWAP3 CALLER SWAP2 DUP5 PUSH2 0x2D1C JUMP JUMPDEST POP PUSH1 0x0 SLOAD PUSH1 0x1 PUSH1 0x1 PUSH1 0xA0 SHL SUB AND CALLER EQ ISZERO PUSH2 0x11CE JUMP JUMPDEST CALLVALUE PUSH2 0x1D8 JUMPI PUSH1 0x20 CALLDATASIZE PUSH1 0x3 NOT ADD SLT PUSH2 0x1D8 JUMPI PUSH2 0x1280 PUSH2 0xBCA JUMP JUMPDEST PUSH2 0x1288 PUSH2 0x1349 JUMP JUMPDEST PUSH1 0x1 PUSH1 0x1 PUSH1 0xA0 SHL SUB AND CALLER DUP2 EQ PUSH2 0x12DD JUMPI PUSH1 0x1 DUP1 SLOAD PUSH1 0x1 PUSH1 0x1 PUSH1 0xA0 SHL SUB NOT AND DUP3 OR SWAP1 SSTORE PUSH1 0x0 SLOAD PUSH1 0x1 PUSH1 0x1 PUSH1 0xA0 SHL SUB AND PUSH32 0xED8889F560326EB138920D842192F0EB3DD22B4F139C87A2C57538E05BAE1278 PUSH1 0x0 DUP1 LOG3 STOP JUMPDEST PUSH1 0x40 MLOAD PUSH3 0x461BCD PUSH1 0xE5 SHL DUP2 MSTORE PUSH1 0x20 PUSH1 0x4 DUP3 ADD MSTORE PUSH1 0x17 PUSH1 0x24 DUP3 ADD MSTORE PUSH32 0x43616E6E6F74207472616E7366657220746F2073656C66000000000000000000 PUSH1 0x44 DUP3 ADD MSTORE PUSH1 0x64 SWAP1 REVERT JUMPDEST CALLVALUE PUSH2 0x1D8 JUMPI PUSH1 0x0 CALLDATASIZE PUSH1 0x3 NOT ADD SLT PUSH2 0x1D8 JUMPI PUSH1 0x20 PUSH1 0x8 SLOAD PUSH4 0xFFFFFFFF PUSH1 0x40 MLOAD SWAP2 PUSH1 0x40 SHR AND DUP2 MSTORE RETURN JUMPDEST PUSH1 0x0 SLOAD PUSH1 0x1 PUSH1 0x1 PUSH1 0xA0 SHL SUB AND CALLER SUB PUSH2 0x135D JUMPI JUMP JUMPDEST PUSH1 0x40 MLOAD PUSH3 0x461BCD PUSH1 0xE5 SHL DUP2 MSTORE PUSH1 0x20 PUSH1 0x4 DUP3 ADD MSTORE PUSH1 0x16 PUSH1 0x24 DUP3 ADD MSTORE PUSH22 0x27B7363C9031B0B63630B1363290313C9037BBB732B9 PUSH1 0x51 SHL PUSH1 0x44 DUP3 ADD MSTORE PUSH1 0x64 SWAP1 REVERT JUMPDEST PUSH1 0x40 MLOAD SWAP1 PUSH1 0xE0 DUP3 ADD DUP3 DUP2 LT PUSH1 0x1 PUSH1 0x1 PUSH1 0x40 SHL SUB DUP3 GT OR PUSH2 0x38E JUMPI PUSH1 0x40 MSTORE PUSH1 0x60 PUSH1 0xC0 DUP4 PUSH1 0x0 DUP2 MSTORE PUSH1 0x0 PUSH1 0x20 DUP3 ADD MSTORE PUSH1 0x0 PUSH1 0x40 DUP3 ADD MSTORE DUP3 DUP1 DUP3 ADD MSTORE DUP3 PUSH1 0x80 DUP3 ADD MSTORE DUP3 PUSH1 0xA0 DUP3 ADD MSTORE ADD MSTORE JUMP JUMPDEST SWAP1 SWAP3 SWAP2 PUSH1 0x1 PUSH1 0x1 PUSH1 0x40 SHL SUB DUP1 DUP6 GT PUSH2 0x38E JUMPI DUP5 PUSH1 0x5 SHL PUSH1 0x40 MLOAD SWAP4 PUSH1 0x20 DUP1 SWAP6 PUSH2 0x140E DUP3 DUP6 ADD DUP3 PUSH2 0x3C9 JUMP JUMPDEST DUP1 SWAP9 DUP2 MSTORE ADD SWAP2 DUP2 ADD SWAP4 DUP1 DUP6 GT PUSH2 0x1D8 JUMPI DUP2 SWAP3 JUMPDEST DUP6 DUP5 LT PUSH2 0x1431 JUMPI POP POP POP POP POP POP POP JUMP JUMPDEST DUP4 CALLDATALOAD DUP6 DUP2 GT PUSH2 0x1D8 JUMPI DUP8 SWAP2 PUSH2 0x1449 DUP5 DUP5 SWAP4 DUP8 ADD PUSH2 0x418 JUMP JUMPDEST DUP2 MSTORE ADD SWAP4 ADD SWAP3 PUSH2 0x1421 JUMP JUMPDEST PUSH1 0x40 MLOAD SWAP1 PUSH2 0x1461 DUP3 PUSH2 0x3AE JUMP JUMPDEST PUSH1 0x7 DUP3 MSTORE PUSH7 0x3A3BB4BA3A32B9 PUSH1 0xC9 SHL PUSH1 0x20 DUP4 ADD MSTORE JUMP JUMPDEST PUSH1 0x40 MLOAD SWAP1 PUSH2 0x1484 DUP3 PUSH2 0x3AE JUMP JUMPDEST PUSH1 0x11 DUP3 MSTORE PUSH17 0x1D1DDA5D1D195C97DCD95B9D1A5B595B9D PUSH1 0x7A SHL PUSH1 0x20 DUP4 ADD MSTORE JUMP JUMPDEST DUP2 DUP2 LT PUSH2 0x14AF JUMPI POP POP JUMP JUMPDEST PUSH1 0x0 DUP2 SSTORE PUSH1 0x1 ADD PUSH2 0x14A4 JUMP JUMPDEST SWAP1 PUSH1 0x1F DUP3 GT PUSH2 0x14C8 JUMPI POP POP JUMP JUMPDEST PUSH2 0x416 SWAP2 PUSH1 0xB PUSH1 0x0 MSTORE PUSH32 0x175B7A638427703F0DBE7BB9BBF987A2551717B34E79F33B5B1008D1FA01DB9 SWAP1 PUSH1 0x20 PUSH1 0x1F DUP5 ADD PUSH1 0x5 SHR DUP4 ADD SWAP4 LT PUSH2 0x1512 JUMPI JUMPDEST PUSH1 0x1F ADD PUSH1 0x5 SHR ADD SWAP1 PUSH2 0x14A4 JUMP JUMPDEST SWAP1 SWAP2 POP DUP2 SWAP1 PUSH2 0x1505 JUMP JUMPDEST SWAP1 PUSH1 0x1F DUP3 GT PUSH2 0x1529 JUMPI POP POP JUMP JUMPDEST PUSH2 0x416 SWAP2 PUSH1 0xA PUSH1 0x0 MSTORE PUSH32 0xC65A7BB8D6351C1CF70C95A316CC6A92839C986682D98BC35F958F4883F9D2A8 SWAP1 PUSH1 0x20 PUSH1 0x1F DUP5 ADD PUSH1 0x5 SHR DUP4 ADD SWAP4 LT PUSH2 0x1512 JUMPI PUSH1 0x1F ADD PUSH1 0x5 SHR ADD SWAP1 PUSH2 0x14A4 JUMP JUMPDEST SWAP1 PUSH1 0x1F DUP3 GT PUSH2 0x157F JUMPI POP POP JUMP JUMPDEST PUSH2 0x416 SWAP2 PUSH1 0x9 PUSH1 0x0 MSTORE PUSH32 0x6E1540171B6C0C960B71A7020D9F60077F6AF931A8BBF590DA0223DACF75C7AF SWAP1 PUSH1 0x20 PUSH1 0x1F DUP5 ADD PUSH1 0x5 SHR DUP4 ADD SWAP4 LT PUSH2 0x1512 JUMPI PUSH1 0x1F ADD PUSH1 0x5 SHR ADD SWAP1 PUSH2 0x14A4 JUMP JUMPDEST SWAP2 SWAP1 PUSH1 0x1F DUP2 GT PUSH2 0x15D7 JUMPI POP POP POP JUMP JUMPDEST PUSH2 0x416 SWAP3 PUSH1 0x0 MSTORE PUSH1 0x20 PUSH1 0x0 KECCAK256 SWAP1 PUSH1 0x20 PUSH1 0x1F DUP5 ADD PUSH1 0x5 SHR DUP4 ADD SWAP4 LT PUSH2 0x1512 JUMPI PUSH1 0x1F ADD PUSH1 0x5 SHR ADD SWAP1 PUSH2 0x14A4 JUMP JUMPDEST SWAP1 DUP2 MLOAD PUSH1 0x1 PUSH1 0x1 PUSH1 0x40 SHL SUB DUP2 GT PUSH2 0x38E JUMPI PUSH2 0x1627 DUP2 PUSH2 0x1622 PUSH1 0xB SLOAD PUSH2 0x746 JUMP JUMPDEST PUSH2 0x14BB JUMP JUMPDEST PUSH1 0x20 DUP1 PUSH1 0x1F DUP4 GT PUSH1 0x1 EQ PUSH2 0x1663 JUMPI POP DUP2 SWAP3 SWAP4 PUSH1 0x0 SWAP3 PUSH2 0x1658 JUMPI JUMPDEST POP POP DUP2 PUSH1 0x1 SHL SWAP2 PUSH1 0x0 NOT SWAP1 PUSH1 0x3 SHL SHR NOT AND OR PUSH1 0xB SSTORE JUMP JUMPDEST ADD MLOAD SWAP1 POP CODESIZE DUP1 PUSH2 0x1641 JUMP JUMPDEST SWAP1 PUSH1 0x1F NOT DUP4 AND SWAP5 PUSH2 0x1696 PUSH1 0xB PUSH1 0x0 MSTORE PUSH32 0x175B7A638427703F0DBE7BB9BBF987A2551717B34E79F33B5B1008D1FA01DB9 SWAP1 JUMP JUMPDEST SWAP3 PUSH1 0x0 SWAP1 JUMPDEST DUP8 DUP3 LT PUSH2 0x16D3 JUMPI POP POP DUP4 PUSH1 0x1 SWAP6 SWAP7 LT PUSH2 0x16BA JUMPI JUMPDEST POP POP POP DUP2 SHL ADD PUSH1 0xB SSTORE JUMP JUMPDEST ADD MLOAD PUSH1 0x0 NOT PUSH1 0xF8 DUP5 PUSH1 0x3 SHL AND SHR NOT AND SWAP1 SSTORE CODESIZE DUP1 DUP1 PUSH2 0x16AF JUMP JUMPDEST DUP1 PUSH1 0x1 DUP6 SWAP7 DUP3 SWAP5 SWAP7 DUP7 ADD MLOAD DUP2 SSTORE ADD SWAP6 ADD SWAP4 ADD SWAP1 PUSH2 0x169B JUMP JUMPDEST SWAP1 DUP2 MLOAD PUSH1 0x1 PUSH1 0x1 PUSH1 0x40 SHL SUB DUP2 GT PUSH2 0x38E JUMPI PUSH2 0x1710 DUP2 PUSH2 0x170B PUSH1 0xA SLOAD PUSH2 0x746 JUMP JUMPDEST PUSH2 0x151C JUMP JUMPDEST PUSH1 0x20 DUP1 PUSH1 0x1F DUP4 GT PUSH1 0x1 EQ PUSH2 0x174C JUMPI POP DUP2 SWAP3 SWAP4 PUSH1 0x0 SWAP3 PUSH2 0x1741 JUMPI JUMPDEST POP POP DUP2 PUSH1 0x1 SHL SWAP2 PUSH1 0x0 NOT SWAP1 PUSH1 0x3 SHL SHR NOT AND OR PUSH1 0xA SSTORE JUMP JUMPDEST ADD MLOAD SWAP1 POP CODESIZE DUP1 PUSH2 0x172A JUMP JUMPDEST SWAP1 PUSH1 0x1F NOT DUP4 AND SWAP5 PUSH2 0x177F PUSH1 0xA PUSH1 0x0 MSTORE PUSH32 0xC65A7BB8D6351C1CF70C95A316CC6A92839C986682D98BC35F958F4883F9D2A8 SWAP1 JUMP JUMPDEST SWAP3 PUSH1 0x0 SWAP1 JUMPDEST DUP8 DUP3 LT PUSH2 0x17BC JUMPI POP POP DUP4 PUSH1 0x1 SWAP6 SWAP7 LT PUSH2 0x17A3 JUMPI JUMPDEST POP POP POP DUP2 SHL ADD PUSH1 0xA SSTORE JUMP JUMPDEST ADD MLOAD PUSH1 0x0 NOT PUSH1 0xF8 DUP5 PUSH1 0x3 SHL AND SHR NOT AND SWAP1 SSTORE CODESIZE DUP1 DUP1 PUSH2 0x1798 JUMP JUMPDEST DUP1 PUSH1 0x1 DUP6 SWAP7 DUP3 SWAP5 SWAP7 DUP7 ADD MLOAD DUP2 SSTORE ADD SWAP6 ADD SWAP4 ADD SWAP1 PUSH2 0x1784 JUMP JUMPDEST SWAP1 DUP2 MLOAD PUSH1 0x1 PUSH1 0x1 PUSH1 0x40 SHL SUB DUP2 GT PUSH2 0x38E JUMPI PUSH2 0x17F9 DUP2 PUSH2 0x17F4 PUSH1 0x9 SLOAD PUSH2 0x746 JUMP JUMPDEST PUSH2 0x1572 JUMP JUMPDEST PUSH1 0x20 DUP1 PUSH1 0x1F DUP4 GT PUSH1 0x1 EQ PUSH2 0x1835 JUMPI POP DUP2 SWAP3 SWAP4 PUSH1 0x0 SWAP3 PUSH2 0x182A JUMPI JUMPDEST POP POP DUP2 PUSH1 0x1 SHL SWAP2 PUSH1 0x0 NOT SWAP1 PUSH1 0x3 SHL SHR NOT AND OR PUSH1 0x9 SSTORE JUMP JUMPDEST ADD MLOAD SWAP1 POP CODESIZE DUP1 PUSH2 0x1813 JUMP JUMPDEST SWAP1 PUSH1 0x1F NOT DUP4 AND SWAP5 PUSH2 0x1868 PUSH1 0x9 PUSH1 0x0 MSTORE PUSH32 0x6E1540171B6C0C960B71A7020D9F60077F6AF931A8BBF590DA0223DACF75C7AF SWAP1 JUMP JUMPDEST SWAP3 PUSH1 0x0 SWAP1 JUMPDEST DUP8 DUP3 LT PUSH2 0x18A5 JUMPI POP POP DUP4 PUSH1 0x1 SWAP6 SWAP7 LT PUSH2 0x188C JUMPI JUMPDEST POP POP POP DUP2 SHL ADD PUSH1 0x9 SSTORE JUMP JUMPDEST ADD MLOAD PUSH1 0x0 NOT PUSH1 0xF8 DUP5 PUSH1 0x3 SHL AND SHR NOT AND SWAP1 SSTORE CODESIZE DUP1 DUP1 PUSH2 0x1881 JUMP JUMPDEST DUP1 PUSH1 0x1 DUP6 SWAP7 DUP3 SWAP5 SWAP7 DUP7 ADD MLOAD DUP2 SSTORE ADD SWAP6 ADD SWAP4 ADD SWAP1 PUSH2 0x186D JUMP JUMPDEST SWAP2 SWAP1 SWAP2 DUP3 MLOAD PUSH1 0x1 PUSH1 0x1 PUSH1 0x40 SHL SUB DUP2 GT PUSH2 0x38E JUMPI PUSH2 0x18E4 DUP2 PUSH2 0x18DE DUP5 SLOAD PUSH2 0x746 JUMP JUMPDEST DUP5 PUSH2 0x15C8 JUMP JUMPDEST PUSH1 0x20 DUP1 PUSH1 0x1F DUP4 GT PUSH1 0x1 EQ PUSH2 0x1920 JUMPI POP DUP2 SWAP3 SWAP4 SWAP5 PUSH1 0x0 SWAP3 PUSH2 0x1915 JUMPI JUMPDEST POP POP DUP2 PUSH1 0x1 SHL SWAP2 PUSH1 0x0 NOT SWAP1 PUSH1 0x3 SHL SHR NOT AND OR SWAP1 SSTORE JUMP JUMPDEST ADD MLOAD SWAP1 POP CODESIZE DUP1 PUSH2 0x18FF JUMP JUMPDEST SWAP1 PUSH1 0x1F NOT DUP4 AND SWAP6 PUSH2 0x1936 DUP6 PUSH1 0x0 MSTORE PUSH1 0x20 PUSH1 0x0 KECCAK256 SWAP1 JUMP JUMPDEST SWAP3 PUSH1 0x0 SWAP1 JUMPDEST DUP9 DUP3 LT PUSH2 0x1973 JUMPI POP POP DUP4 PUSH1 0x1 SWAP6 SWAP7 SWAP8 LT PUSH2 0x195A JUMPI JUMPDEST POP POP POP DUP2 SHL ADD SWAP1 SSTORE JUMP JUMPDEST ADD MLOAD PUSH1 0x0 NOT PUSH1 0xF8 DUP5 PUSH1 0x3 SHL AND SHR NOT AND SWAP1 SSTORE CODESIZE DUP1 DUP1 PUSH2 0x1950 JUMP JUMPDEST DUP1 PUSH1 0x1 DUP6 SWAP7 DUP3 SWAP5 SWAP7 DUP7 ADD MLOAD DUP2 SSTORE ADD SWAP6 ADD SWAP4 ADD SWAP1 PUSH2 0x193B JUMP JUMPDEST PUSH4 0x4E487B71 PUSH1 0xE0 SHL PUSH1 0x0 MSTORE PUSH1 0x11 PUSH1 0x4 MSTORE PUSH1 0x24 PUSH1 0x0 REVERT JUMPDEST SWAP1 DUP2 PUSH1 0x1 SHL SWAP2 DUP1 DUP4 DIV PUSH1 0x2 EQ SWAP1 ISZERO OR ISZERO PUSH2 0x19B7 JUMPI JUMP JUMPDEST PUSH2 0x198B JUMP JUMPDEST DUP2 MLOAD SWAP2 PUSH9 0x10000000000000000 DUP4 GT PUSH2 0x38E JUMPI DUP2 SLOAD DUP4 DUP4 SSTORE DUP1 DUP5 LT PUSH2 0x1A1F JUMPI JUMPDEST POP PUSH2 0x19F1 PUSH1 0x20 DUP1 SWAP3 ADD SWAP3 PUSH1 0x0 MSTORE PUSH1 0x20 PUSH1 0x0 KECCAK256 SWAP1 JUMP JUMPDEST PUSH1 0x0 SWAP3 JUMPDEST DUP5 DUP5 LT PUSH2 0x1A03 JUMPI POP POP POP POP POP JUMP JUMPDEST PUSH1 0x1 DUP4 DUP3 PUSH2 0x1A13 DUP4 SWAP5 MLOAD DUP7 PUSH2 0x18BD JUMP JUMPDEST ADD SWAP3 ADD SWAP4 ADD SWAP3 SWAP1 PUSH2 0x19F5 JUMP JUMPDEST PUSH1 0x0 DUP4 DUP2 MSTORE DUP5 PUSH1 0x20 DUP3 KECCAK256 SWAP3 DUP4 ADD SWAP3 ADD JUMPDEST DUP3 DUP2 LT PUSH2 0x1A3D JUMPI POP POP PUSH2 0x19DC JUMP JUMPDEST DUP1 PUSH2 0x1A4A PUSH1 0x1 SWAP3 SLOAD PUSH2 0x746 JUMP JUMPDEST DUP1 PUSH2 0x1A57 JUMPI JUMPDEST POP ADD PUSH2 0x1A2F JUMP JUMPDEST PUSH1 0x1F SWAP1 DUP2 DUP2 GT DUP5 EQ PUSH2 0x1A6F JUMPI POP POP DUP3 DUP2 SSTORE JUMPDEST CODESIZE PUSH2 0x1A50 JUMP JUMPDEST DUP4 PUSH2 0x1A91 SWAP3 PUSH2 0x1A83 DUP6 PUSH1 0x0 MSTORE PUSH1 0x20 PUSH1 0x0 KECCAK256 SWAP1 JUMP JUMPDEST SWAP3 ADD PUSH1 0x5 SHR DUP3 ADD SWAP2 ADD PUSH2 0x14A4 JUMP JUMPDEST PUSH1 0x0 DUP2 DUP2 MSTORE PUSH1 0x20 DUP2 KECCAK256 DUP2 DUP4 SSTORE SSTORE PUSH2 0x1A69 JUMP JUMPDEST SWAP1 DUP1 MLOAD DUP3 SSTORE PUSH1 0x1 SWAP2 DUP3 DUP2 ADD PUSH1 0x20 DUP1 DUP5 ADD MLOAD SWAP5 DUP6 MLOAD SWAP2 PUSH1 0x1 PUSH1 0x1 PUSH1 0x40 SHL SUB DUP4 GT PUSH2 0x38E JUMPI PUSH2 0x1ADA DUP4 PUSH2 0x1AD4 DUP7 SLOAD PUSH2 0x746 JUMP JUMPDEST DUP7 PUSH2 0x15C8 JUMP JUMPDEST DUP1 PUSH1 0x1F DUP5 GT PUSH1 0x1 EQ PUSH2 0x1B7F JUMPI POP SWAP3 DUP3 DUP1 PUSH1 0x4 SWAP5 PUSH2 0x1B5A SWAP8 SWAP5 PUSH1 0xA0 SWAP8 PUSH2 0x416 SWAP12 PUSH1 0x0 SWAP5 PUSH2 0x1B74 JUMPI JUMPDEST POP POP SHL SWAP2 PUSH1 0x0 NOT SWAP1 PUSH1 0x3 SHL SHR NOT AND OR SWAP1 SSTORE JUMPDEST PUSH2 0x1B24 PUSH1 0x40 DUP7 ADD MLOAD PUSH1 0x2 DUP4 ADD PUSH2 0x19BC JUMP JUMPDEST PUSH1 0x60 DUP6 ADD MLOAD PUSH1 0x3 DUP3 ADD SSTORE PUSH1 0x80 DUP6 ADD MLOAD SWAP2 ADD DUP1 SLOAD PUSH1 0x1 PUSH1 0x1 PUSH1 0xA0 SHL SUB NOT AND PUSH1 0x1 PUSH1 0x1 PUSH1 0xA0 SHL SUB SWAP1 SWAP3 AND SWAP2 SWAP1 SWAP2 OR DUP2 SSTORE SWAP3 ADD MLOAD ISZERO ISZERO SWAP1 JUMP JUMPDEST DUP2 SLOAD PUSH1 0xFF PUSH1 0xA0 SHL NOT AND SWAP1 ISZERO ISZERO PUSH1 0xA0 SHL PUSH1 0xFF PUSH1 0xA0 SHL AND OR SWAP1 SSTORE JUMP JUMPDEST ADD MLOAD SWAP3 POP CODESIZE DUP1 PUSH2 0x1B01 JUMP JUMPDEST SWAP2 SWAP4 SWAP5 SWAP6 SWAP7 PUSH1 0x1F NOT DUP5 AND PUSH2 0x1B98 DUP8 PUSH1 0x0 MSTORE PUSH1 0x20 PUSH1 0x0 KECCAK256 SWAP1 JUMP JUMPDEST SWAP4 PUSH1 0x0 SWAP1 JUMPDEST DUP3 DUP3 LT PUSH2 0x1BE6 JUMPI POP POP SWAP4 PUSH2 0x416 SWAP9 SWAP8 SWAP4 PUSH2 0x1B5A SWAP8 SWAP4 PUSH1 0xA0 SWAP8 SWAP4 DUP4 PUSH1 0x4 SWAP9 LT PUSH2 0x1BCD JUMPI JUMPDEST POP POP POP DUP2 SHL ADD SWAP1 SSTORE PUSH2 0x1B13 JUMP JUMPDEST ADD MLOAD PUSH1 0x0 NOT PUSH1 0xF8 DUP5 PUSH1 0x3 SHL AND SHR NOT AND SWAP1 SSTORE CODESIZE DUP1 DUP1 PUSH2 0x1BC0 JUMP JUMPDEST DUP1 DUP9 DUP7 SWAP8 DUP3 SWAP5 SWAP8 DUP8 ADD MLOAD DUP2 SSTORE ADD SWAP7 ADD SWAP5 ADD SWAP1 PUSH2 0x1B9D JUMP JUMPDEST SWAP1 DUP1 PUSH1 0x20 SWAP4 SWAP3 DUP2 DUP5 MSTORE DUP5 DUP5 ADD CALLDATACOPY PUSH1 0x0 DUP3 DUP3 ADD DUP5 ADD MSTORE PUSH1 0x1F ADD PUSH1 0x1F NOT AND ADD ADD SWAP1 JUMP JUMPDEST SWAP1 DUP3 DUP2 DUP2 MSTORE PUSH1 0x20 DUP1 SWAP2 ADD SWAP4 DUP2 DUP4 PUSH1 0x5 SHL DUP3 ADD ADD SWAP5 DUP5 PUSH1 0x0 SWAP3 JUMPDEST DUP6 DUP5 LT PUSH2 0x1C48 JUMPI POP POP POP POP POP POP POP SWAP1 JUMP JUMPDEST SWAP1 SWAP2 SWAP3 SWAP4 SWAP5 SWAP6 SWAP7 PUSH1 0x1F NOT DUP3 DUP3 SUB ADD DUP5 MSTORE DUP8 CALLDATALOAD PUSH1 0x1E NOT DUP5 CALLDATASIZE SUB ADD DUP2 SLT ISZERO PUSH2 0x1D8 JUMPI DUP4 ADD DUP7 DUP2 ADD SWAP2 SWAP1 CALLDATALOAD PUSH1 0x1 PUSH1 0x1 PUSH1 0x40 SHL SUB DUP2 GT PUSH2 0x1D8 JUMPI DUP1 CALLDATASIZE SUB DUP4 SGT PUSH2 0x1D8 JUMPI PUSH2 0x1C96 DUP9 SWAP3 DUP4 SWAP3 PUSH1 0x1 SWAP6 PUSH2 0x1BFD JUMP JUMPDEST SWAP10 ADD SWAP5 ADD SWAP5 ADD SWAP3 SWAP6 SWAP5 SWAP4 SWAP2 SWAP1 PUSH2 0x1C37 JUMP JUMPDEST SWAP2 PUSH1 0x40 SWAP2 PUSH2 0x1CE8 SWAP2 SWAP6 SWAP5 SWAP6 PUSH1 0x60 DUP6 MSTORE PUSH1 0x11 PUSH1 0x60 DUP7 ADD MSTORE PUSH17 0x1D1DDA5D1D195C97DCD95B9D1A5B595B9D PUSH1 0x7A SHL PUSH1 0x80 DUP7 ADD MSTORE PUSH1 0xA0 PUSH1 0x20 DUP7 ADD MSTORE PUSH1 0xA0 DUP6 ADD SWAP2 PUSH2 0x1C1E JUMP JUMPDEST PUSH1 0x1 PUSH1 0x1 PUSH1 0xA0 SHL SUB SWAP1 SWAP5 AND SWAP2 ADD MSTORE JUMP JUMPDEST SWAP1 DUP2 PUSH1 0x20 SWAP2 SUB SLT PUSH2 0x1D8 JUMPI MLOAD SWAP1 JUMP JUMPDEST PUSH1 0x40 MLOAD RETURNDATASIZE PUSH1 0x0 DUP3 RETURNDATACOPY RETURNDATASIZE SWAP1 REVERT JUMPDEST SWAP3 SWAP1 PUSH1 0x20 SWAP3 PUSH1 0x1 PUSH1 0x1 PUSH1 0x40 SHL SUB SWAP3 PUSH4 0xFFFFFFFF PUSH2 0x1D52 PUSH1 0x40 MLOAD SWAP8 DUP9 SWAP7 DUP8 SWAP7 PUSH4 0x230E93B1 PUSH1 0xE1 SHL DUP9 MSTORE AND PUSH1 0x4 DUP8 ADD MSTORE PUSH1 0xA0 PUSH1 0x24 DUP8 ADD MSTORE PUSH1 0xA4 DUP7 ADD SWAP1 PUSH2 0xA35 JUMP JUMPDEST PUSH1 0x1 PUSH1 0x44 DUP7 ADD MSTORE SWAP3 AND PUSH1 0x64 DUP5 ADD MSTORE PUSH1 0x84 DUP4 ADD MSTORE SUB DUP2 PUSH1 0x0 PUSH32 0x0 PUSH1 0x1 PUSH1 0x1 PUSH1 0xA0 SHL SUB AND GAS CALL SWAP1 DUP2 ISZERO PUSH2 0x1DFC JUMPI PUSH1 0x0 SWAP2 PUSH2 0x1DCE JUMPI JUMPDEST POP DUP1 PUSH32 0x1131472297A800FEE664D1D89CFA8F7676FF07189ECC53F80BBB5F4969099DB8 PUSH1 0x0 DUP1 LOG2 SWAP1 JUMP JUMPDEST PUSH2 0x1DEF SWAP2 POP PUSH1 0x20 RETURNDATASIZE DUP2 GT PUSH2 0x1DF5 JUMPI JUMPDEST PUSH2 0x1DE7 DUP2 DUP4 PUSH2 0x3C9 JUMP JUMPDEST DUP2 ADD SWAP1 PUSH2 0x1CF8 JUMP JUMPDEST CODESIZE PUSH2 0x1DA4 JUMP JUMPDEST POP RETURNDATASIZE PUSH2 0x1DDD JUMP JUMPDEST PUSH2 0x1D07 JUMP JUMPDEST PUSH1 0x40 MLOAD SWAP1 PUSH2 0x1E0E DUP3 PUSH2 0x3AE JUMP JUMPDEST PUSH1 0xC DUP3 MSTORE PUSH12 0x31B7B232A637B1B0BA34B7B7 PUSH1 0xA1 SHL PUSH1 0x20 DUP4 ADD MSTORE JUMP JUMPDEST PUSH4 0x4E487B71 PUSH1 0xE0 SHL PUSH1 0x0 MSTORE PUSH1 0x21 PUSH1 0x4 MSTORE PUSH1 0x24 PUSH1 0x0 REVERT JUMPDEST PUSH1 0x3 GT ISZERO PUSH2 0x1E49 JUMPI JUMP JUMPDEST PUSH2 0x1E29 JUMP JUMPDEST PUSH1 0x40 MLOAD SWAP1 PUSH2 0x1E5B DUP3 PUSH2 0x3AE JUMP JUMPDEST PUSH1 0x8 DUP3 MSTORE PUSH8 0x6C616E6775616765 PUSH1 0xC0 SHL PUSH1 0x20 DUP4 ADD MSTORE JUMP JUMPDEST PUSH1 0x1 GT ISZERO PUSH2 0x1E49 JUMPI JUMP JUMPDEST PUSH1 0x40 MLOAD SWAP1 PUSH2 0x1E89 DUP3 PUSH2 0x3AE JUMP JUMPDEST PUSH1 0x6 DUP3 MSTORE PUSH6 0x736F75726365 PUSH1 0xD0 SHL PUSH1 0x20 DUP4 ADD MSTORE JUMP JUMPDEST PUSH1 0x40 MLOAD SWAP1 PUSH2 0x1EAB DUP3 PUSH2 0x3AE JUMP JUMPDEST PUSH1 0x4 DUP3 MSTORE PUSH4 0x61726773 PUSH1 0xE0 SHL PUSH1 0x20 DUP4 ADD MSTORE JUMP JUMPDEST PUSH1 0x0 NOT DUP2 EQ PUSH2 0x19B7 JUMPI PUSH1 0x1 ADD SWAP1 JUMP JUMPDEST PUSH4 0x4E487B71 PUSH1 0xE0 SHL PUSH1 0x0 MSTORE PUSH1 0x32 PUSH1 0x4 MSTORE PUSH1 0x24 PUSH1 0x0 REVERT JUMPDEST DUP1 MLOAD DUP3 LT ISZERO PUSH2 0x1EF7 JUMPI PUSH1 0x20 SWAP2 PUSH1 0x5 SHL ADD ADD SWAP1 JUMP JUMPDEST PUSH2 0x1ECD JUMP JUMPDEST PUSH1 0x40 MLOAD SWAP1 PUSH2 0x1F09 DUP3 PUSH2 0x3AE JUMP JUMPDEST PUSH1 0xF DUP3 MSTORE PUSH15 0x39B2B1B932BA39A637B1B0BA34B7B7 PUSH1 0x89 SHL PUSH1 0x20 DUP4 ADD MSTORE JUMP JUMPDEST PUSH1 0x40 MLOAD SWAP1 PUSH2 0x1F34 DUP3 PUSH2 0x3AE JUMP JUMPDEST PUSH1 0x7 DUP3 MSTORE PUSH7 0x73656372657473 PUSH1 0xC8 SHL PUSH1 0x20 DUP4 ADD MSTORE JUMP JUMPDEST PUSH1 0x40 MLOAD SWAP1 PUSH2 0x1F57 DUP3 PUSH2 0x3AE JUMP JUMPDEST PUSH1 0x9 DUP3 MSTORE PUSH9 0x627974657341726773 PUSH1 0xB8 SHL PUSH1 0x20 DUP4 ADD MSTORE JUMP JUMPDEST PUSH2 0x1F77 PUSH2 0x21CA JUMP JUMPDEST SWAP1 PUSH2 0x1F89 PUSH2 0x1F83 PUSH2 0x1E01 JUMP JUMPDEST DUP4 PUSH2 0x290C JUMP JUMPDEST PUSH2 0x1FA6 DUP2 MLOAD PUSH2 0x1F97 DUP2 PUSH2 0x1E3F JUMP JUMPDEST PUSH2 0x1FA0 DUP2 PUSH2 0x1E3F JUMP JUMPDEST DUP4 PUSH2 0x2296 JUMP JUMPDEST PUSH2 0x1FB1 PUSH2 0x1F83 PUSH2 0x1E4E JUMP JUMPDEST PUSH2 0x1FCB PUSH1 0x40 DUP3 ADD MLOAD PUSH2 0x1FC2 DUP2 PUSH2 0x1E72 JUMP JUMPDEST PUSH2 0x1FA0 DUP2 PUSH2 0x1E72 JUMP JUMPDEST PUSH2 0x1FD6 PUSH2 0x1F83 PUSH2 0x1E7C JUMP JUMPDEST PUSH2 0x1FE4 PUSH1 0x60 DUP3 ADD MLOAD DUP4 PUSH2 0x290C JUMP JUMPDEST PUSH1 0xA0 DUP2 ADD DUP1 MLOAD MLOAD PUSH2 0x20E9 JUMPI JUMPDEST POP PUSH1 0x80 DUP2 ADD SWAP1 DUP2 MLOAD MLOAD PUSH2 0x2069 JUMPI JUMPDEST PUSH1 0xC0 SWAP2 POP ADD DUP1 MLOAD MLOAD PUSH2 0x2011 JUMPI JUMPDEST POP MLOAD MLOAD SWAP1 JUMP JUMPDEST SWAP2 PUSH2 0x201D PUSH2 0x1F83 PUSH2 0x1F4A JUMP JUMPDEST PUSH2 0x2026 DUP3 PUSH2 0x2990 JUMP JUMPDEST PUSH1 0x0 JUMPDEST DUP4 MLOAD DUP1 MLOAD DUP3 LT ISZERO PUSH2 0x2056 JUMPI SWAP1 PUSH2 0x204C PUSH2 0x2045 DUP3 PUSH2 0x2051 SWAP5 PUSH2 0x1EE3 JUMP JUMPDEST MLOAD DUP6 PUSH2 0x2857 JUMP JUMPDEST PUSH2 0x1EBE JUMP JUMPDEST PUSH2 0x2029 JUMP JUMPDEST POP POP SWAP2 POP PUSH2 0x2063 DUP2 PUSH2 0x2A1C JUMP JUMPDEST CODESIZE PUSH2 0x200B JUMP JUMPDEST PUSH1 0x20 DUP2 ADD DUP1 MLOAD PUSH2 0x2078 DUP2 PUSH2 0x1E3F JUMP JUMPDEST PUSH2 0x2081 DUP2 PUSH2 0x1E3F JUMP JUMPDEST ISZERO PUSH2 0x20D7 JUMPI PUSH1 0xC0 SWAP3 PUSH2 0x20BA PUSH2 0x20D2 SWAP3 PUSH2 0x20A1 PUSH2 0x209B PUSH2 0x1EFC JUMP JUMPDEST DUP9 PUSH2 0x290C JUMP JUMPDEST MLOAD PUSH2 0x20AB DUP2 PUSH2 0x1E3F JUMP JUMPDEST PUSH2 0x20B4 DUP2 PUSH2 0x1E3F JUMP JUMPDEST DUP7 PUSH2 0x2296 JUMP JUMPDEST PUSH2 0x20CB PUSH2 0x20C5 PUSH2 0x1F27 JUMP JUMPDEST DUP7 PUSH2 0x290C JUMP JUMPDEST MLOAD DUP5 PUSH2 0x2857 JUMP JUMPDEST PUSH2 0x1FFE JUMP JUMPDEST PUSH1 0x40 MLOAD PUSH4 0xA80D31F7 PUSH1 0xE0 SHL DUP2 MSTORE PUSH1 0x4 SWAP1 REVERT JUMPDEST SWAP3 PUSH2 0x20FB PUSH2 0x20F5 PUSH2 0x1E9E JUMP JUMPDEST DUP5 PUSH2 0x290C JUMP JUMPDEST PUSH2 0x2104 DUP4 PUSH2 0x2990 JUMP JUMPDEST PUSH1 0x0 JUMPDEST DUP5 MLOAD DUP1 MLOAD DUP3 LT ISZERO PUSH2 0x212F JUMPI SWAP1 PUSH2 0x204C PUSH2 0x2123 DUP3 PUSH2 0x212A SWAP5 PUSH2 0x1EE3 JUMP JUMPDEST MLOAD DUP7 PUSH2 0x290C JUMP JUMPDEST PUSH2 0x2107 JUMP JUMPDEST POP POP SWAP3 POP PUSH2 0x213C DUP3 PUSH2 0x2A1C JUMP JUMPDEST CODESIZE PUSH2 0x1FF0 JUMP JUMPDEST DUP2 MLOAD ISZERO PUSH2 0x2159 JUMPI PUSH1 0x0 DUP1 DUP3 MSTORE PUSH1 0x40 DUP3 ADD MSTORE PUSH1 0x60 ADD MSTORE JUMP JUMPDEST PUSH1 0x40 MLOAD PUSH4 0x22CE3EDD PUSH1 0xE0 SHL DUP2 MSTORE PUSH1 0x4 SWAP1 REVERT JUMPDEST DUP2 MLOAD ISZERO PUSH2 0x217F JUMPI PUSH1 0x1 PUSH1 0x20 DUP3 ADD MSTORE PUSH1 0x80 ADD MSTORE JUMP JUMPDEST PUSH1 0x40 MLOAD PUSH4 0xE889636F PUSH1 0xE0 SHL DUP2 MSTORE PUSH1 0x4 SWAP1 REVERT JUMPDEST DUP2 MLOAD ISZERO PUSH2 0x219E JUMPI PUSH1 0xA0 ADD MSTORE JUMP JUMPDEST PUSH1 0x40 MLOAD PUSH4 0xFE936CB7 PUSH1 0xE0 SHL DUP2 MSTORE PUSH1 0x4 SWAP1 REVERT JUMPDEST PUSH1 0x40 MLOAD SWAP1 PUSH2 0x21BD DUP3 PUSH2 0x3AE JUMP JUMPDEST PUSH1 0x0 PUSH1 0x20 DUP4 PUSH1 0x60 DUP2 MSTORE ADD MSTORE JUMP JUMPDEST PUSH1 0x40 MLOAD PUSH2 0x21D6 DUP2 PUSH2 0x3AE JUMP JUMPDEST PUSH2 0x21DE PUSH2 0x21B0 JUMP JUMPDEST DUP1 DUP3 MSTORE PUSH1 0x20 DUP3 ADD PUSH1 0x0 DUP2 MSTORE PUSH2 0x21F1 PUSH2 0x21B0 JUMP JUMPDEST POP PUSH2 0x100 PUSH1 0x20 DUP4 ADD MSTORE PUSH1 0x40 MLOAD DUP1 SWAP3 MSTORE PUSH1 0x0 DUP3 MSTORE PUSH2 0x120 DUP3 ADD SWAP2 DUP3 LT PUSH2 0x1D8 JUMPI PUSH1 0x0 SWAP2 PUSH1 0x40 MSTORE MSTORE SWAP1 JUMP JUMPDEST PUSH1 0x1F NOT DUP2 ADD SWAP2 SWAP1 DUP3 GT PUSH2 0x19B7 JUMPI JUMP JUMPDEST SWAP1 PUSH1 0x20 DUP3 ADD DUP1 SWAP3 GT PUSH2 0x19B7 JUMPI JUMP JUMPDEST SWAP2 SWAP1 DUP3 ADD DUP1 SWAP3 GT PUSH2 0x19B7 JUMPI JUMP JUMPDEST SWAP1 PUSH2 0x224D PUSH2 0x21B0 JUMP JUMPDEST POP PUSH1 0x1F DUP2 AND DUP1 PUSH2 0x227C JUMPI JUMPDEST POP DUP1 PUSH1 0x20 DUP4 ADD MSTORE PUSH1 0x40 MLOAD SWAP1 DUP2 DUP4 MSTORE PUSH1 0x0 DUP3 MSTORE DUP2 ADD PUSH1 0x20 ADD SWAP1 DUP2 LT PUSH2 0x1D8 JUMPI PUSH1 0x40 MSTORE SWAP1 JUMP JUMPDEST PUSH1 0x20 SUB PUSH1 0x20 DUP2 GT PUSH2 0x19B7 JUMPI DUP2 ADD DUP1 SWAP2 GT PUSH2 0x19B7 JUMPI CODESIZE PUSH2 0x2258 JUMP JUMPDEST SWAP1 DUP2 MLOAD SWAP2 PUSH2 0x22A2 PUSH2 0x21B0 JUMP JUMPDEST POP DUP3 MLOAD MLOAD PUSH1 0x1 DUP2 ADD SWAP1 DUP2 DUP2 GT PUSH2 0x19B7 JUMPI PUSH1 0x20 DUP6 ADD MLOAD DUP2 LT ISZERO PUSH2 0x22FB JUMPI JUMPDEST PUSH1 0xC2 PUSH1 0x20 PUSH2 0x416 SWAP7 MLOAD SWAP3 DUP4 ADD ADD MSTORE8 DUP1 MLOAD DUP3 GT PUSH2 0x22F3 JUMPI JUMPDEST POP POP PUSH1 0x40 MLOAD SWAP2 PUSH1 0x20 DUP4 ADD MSTORE PUSH1 0x20 DUP3 MSTORE PUSH2 0x22EE DUP3 PUSH2 0x3AE JUMP JUMPDEST PUSH2 0x2857 JUMP JUMPDEST MSTORE CODESIZE DUP1 PUSH2 0x22D6 JUMP JUMPDEST DUP2 PUSH1 0x1 SHL SWAP5 DUP3 DUP7 DIV PUSH1 0x2 EQ DUP4 ISZERO OR ISZERO PUSH2 0x19B7 JUMPI PUSH1 0x20 DUP2 PUSH2 0x232D PUSH2 0x416 SWAP9 PUSH2 0x2326 PUSH1 0xC2 SWAP6 MLOAD SWAP2 DUP5 PUSH2 0x2244 JUMP JUMPDEST POP DUP3 PUSH2 0x279F JUMP JUMPDEST POP SWAP7 POP POP POP PUSH2 0x22BF JUMP JUMPDEST PUSH2 0x233F PUSH2 0x21B0 JUMP JUMPDEST POP DUP1 MLOAD MLOAD PUSH1 0x1 DUP2 ADD SWAP1 DUP2 DUP2 GT PUSH2 0x19B7 JUMPI PUSH1 0x20 DUP4 ADD MLOAD DUP2 LT ISZERO PUSH2 0x2378 JUMPI JUMPDEST PUSH1 0x5B PUSH1 0x20 DUP5 MLOAD SWAP3 DUP4 ADD ADD MSTORE8 DUP1 MLOAD DUP3 GT PUSH2 0x2374 JUMPI POP POP SWAP1 JUMP JUMPDEST MSTORE SWAP1 JUMP JUMPDEST DUP2 PUSH1 0x1 SHL DUP3 DUP2 DIV PUSH1 0x2 EQ DUP4 ISZERO OR ISZERO PUSH2 0x19B7 JUMPI PUSH2 0x23A1 SWAP1 PUSH2 0x239A DUP6 MLOAD SWAP2 DUP7 PUSH2 0x2244 JUMP JUMPDEST POP DUP5 PUSH2 0x279F JUMP JUMPDEST POP PUSH2 0x235C JUMP JUMPDEST PUSH2 0x23AF PUSH2 0x21B0 JUMP JUMPDEST POP DUP1 MLOAD MLOAD PUSH1 0x1 DUP2 ADD SWAP1 DUP2 DUP2 GT PUSH2 0x19B7 JUMPI PUSH1 0x20 DUP4 ADD MLOAD DUP2 LT ISZERO PUSH2 0x23E4 JUMPI JUMPDEST PUSH1 0x5A PUSH1 0x20 DUP5 MLOAD SWAP3 DUP4 ADD ADD MSTORE8 DUP1 MLOAD DUP3 GT PUSH2 0x2374 JUMPI POP POP SWAP1 JUMP JUMPDEST DUP2 PUSH1 0x1 SHL DUP3 DUP2 DIV PUSH1 0x2 EQ DUP4 ISZERO OR ISZERO PUSH2 0x19B7 JUMPI PUSH2 0x2406 SWAP1 PUSH2 0x239A DUP6 MLOAD SWAP2 DUP7 PUSH2 0x2244 JUMP JUMPDEST POP PUSH2 0x23CC JUMP JUMPDEST PUSH2 0x2414 PUSH2 0x21B0 JUMP JUMPDEST POP DUP1 MLOAD MLOAD PUSH1 0x1 DUP2 ADD SWAP1 DUP2 DUP2 GT PUSH2 0x19B7 JUMPI PUSH1 0x20 DUP4 ADD MLOAD DUP2 LT ISZERO PUSH2 0x2449 JUMPI JUMPDEST PUSH1 0x59 PUSH1 0x20 DUP5 MLOAD SWAP3 DUP4 ADD ADD MSTORE8 DUP1 MLOAD DUP3 GT PUSH2 0x2374 JUMPI POP POP SWAP1 JUMP JUMPDEST DUP2 PUSH1 0x1 SHL DUP3 DUP2 DIV PUSH1 0x2 EQ DUP4 ISZERO OR ISZERO PUSH2 0x19B7 JUMPI PUSH2 0x246B SWAP1 PUSH2 0x239A DUP6 MLOAD SWAP2 DUP7 PUSH2 0x2244 JUMP JUMPDEST POP PUSH2 0x2431 JUMP JUMPDEST PUSH2 0x2479 PUSH2 0x21B0 JUMP JUMPDEST POP DUP1 MLOAD MLOAD PUSH1 0x1 DUP2 ADD SWAP1 DUP2 DUP2 GT PUSH2 0x19B7 JUMPI PUSH1 0x20 DUP4 ADD MLOAD DUP2 LT ISZERO PUSH2 0x24AE JUMPI JUMPDEST PUSH1 0x58 PUSH1 0x20 DUP5 MLOAD SWAP3 DUP4 ADD ADD MSTORE8 DUP1 MLOAD DUP3 GT PUSH2 0x2374 JUMPI POP POP SWAP1 JUMP JUMPDEST DUP2 PUSH1 0x1 SHL DUP3 DUP2 DIV PUSH1 0x2 EQ DUP4 ISZERO OR ISZERO PUSH2 0x19B7 JUMPI PUSH2 0x24D0 SWAP1 PUSH2 0x239A DUP6 MLOAD SWAP2 DUP7 PUSH2 0x2244 JUMP JUMPDEST POP PUSH2 0x2496 JUMP JUMPDEST PUSH2 0x24DE PUSH2 0x21B0 JUMP JUMPDEST POP DUP1 MLOAD MLOAD PUSH1 0x1 DUP2 ADD SWAP1 DUP2 DUP2 GT PUSH2 0x19B7 JUMPI PUSH1 0x20 DUP4 ADD MLOAD DUP2 LT ISZERO PUSH2 0x2513 JUMPI JUMPDEST PUSH1 0x7B PUSH1 0x20 DUP5 MLOAD SWAP3 DUP4 ADD ADD MSTORE8 DUP1 MLOAD DUP3 GT PUSH2 0x2374 JUMPI POP POP SWAP1 JUMP JUMPDEST DUP2 PUSH1 0x1 SHL DUP3 DUP2 DIV PUSH1 0x2 EQ DUP4 ISZERO OR ISZERO PUSH2 0x19B7 JUMPI PUSH2 0x2535 SWAP1 PUSH2 0x239A DUP6 MLOAD SWAP2 DUP7 PUSH2 0x2244 JUMP JUMPDEST POP PUSH2 0x24FB JUMP JUMPDEST PUSH2 0x2543 PUSH2 0x21B0 JUMP JUMPDEST POP DUP1 MLOAD MLOAD PUSH1 0x1 DUP2 ADD SWAP1 DUP2 DUP2 GT PUSH2 0x19B7 JUMPI PUSH1 0x20 DUP4 ADD MLOAD DUP2 LT ISZERO PUSH2 0x2578 JUMPI JUMPDEST PUSH1 0x7A PUSH1 0x20 DUP5 MLOAD SWAP3 DUP4 ADD ADD MSTORE8 DUP1 MLOAD DUP3 GT PUSH2 0x2374 JUMPI POP POP SWAP1 JUMP JUMPDEST DUP2 PUSH1 0x1 SHL DUP3 DUP2 DIV PUSH1 0x2 EQ DUP4 ISZERO OR ISZERO PUSH2 0x19B7 JUMPI PUSH2 0x259A SWAP1 PUSH2 0x239A DUP6 MLOAD SWAP2 DUP7 PUSH2 0x2244 JUMP JUMPDEST POP PUSH2 0x2560 JUMP JUMPDEST PUSH2 0x25A8 PUSH2 0x21B0 JUMP JUMPDEST POP DUP1 MLOAD MLOAD PUSH1 0x1 DUP2 ADD SWAP1 DUP2 DUP2 GT PUSH2 0x19B7 JUMPI PUSH1 0x20 DUP4 ADD MLOAD DUP2 LT ISZERO PUSH2 0x25DD JUMPI JUMPDEST PUSH1 0x79 PUSH1 0x20 DUP5 MLOAD SWAP3 DUP4 ADD ADD MSTORE8 DUP1 MLOAD DUP3 GT PUSH2 0x2374 JUMPI POP POP SWAP1 JUMP JUMPDEST DUP2 PUSH1 0x1 SHL DUP3 DUP2 DIV PUSH1 0x2 EQ DUP4 ISZERO OR ISZERO PUSH2 0x19B7 JUMPI PUSH2 0x25FF SWAP1 PUSH2 0x239A DUP6 MLOAD SWAP2 DUP7 PUSH2 0x2244 JUMP JUMPDEST POP PUSH2 0x25C5 JUMP JUMPDEST PUSH2 0x260D PUSH2 0x21B0 JUMP JUMPDEST POP DUP1 MLOAD MLOAD PUSH1 0x1 DUP2 ADD SWAP1 DUP2 DUP2 GT PUSH2 0x19B7 JUMPI PUSH1 0x20 DUP4 ADD MLOAD DUP2 LT ISZERO PUSH2 0x2642 JUMPI JUMPDEST PUSH1 0x78 PUSH1 0x20 DUP5 MLOAD SWAP3 DUP4 ADD ADD MSTORE8 DUP1 MLOAD DUP3 GT PUSH2 0x2374 JUMPI POP POP SWAP1 JUMP JUMPDEST DUP2 PUSH1 0x1 SHL DUP3 DUP2 DIV PUSH1 0x2 EQ DUP4 ISZERO OR ISZERO PUSH2 0x19B7 JUMPI PUSH2 0x2664 SWAP1 PUSH2 0x239A DUP6 MLOAD SWAP2 DUP7 PUSH2 0x2244 JUMP JUMPDEST POP PUSH2 0x262A JUMP JUMPDEST SWAP1 PUSH2 0x2673 PUSH2 0x21B0 JUMP JUMPDEST POP DUP2 MLOAD MLOAD PUSH1 0x1 DUP2 ADD SWAP2 DUP3 DUP3 GT PUSH2 0x19B7 JUMPI PUSH1 0x20 DUP5 ADD MLOAD DUP3 LT ISZERO PUSH2 0x26A6 JUMPI JUMPDEST PUSH1 0x20 DUP5 MLOAD SWAP3 DUP4 ADD ADD MSTORE8 DUP1 MLOAD DUP3 GT PUSH2 0x2374 JUMPI POP POP SWAP1 JUMP JUMPDEST DUP3 PUSH1 0x1 SHL DUP4 DUP2 DIV PUSH1 0x2 EQ DUP5 ISZERO OR ISZERO PUSH2 0x19B7 JUMPI PUSH2 0x26CF SWAP1 PUSH2 0x26C8 DUP7 MLOAD SWAP2 DUP8 PUSH2 0x2244 JUMP JUMPDEST POP DUP6 PUSH2 0x279F JUMP JUMPDEST POP PUSH2 0x2690 JUMP JUMPDEST SWAP1 PUSH2 0x26E2 DUP3 MLOAD SWAP2 DUP4 PUSH2 0x2244 JUMP JUMPDEST POP PUSH2 0x26EB PUSH2 0x21B0 JUMP JUMPDEST POP DUP1 MLOAD SWAP1 PUSH2 0x26F7 PUSH2 0x21B0 JUMP JUMPDEST POP PUSH2 0x2705 DUP2 MLOAD DUP4 GT ISZERO PUSH2 0x2850 JUMP JUMPDEST DUP3 MLOAD MLOAD SWAP3 PUSH2 0x2713 DUP4 DUP6 PUSH2 0x2237 JUMP JUMPDEST SWAP2 PUSH1 0x20 SWAP3 DUP3 DUP5 DUP1 SWAP5 ADD MLOAD DUP3 GT PUSH2 0x2788 JUMPI JUMPDEST MLOAD DUP4 DUP2 MLOAD SWAP8 DUP3 ADD ADD SWAP7 DUP3 GT PUSH2 0x2780 JUMPI JUMPDEST POP POP ADD SWAP2 JUMPDEST DUP2 DUP2 LT ISZERO PUSH2 0x275A JUMPI PUSH1 0x0 NOT SWAP2 SUB PUSH2 0x100 EXP ADD SWAP1 DUP2 NOT SWAP1 MLOAD AND SWAP1 DUP3 MLOAD AND OR SWAP1 MSTORE JUMP JUMPDEST SWAP2 SWAP3 PUSH2 0x2775 PUSH2 0x276F PUSH2 0x277B SWAP3 DUP7 MLOAD DUP2 MSTORE PUSH2 0x2229 JUMP JUMPDEST SWAP5 PUSH2 0x2229 JUMP JUMPDEST SWAP3 PUSH2 0x221A JUMP JUMPDEST PUSH2 0x2739 JUMP JUMPDEST MSTORE CODESIZE DUP1 PUSH2 0x2734 JUMP JUMPDEST PUSH2 0x279A PUSH2 0x2794 DUP4 PUSH2 0x19A1 JUMP JUMPDEST DUP3 PUSH2 0x26D5 JUMP JUMPDEST PUSH2 0x2724 JUMP JUMPDEST SWAP1 PUSH2 0x27A8 PUSH2 0x21B0 JUMP JUMPDEST POP DUP1 MLOAD PUSH2 0x27B3 PUSH2 0x21B0 JUMP JUMPDEST POP PUSH2 0x27C1 DUP3 MLOAD DUP3 GT ISZERO PUSH2 0x2850 JUMP JUMPDEST DUP3 MLOAD MLOAD SWAP2 PUSH2 0x27CF DUP3 DUP5 PUSH2 0x2237 JUMP JUMPDEST PUSH1 0x20 SWAP2 DUP3 SWAP2 DUP3 DUP8 ADD MLOAD DUP2 GT PUSH2 0x2839 JUMPI JUMPDEST DUP7 MLOAD DUP4 DUP2 MLOAD SWAP8 DUP3 ADD ADD SWAP7 DUP3 GT PUSH2 0x2831 JUMPI JUMPDEST POP POP ADD SWAP2 JUMPDEST DUP2 DUP2 LT ISZERO PUSH2 0x2817 JUMPI PUSH1 0x0 NOT SWAP2 SUB PUSH2 0x100 EXP ADD SWAP1 DUP2 NOT SWAP1 MLOAD AND SWAP1 DUP3 MLOAD AND OR SWAP1 MSTORE SWAP1 JUMP JUMPDEST SWAP2 SWAP3 PUSH2 0x2775 PUSH2 0x276F PUSH2 0x282C SWAP3 DUP7 MLOAD DUP2 MSTORE PUSH2 0x2229 JUMP JUMPDEST PUSH2 0x27F5 JUMP JUMPDEST MSTORE CODESIZE DUP1 PUSH2 0x27F0 JUMP JUMPDEST PUSH2 0x284B PUSH2 0x2845 DUP3 PUSH2 0x19A1 JUMP JUMPDEST DUP9 PUSH2 0x26D5 JUMP JUMPDEST PUSH2 0x27DF JUMP JUMPDEST ISZERO PUSH2 0x1D8 JUMPI JUMP JUMPDEST DUP2 MLOAD PUSH2 0x288E SWAP3 SWAP2 SWAP1 PUSH1 0x1 PUSH1 0x1 PUSH1 0x40 SHL SUB DUP2 AND SWAP1 PUSH1 0x17 DUP3 GT PUSH2 0x2891 JUMPI PUSH2 0x2886 SWAP2 POP PUSH1 0x40 PUSH1 0xFF DUP5 MLOAD SWAP3 AND OR SWAP1 PUSH2 0x266A JUMP JUMPDEST POP JUMPDEST MLOAD PUSH2 0x279F JUMP JUMPDEST POP JUMP JUMPDEST POP PUSH1 0xFF DUP2 GT PUSH2 0x28B6 JUMPI PUSH2 0x28B0 SWAP1 PUSH2 0x28A8 DUP4 MLOAD PUSH2 0x2471 JUMP JUMPDEST POP DUP3 MLOAD PUSH2 0x2BE5 JUMP JUMPDEST POP PUSH2 0x2888 JUMP JUMPDEST PUSH2 0xFFFF DUP2 GT PUSH2 0x28D5 JUMPI PUSH2 0x28B0 SWAP1 PUSH2 0x28CD DUP4 MLOAD PUSH2 0x240C JUMP JUMPDEST POP DUP3 MLOAD PUSH2 0x2B7E JUMP JUMPDEST PUSH4 0xFFFFFFFF DUP2 GT PUSH2 0x28F6 JUMPI PUSH2 0x28B0 SWAP1 PUSH2 0x28EE DUP4 MLOAD PUSH2 0x23A7 JUMP JUMPDEST POP DUP3 MLOAD PUSH2 0x2B15 JUMP JUMPDEST PUSH2 0x28B0 SWAP1 PUSH2 0x2904 DUP4 MLOAD PUSH2 0x2337 JUMP JUMPDEST POP DUP3 MLOAD PUSH2 0x2AA9 JUMP JUMPDEST DUP2 MLOAD PUSH2 0x288E SWAP3 SWAP2 SWAP1 PUSH1 0x1 PUSH1 0x1 PUSH1 0x40 SHL SUB DUP2 AND SWAP1 PUSH1 0x17 DUP3 GT PUSH2 0x293B JUMPI PUSH2 0x2886 SWAP2 POP PUSH1 0x60 PUSH1 0xFF DUP5 MLOAD SWAP3 AND OR SWAP1 PUSH2 0x266A JUMP JUMPDEST POP PUSH1 0xFF DUP2 GT PUSH2 0x2952 JUMPI PUSH2 0x28B0 SWAP1 PUSH2 0x28A8 DUP4 MLOAD PUSH2 0x2605 JUMP JUMPDEST PUSH2 0xFFFF DUP2 GT PUSH2 0x2969 JUMPI PUSH2 0x28B0 SWAP1 PUSH2 0x28CD DUP4 MLOAD PUSH2 0x25A0 JUMP JUMPDEST PUSH4 0xFFFFFFFF DUP2 GT PUSH2 0x2982 JUMPI PUSH2 0x28B0 SWAP1 PUSH2 0x28EE DUP4 MLOAD PUSH2 0x253B JUMP JUMPDEST PUSH2 0x28B0 SWAP1 PUSH2 0x2904 DUP4 MLOAD PUSH2 0x24D6 JUMP JUMPDEST DUP1 MLOAD SWAP1 PUSH2 0x299B PUSH2 0x21B0 JUMP JUMPDEST POP DUP2 MLOAD MLOAD PUSH1 0x1 DUP2 ADD SWAP1 DUP2 DUP2 GT PUSH2 0x19B7 JUMPI PUSH1 0x20 DUP5 ADD MLOAD DUP2 LT ISZERO PUSH2 0x29E9 JUMPI JUMPDEST PUSH1 0x9F PUSH1 0x20 DUP1 SWAP6 MLOAD SWAP3 DUP4 ADD ADD MSTORE8 DUP1 MLOAD DUP3 GT PUSH2 0x29E1 JUMPI JUMPDEST POP POP ADD DUP1 MLOAD SWAP1 PUSH1 0x1 DUP3 ADD DUP1 SWAP3 GT PUSH2 0x19B7 JUMPI MSTORE JUMP JUMPDEST MSTORE CODESIZE DUP1 PUSH2 0x29CD JUMP JUMPDEST DUP2 PUSH1 0x1 SHL SWAP4 DUP3 DUP6 DIV PUSH1 0x2 EQ DUP4 ISZERO OR ISZERO PUSH2 0x19B7 JUMPI PUSH1 0x20 DUP2 PUSH2 0x2A12 DUP3 SWAP8 PUSH2 0x2326 PUSH1 0x9F SWAP6 MLOAD SWAP2 DUP5 PUSH2 0x2244 JUMP JUMPDEST POP SWAP6 POP POP POP PUSH2 0x29B8 JUMP JUMPDEST DUP1 MLOAD SWAP1 PUSH2 0x2A27 PUSH2 0x21B0 JUMP JUMPDEST POP DUP2 MLOAD MLOAD PUSH1 0x1 DUP2 ADD SWAP1 DUP2 DUP2 GT PUSH2 0x19B7 JUMPI PUSH1 0x20 DUP5 ADD MLOAD DUP2 LT ISZERO PUSH2 0x2A76 JUMPI JUMPDEST PUSH1 0xFF PUSH1 0x20 DUP1 SWAP6 MLOAD SWAP3 DUP4 ADD ADD MSTORE8 DUP1 MLOAD DUP3 GT PUSH2 0x2A6E JUMPI JUMPDEST POP POP ADD DUP1 MLOAD PUSH1 0x0 NOT DUP2 ADD SWAP2 SWAP1 DUP3 GT PUSH2 0x19B7 JUMPI MSTORE JUMP JUMPDEST MSTORE CODESIZE DUP1 PUSH2 0x2A59 JUMP JUMPDEST DUP2 PUSH1 0x1 SHL SWAP4 DUP3 DUP6 DIV PUSH1 0x2 EQ DUP4 ISZERO OR ISZERO PUSH2 0x19B7 JUMPI PUSH1 0x20 DUP2 PUSH2 0x2A9F DUP3 SWAP8 PUSH2 0x2326 PUSH1 0xFF SWAP6 MLOAD SWAP2 DUP5 PUSH2 0x2244 JUMP JUMPDEST POP SWAP6 POP POP POP PUSH2 0x2A44 JUMP JUMPDEST SWAP1 PUSH2 0x2AB2 PUSH2 0x21B0 JUMP JUMPDEST POP DUP2 MLOAD MLOAD DUP1 PUSH1 0x8 ADD SWAP2 DUP3 PUSH1 0x8 GT PUSH2 0x19B7 JUMPI PUSH1 0x20 DUP5 ADD MLOAD DUP4 GT PUSH2 0x2AF4 JUMPI JUMPDEST PUSH1 0x8 DUP5 MLOAD SWAP3 DUP4 ADD ADD SWAP1 PUSH1 0x1 PUSH1 0x1 PUSH1 0x40 SHL SUB NOT DUP3 MLOAD AND OR SWAP1 MSTORE DUP1 MLOAD DUP3 GT PUSH2 0x2374 JUMPI POP POP SWAP1 JUMP JUMPDEST DUP3 PUSH1 0x1 SHL DUP4 DUP2 DIV PUSH1 0x2 EQ DUP5 ISZERO OR ISZERO PUSH2 0x19B7 JUMPI PUSH2 0x2B10 SWAP1 DUP6 PUSH2 0x26D5 JUMP JUMPDEST PUSH2 0x2ACF JUMP JUMPDEST SWAP1 PUSH2 0x2B1E PUSH2 0x21B0 JUMP JUMPDEST POP DUP2 MLOAD MLOAD DUP1 PUSH1 0x4 ADD SWAP2 DUP3 PUSH1 0x4 GT PUSH2 0x19B7 JUMPI PUSH1 0x20 DUP5 ADD MLOAD DUP4 GT PUSH2 0x2B5D JUMPI JUMPDEST PUSH1 0x4 DUP5 MLOAD SWAP3 DUP4 ADD ADD SWAP1 PUSH4 0xFFFFFFFF NOT DUP3 MLOAD AND OR SWAP1 MSTORE DUP1 MLOAD DUP3 GT PUSH2 0x2374 JUMPI POP POP SWAP1 JUMP JUMPDEST DUP3 PUSH1 0x1 SHL DUP4 DUP2 DIV PUSH1 0x2 EQ DUP5 ISZERO OR ISZERO PUSH2 0x19B7 JUMPI PUSH2 0x2B79 SWAP1 DUP6 PUSH2 0x26D5 JUMP JUMPDEST PUSH2 0x2B3B JUMP JUMPDEST SWAP1 PUSH2 0x2B87 PUSH2 0x21B0 JUMP JUMPDEST POP DUP2 MLOAD MLOAD DUP1 PUSH1 0x2 ADD SWAP2 DUP3 PUSH1 0x2 GT PUSH2 0x19B7 JUMPI PUSH1 0x20 DUP5 ADD MLOAD DUP4 GT PUSH2 0x2BC4 JUMPI JUMPDEST PUSH1 0x2 DUP5 MLOAD SWAP3 DUP4 ADD ADD SWAP1 PUSH2 0xFFFF NOT DUP3 MLOAD AND OR SWAP1 MSTORE DUP1 MLOAD DUP3 GT PUSH2 0x2374 JUMPI POP POP SWAP1 JUMP JUMPDEST DUP3 PUSH1 0x1 SHL DUP4 DUP2 DIV PUSH1 0x2 EQ DUP5 ISZERO OR ISZERO PUSH2 0x19B7 JUMPI PUSH2 0x2BE0 SWAP1 DUP6 PUSH2 0x26D5 JUMP JUMPDEST PUSH2 0x2BA4 JUMP JUMPDEST SWAP1 PUSH2 0x2BEE PUSH2 0x21B0 JUMP JUMPDEST POP DUP2 MLOAD MLOAD DUP1 PUSH1 0x1 ADD SWAP2 DUP3 PUSH1 0x1 GT PUSH2 0x19B7 JUMPI PUSH1 0x20 DUP5 ADD MLOAD DUP4 GT PUSH2 0x2C2A JUMPI JUMPDEST PUSH1 0x1 DUP5 MLOAD SWAP3 DUP4 ADD ADD SWAP1 PUSH1 0xFF NOT DUP3 MLOAD AND OR SWAP1 MSTORE DUP1 MLOAD DUP3 GT PUSH2 0x2374 JUMPI POP POP SWAP1 JUMP JUMPDEST DUP3 PUSH1 0x1 SHL DUP4 DUP2 DIV PUSH1 0x2 EQ DUP5 ISZERO OR ISZERO PUSH2 0x19B7 JUMPI PUSH2 0x2C46 SWAP1 DUP6 PUSH2 0x26D5 JUMP JUMPDEST PUSH2 0x2C0B JUMP JUMPDEST PUSH1 0x40 MLOAD SWAP1 PUSH2 0x2C58 DUP3 PUSH2 0x3AE JUMP JUMPDEST PUSH1 0x4 DUP3 MSTORE PUSH4 0x6E657773 PUSH1 0xE0 SHL PUSH1 0x20 DUP4 ADD MSTORE JUMP JUMPDEST PUSH1 0x40 MLOAD SWAP1 PUSH2 0x2C78 DUP3 PUSH2 0x3AE JUMP JUMPDEST PUSH1 0xE DUP3 MSTORE PUSH14 0x1B995DDCD7DCD95B9D1A5B595B9D PUSH1 0x92 SHL PUSH1 0x20 DUP4 ADD MSTORE JUMP JUMPDEST SWAP2 PUSH1 0x40 SWAP2 PUSH2 0x1CE8 SWAP2 SWAP6 SWAP5 SWAP6 PUSH1 0x60 DUP6 MSTORE PUSH1 0xE PUSH1 0x60 DUP7 ADD MSTORE PUSH14 0x1B995DDCD7DCD95B9D1A5B595B9D PUSH1 0x92 SHL PUSH1 0x80 DUP7 ADD MSTORE PUSH1 0xA0 PUSH1 0x20 DUP7 ADD MSTORE PUSH1 0xA0 DUP6 ADD SWAP2 PUSH2 0x1C1E JUMP JUMPDEST PUSH1 0x40 MLOAD SWAP1 PUSH2 0x2CE0 DUP3 PUSH2 0x3AE JUMP JUMPDEST PUSH1 0x6 DUP3 MSTORE PUSH6 0x1B585C9AD95D PUSH1 0xD2 SHL PUSH1 0x20 DUP4 ADD MSTORE JUMP JUMPDEST PUSH1 0x40 MLOAD SWAP1 PUSH2 0x2D02 DUP3 PUSH2 0x3AE JUMP JUMPDEST PUSH1 0xB DUP3 MSTORE PUSH11 0x6D61726B65745F64617461 PUSH1 0xA8 SHL PUSH1 0x20 DUP4 ADD MSTORE JUMP JUMPDEST SWAP2 PUSH1 0x40 SWAP2 PUSH2 0x1CE8 SWAP2 SWAP6 SWAP5 SWAP6 PUSH1 0x60 DUP6 MSTORE PUSH1 0xB PUSH1 0x60 DUP7 ADD MSTORE PUSH11 0x6D61726B65745F64617461 PUSH1 0xA8 SHL PUSH1 0x80 DUP7 ADD MSTORE PUSH1 0xA0 PUSH1 0x20 DUP7 ADD MSTORE PUSH1 0xA0 DUP6 ADD SWAP2 PUSH2 0x1C1E JUMP JUMPDEST PUSH1 0x0 SWAP3 SWAP2 DUP2 SLOAD PUSH2 0x2D66 DUP2 PUSH2 0x746 JUMP JUMPDEST SWAP3 PUSH1 0x1 SWAP2 DUP1 DUP4 AND SWAP1 DUP2 ISZERO PUSH2 0x2DBF JUMPI POP PUSH1 0x1 EQ PUSH2 0x2D83 JUMPI JUMPDEST POP POP POP POP JUMP JUMPDEST SWAP1 SWAP2 SWAP3 SWAP4 SWAP5 POP PUSH1 0x0 MSTORE PUSH1 0x20 SWAP1 DUP2 PUSH1 0x0 KECCAK256 SWAP1 PUSH1 0x0 SWAP2 JUMPDEST DUP6 DUP4 LT PUSH2 0x2DAE JUMPI POP POP POP POP ADD SWAP1 CODESIZE DUP1 DUP1 DUP1 PUSH2 0x2D7D JUMP JUMPDEST DUP1 SLOAD DUP6 DUP5 ADD MSTORE SWAP2 DUP4 ADD SWAP2 DUP2 ADD PUSH2 0x2D98 JUMP JUMPDEST PUSH1 0xFF NOT AND DUP5 MSTORE POP POP POP DUP2 ISZERO ISZERO SWAP1 SWAP2 MUL ADD SWAP2 POP CODESIZE DUP1 DUP1 DUP1 PUSH2 0x2D7D JUMP JUMPDEST DUP1 SLOAD ISZERO PUSH2 0x1EF7 JUMPI PUSH1 0x0 MSTORE PUSH1 0x20 PUSH1 0x0 KECCAK256 SWAP1 PUSH1 0x0 SWAP1 JUMP JUMPDEST SWAP1 SWAP3 SWAP2 PUSH1 0x40 DUP3 MSTORE PUSH1 0x0 SWAP2 DUP5 SLOAD PUSH2 0x2E04 DUP2 PUSH2 0x746 JUMP JUMPDEST SWAP6 DUP7 PUSH1 0x40 DUP5 ADD MSTORE PUSH1 0x1 SWAP2 DUP3 DUP2 AND SWAP1 DUP2 PUSH1 0x0 EQ PUSH2 0x2E7D JUMPI POP PUSH1 0x1 EQ PUSH2 0x2E38 JUMPI JUMPDEST POP POP PUSH2 0x5DE SWAP4 SWAP5 POP PUSH1 0x20 DUP2 DUP5 SUB SWAP2 ADD MSTORE PUSH2 0xA35 JUMP JUMPDEST SWAP1 SWAP6 SWAP2 SWAP4 POP PUSH1 0x0 MSTORE PUSH1 0x20 DUP1 PUSH1 0x0 KECCAK256 SWAP6 PUSH1 0x0 SWAP7 JUMPDEST DUP4 DUP9 LT PUSH2 0x2E69 JUMPI POP POP POP POP PUSH1 0x60 PUSH2 0x5DE SWAP4 SWAP5 DUP4 ADD ADD SWAP2 DUP5 SWAP4 CODESIZE PUSH2 0x2E23 JUMP JUMPDEST DUP1 SLOAD DUP7 DUP10 ADD PUSH1 0x60 ADD MSTORE SWAP7 DUP3 ADD SWAP7 DUP2 ADD PUSH2 0x2E4B JUMP JUMPDEST SWAP2 POP POP PUSH1 0x60 SWAP3 SWAP5 POP PUSH2 0x5DE SWAP6 SWAP7 SWAP2 POP PUSH1 0xFF NOT AND DUP3 DUP6 ADD MSTORE ISZERO ISZERO PUSH1 0x5 SHL DUP4 ADD ADD SWAP2 DUP5 SWAP4 CODESIZE PUSH2 0x2E23 JUMP JUMPDEST SWAP2 SWAP1 PUSH2 0x2EBB DUP4 PUSH1 0x0 MSTORE PUSH1 0x3 PUSH1 0x20 MSTORE PUSH1 0x40 PUSH1 0x0 KECCAK256 SWAP1 JUMP JUMPDEST SWAP2 PUSH1 0x3 DUP4 ADD SLOAD ISZERO PUSH2 0x307A JUMPI PUSH1 0x4 DUP4 ADD DUP1 SLOAD PUSH1 0xFF PUSH1 0xA0 SHL NOT AND PUSH1 0x1 PUSH1 0xA0 SHL OR SWAP1 SSTORE MLOAD PUSH2 0x3075 JUMPI DUP2 PUSH2 0x2F9D PUSH1 0x1 PUSH32 0xCEE9C1BAA43553B2448EA9021B8AC9F16FEE9B4F8E8AE109CCFE1F7CF656BDC0 SWAP5 ADD SWAP2 PUSH1 0x40 SWAP1 DUP2 MLOAD PUSH1 0x20 SWAP1 DUP2 DUP2 ADD DUP2 PUSH2 0x2F20 DUP3 DUP10 PUSH2 0x2D57 JUMP JUMPDEST SUB SWAP2 PUSH2 0x2F34 PUSH1 0x1F NOT SWAP4 DUP5 DUP2 ADD DUP4 MSTORE DUP3 PUSH2 0x3C9 JUMP JUMPDEST MLOAD SWAP1 KECCAK256 DUP5 MLOAD PUSH17 0x1D1DDA5D1D195C97DCD95B9D1A5B595B9D PUSH1 0x7A SHL DUP5 DUP3 ADD SWAP1 DUP2 MSTORE SWAP1 PUSH2 0x2F62 DUP2 PUSH1 0x11 DUP5 ADD PUSH2 0x683 JUMP JUMPDEST MLOAD SWAP1 KECCAK256 SUB PUSH2 0x2FA2 JUMPI POP POP PUSH2 0x2F84 PUSH2 0x2F7E PUSH1 0x2 PUSH2 0x2F93 SWAP4 ADD PUSH2 0x2DDA JUMP JUMPDEST POP PUSH2 0x96E JUMP JUMPDEST PUSH2 0x2F8C PUSH2 0x1454 JUMP JUMPDEST SWAP1 DUP7 PUSH2 0x319B JUMP JUMPDEST MLOAD SWAP3 DUP4 SWAP3 DUP4 PUSH2 0x2DEF JUMP JUMPDEST SUB SWAP1 LOG2 JUMP JUMPDEST DUP4 MLOAD DUP3 DUP2 ADD SWAP1 PUSH2 0x2FB6 DUP2 PUSH2 0x6E2 DUP5 DUP12 PUSH2 0x2D57 JUMP JUMPDEST MLOAD SWAP1 KECCAK256 DUP5 MLOAD PUSH14 0x1B995DDCD7DCD95B9D1A5B595B9D PUSH1 0x92 SHL DUP5 DUP3 ADD SWAP1 DUP2 MSTORE SWAP1 PUSH2 0x2FE1 DUP2 PUSH1 0xE DUP5 ADD PUSH2 0x683 JUMP JUMPDEST MLOAD SWAP1 KECCAK256 SUB PUSH2 0x300A JUMPI POP POP PUSH2 0x2FFD PUSH2 0x2F7E PUSH1 0x2 PUSH2 0x3005 SWAP4 ADD PUSH2 0x2DDA JUMP JUMPDEST PUSH2 0x2F8C PUSH2 0x2C4B JUMP JUMPDEST PUSH2 0x2F93 JUMP JUMPDEST DUP4 MLOAD DUP3 DUP2 ADD SWAP1 PUSH2 0x301E DUP2 PUSH2 0x6E2 DUP5 DUP12 PUSH2 0x2D57 JUMP JUMPDEST MLOAD SWAP1 KECCAK256 SWAP2 PUSH2 0x3048 DUP6 MLOAD SWAP2 DUP3 ADD SWAP3 DUP3 PUSH2 0x718 DUP6 PUSH1 0xB SWAP1 PUSH11 0x6D61726B65745F64617461 PUSH1 0xA8 SHL DUP2 MSTORE ADD SWAP1 JUMP JUMPDEST MLOAD SWAP1 KECCAK256 EQ PUSH2 0x3057 JUMPI JUMPDEST POP PUSH2 0x2F93 JUMP JUMPDEST PUSH2 0x3069 PUSH2 0x2F7E PUSH1 0x2 PUSH2 0x306F SWAP4 ADD PUSH2 0x2DDA JUMP JUMPDEST DUP6 PUSH2 0x326C JUMP JUMPDEST CODESIZE PUSH2 0x3051 JUMP JUMPDEST POP POP POP JUMP JUMPDEST PUSH1 0x40 MLOAD PUSH4 0x2589D98F PUSH1 0xE1 SHL DUP2 MSTORE PUSH1 0x4 SWAP1 REVERT JUMPDEST DUP2 MLOAD DUP2 SSTORE PUSH1 0x20 PUSH1 0x60 PUSH1 0x3 DUP3 DUP6 ADD MLOAD SWAP4 PUSH1 0x1 SWAP5 DUP6 DUP3 ADD SSTORE PUSH1 0x40 DUP7 ADD MLOAD PUSH1 0x2 DUP3 ADD SSTORE ADD SWAP4 ADD MLOAD SWAP1 DUP2 MLOAD SWAP2 PUSH1 0x1 PUSH1 0x1 PUSH1 0x40 SHL SUB DUP4 GT PUSH2 0x38E JUMPI PUSH2 0x30D6 DUP4 PUSH2 0x30D0 DUP8 SLOAD PUSH2 0x746 JUMP JUMPDEST DUP8 PUSH2 0x15C8 JUMP JUMPDEST DUP2 PUSH1 0x1F DUP5 GT PUSH1 0x1 EQ PUSH2 0x310F JUMPI POP SWAP3 DUP3 SWAP4 SWAP2 DUP4 SWAP3 PUSH1 0x0 SWAP5 PUSH2 0x3104 JUMPI JUMPDEST POP POP SHL SWAP2 PUSH1 0x0 NOT SWAP1 PUSH1 0x3 SHL SHR NOT AND OR SWAP1 SSTORE JUMP JUMPDEST ADD MLOAD SWAP3 POP CODESIZE DUP1 PUSH2 0x30F1 JUMP JUMPDEST SWAP2 SWAP1 DUP4 PUSH1 0x1F NOT DUP2 AND PUSH2 0x3126 DUP9 PUSH1 0x0 MSTORE PUSH1 0x20 PUSH1 0x0 KECCAK256 SWAP1 JUMP JUMPDEST SWAP5 PUSH1 0x0 SWAP1 JUMPDEST DUP9 DUP4 DUP4 LT PUSH2 0x3145 JUMPI POP POP POP LT PUSH2 0x195A JUMPI POP POP POP DUP2 SHL ADD SWAP1 SSTORE JUMP JUMPDEST DUP6 DUP8 ADD MLOAD DUP9 SSTORE SWAP1 SWAP7 ADD SWAP6 SWAP5 DUP6 ADD SWAP5 DUP8 SWAP4 POP SWAP1 DUP2 ADD SWAP1 PUSH2 0x312B JUMP JUMPDEST PUSH2 0x3177 SWAP1 PUSH1 0x20 PUSH1 0x40 MLOAD SWAP3 DUP3 DUP5 DUP1 SWAP5 MLOAD SWAP4 DUP5 SWAP3 ADD PUSH2 0xA12 JUMP JUMPDEST DUP2 ADD SUB SWAP1 KECCAK256 SWAP1 JUMP JUMPDEST PUSH2 0x5DE SWAP4 SWAP3 PUSH1 0x60 SWAP3 DUP3 MSTORE PUSH1 0x20 DUP3 ADD MSTORE DUP2 PUSH1 0x40 DUP3 ADD MSTORE ADD SWAP1 PUSH2 0xA35 JUMP JUMPDEST SWAP2 SWAP1 DUP3 MLOAD SWAP3 PUSH1 0x40 SWAP4 DUP5 DUP2 LT ISZERO PUSH2 0x31B3 JUMPI JUMPDEST POP POP POP POP POP JUMP JUMPDEST DUP2 DUP6 SWAP2 DUP2 ADD SUB SLT PUSH2 0x1D8 JUMPI PUSH2 0x325F PUSH32 0xAC11AE47DBB7C28BC4E0C09F664F0B8CBDDA8D77259BAB0EB98E0282121371D5 SWAP4 PUSH2 0x3254 PUSH2 0xD36 PUSH2 0x3222 DUP9 PUSH1 0x20 DUP8 ADD MLOAD SWAP7 ADD MLOAD SWAP7 DUP10 MLOAD SWAP3 DUP4 SWAP2 PUSH2 0xD30 PUSH1 0x20 DUP9 MLOAD PUSH2 0x3211 DUP2 DUP4 DUP9 ADD DUP5 DUP14 ADD PUSH2 0xA12 JUMP JUMPDEST DUP6 ADD ADD PUSH1 0x1 SWAP1 PUSH1 0x5F PUSH1 0xF8 SHL DUP2 MSTORE ADD SWAP1 JUMP JUMPDEST PUSH2 0x324F PUSH2 0x322D PUSH2 0x409 JUMP JUMPDEST DUP7 DUP2 MSTORE DUP8 PUSH1 0x20 DUP3 ADD MSTORE TIMESTAMP DUP11 DUP3 ADD MSTORE DUP5 PUSH1 0x60 DUP3 ADD MSTORE PUSH2 0x324A DUP4 PUSH2 0xB3F JUMP JUMPDEST PUSH2 0x308C JUMP JUMPDEST PUSH2 0x315F JUMP JUMPDEST SWAP6 MLOAD SWAP4 DUP5 SWAP4 DUP5 PUSH2 0x317F JUMP JUMPDEST SUB SWAP1 LOG2 CODESIZE DUP1 DUP1 DUP1 DUP1 PUSH2 0x31AC JUMP JUMPDEST DUP1 MLOAD PUSH1 0x60 DUP2 LT ISZERO PUSH2 0x327C JUMPI POP POP POP JUMP JUMPDEST DUP2 PUSH1 0x60 SWAP2 DUP2 ADD SUB SLT PUSH2 0x1D8 JUMPI PUSH1 0x20 SWAP1 DUP2 DUP2 ADD MLOAD PUSH1 0x60 PUSH1 0x40 DUP4 ADD MLOAD SWAP3 ADD MLOAD SWAP4 PUSH1 0x40 MLOAD SWAP4 PUSH2 0x32A7 DUP6 PUSH2 0x393 JUMP JUMPDEST DUP3 DUP6 MSTORE DUP1 DUP6 ADD SWAP1 DUP5 DUP3 MSTORE PUSH1 0x4 PUSH1 0x40 DUP8 ADD SWAP7 DUP9 DUP9 MSTORE PUSH1 0x60 DUP2 ADD TIMESTAMP DUP2 MSTORE PUSH1 0x80 DUP3 ADD SWAP5 DUP7 DUP7 MSTORE PUSH2 0x32D3 DUP8 PUSH2 0xB19 JUMP JUMPDEST SWAP3 MLOAD DUP4 SSTORE MLOAD SWAP9 PUSH1 0x1 SWAP10 DUP11 DUP5 ADD SSTORE MLOAD PUSH1 0x2 DUP4 ADD SSTORE MLOAD PUSH1 0x3 DUP3 ADD SSTORE ADD SWAP2 MLOAD SWAP6 DUP7 MLOAD SWAP2 PUSH1 0x1 PUSH1 0x1 PUSH1 0x40 SHL SUB DUP4 GT PUSH2 0x38E JUMPI PUSH2 0x330F DUP4 PUSH2 0x1AD4 DUP7 SLOAD PUSH2 0x746 JUMP JUMPDEST DUP1 PUSH1 0x1F DUP5 GT PUSH1 0x1 EQ PUSH2 0x3392 JUMPI POP SWAP2 DUP1 DUP1 PUSH2 0x3369 SWAP6 SWAP4 PUSH2 0x2F9D SWAP8 SWAP6 PUSH32 0xC6D4535F78DDC5DCA36D9AD48BC2C0FC3C4EA53F47B8C3F3467D91F3AD2B275E SWAP12 PUSH1 0x0 SWAP5 PUSH2 0x3387 JUMPI JUMPDEST POP POP SHL SWAP2 PUSH1 0x0 NOT SWAP1 PUSH1 0x3 SHL SHR NOT AND OR SWAP1 SSTORE PUSH2 0x315F JUMP JUMPDEST SWAP5 PUSH1 0x40 MLOAD SWAP4 DUP5 SWAP4 DUP5 PUSH1 0x40 SWAP2 SWAP5 SWAP4 SWAP3 PUSH1 0x60 DUP3 ADD SWAP6 DUP3 MSTORE PUSH1 0x20 DUP3 ADD MSTORE ADD MSTORE JUMP JUMPDEST ADD MLOAD SWAP3 POP CODESIZE DUP1 PUSH2 0x3353 JUMP JUMPDEST SWAP2 SWAP4 SWAP5 SWAP6 SWAP7 SWAP8 PUSH1 0x1F NOT DUP5 AND PUSH2 0x33AC DUP8 PUSH1 0x0 MSTORE PUSH1 0x20 PUSH1 0x0 KECCAK256 SWAP1 JUMP JUMPDEST SWAP4 PUSH1 0x0 SWAP1 JUMPDEST DUP3 DUP3 LT PUSH2 0x3418 JUMPI POP POP SWAP3 PUSH2 0x3369 SWAP6 SWAP3 DUP6 SWAP3 PUSH32 0xC6D4535F78DDC5DCA36D9AD48BC2C0FC3C4EA53F47B8C3F3467D91F3AD2B275E SWAP12 SWAP11 SWAP10 SWAP7 PUSH2 0x2F9D SWAP10 SWAP7 LT PUSH2 0x33FF JUMPI JUMPDEST POP POP POP DUP2 SHL ADD SWAP1 SSTORE PUSH2 0x315F JUMP JUMPDEST ADD MLOAD PUSH1 0x0 NOT PUSH1 0xF8 DUP5 PUSH1 0x3 SHL AND SHR NOT AND SWAP1 SSTORE CODESIZE DUP1 DUP1 PUSH2 0x33F2 JUMP JUMPDEST DUP1 DUP9 DUP7 SWAP8 DUP3 SWAP5 SWAP8 DUP8 ADD MLOAD DUP2 SSTORE ADD SWAP7 ADD SWAP5 ADD SWAP1 PUSH2 0x33B1 JUMP JUMPDEST SWAP1 PUSH1 0x40 MLOAD PUSH2 0x343C DUP2 PUSH2 0x373 JUMP JUMPDEST PUSH1 0x60 PUSH2 0x3463 PUSH1 0x3 DUP4 SWAP6 DUP1 SLOAD DUP6 MSTORE PUSH1 0x1 DUP2 ADD SLOAD PUSH1 0x20 DUP7 ADD MSTORE PUSH1 0x2 DUP2 ADD SLOAD PUSH1 0x40 DUP7 ADD MSTORE ADD PUSH2 0x96E JUMP JUMPDEST SWAP2 ADD MSTORE JUMP JUMPDEST SWAP1 PUSH2 0xFA0 SWAP2 DUP3 DUP2 MUL SWAP3 DUP2 DUP5 SDIV EQ SWAP1 ISZERO OR ISZERO PUSH2 0x19B7 JUMPI JUMP JUMPDEST SWAP1 PUSH2 0x1770 SWAP2 DUP3 DUP2 MUL SWAP3 DUP2 DUP5 SDIV EQ SWAP1 ISZERO OR ISZERO PUSH2 0x19B7 JUMPI JUMP JUMPDEST SWAP2 SWAP1 SWAP2 PUSH1 0x0 DUP4 DUP3 ADD SWAP4 DUP5 SLT SWAP2 SLT SWAP1 DUP1 ISZERO DUP3 AND SWAP2 ISZERO AND OR PUSH2 0x19B7 JUMPI JUMP INVALID LOG2 PUSH5 0x6970667358 0x22 SLT KECCAK256 0xEE SWAP11 MULMOD SHL DUP7 SWAP1 SWAP5 CHAINID 0xD2 SHR PUSH1 0xCE 0xCA PUSH22 0xC4488FA996E755045AF7318144F49253790564736F6C PUSH4 0x43000814 STOP CALLER "},"methodIdentifiers":{"acceptOwnership()":"79ba5097","authorizedCallers(address)":"536fff6c","dataRequests(bytes32)":"28e7d709","donId()":"8dbe7b9d","gasLimit()":"f68016b7","getAggregatedSentiment(string)":"562921ec","getMarketData(string)":"eadbfb99","getSentimentData(string,string)":"63b4f760","handleOracleFulfillment(bytes32,bytes,bytes)":"0ca76175","marketData(string)":"4352433b","marketDataSource()":"54d5430c","newsSentimentSource()":"5bdadb9b","owner()":"8da5cb5b","requestMarketData(string[])":"f26cb841","requestNewsSentiment(string[])":"06a36b3e","requestTwitterSentiment(string[])":"73de930d","sentimentData(string)":"8d4dd402","setAuthorizedCaller(address,bool)":"454bbd29","subscriptionId()":"09c1ba2e","transferOwnership(address)":"f2fde38b","twitterSentimentSource()":"8bf09046","updateSourceCode(string,string)":"28d788e1","updateSubscription(uint64,uint32)":"1b728f92"}}}}}