{"contracts/chainlink/SwarmCCIP.sol":{"SwarmCCIP":{"abi":[{"inputs":[{"internalType":"address","name":"_router","type":"address"},{"internalType":"address","name":"_bridgeToken","type":"address"},{"internalType":"address","name":"_liquidityPool","type":"address"}],"stateMutability":"nonpayable","type":"constructor"},{"inputs":[],"name":"EnforcedPause","type":"error"},{"inputs":[],"name":"ExpectedPause","type":"error"},{"inputs":[],"name":"InsufficientLiquidity","type":"error"},{"inputs":[],"name":"InvalidBridgeAmount","type":"error"},{"inputs":[{"internalType":"address","name":"router","type":"address"}],"name":"InvalidRouter","type":"error"},{"inputs":[],"name":"ReentrancyGuardReentrantCall","type":"error"},{"inputs":[],"name":"UnauthorizedAgent","type":"error"},{"inputs":[{"internalType":"uint64","name":"chainSelector","type":"uint64"}],"name":"UnsupportedChain","type":"error"},{"anonymous":false,"inputs":[{"indexed":true,"internalType":"uint256","name":"localMarketId","type":"uint256"},{"indexed":true,"internalType":"uint256","name":"remoteMarketId","type":"uint256"},{"indexed":true,"internalType":"uint64","name":"remoteChain","type":"uint64"}],"name":"CrossChainMarketCreated","type":"event"},{"anonymous":false,"inputs":[{"indexed":true,"internalType":"bytes32","name":"messageId","type":"bytes32"},{"indexed":true,"internalType":"uint64","name":"sourceChain","type":"uint64"},{"indexed":false,"internalType":"enum SwarmCCIP.MessageType","name":"messageType","type":"uint8"}],"name":"CrossChainMessageReceived","type":"event"},{"anonymous":false,"inputs":[{"indexed":true,"internalType":"bytes32","name":"messageId","type":"bytes32"},{"indexed":true,"internalType":"uint64","name":"destinationChain","type":"uint64"},{"indexed":false,"internalType":"enum SwarmCCIP.MessageType","name":"messageType","type":"uint8"}],"name":"CrossChainMessageSent","type":"event"},{"anonymous":false,"inputs":[{"indexed":true,"internalType":"bytes32","name":"bridgeId","type":"bytes32"},{"indexed":true,"internalType":"address","name":"user","type":"address"},{"indexed":false,"internalType":"uint256","name":"amount","type":"uint256"}],"name":"LiquidityBridgeCompleted","type":"event"},{"anonymous":false,"inputs":[{"indexed":true,"internalType":"bytes32","name":"bridgeId","type":"bytes32"},{"indexed":true,"internalType":"address","name":"user","type":"address"},{"indexed":false,"internalType":"uint256","name":"amount","type":"uint256"},{"indexed":false,"internalType":"uint64","name":"sourceChain","type":"uint64"},{"indexed":false,"internalType":"uint64","name":"destinationChain","type":"uint64"}],"name":"LiquidityBridgeInitiated","type":"event"},{"anonymous":false,"inputs":[{"indexed":true,"internalType":"address","name":"from","type":"address"},{"indexed":true,"internalType":"address","name":"to","type":"address"}],"name":"OwnershipTransferRequested","type":"event"},{"anonymous":false,"inputs":[{"indexed":true,"internalType":"address","name":"from","type":"address"},{"indexed":true,"internalType":"address","name":"to","type":"address"}],"name":"OwnershipTransferred","type":"event"},{"anonymous":false,"inputs":[{"indexed":false,"internalType":"address","name":"account","type":"address"}],"name":"Paused","type":"event"},{"anonymous":false,"inputs":[{"indexed":false,"internalType":"address","name":"account","type":"address"}],"name":"Unpaused","type":"event"},{"inputs":[],"name":"acceptOwnership","outputs":[],"stateMutability":"nonpayable","type":"function"},{"inputs":[{"internalType":"uint64","name":"_chainSelector","type":"uint64"},{"internalType":"address","name":"_contractAddress","type":"address"}],"name":"addSupportedChain","outputs":[],"stateMutability":"nonpayable","type":"function"},{"inputs":[{"internalType":"address","name":"","type":"address"}],"name":"authorizedAgents","outputs":[{"internalType":"bool","name":"","type":"bool"}],"stateMutability":"view","type":"function"},{"inputs":[],"name":"bridgeFee","outputs":[{"internalType":"uint256","name":"","type":"uint256"}],"stateMutability":"view","type":"function"},{"inputs":[{"internalType":"uint256","name":"_amount","type":"uint256"},{"internalType":"uint64","name":"_destinationChain","type":"uint64"},{"internalType":"address","name":"_receiver","type":"address"}],"name":"bridgeLiquidity","outputs":[{"internalType":"bytes32","name":"bridgeId","type":"bytes32"}],"stateMutability":"payable","type":"function"},{"inputs":[],"name":"bridgeToken","outputs":[{"internalType":"contract IERC20","name":"","type":"address"}],"stateMutability":"view","type":"function"},{"inputs":[{"internalType":"uint64","name":"_destinationChain","type":"uint64"},{"internalType":"bytes","name":"_data","type":"bytes"}],"name":"calculateCCIPFee","outputs":[{"internalType":"uint256","name":"fee","type":"uint256"}],"stateMutability":"view","type":"function"},{"inputs":[{"components":[{"internalType":"bytes32","name":"messageId","type":"bytes32"},{"internalType":"uint64","name":"sourceChainSelector","type":"uint64"},{"internalType":"bytes","name":"sender","type":"bytes"},{"internalType":"bytes","name":"data","type":"bytes"},{"components":[{"internalType":"address","name":"token","type":"address"},{"internalType":"uint256","name":"amount","type":"uint256"}],"internalType":"struct Client.EVMTokenAmount[]","name":"destTokenAmounts","type":"tuple[]"}],"internalType":"struct Client.Any2EVMMessage","name":"message","type":"tuple"}],"name":"ccipReceive","outputs":[],"stateMutability":"nonpayable","type":"function"},{"inputs":[{"internalType":"uint64","name":"","type":"uint64"}],"name":"chainContracts","outputs":[{"internalType":"address","name":"","type":"address"}],"stateMutability":"view","type":"function"},{"inputs":[{"internalType":"uint256","name":"_localMarketId","type":"uint256"},{"internalType":"uint256","name":"_remoteMarketId","type":"uint256"},{"internalType":"uint64","name":"_remoteChainSelector","type":"uint64"}],"name":"createCrossChainMarket","outputs":[],"stateMutability":"nonpayable","type":"function"},{"inputs":[{"internalType":"uint256","name":"","type":"uint256"}],"name":"crossChainMarkets","outputs":[{"internalType":"uint256","name":"localMarketId","type":"uint256"},{"internalType":"uint256","name":"remoteMarketId","type":"uint256"},{"internalType":"uint64","name":"remoteChainSelector","type":"uint64"},{"internalType":"address","name":"remoteContract","type":"address"},{"internalType":"uint256","name":"totalLiquidity","type":"uint256"},{"internalType":"bool","name":"active","type":"bool"}],"stateMutability":"view","type":"function"},{"inputs":[{"internalType":"uint256","name":"_marketId","type":"uint256"}],"name":"getCrossChainMarket","outputs":[{"components":[{"internalType":"uint256","name":"localMarketId","type":"uint256"},{"internalType":"uint256","name":"remoteMarketId","type":"uint256"},{"internalType":"uint64","name":"remoteChainSelector","type":"uint64"},{"internalType":"address","name":"remoteContract","type":"address"},{"internalType":"uint256","name":"totalLiquidity","type":"uint256"},{"internalType":"bool","name":"active","type":"bool"}],"internalType":"struct SwarmCCIP.CrossChainMarket","name":"","type":"tuple"}],"stateMutability":"view","type":"function"},{"inputs":[{"internalType":"bytes32","name":"_bridgeId","type":"bytes32"}],"name":"getLiquidityBridge","outputs":[{"components":[{"internalType":"address","name":"user","type":"address"},{"internalType":"uint256","name":"amount","type":"uint256"},{"internalType":"uint64","name":"sourceChain","type":"uint64"},{"internalType":"uint64","name":"destinationChain","type":"uint64"},{"internalType":"uint256","name":"timestamp","type":"uint256"},{"internalType":"bool","name":"completed","type":"bool"}],"internalType":"struct SwarmCCIP.LiquidityBridge","name":"","type":"tuple"}],"stateMutability":"view","type":"function"},{"inputs":[],"name":"getRouter","outputs":[{"internalType":"address","name":"","type":"address"}],"stateMutability":"view","type":"function"},{"inputs":[{"internalType":"bytes32","name":"","type":"bytes32"}],"name":"liquidityBridges","outputs":[{"internalType":"address","name":"user","type":"address"},{"internalType":"uint256","name":"amount","type":"uint256"},{"internalType":"uint64","name":"sourceChain","type":"uint64"},{"internalType":"uint64","name":"destinationChain","type":"uint64"},{"internalType":"uint256","name":"timestamp","type":"uint256"},{"internalType":"bool","name":"completed","type":"bool"}],"stateMutability":"view","type":"function"},{"inputs":[],"name":"liquidityPool","outputs":[{"internalType":"address","name":"","type":"address"}],"stateMutability":"view","type":"function"},{"inputs":[],"name":"nextBridgeId","outputs":[{"internalType":"uint256","name":"","type":"uint256"}],"stateMutability":"view","type":"function"},{"inputs":[],"name":"owner","outputs":[{"internalType":"address","name":"","type":"address"}],"stateMutability":"view","type":"function"},{"inputs":[],"name":"pause","outputs":[],"stateMutability":"nonpayable","type":"function"},{"inputs":[],"name":"paused","outputs":[{"internalType":"bool","name":"","type":"bool"}],"stateMutability":"view","type":"function"},{"inputs":[{"internalType":"uint64","name":"_chainSelector","type":"uint64"}],"name":"removeSupportedChain","outputs":[],"stateMutability":"nonpayable","type":"function"},{"inputs":[{"internalType":"uint64","name":"_destinationChain","type":"uint64"},{"internalType":"uint256","name":"_marketId","type":"uint256"},{"internalType":"bytes","name":"_coordinationData","type":"bytes"}],"name":"sendAgentCoordination","outputs":[],"stateMutability":"payable","type":"function"},{"inputs":[{"internalType":"address","name":"_agent","type":"address"},{"internalType":"bool","name":"_authorized","type":"bool"}],"name":"setAuthorizedAgent","outputs":[],"stateMutability":"nonpayable","type":"function"},{"inputs":[{"internalType":"uint256","name":"_fee","type":"uint256"}],"name":"setBridgeFee","outputs":[],"stateMutability":"nonpayable","type":"function"},{"inputs":[{"internalType":"address","name":"_pool","type":"address"}],"name":"setLiquidityPool","outputs":[],"stateMutability":"nonpayable","type":"function"},{"inputs":[{"internalType":"uint64","name":"","type":"uint64"}],"name":"supportedChains","outputs":[{"internalType":"bool","name":"","type":"bool"}],"stateMutability":"view","type":"function"},{"inputs":[{"internalType":"bytes4","name":"interfaceId","type":"bytes4"}],"name":"supportsInterface","outputs":[{"internalType":"bool","name":"","type":"bool"}],"stateMutability":"view","type":"function"},{"inputs":[{"internalType":"uint256","name":"_marketId","type":"uint256"},{"internalType":"uint64","name":"_destinationChain","type":"uint64"},{"internalType":"bytes","name":"_marketData","type":"bytes"}],"name":"syncMarketData","outputs":[],"stateMutability":"payable","type":"function"},{"inputs":[{"internalType":"uint256","name":"_marketId","type":"uint256"},{"internalType":"uint64","name":"_destinationChain","type":"uint64"},{"internalType":"bool","name":"_outcome","type":"bool"},{"internalType":"bytes","name":"_resolutionData","type":"bytes"}],"name":"syncMarketResolution","outputs":[],"stateMutability":"payable","type":"function"},{"inputs":[{"internalType":"address","name":"to","type":"address"}],"name":"transferOwnership","outputs":[],"stateMutability":"nonpayable","type":"function"},{"inputs":[],"name":"unpause","outputs":[],"stateMutability":"nonpayable","type":"function"},{"inputs":[],"name":"withdrawNative","outputs":[],"stateMutability":"nonpayable","type":"function"},{"inputs":[{"internalType":"address","name":"token","type":"address"},{"internalType":"uint256","name":"amount","type":"uint256"}],"name":"withdrawTokens","outputs":[],"stateMutability":"nonpayable","type":"function"},{"stateMutability":"payable","type":"receive"}],"evm":{"bytecode":{"linkReferences":{},"object":"60a0346200015e57601f6200224338819003918201601f19168301916001600160401b0383118484101762000163578084926060946040528339810103126200015e576200004d8162000179565b620000696040620000616020850162000179565b930162000179565b6001600160a01b0391808316156200014557608052331562000100578160018060a01b03199333856000541617600055600160025560016009556103e8600a551683600c541617600c551690600b541617600b556040516120b490816200018f82396080518181816105f90152818161092301528181610aea01528181610c8c01528181610d9101528181610fba01526117880152f35b60405162461bcd60e51b815260206004820152601860248201527f43616e6e6f7420736574206f776e657220746f207a65726f00000000000000006044820152606490fd5b6040516335fdcccd60e21b815260006004820152602490fd5b600080fd5b634e487b7160e01b600052604160045260246000fd5b51906001600160a01b03821682036200015e5756fe6080604052600436101561001b575b361561001957600080fd5b005b6000803560e01c80630187702014611bc257806301ffc9a714611b6b57806306b091f914611ac05780630e27381114611a675780632806acdc146119ee57806335b15fe9146118905780633f4ba83a1461182557806340470cf6146116885780634d9fb4f61461162e57806350431ce4146115dc5780635c975abb146115b9578063665a11ca1461159057806376a2295c146114d457806379ba50971461143057806382b12dd7146114125780638456cb59146113b757806385572ffb14610f7b5780638cabbc4d14610f055780638da5cb5b14610ede578063998cdf8314610e7e5780639f8d54c414610e07578063a41c8f2b14610cbb578063b0f479a114610c76578063bb7e0bef14610c35578063bc83745a14610b77578063bee13aed146109ee578063c5b0e52a146109d0578063cca2bd14146107c0578063cf363805146102ef578063efd76065146102b0578063f2fde38b146101fa578063f4734b0c146101d15763f9c3f33214610192575061000e565b346101ce5760203660031901126101ce5760ff60406020926001600160401b036101ba611c1d565b168152600884522054166040519015158152f35b80fd5b50346101ce57806003193601126101ce57600c546040516001600160a01b039091168152602090f35b50346101ce5760203660031901126101ce57610214611c02565b61021c611d4e565b6001600160a01b039081169033821461026b57600180546001600160a01b031916831790558254167fed8889f560326eb138920d842192f0eb3dd22b4f139c87a2c57538e05bae12788380a380f35b60405162461bcd60e51b815260206004820152601760248201527f43616e6e6f74207472616e7366657220746f2073656c660000000000000000006044820152606490fd5b50346101ce5760203660031901126101ce5760209060ff906040906001600160a01b036102db611c02565b168152600784522054166040519015158152f35b5060603660031901126101ce57610304611c33565b604435906001600160a01b03821682036107bc5760028054146107aa576002805561032d611f0d565b6001600160401b0381168352600860205261034e60ff604085205416611da0565b600435156107745782602060018060a01b03600c54166064604051809481936323b872dd60e01b835233600484015230602484015260043560448401525af180156106f45761073b575b50600a54806004350290600435820403610727576004356127108204810311610727576009546000198114610713576001810160095560405160208101913360601b835260043560348301524260548301526074820152607481526103fc81611c7a565b519020926104e761040b611f81565b60046040519161041a83611c49565b3383526020830190612710870483350382526001600160401b03604085019116815260608401906001600160401b0389168252608085019142835260a08601938c85528b8d52600660205260408d209660018060a01b039051166001600160601b0360a01b8854161787555160018701556001600160401b03600287019251166fffffffffffffffff00000000000000008354925160401b16916fffffffffffffffffffffffffffffffff19161717905551600384015551151591019060ff801983541691151516179055565b6001600160401b0383168552600460205261271060018060a01b03604087205416926040519360208501526020845261051f84611c95565b6040519286602085015260018060a01b03166040840152046004350360608201526060815260808101908082106001600160401b038311176106ff5791816105976105f494602094604052600160a0820152604060c082015261058560e0820182611e1c565b03609f1981018352607f190182611ccb565b604051906105a482611cb0565b878252604051926105b484611c7a565b83528383015260408201528560608201526040516105d181611cb0565b8681526080820152604051809381926396f4e9f960e01b83528660048401611e41565b0381347f00000000000000000000000000000000000000000000000000000000000000006001600160a01b03165af19081156106f45784916106ba575b506020935061063e611f81565b6001600160401b0360405191600435835216858201526001600160401b0383166040820152837f185224fc677a05b639d8ae5c9cf61ae45b7f8d0d49c1b13a0bca6cfb636d640360603393a360008051602061205f833981519152846001600160401b0360405194600186521693a36001600255604051908152f35b90506020813d6020116106ec575b816106d560209383611ccb565b810103126106e857602093505138610631565b8380fd5b3d91506106c8565b6040513d86823e3d90fd5b634e487b7160e01b86526041600452602486fd5b634e487b7160e01b85526011600452602485fd5b634e487b7160e01b84526011600452602484fd5b6020813d60201161076c575b8161075460209383611ccb565b810103126106e85761076590611dec565b5038610398565b3d9150610747565b60405162461bcd60e51b815260206004820152600e60248201526d125b9d985b1a5908185b5bdd5b9d60921b6044820152606490fd5b604051633ee5aeb560e01b8152600490fd5b8280fd5b5060603660031901126101ce576107d5611c33565b6001600160401b036044358181116106e8576107f5903690600401611d07565b903384526020906007825260ff60408620541615806109bc575b6109ab5761091d9282918516948587526008835261083360ff604089205416611da0565b8587526004835260018060a01b03906108b36108bf6108848460408c20541695604051968888015287875261086787611c95565b6040519182916004358a8401526040808401526060830190611e1c565b0390610898601f1992838101835282611ccb565b6040519384918d8a8401526040808401526060830190611e1c565b03908101835282611ccb565b604051906108cc82611cb0565b898252604051946108dc86611c7a565b85528585015260408401528760608401526040516108f981611cb0565b88815260808401526040518096819482936396f4e9f960e01b845260048401611e41565b039134907f0000000000000000000000000000000000000000000000000000000000000000165af19182156106f457849261096e575b5060008051602061205f83398151915290604051858152a380f35b9080925081813d83116109a4575b6109868183611ccb565b810103126106e857519060008051602061205f833981519152610953565b503d61097c565b604051624b0ebd60e41b8152600490fd5b5084546001600160a01b031633141561080f565b50346101ce57806003193601126101ce576020600954604051908152f35b5060803660031901126101ce57610a03611c33565b604435908115158092036107bc57606435906001600160401b0390818311610b7357610a36610ae4933690600401611d07565b91610a3f611d4e565b811693848652602092839260088452610a5e60ff60408a205416611da0565b868852600484526108b36108bf60018060a01b03938460408c205416956040519688880152878752610a8f87611c95565b610ab46040519283926004358b85015260408401526060808401526080830190611e1c565b0390610ac8601f1992838101835282611ccb565b60405193849160038a8401526040808401526060830190611e1c565b039134907f0000000000000000000000000000000000000000000000000000000000000000165af19182156106f4578492610b36575b5060008051602061205f8339815191529060405160038152a380f35b9080925081813d8311610b6c575b610b4e8183611ccb565b810103126106e857519060008051602061205f833981519152610b1a565b503d610b44565b8480fd5b50346101ce5760203660031901126101ce57604060c091610b9661200c565b506004358152600660205220604051610bae81611c49565b60018060a01b0382541691828252600181015460208301908152600282015460408401916001600160401b03928391828416825282606088019460401c16845260a060ff600460038901549860808b01998a5201541697019615158752604051978852516020880152511660408601525116606084015251608083015251151560a0820152f35b50346101ce5760203660031901126101ce576020906001600160401b03610c5a611c1d565b16815260048252604060018060a01b0391205416604051908152f35b50346101ce57806003193601126101ce576040517f00000000000000000000000000000000000000000000000000000000000000006001600160a01b03168152602090f35b50346101ce5760403660031901126101ce57610cd5611c1d565b6001600160401b0391906024358381116107bc5790610cfb610d8d923690600401611d07565b93811683526004602090815260408085205490516001600160a01b03918216818401528281529195869390610d2f84611c95565b60405190610d3c82611cb0565b87825260405194610d4c86611c7a565b8552858501526040840152856060840152604051610d6981611cb0565b86815260808401526040518095819482936320487ded60e01b845260048401611e41565b03917f0000000000000000000000000000000000000000000000000000000000000000165afa918215610dfb578092610dcb575b5050604051908152f35b9091508282813d8311610df4575b610de38183611ccb565b810103126101ce5750513880610dc1565b503d610dd9565b604051903d90823e3d90fd5b50346101ce5760203660031901126101ce57604060c0916004358152600560205220805490600181015490600281015460ff60046003840154930154169260405194855260208501526001600160401b038116604085015260018060a01b039060401c1660608401526080830152151560a0820152f35b50346101ce5760203660031901126101ce57600435610e9b611d4e565b6103e88111610eaa57600a5580f35b60405162461bcd60e51b815260206004820152600c60248201526b08ccaca40e8dede40d0d2ced60a31b6044820152606490fd5b50346101ce57806003193601126101ce57546040516001600160a01b039091168152602090f35b50346101ce5760403660031901126101ce57610f1f611c1d565b6024356001600160a01b03811691908290036107bc576001600160401b0390610f46611d4e565b168252600860205260408220600160ff19825416179055600460205260408220906001600160601b0360a01b82541617905580f35b50346101ce57600319602036820181136107bc57600435916001600160401b0390818411610b735760a09084360301126106e8576001600160a01b03917f00000000000000000000000000000000000000000000000000000000000000008316330361139f5760405193610fee85611c7a565b80600401358552602481013593838516850361139b57828601948552604482013584811161122a576110269060043691850101611d07565b6040870152606482013584811161122a576110479060043691850101611d07565b9460609283880196875260848101359086821161133457013660238201121561121457600481013590868211611387576040519161108a878260051b0184611ccb565b80835260248784019160061b8301019136831161138357906024899594939201905b8282106113385750505060808901525116955194519182518301604084820312611214578484015193600485101561133457604081015191878311611330576110fb9287809201920101611f2b565b946001840361122e5750808580518101031261122a5781848601519161112360408801611f6d565b960151600c5460405163a9059cbb60e01b8152929097166001600160a01b038116600484015260248301829052909690938691839160449183918e91165af1801561121f576111b2575b507ff83ca6ce37015930adb1f5c3ceac970acbec2ce93a501a9bada0606cb257d8088460008051602061203f83398151915296604051908152a35b604051908152a380f35b948486813d8311611218575b6111c88183611ccb565b8101031261121457847ff83ca6ce37015930adb1f5c3ceac970acbec2ce93a501a9bada0606cb257d8089161120b60008051602061203f83398151915298611dec565b5096505061116d565b8880fd5b503d6111be565b6040513d8b823e3d90fd5b8780fd5b9150826112765750835184019360408186031261122a57604081015191821161122a5783611270928160008051602061203f8339815191529701920101611f2b565b506111a8565b93600283036112c357805181019480828703126112145761129960408301611f6d565b5081015191821161122a5783611270928160008051602061203f8339815191529701920101611f2b565b600383146112e4575b505060008051602061203f83398151915292506111a8565b80518101948082870312611214576112fe60408301611dec565b5081015191821161122a5783611328928160008051602061203f8339815191529701920101611f2b565b5038806112cc565b8a80fd5b8980fd5b909192939450604082360312611383576040519061135582611c95565b823590878216820361137f57828a92604094528285013583820152815201910188949392916110ac565b8d80fd5b8b80fd5b634e487b7160e01b8a52604160045260248afd5b8680fd5b6040516335fdcccd60e21b8152336004820152602490fd5b50346101ce57806003193601126101ce576113d0611d4e565b6113d8611f0d565b600160ff1960035416176003557f62e78cea01bee320cd4e420270b5ea74000d11b0c9f74754ebdbfc544b05a2586020604051338152a180f35b50346101ce57806003193601126101ce576020600a54604051908152f35b50346101ce57806003193601126101ce576001546001600160a01b0380821633036114965782546001600160a01b03198082163390811786559316600155167f8be0079c531659141344cd1fd0a4f28419497f9722a3daafe3b4186f6b6457e08380a380f35b60405162461bcd60e51b815260206004820152601660248201527526bab9ba10313290383937b837b9b2b21037bbb732b960511b6044820152606490fd5b50346101ce5760203660031901126101ce57604060c0916114f361200c565b50600435815260056020522060405161150b81611c49565b815491828252600181015460208301908152600282015490604084016001600160401b03908184168152606086019260018060a01b03809560401c16845260a060ff600460038901549860808b01998a5201541697019615158752604051978852516020880152511660408601525116606084015251608083015251151560a0820152f35b50346101ce57806003193601126101ce57600b546040516001600160a01b039091168152602090f35b50346101ce57806003193601126101ce57602060ff600354166040519015158152f35b50346101ce57806003193601126101ce576115f5611d4e565b80478015908115611604575050f35b82809291819260018060a01b03835416908390611625575bf115610dfb5780f35b506108fc61161c565b50346101ce5760203660031901126101ce576001600160401b03611650611c1d565b611658611d4e565b16815260086020526040812060ff1981541690556004602052604081206001600160601b0360a01b815416905580f35b5060603660031901126101ce5761169d611c1d565b6001600160401b036044358181116106e8576116bd903690600401611d07565b903384526020906007825260ff6040862054161580611811575b6109ab57611782928291851694858752600883526116fb60ff604089205416611da0565b8587526004835260018060a01b03906108b36108bf6117528460408c20541695604051968888015287875261172f87611c95565b6040519182916024358a8401523360408401526060808401526080830190611e1c565b0390611766601f1992838101835282611ccb565b60405193849160028a8401526040808401526060830190611e1c565b039134907f0000000000000000000000000000000000000000000000000000000000000000165af19182156106f45784926117d4575b5060008051602061205f8339815191529060405160028152a380f35b9080925081813d831161180a575b6117ec8183611ccb565b810103126106e857519060008051602061205f8339815191526117b8565b503d6117e2565b5084546001600160a01b03163314156116d7565b50346101ce57806003193601126101ce5761183e611d4e565b60035460ff81161561187e5760ff19166003557f5db9ee0a495bf2e6ff9c91a7834c1ba4fdd244a5e8aa4e537bd38aeae4b073aa6020604051338152a180f35b604051638dfc202b60e01b8152600490fd5b50346101ce5760603660031901126101ce57600435602435604435916001600160401b03808416809403610b73576118c6611d4e565b838552600860205260ff604086205416156119b55761198e908486526004602052600460018060a01b036040882054166040519261190384611c49565b858452602084019187835260408501908982526060860190815260808601928b845260a087019460018652898d52600560205260408d20975188555160018801556002870192511682549168010000000000000000600160e01b03905160401b169163ffffffff60e01b161717905551600384015551151591019060ff801983541691151516179055565b7f234d3db26fed7bbbdfff632c5d34cbc68dbd81e413bbb85c7dfcba057fc377ee8480a480f35b60405162461bcd60e51b81526020600482015260116024820152702ab739bab83837b93a32b21031b430b4b760791b6044820152606490fd5b50346101ce5760203660031901126101ce57604060c091600435815260066020522060018060a01b0381541690600181015490600281015460ff60046003840154930154169260405194855260208501526001600160401b0390818116604086015260401c1660608401526080830152151560a0820152f35b50346101ce5760403660031901126101ce57611a81611c02565b60243580151581036107bc57611abd91611a99611d4e565b60018060a01b031683526007602052604083209060ff801983541691151516179055565b80f35b50346101ce5760403660031901126101ce57611ada611c02565b611ae2611d4e565b815460405163a9059cbb60e01b81526001600160a01b039182166004820152602480359082015291602091839160449183918791165af18015611b6057611b27575080f35b6020813d8211611b58575b81611b3f60209383611ccb565b81010312611b5457611b5090611dec565b5080f35b5080fd5b3d9150611b32565b6040513d84823e3d90fd5b50346101ce5760203660031901126101ce5760043563ffffffff60e01b8116809103611b54576020906385572ffb60e01b8114908115611bb1575b506040519015158152f35b6301ffc9a760e01b14905082611ba6565b50346101ce5760203660031901126101ce57611bdc611c02565b611be4611d4e565b60018060a01b03166001600160601b0360a01b600b541617600b5580f35b600435906001600160a01b0382168203611c1857565b600080fd5b600435906001600160401b0382168203611c1857565b602435906001600160401b0382168203611c1857565b60c081019081106001600160401b03821117611c6457604052565b634e487b7160e01b600052604160045260246000fd5b60a081019081106001600160401b03821117611c6457604052565b604081019081106001600160401b03821117611c6457604052565b602081019081106001600160401b03821117611c6457604052565b90601f801991011681019081106001600160401b03821117611c6457604052565b6001600160401b038111611c6457601f01601f191660200190565b81601f82011215611c1857803590611d1e82611cec565b92611d2c6040519485611ccb565b82845260208383010111611c1857816000926020809301838601378301015290565b6000546001600160a01b03163303611d6257565b60405162461bcd60e51b815260206004820152601660248201527527b7363c9031b0b63630b1363290313c9037bbb732b960511b6044820152606490fd5b15611da757565b60405162461bcd60e51b815260206004820152601d60248201527f556e737570706f727465642064657374696e6174696f6e20636861696e0000006044820152606490fd5b51908115158203611c1857565b60005b838110611e0c5750506000910152565b8181015183820152602001611dfc565b90602091611e3581518092818552858086019101611df9565b601f01601f1916010190565b906001600160401b039093929316815260406020918183820152611e70855160a08484015260e0830190611e1c565b91611e8c8487015193603f199485858303016060860152611e1c565b8187015194848483030160808501528080875193848152019601926000905b838210611ee457505050505060c06080611ee1959660018060a01b0360608201511660a085015201519282850301910152611e1c565b90565b845180516001600160a01b03168952830151888401529687019693820193600190910190611eab565b60ff60035416611f1957565b60405163d93c066560e01b8152600490fd5b81601f82011215611c18578051611f4181611cec565b92611f4f6040519485611ccb565b81845260208284010111611c1857611ee19160208085019101611df9565b51906001600160a01b0382168203611c1857565b600146146120005760894614611ff45761a4b14614611fe8576121054614611fdc5760405162461bcd60e51b81526020600482015260116024820152702ab739bab83837b93a32b21031b430b4b760791b6044820152606490fd5b67dda641cfe44aff8290565b6744ae84d8e9a3744490565b67383a1891ae1915b190565b6745849994fc9c7b1590565b6040519061201982611c49565b8160a0600091828152826020820152826040820152826060820152826080820152015256fe901b403ab0909e51cb85821b4de92dda945a3e48e52c060e497183ba93bddf3d9610c33dd46997791cd189364199f822e124a5a9f7ede626d811498298caa5fda26469706673582212205bf50f3b7f792272b83f70365a89b20fcef54e14df268dc44d1835599a918fe364736f6c63430008140033","opcodes":"PUSH1 0xA0 CALLVALUE PUSH3 0x15E JUMPI PUSH1 0x1F PUSH3 0x2243 CODESIZE DUP2 SWAP1 SUB SWAP2 DUP3 ADD PUSH1 0x1F NOT AND DUP4 ADD SWAP2 PUSH1 0x1 PUSH1 0x1 PUSH1 0x40 SHL SUB DUP4 GT DUP5 DUP5 LT OR PUSH3 0x163 JUMPI DUP1 DUP5 SWAP3 PUSH1 0x60 SWAP5 PUSH1 0x40 MSTORE DUP4 CODECOPY DUP2 ADD SUB SLT PUSH3 0x15E JUMPI PUSH3 0x4D DUP2 PUSH3 0x179 JUMP JUMPDEST PUSH3 0x69 PUSH1 0x40 PUSH3 0x61 PUSH1 0x20 DUP6 ADD PUSH3 0x179 JUMP JUMPDEST SWAP4 ADD PUSH3 0x179 JUMP JUMPDEST PUSH1 0x1 PUSH1 0x1 PUSH1 0xA0 SHL SUB SWAP2 DUP1 DUP4 AND ISZERO PUSH3 0x145 JUMPI PUSH1 0x80 MSTORE CALLER ISZERO PUSH3 0x100 JUMPI DUP2 PUSH1 0x1 DUP1 PUSH1 0xA0 SHL SUB NOT SWAP4 CALLER DUP6 PUSH1 0x0 SLOAD AND OR PUSH1 0x0 SSTORE PUSH1 0x1 PUSH1 0x2 SSTORE PUSH1 0x1 PUSH1 0x9 SSTORE PUSH2 0x3E8 PUSH1 0xA SSTORE AND DUP4 PUSH1 0xC SLOAD AND OR PUSH1 0xC SSTORE AND SWAP1 PUSH1 0xB SLOAD AND OR PUSH1 0xB SSTORE PUSH1 0x40 MLOAD PUSH2 0x20B4 SWAP1 DUP2 PUSH3 0x18F DUP3 CODECOPY PUSH1 0x80 MLOAD DUP2 DUP2 DUP2 PUSH2 0x5F9 ADD MSTORE DUP2 DUP2 PUSH2 0x923 ADD MSTORE DUP2 DUP2 PUSH2 0xAEA ADD MSTORE DUP2 DUP2 PUSH2 0xC8C ADD MSTORE DUP2 DUP2 PUSH2 0xD91 ADD MSTORE DUP2 DUP2 PUSH2 0xFBA ADD MSTORE PUSH2 0x1788 ADD MSTORE RETURN JUMPDEST PUSH1 0x40 MLOAD PUSH3 0x461BCD PUSH1 0xE5 SHL DUP2 MSTORE PUSH1 0x20 PUSH1 0x4 DUP3 ADD MSTORE PUSH1 0x18 PUSH1 0x24 DUP3 ADD MSTORE PUSH32 0x43616E6E6F7420736574206F776E657220746F207A65726F0000000000000000 PUSH1 0x44 DUP3 ADD MSTORE PUSH1 0x64 SWAP1 REVERT JUMPDEST PUSH1 0x40 MLOAD PUSH4 0x35FDCCCD PUSH1 0xE2 SHL DUP2 MSTORE PUSH1 0x0 PUSH1 0x4 DUP3 ADD MSTORE PUSH1 0x24 SWAP1 REVERT JUMPDEST PUSH1 0x0 DUP1 REVERT JUMPDEST PUSH4 0x4E487B71 PUSH1 0xE0 SHL PUSH1 0x0 MSTORE PUSH1 0x41 PUSH1 0x4 MSTORE PUSH1 0x24 PUSH1 0x0 REVERT JUMPDEST MLOAD SWAP1 PUSH1 0x1 PUSH1 0x1 PUSH1 0xA0 SHL SUB DUP3 AND DUP3 SUB PUSH3 0x15E JUMPI JUMP INVALID PUSH1 0x80 PUSH1 0x40 MSTORE PUSH1 0x4 CALLDATASIZE LT ISZERO PUSH2 0x1B JUMPI JUMPDEST CALLDATASIZE ISZERO PUSH2 0x19 JUMPI PUSH1 0x0 DUP1 REVERT JUMPDEST STOP JUMPDEST PUSH1 0x0 DUP1 CALLDATALOAD PUSH1 0xE0 SHR DUP1 PUSH4 0x1877020 EQ PUSH2 0x1BC2 JUMPI DUP1 PUSH4 0x1FFC9A7 EQ PUSH2 0x1B6B JUMPI DUP1 PUSH4 0x6B091F9 EQ PUSH2 0x1AC0 JUMPI DUP1 PUSH4 0xE273811 EQ PUSH2 0x1A67 JUMPI DUP1 PUSH4 0x2806ACDC EQ PUSH2 0x19EE JUMPI DUP1 PUSH4 0x35B15FE9 EQ PUSH2 0x1890 JUMPI DUP1 PUSH4 0x3F4BA83A EQ PUSH2 0x1825 JUMPI DUP1 PUSH4 0x40470CF6 EQ PUSH2 0x1688 JUMPI DUP1 PUSH4 0x4D9FB4F6 EQ PUSH2 0x162E JUMPI DUP1 PUSH4 0x50431CE4 EQ PUSH2 0x15DC JUMPI DUP1 PUSH4 0x5C975ABB EQ PUSH2 0x15B9 JUMPI DUP1 PUSH4 0x665A11CA EQ PUSH2 0x1590 JUMPI DUP1 PUSH4 0x76A2295C EQ PUSH2 0x14D4 JUMPI DUP1 PUSH4 0x79BA5097 EQ PUSH2 0x1430 JUMPI DUP1 PUSH4 0x82B12DD7 EQ PUSH2 0x1412 JUMPI DUP1 PUSH4 0x8456CB59 EQ PUSH2 0x13B7 JUMPI DUP1 PUSH4 0x85572FFB EQ PUSH2 0xF7B JUMPI DUP1 PUSH4 0x8CABBC4D EQ PUSH2 0xF05 JUMPI DUP1 PUSH4 0x8DA5CB5B EQ PUSH2 0xEDE JUMPI DUP1 PUSH4 0x998CDF83 EQ PUSH2 0xE7E JUMPI DUP1 PUSH4 0x9F8D54C4 EQ PUSH2 0xE07 JUMPI DUP1 PUSH4 0xA41C8F2B EQ PUSH2 0xCBB JUMPI DUP1 PUSH4 0xB0F479A1 EQ PUSH2 0xC76 JUMPI DUP1 PUSH4 0xBB7E0BEF EQ PUSH2 0xC35 JUMPI DUP1 PUSH4 0xBC83745A EQ PUSH2 0xB77 JUMPI DUP1 PUSH4 0xBEE13AED EQ PUSH2 0x9EE JUMPI DUP1 PUSH4 0xC5B0E52A EQ PUSH2 0x9D0 JUMPI DUP1 PUSH4 0xCCA2BD14 EQ PUSH2 0x7C0 JUMPI DUP1 PUSH4 0xCF363805 EQ PUSH2 0x2EF JUMPI DUP1 PUSH4 0xEFD76065 EQ PUSH2 0x2B0 JUMPI DUP1 PUSH4 0xF2FDE38B EQ PUSH2 0x1FA JUMPI DUP1 PUSH4 0xF4734B0C EQ PUSH2 0x1D1 JUMPI PUSH4 0xF9C3F332 EQ PUSH2 0x192 JUMPI POP PUSH2 0xE JUMP JUMPDEST CALLVALUE PUSH2 0x1CE JUMPI PUSH1 0x20 CALLDATASIZE PUSH1 0x3 NOT ADD SLT PUSH2 0x1CE JUMPI PUSH1 0xFF PUSH1 0x40 PUSH1 0x20 SWAP3 PUSH1 0x1 PUSH1 0x1 PUSH1 0x40 SHL SUB PUSH2 0x1BA PUSH2 0x1C1D JUMP JUMPDEST AND DUP2 MSTORE PUSH1 0x8 DUP5 MSTORE KECCAK256 SLOAD AND PUSH1 0x40 MLOAD SWAP1 ISZERO ISZERO DUP2 MSTORE RETURN JUMPDEST DUP1 REVERT JUMPDEST POP CALLVALUE PUSH2 0x1CE JUMPI DUP1 PUSH1 0x3 NOT CALLDATASIZE ADD SLT PUSH2 0x1CE JUMPI PUSH1 0xC SLOAD PUSH1 0x40 MLOAD PUSH1 0x1 PUSH1 0x1 PUSH1 0xA0 SHL SUB SWAP1 SWAP2 AND DUP2 MSTORE PUSH1 0x20 SWAP1 RETURN JUMPDEST POP CALLVALUE PUSH2 0x1CE JUMPI PUSH1 0x20 CALLDATASIZE PUSH1 0x3 NOT ADD SLT PUSH2 0x1CE JUMPI PUSH2 0x214 PUSH2 0x1C02 JUMP JUMPDEST PUSH2 0x21C PUSH2 0x1D4E JUMP JUMPDEST PUSH1 0x1 PUSH1 0x1 PUSH1 0xA0 SHL SUB SWAP1 DUP2 AND SWAP1 CALLER DUP3 EQ PUSH2 0x26B JUMPI PUSH1 0x1 DUP1 SLOAD PUSH1 0x1 PUSH1 0x1 PUSH1 0xA0 SHL SUB NOT AND DUP4 OR SWAP1 SSTORE DUP3 SLOAD AND PUSH32 0xED8889F560326EB138920D842192F0EB3DD22B4F139C87A2C57538E05BAE1278 DUP4 DUP1 LOG3 DUP1 RETURN JUMPDEST PUSH1 0x40 MLOAD PUSH3 0x461BCD PUSH1 0xE5 SHL DUP2 MSTORE PUSH1 0x20 PUSH1 0x4 DUP3 ADD MSTORE PUSH1 0x17 PUSH1 0x24 DUP3 ADD MSTORE PUSH32 0x43616E6E6F74207472616E7366657220746F2073656C66000000000000000000 PUSH1 0x44 DUP3 ADD MSTORE PUSH1 0x64 SWAP1 REVERT JUMPDEST POP CALLVALUE PUSH2 0x1CE JUMPI PUSH1 0x20 CALLDATASIZE PUSH1 0x3 NOT ADD SLT PUSH2 0x1CE JUMPI PUSH1 0x20 SWAP1 PUSH1 0xFF SWAP1 PUSH1 0x40 SWAP1 PUSH1 0x1 PUSH1 0x1 PUSH1 0xA0 SHL SUB PUSH2 0x2DB PUSH2 0x1C02 JUMP JUMPDEST AND DUP2 MSTORE PUSH1 0x7 DUP5 MSTORE KECCAK256 SLOAD AND PUSH1 0x40 MLOAD SWAP1 ISZERO ISZERO DUP2 MSTORE RETURN JUMPDEST POP PUSH1 0x60 CALLDATASIZE PUSH1 0x3 NOT ADD SLT PUSH2 0x1CE JUMPI PUSH2 0x304 PUSH2 0x1C33 JUMP JUMPDEST PUSH1 0x44 CALLDATALOAD SWAP1 PUSH1 0x1 PUSH1 0x1 PUSH1 0xA0 SHL SUB DUP3 AND DUP3 SUB PUSH2 0x7BC JUMPI PUSH1 0x2 DUP1 SLOAD EQ PUSH2 0x7AA JUMPI PUSH1 0x2 DUP1 SSTORE PUSH2 0x32D PUSH2 0x1F0D JUMP JUMPDEST PUSH1 0x1 PUSH1 0x1 PUSH1 0x40 SHL SUB DUP2 AND DUP4 MSTORE PUSH1 0x8 PUSH1 0x20 MSTORE PUSH2 0x34E PUSH1 0xFF PUSH1 0x40 DUP6 KECCAK256 SLOAD AND PUSH2 0x1DA0 JUMP JUMPDEST PUSH1 0x4 CALLDATALOAD ISZERO PUSH2 0x774 JUMPI DUP3 PUSH1 0x20 PUSH1 0x1 DUP1 PUSH1 0xA0 SHL SUB PUSH1 0xC SLOAD AND PUSH1 0x64 PUSH1 0x40 MLOAD DUP1 SWAP5 DUP2 SWAP4 PUSH4 0x23B872DD PUSH1 0xE0 SHL DUP4 MSTORE CALLER PUSH1 0x4 DUP5 ADD MSTORE ADDRESS PUSH1 0x24 DUP5 ADD MSTORE PUSH1 0x4 CALLDATALOAD PUSH1 0x44 DUP5 ADD MSTORE GAS CALL DUP1 ISZERO PUSH2 0x6F4 JUMPI PUSH2 0x73B JUMPI JUMPDEST POP PUSH1 0xA SLOAD DUP1 PUSH1 0x4 CALLDATALOAD MUL SWAP1 PUSH1 0x4 CALLDATALOAD DUP3 DIV SUB PUSH2 0x727 JUMPI PUSH1 0x4 CALLDATALOAD PUSH2 0x2710 DUP3 DIV DUP2 SUB GT PUSH2 0x727 JUMPI PUSH1 0x9 SLOAD PUSH1 0x0 NOT DUP2 EQ PUSH2 0x713 JUMPI PUSH1 0x1 DUP2 ADD PUSH1 0x9 SSTORE PUSH1 0x40 MLOAD PUSH1 0x20 DUP2 ADD SWAP2 CALLER PUSH1 0x60 SHL DUP4 MSTORE PUSH1 0x4 CALLDATALOAD PUSH1 0x34 DUP4 ADD MSTORE TIMESTAMP PUSH1 0x54 DUP4 ADD MSTORE PUSH1 0x74 DUP3 ADD MSTORE PUSH1 0x74 DUP2 MSTORE PUSH2 0x3FC DUP2 PUSH2 0x1C7A JUMP JUMPDEST MLOAD SWAP1 KECCAK256 SWAP3 PUSH2 0x4E7 PUSH2 0x40B PUSH2 0x1F81 JUMP JUMPDEST PUSH1 0x4 PUSH1 0x40 MLOAD SWAP2 PUSH2 0x41A DUP4 PUSH2 0x1C49 JUMP JUMPDEST CALLER DUP4 MSTORE PUSH1 0x20 DUP4 ADD SWAP1 PUSH2 0x2710 DUP8 DIV DUP4 CALLDATALOAD SUB DUP3 MSTORE PUSH1 0x1 PUSH1 0x1 PUSH1 0x40 SHL SUB PUSH1 0x40 DUP6 ADD SWAP2 AND DUP2 MSTORE PUSH1 0x60 DUP5 ADD SWAP1 PUSH1 0x1 PUSH1 0x1 PUSH1 0x40 SHL SUB DUP10 AND DUP3 MSTORE PUSH1 0x80 DUP6 ADD SWAP2 TIMESTAMP DUP4 MSTORE PUSH1 0xA0 DUP7 ADD SWAP4 DUP13 DUP6 MSTORE DUP12 DUP14 MSTORE PUSH1 0x6 PUSH1 0x20 MSTORE PUSH1 0x40 DUP14 KECCAK256 SWAP7 PUSH1 0x1 DUP1 PUSH1 0xA0 SHL SUB SWAP1 MLOAD AND PUSH1 0x1 PUSH1 0x1 PUSH1 0x60 SHL SUB PUSH1 0xA0 SHL DUP9 SLOAD AND OR DUP8 SSTORE MLOAD PUSH1 0x1 DUP8 ADD SSTORE PUSH1 0x1 PUSH1 0x1 PUSH1 0x40 SHL SUB PUSH1 0x2 DUP8 ADD SWAP3 MLOAD AND PUSH16 0xFFFFFFFFFFFFFFFF0000000000000000 DUP4 SLOAD SWAP3 MLOAD PUSH1 0x40 SHL AND SWAP2 PUSH16 0xFFFFFFFFFFFFFFFFFFFFFFFFFFFFFFFF NOT AND OR OR SWAP1 SSTORE MLOAD PUSH1 0x3 DUP5 ADD SSTORE MLOAD ISZERO ISZERO SWAP2 ADD SWAP1 PUSH1 0xFF DUP1 NOT DUP4 SLOAD AND SWAP2 ISZERO ISZERO AND OR SWAP1 SSTORE JUMP JUMPDEST PUSH1 0x1 PUSH1 0x1 PUSH1 0x40 SHL SUB DUP4 AND DUP6 MSTORE PUSH1 0x4 PUSH1 0x20 MSTORE PUSH2 0x2710 PUSH1 0x1 DUP1 PUSH1 0xA0 SHL SUB PUSH1 0x40 DUP8 KECCAK256 SLOAD AND SWAP3 PUSH1 0x40 MLOAD SWAP4 PUSH1 0x20 DUP6 ADD MSTORE PUSH1 0x20 DUP5 MSTORE PUSH2 0x51F DUP5 PUSH2 0x1C95 JUMP JUMPDEST PUSH1 0x40 MLOAD SWAP3 DUP7 PUSH1 0x20 DUP6 ADD MSTORE PUSH1 0x1 DUP1 PUSH1 0xA0 SHL SUB AND PUSH1 0x40 DUP5 ADD MSTORE DIV PUSH1 0x4 CALLDATALOAD SUB PUSH1 0x60 DUP3 ADD MSTORE PUSH1 0x60 DUP2 MSTORE PUSH1 0x80 DUP2 ADD SWAP1 DUP1 DUP3 LT PUSH1 0x1 PUSH1 0x1 PUSH1 0x40 SHL SUB DUP4 GT OR PUSH2 0x6FF JUMPI SWAP2 DUP2 PUSH2 0x597 PUSH2 0x5F4 SWAP5 PUSH1 0x20 SWAP5 PUSH1 0x40 MSTORE PUSH1 0x1 PUSH1 0xA0 DUP3 ADD MSTORE PUSH1 0x40 PUSH1 0xC0 DUP3 ADD MSTORE PUSH2 0x585 PUSH1 0xE0 DUP3 ADD DUP3 PUSH2 0x1E1C JUMP JUMPDEST SUB PUSH1 0x9F NOT DUP2 ADD DUP4 MSTORE PUSH1 0x7F NOT ADD DUP3 PUSH2 0x1CCB JUMP JUMPDEST PUSH1 0x40 MLOAD SWAP1 PUSH2 0x5A4 DUP3 PUSH2 0x1CB0 JUMP JUMPDEST DUP8 DUP3 MSTORE PUSH1 0x40 MLOAD SWAP3 PUSH2 0x5B4 DUP5 PUSH2 0x1C7A JUMP JUMPDEST DUP4 MSTORE DUP4 DUP4 ADD MSTORE PUSH1 0x40 DUP3 ADD MSTORE DUP6 PUSH1 0x60 DUP3 ADD MSTORE PUSH1 0x40 MLOAD PUSH2 0x5D1 DUP2 PUSH2 0x1CB0 JUMP JUMPDEST DUP7 DUP2 MSTORE PUSH1 0x80 DUP3 ADD MSTORE PUSH1 0x40 MLOAD DUP1 SWAP4 DUP2 SWAP3 PUSH4 0x96F4E9F9 PUSH1 0xE0 SHL DUP4 MSTORE DUP7 PUSH1 0x4 DUP5 ADD PUSH2 0x1E41 JUMP JUMPDEST SUB DUP2 CALLVALUE PUSH32 0x0 PUSH1 0x1 PUSH1 0x1 PUSH1 0xA0 SHL SUB AND GAS CALL SWAP1 DUP2 ISZERO PUSH2 0x6F4 JUMPI DUP5 SWAP2 PUSH2 0x6BA JUMPI JUMPDEST POP PUSH1 0x20 SWAP4 POP PUSH2 0x63E PUSH2 0x1F81 JUMP JUMPDEST PUSH1 0x1 PUSH1 0x1 PUSH1 0x40 SHL SUB PUSH1 0x40 MLOAD SWAP2 PUSH1 0x4 CALLDATALOAD DUP4 MSTORE AND DUP6 DUP3 ADD MSTORE PUSH1 0x1 PUSH1 0x1 PUSH1 0x40 SHL SUB DUP4 AND PUSH1 0x40 DUP3 ADD MSTORE DUP4 PUSH32 0x185224FC677A05B639D8AE5C9CF61AE45B7F8D0D49C1B13A0BCA6CFB636D6403 PUSH1 0x60 CALLER SWAP4 LOG3 PUSH1 0x0 DUP1 MLOAD PUSH1 0x20 PUSH2 0x205F DUP4 CODECOPY DUP2 MLOAD SWAP2 MSTORE DUP5 PUSH1 0x1 PUSH1 0x1 PUSH1 0x40 SHL SUB PUSH1 0x40 MLOAD SWAP5 PUSH1 0x1 DUP7 MSTORE AND SWAP4 LOG3 PUSH1 0x1 PUSH1 0x2 SSTORE PUSH1 0x40 MLOAD SWAP1 DUP2 MSTORE RETURN JUMPDEST SWAP1 POP PUSH1 0x20 DUP2 RETURNDATASIZE PUSH1 0x20 GT PUSH2 0x6EC JUMPI JUMPDEST DUP2 PUSH2 0x6D5 PUSH1 0x20 SWAP4 DUP4 PUSH2 0x1CCB JUMP JUMPDEST DUP2 ADD SUB SLT PUSH2 0x6E8 JUMPI PUSH1 0x20 SWAP4 POP MLOAD CODESIZE PUSH2 0x631 JUMP JUMPDEST DUP4 DUP1 REVERT JUMPDEST RETURNDATASIZE SWAP2 POP PUSH2 0x6C8 JUMP JUMPDEST PUSH1 0x40 MLOAD RETURNDATASIZE DUP7 DUP3 RETURNDATACOPY RETURNDATASIZE SWAP1 REVERT JUMPDEST PUSH4 0x4E487B71 PUSH1 0xE0 SHL DUP7 MSTORE PUSH1 0x41 PUSH1 0x4 MSTORE PUSH1 0x24 DUP7 REVERT JUMPDEST PUSH4 0x4E487B71 PUSH1 0xE0 SHL DUP6 MSTORE PUSH1 0x11 PUSH1 0x4 MSTORE PUSH1 0x24 DUP6 REVERT JUMPDEST PUSH4 0x4E487B71 PUSH1 0xE0 SHL DUP5 MSTORE PUSH1 0x11 PUSH1 0x4 MSTORE PUSH1 0x24 DUP5 REVERT JUMPDEST PUSH1 0x20 DUP2 RETURNDATASIZE PUSH1 0x20 GT PUSH2 0x76C JUMPI JUMPDEST DUP2 PUSH2 0x754 PUSH1 0x20 SWAP4 DUP4 PUSH2 0x1CCB JUMP JUMPDEST DUP2 ADD SUB SLT PUSH2 0x6E8 JUMPI PUSH2 0x765 SWAP1 PUSH2 0x1DEC JUMP JUMPDEST POP CODESIZE PUSH2 0x398 JUMP JUMPDEST RETURNDATASIZE SWAP2 POP PUSH2 0x747 JUMP JUMPDEST PUSH1 0x40 MLOAD PUSH3 0x461BCD PUSH1 0xE5 SHL DUP2 MSTORE PUSH1 0x20 PUSH1 0x4 DUP3 ADD MSTORE PUSH1 0xE PUSH1 0x24 DUP3 ADD MSTORE PUSH14 0x125B9D985B1A5908185B5BDD5B9D PUSH1 0x92 SHL PUSH1 0x44 DUP3 ADD MSTORE PUSH1 0x64 SWAP1 REVERT JUMPDEST PUSH1 0x40 MLOAD PUSH4 0x3EE5AEB5 PUSH1 0xE0 SHL DUP2 MSTORE PUSH1 0x4 SWAP1 REVERT JUMPDEST DUP3 DUP1 REVERT JUMPDEST POP PUSH1 0x60 CALLDATASIZE PUSH1 0x3 NOT ADD SLT PUSH2 0x1CE JUMPI PUSH2 0x7D5 PUSH2 0x1C33 JUMP JUMPDEST PUSH1 0x1 PUSH1 0x1 PUSH1 0x40 SHL SUB PUSH1 0x44 CALLDATALOAD DUP2 DUP2 GT PUSH2 0x6E8 JUMPI PUSH2 0x7F5 SWAP1 CALLDATASIZE SWAP1 PUSH1 0x4 ADD PUSH2 0x1D07 JUMP JUMPDEST SWAP1 CALLER DUP5 MSTORE PUSH1 0x20 SWAP1 PUSH1 0x7 DUP3 MSTORE PUSH1 0xFF PUSH1 0x40 DUP7 KECCAK256 SLOAD AND ISZERO DUP1 PUSH2 0x9BC JUMPI JUMPDEST PUSH2 0x9AB JUMPI PUSH2 0x91D SWAP3 DUP3 SWAP2 DUP6 AND SWAP5 DUP6 DUP8 MSTORE PUSH1 0x8 DUP4 MSTORE PUSH2 0x833 PUSH1 0xFF PUSH1 0x40 DUP10 KECCAK256 SLOAD AND PUSH2 0x1DA0 JUMP JUMPDEST DUP6 DUP8 MSTORE PUSH1 0x4 DUP4 MSTORE PUSH1 0x1 DUP1 PUSH1 0xA0 SHL SUB SWAP1 PUSH2 0x8B3 PUSH2 0x8BF PUSH2 0x884 DUP5 PUSH1 0x40 DUP13 KECCAK256 SLOAD AND SWAP6 PUSH1 0x40 MLOAD SWAP7 DUP9 DUP9 ADD MSTORE DUP8 DUP8 MSTORE PUSH2 0x867 DUP8 PUSH2 0x1C95 JUMP JUMPDEST PUSH1 0x40 MLOAD SWAP2 DUP3 SWAP2 PUSH1 0x4 CALLDATALOAD DUP11 DUP5 ADD MSTORE PUSH1 0x40 DUP1 DUP5 ADD MSTORE PUSH1 0x60 DUP4 ADD SWAP1 PUSH2 0x1E1C JUMP JUMPDEST SUB SWAP1 PUSH2 0x898 PUSH1 0x1F NOT SWAP3 DUP4 DUP2 ADD DUP4 MSTORE DUP3 PUSH2 0x1CCB JUMP JUMPDEST PUSH1 0x40 MLOAD SWAP4 DUP5 SWAP2 DUP14 DUP11 DUP5 ADD MSTORE PUSH1 0x40 DUP1 DUP5 ADD MSTORE PUSH1 0x60 DUP4 ADD SWAP1 PUSH2 0x1E1C JUMP JUMPDEST SUB SWAP1 DUP2 ADD DUP4 MSTORE DUP3 PUSH2 0x1CCB JUMP JUMPDEST PUSH1 0x40 MLOAD SWAP1 PUSH2 0x8CC DUP3 PUSH2 0x1CB0 JUMP JUMPDEST DUP10 DUP3 MSTORE PUSH1 0x40 MLOAD SWAP5 PUSH2 0x8DC DUP7 PUSH2 0x1C7A JUMP JUMPDEST DUP6 MSTORE DUP6 DUP6 ADD MSTORE PUSH1 0x40 DUP5 ADD MSTORE DUP8 PUSH1 0x60 DUP5 ADD MSTORE PUSH1 0x40 MLOAD PUSH2 0x8F9 DUP2 PUSH2 0x1CB0 JUMP JUMPDEST DUP9 DUP2 MSTORE PUSH1 0x80 DUP5 ADD MSTORE PUSH1 0x40 MLOAD DUP1 SWAP7 DUP2 SWAP5 DUP3 SWAP4 PUSH4 0x96F4E9F9 PUSH1 0xE0 SHL DUP5 MSTORE PUSH1 0x4 DUP5 ADD PUSH2 0x1E41 JUMP JUMPDEST SUB SWAP2 CALLVALUE SWAP1 PUSH32 0x0 AND GAS CALL SWAP2 DUP3 ISZERO PUSH2 0x6F4 JUMPI DUP5 SWAP3 PUSH2 0x96E JUMPI JUMPDEST POP PUSH1 0x0 DUP1 MLOAD PUSH1 0x20 PUSH2 0x205F DUP4 CODECOPY DUP2 MLOAD SWAP2 MSTORE SWAP1 PUSH1 0x40 MLOAD DUP6 DUP2 MSTORE LOG3 DUP1 RETURN JUMPDEST SWAP1 DUP1 SWAP3 POP DUP2 DUP2 RETURNDATASIZE DUP4 GT PUSH2 0x9A4 JUMPI JUMPDEST PUSH2 0x986 DUP2 DUP4 PUSH2 0x1CCB JUMP JUMPDEST DUP2 ADD SUB SLT PUSH2 0x6E8 JUMPI MLOAD SWAP1 PUSH1 0x0 DUP1 MLOAD PUSH1 0x20 PUSH2 0x205F DUP4 CODECOPY DUP2 MLOAD SWAP2 MSTORE PUSH2 0x953 JUMP JUMPDEST POP RETURNDATASIZE PUSH2 0x97C JUMP JUMPDEST PUSH1 0x40 MLOAD PUSH3 0x4B0EBD PUSH1 0xE4 SHL DUP2 MSTORE PUSH1 0x4 SWAP1 REVERT JUMPDEST POP DUP5 SLOAD PUSH1 0x1 PUSH1 0x1 PUSH1 0xA0 SHL SUB AND CALLER EQ ISZERO PUSH2 0x80F JUMP JUMPDEST POP CALLVALUE PUSH2 0x1CE JUMPI DUP1 PUSH1 0x3 NOT CALLDATASIZE ADD SLT PUSH2 0x1CE JUMPI PUSH1 0x20 PUSH1 0x9 SLOAD PUSH1 0x40 MLOAD SWAP1 DUP2 MSTORE RETURN JUMPDEST POP PUSH1 0x80 CALLDATASIZE PUSH1 0x3 NOT ADD SLT PUSH2 0x1CE JUMPI PUSH2 0xA03 PUSH2 0x1C33 JUMP JUMPDEST PUSH1 0x44 CALLDATALOAD SWAP1 DUP2 ISZERO ISZERO DUP1 SWAP3 SUB PUSH2 0x7BC JUMPI PUSH1 0x64 CALLDATALOAD SWAP1 PUSH1 0x1 PUSH1 0x1 PUSH1 0x40 SHL SUB SWAP1 DUP2 DUP4 GT PUSH2 0xB73 JUMPI PUSH2 0xA36 PUSH2 0xAE4 SWAP4 CALLDATASIZE SWAP1 PUSH1 0x4 ADD PUSH2 0x1D07 JUMP JUMPDEST SWAP2 PUSH2 0xA3F PUSH2 0x1D4E JUMP JUMPDEST DUP2 AND SWAP4 DUP5 DUP7 MSTORE PUSH1 0x20 SWAP3 DUP4 SWAP3 PUSH1 0x8 DUP5 MSTORE PUSH2 0xA5E PUSH1 0xFF PUSH1 0x40 DUP11 KECCAK256 SLOAD AND PUSH2 0x1DA0 JUMP JUMPDEST DUP7 DUP9 MSTORE PUSH1 0x4 DUP5 MSTORE PUSH2 0x8B3 PUSH2 0x8BF PUSH1 0x1 DUP1 PUSH1 0xA0 SHL SUB SWAP4 DUP5 PUSH1 0x40 DUP13 KECCAK256 SLOAD AND SWAP6 PUSH1 0x40 MLOAD SWAP7 DUP9 DUP9 ADD MSTORE DUP8 DUP8 MSTORE PUSH2 0xA8F DUP8 PUSH2 0x1C95 JUMP JUMPDEST PUSH2 0xAB4 PUSH1 0x40 MLOAD SWAP3 DUP4 SWAP3 PUSH1 0x4 CALLDATALOAD DUP12 DUP6 ADD MSTORE PUSH1 0x40 DUP5 ADD MSTORE PUSH1 0x60 DUP1 DUP5 ADD MSTORE PUSH1 0x80 DUP4 ADD SWAP1 PUSH2 0x1E1C JUMP JUMPDEST SUB SWAP1 PUSH2 0xAC8 PUSH1 0x1F NOT SWAP3 DUP4 DUP2 ADD DUP4 MSTORE DUP3 PUSH2 0x1CCB JUMP JUMPDEST PUSH1 0x40 MLOAD SWAP4 DUP5 SWAP2 PUSH1 0x3 DUP11 DUP5 ADD MSTORE PUSH1 0x40 DUP1 DUP5 ADD MSTORE PUSH1 0x60 DUP4 ADD SWAP1 PUSH2 0x1E1C JUMP JUMPDEST SUB SWAP2 CALLVALUE SWAP1 PUSH32 0x0 AND GAS CALL SWAP2 DUP3 ISZERO PUSH2 0x6F4 JUMPI DUP5 SWAP3 PUSH2 0xB36 JUMPI JUMPDEST POP PUSH1 0x0 DUP1 MLOAD PUSH1 0x20 PUSH2 0x205F DUP4 CODECOPY DUP2 MLOAD SWAP2 MSTORE SWAP1 PUSH1 0x40 MLOAD PUSH1 0x3 DUP2 MSTORE LOG3 DUP1 RETURN JUMPDEST SWAP1 DUP1 SWAP3 POP DUP2 DUP2 RETURNDATASIZE DUP4 GT PUSH2 0xB6C JUMPI JUMPDEST PUSH2 0xB4E DUP2 DUP4 PUSH2 0x1CCB JUMP JUMPDEST DUP2 ADD SUB SLT PUSH2 0x6E8 JUMPI MLOAD SWAP1 PUSH1 0x0 DUP1 MLOAD PUSH1 0x20 PUSH2 0x205F DUP4 CODECOPY DUP2 MLOAD SWAP2 MSTORE PUSH2 0xB1A JUMP JUMPDEST POP RETURNDATASIZE PUSH2 0xB44 JUMP JUMPDEST DUP5 DUP1 REVERT JUMPDEST POP CALLVALUE PUSH2 0x1CE JUMPI PUSH1 0x20 CALLDATASIZE PUSH1 0x3 NOT ADD SLT PUSH2 0x1CE JUMPI PUSH1 0x40 PUSH1 0xC0 SWAP2 PUSH2 0xB96 PUSH2 0x200C JUMP JUMPDEST POP PUSH1 0x4 CALLDATALOAD DUP2 MSTORE PUSH1 0x6 PUSH1 0x20 MSTORE KECCAK256 PUSH1 0x40 MLOAD PUSH2 0xBAE DUP2 PUSH2 0x1C49 JUMP JUMPDEST PUSH1 0x1 DUP1 PUSH1 0xA0 SHL SUB DUP3 SLOAD AND SWAP2 DUP3 DUP3 MSTORE PUSH1 0x1 DUP2 ADD SLOAD PUSH1 0x20 DUP4 ADD SWAP1 DUP2 MSTORE PUSH1 0x2 DUP3 ADD SLOAD PUSH1 0x40 DUP5 ADD SWAP2 PUSH1 0x1 PUSH1 0x1 PUSH1 0x40 SHL SUB SWAP3 DUP4 SWAP2 DUP3 DUP5 AND DUP3 MSTORE DUP3 PUSH1 0x60 DUP9 ADD SWAP5 PUSH1 0x40 SHR AND DUP5 MSTORE PUSH1 0xA0 PUSH1 0xFF PUSH1 0x4 PUSH1 0x3 DUP10 ADD SLOAD SWAP9 PUSH1 0x80 DUP12 ADD SWAP10 DUP11 MSTORE ADD SLOAD AND SWAP8 ADD SWAP7 ISZERO ISZERO DUP8 MSTORE PUSH1 0x40 MLOAD SWAP8 DUP9 MSTORE MLOAD PUSH1 0x20 DUP9 ADD MSTORE MLOAD AND PUSH1 0x40 DUP7 ADD MSTORE MLOAD AND PUSH1 0x60 DUP5 ADD MSTORE MLOAD PUSH1 0x80 DUP4 ADD MSTORE MLOAD ISZERO ISZERO PUSH1 0xA0 DUP3 ADD MSTORE RETURN JUMPDEST POP CALLVALUE PUSH2 0x1CE JUMPI PUSH1 0x20 CALLDATASIZE PUSH1 0x3 NOT ADD SLT PUSH2 0x1CE JUMPI PUSH1 0x20 SWAP1 PUSH1 0x1 PUSH1 0x1 PUSH1 0x40 SHL SUB PUSH2 0xC5A PUSH2 0x1C1D JUMP JUMPDEST AND DUP2 MSTORE PUSH1 0x4 DUP3 MSTORE PUSH1 0x40 PUSH1 0x1 DUP1 PUSH1 0xA0 SHL SUB SWAP2 KECCAK256 SLOAD AND PUSH1 0x40 MLOAD SWAP1 DUP2 MSTORE RETURN JUMPDEST POP CALLVALUE PUSH2 0x1CE JUMPI DUP1 PUSH1 0x3 NOT CALLDATASIZE ADD SLT PUSH2 0x1CE JUMPI PUSH1 0x40 MLOAD PUSH32 0x0 PUSH1 0x1 PUSH1 0x1 PUSH1 0xA0 SHL SUB AND DUP2 MSTORE PUSH1 0x20 SWAP1 RETURN JUMPDEST POP CALLVALUE PUSH2 0x1CE JUMPI PUSH1 0x40 CALLDATASIZE PUSH1 0x3 NOT ADD SLT PUSH2 0x1CE JUMPI PUSH2 0xCD5 PUSH2 0x1C1D JUMP JUMPDEST PUSH1 0x1 PUSH1 0x1 PUSH1 0x40 SHL SUB SWAP2 SWAP1 PUSH1 0x24 CALLDATALOAD DUP4 DUP2 GT PUSH2 0x7BC JUMPI SWAP1 PUSH2 0xCFB PUSH2 0xD8D SWAP3 CALLDATASIZE SWAP1 PUSH1 0x4 ADD PUSH2 0x1D07 JUMP JUMPDEST SWAP4 DUP2 AND DUP4 MSTORE PUSH1 0x4 PUSH1 0x20 SWAP1 DUP2 MSTORE PUSH1 0x40 DUP1 DUP6 KECCAK256 SLOAD SWAP1 MLOAD PUSH1 0x1 PUSH1 0x1 PUSH1 0xA0 SHL SUB SWAP2 DUP3 AND DUP2 DUP5 ADD MSTORE DUP3 DUP2 MSTORE SWAP2 SWAP6 DUP7 SWAP4 SWAP1 PUSH2 0xD2F DUP5 PUSH2 0x1C95 JUMP JUMPDEST PUSH1 0x40 MLOAD SWAP1 PUSH2 0xD3C DUP3 PUSH2 0x1CB0 JUMP JUMPDEST DUP8 DUP3 MSTORE PUSH1 0x40 MLOAD SWAP5 PUSH2 0xD4C DUP7 PUSH2 0x1C7A JUMP JUMPDEST DUP6 MSTORE DUP6 DUP6 ADD MSTORE PUSH1 0x40 DUP5 ADD MSTORE DUP6 PUSH1 0x60 DUP5 ADD MSTORE PUSH1 0x40 MLOAD PUSH2 0xD69 DUP2 PUSH2 0x1CB0 JUMP JUMPDEST DUP7 DUP2 MSTORE PUSH1 0x80 DUP5 ADD MSTORE PUSH1 0x40 MLOAD DUP1 SWAP6 DUP2 SWAP5 DUP3 SWAP4 PUSH4 0x20487DED PUSH1 0xE0 SHL DUP5 MSTORE PUSH1 0x4 DUP5 ADD PUSH2 0x1E41 JUMP JUMPDEST SUB SWAP2 PUSH32 0x0 AND GAS STATICCALL SWAP2 DUP3 ISZERO PUSH2 0xDFB JUMPI DUP1 SWAP3 PUSH2 0xDCB JUMPI JUMPDEST POP POP PUSH1 0x40 MLOAD SWAP1 DUP2 MSTORE RETURN JUMPDEST SWAP1 SWAP2 POP DUP3 DUP3 DUP2 RETURNDATASIZE DUP4 GT PUSH2 0xDF4 JUMPI JUMPDEST PUSH2 0xDE3 DUP2 DUP4 PUSH2 0x1CCB JUMP JUMPDEST DUP2 ADD SUB SLT PUSH2 0x1CE JUMPI POP MLOAD CODESIZE DUP1 PUSH2 0xDC1 JUMP JUMPDEST POP RETURNDATASIZE PUSH2 0xDD9 JUMP JUMPDEST PUSH1 0x40 MLOAD SWAP1 RETURNDATASIZE SWAP1 DUP3 RETURNDATACOPY RETURNDATASIZE SWAP1 REVERT JUMPDEST POP CALLVALUE PUSH2 0x1CE JUMPI PUSH1 0x20 CALLDATASIZE PUSH1 0x3 NOT ADD SLT PUSH2 0x1CE JUMPI PUSH1 0x40 PUSH1 0xC0 SWAP2 PUSH1 0x4 CALLDATALOAD DUP2 MSTORE PUSH1 0x5 PUSH1 0x20 MSTORE KECCAK256 DUP1 SLOAD SWAP1 PUSH1 0x1 DUP2 ADD SLOAD SWAP1 PUSH1 0x2 DUP2 ADD SLOAD PUSH1 0xFF PUSH1 0x4 PUSH1 0x3 DUP5 ADD SLOAD SWAP4 ADD SLOAD AND SWAP3 PUSH1 0x40 MLOAD SWAP5 DUP6 MSTORE PUSH1 0x20 DUP6 ADD MSTORE PUSH1 0x1 PUSH1 0x1 PUSH1 0x40 SHL SUB DUP2 AND PUSH1 0x40 DUP6 ADD MSTORE PUSH1 0x1 DUP1 PUSH1 0xA0 SHL SUB SWAP1 PUSH1 0x40 SHR AND PUSH1 0x60 DUP5 ADD MSTORE PUSH1 0x80 DUP4 ADD MSTORE ISZERO ISZERO PUSH1 0xA0 DUP3 ADD MSTORE RETURN JUMPDEST POP CALLVALUE PUSH2 0x1CE JUMPI PUSH1 0x20 CALLDATASIZE PUSH1 0x3 NOT ADD SLT PUSH2 0x1CE JUMPI PUSH1 0x4 CALLDATALOAD PUSH2 0xE9B PUSH2 0x1D4E JUMP JUMPDEST PUSH2 0x3E8 DUP2 GT PUSH2 0xEAA JUMPI PUSH1 0xA SSTORE DUP1 RETURN JUMPDEST PUSH1 0x40 MLOAD PUSH3 0x461BCD PUSH1 0xE5 SHL DUP2 MSTORE PUSH1 0x20 PUSH1 0x4 DUP3 ADD MSTORE PUSH1 0xC PUSH1 0x24 DUP3 ADD MSTORE PUSH12 0x8CCACA40E8DEDE40D0D2CED PUSH1 0xA3 SHL PUSH1 0x44 DUP3 ADD MSTORE PUSH1 0x64 SWAP1 REVERT JUMPDEST POP CALLVALUE PUSH2 0x1CE JUMPI DUP1 PUSH1 0x3 NOT CALLDATASIZE ADD SLT PUSH2 0x1CE JUMPI SLOAD PUSH1 0x40 MLOAD PUSH1 0x1 PUSH1 0x1 PUSH1 0xA0 SHL SUB SWAP1 SWAP2 AND DUP2 MSTORE PUSH1 0x20 SWAP1 RETURN JUMPDEST POP CALLVALUE PUSH2 0x1CE JUMPI PUSH1 0x40 CALLDATASIZE PUSH1 0x3 NOT ADD SLT PUSH2 0x1CE JUMPI PUSH2 0xF1F PUSH2 0x1C1D JUMP JUMPDEST PUSH1 0x24 CALLDATALOAD PUSH1 0x1 PUSH1 0x1 PUSH1 0xA0 SHL SUB DUP2 AND SWAP2 SWAP1 DUP3 SWAP1 SUB PUSH2 0x7BC JUMPI PUSH1 0x1 PUSH1 0x1 PUSH1 0x40 SHL SUB SWAP1 PUSH2 0xF46 PUSH2 0x1D4E JUMP JUMPDEST AND DUP3 MSTORE PUSH1 0x8 PUSH1 0x20 MSTORE PUSH1 0x40 DUP3 KECCAK256 PUSH1 0x1 PUSH1 0xFF NOT DUP3 SLOAD AND OR SWAP1 SSTORE PUSH1 0x4 PUSH1 0x20 MSTORE PUSH1 0x40 DUP3 KECCAK256 SWAP1 PUSH1 0x1 PUSH1 0x1 PUSH1 0x60 SHL SUB PUSH1 0xA0 SHL DUP3 SLOAD AND OR SWAP1 SSTORE DUP1 RETURN JUMPDEST POP CALLVALUE PUSH2 0x1CE JUMPI PUSH1 0x3 NOT PUSH1 0x20 CALLDATASIZE DUP3 ADD DUP2 SGT PUSH2 0x7BC JUMPI PUSH1 0x4 CALLDATALOAD SWAP2 PUSH1 0x1 PUSH1 0x1 PUSH1 0x40 SHL SUB SWAP1 DUP2 DUP5 GT PUSH2 0xB73 JUMPI PUSH1 0xA0 SWAP1 DUP5 CALLDATASIZE SUB ADD SLT PUSH2 0x6E8 JUMPI PUSH1 0x1 PUSH1 0x1 PUSH1 0xA0 SHL SUB SWAP2 PUSH32 0x0 DUP4 AND CALLER SUB PUSH2 0x139F JUMPI PUSH1 0x40 MLOAD SWAP4 PUSH2 0xFEE DUP6 PUSH2 0x1C7A JUMP JUMPDEST DUP1 PUSH1 0x4 ADD CALLDATALOAD DUP6 MSTORE PUSH1 0x24 DUP2 ADD CALLDATALOAD SWAP4 DUP4 DUP6 AND DUP6 SUB PUSH2 0x139B JUMPI DUP3 DUP7 ADD SWAP5 DUP6 MSTORE PUSH1 0x44 DUP3 ADD CALLDATALOAD DUP5 DUP2 GT PUSH2 0x122A JUMPI PUSH2 0x1026 SWAP1 PUSH1 0x4 CALLDATASIZE SWAP2 DUP6 ADD ADD PUSH2 0x1D07 JUMP JUMPDEST PUSH1 0x40 DUP8 ADD MSTORE PUSH1 0x64 DUP3 ADD CALLDATALOAD DUP5 DUP2 GT PUSH2 0x122A JUMPI PUSH2 0x1047 SWAP1 PUSH1 0x4 CALLDATASIZE SWAP2 DUP6 ADD ADD PUSH2 0x1D07 JUMP JUMPDEST SWAP5 PUSH1 0x60 SWAP3 DUP4 DUP9 ADD SWAP7 DUP8 MSTORE PUSH1 0x84 DUP2 ADD CALLDATALOAD SWAP1 DUP7 DUP3 GT PUSH2 0x1334 JUMPI ADD CALLDATASIZE PUSH1 0x23 DUP3 ADD SLT ISZERO PUSH2 0x1214 JUMPI PUSH1 0x4 DUP2 ADD CALLDATALOAD SWAP1 DUP7 DUP3 GT PUSH2 0x1387 JUMPI PUSH1 0x40 MLOAD SWAP2 PUSH2 0x108A DUP8 DUP3 PUSH1 0x5 SHL ADD DUP5 PUSH2 0x1CCB JUMP JUMPDEST DUP1 DUP4 MSTORE PUSH1 0x24 DUP8 DUP5 ADD SWAP2 PUSH1 0x6 SHL DUP4 ADD ADD SWAP2 CALLDATASIZE DUP4 GT PUSH2 0x1383 JUMPI SWAP1 PUSH1 0x24 DUP10 SWAP6 SWAP5 SWAP4 SWAP3 ADD SWAP1 JUMPDEST DUP3 DUP3 LT PUSH2 0x1338 JUMPI POP POP POP PUSH1 0x80 DUP10 ADD MSTORE MLOAD AND SWAP6 MLOAD SWAP5 MLOAD SWAP2 DUP3 MLOAD DUP4 ADD PUSH1 0x40 DUP5 DUP3 SUB SLT PUSH2 0x1214 JUMPI DUP5 DUP5 ADD MLOAD SWAP4 PUSH1 0x4 DUP6 LT ISZERO PUSH2 0x1334 JUMPI PUSH1 0x40 DUP2 ADD MLOAD SWAP2 DUP8 DUP4 GT PUSH2 0x1330 JUMPI PUSH2 0x10FB SWAP3 DUP8 DUP1 SWAP3 ADD SWAP3 ADD ADD PUSH2 0x1F2B JUMP JUMPDEST SWAP5 PUSH1 0x1 DUP5 SUB PUSH2 0x122E JUMPI POP DUP1 DUP6 DUP1 MLOAD DUP2 ADD SUB SLT PUSH2 0x122A JUMPI DUP2 DUP5 DUP7 ADD MLOAD SWAP2 PUSH2 0x1123 PUSH1 0x40 DUP9 ADD PUSH2 0x1F6D JUMP JUMPDEST SWAP7 ADD MLOAD PUSH1 0xC SLOAD PUSH1 0x40 MLOAD PUSH4 0xA9059CBB PUSH1 0xE0 SHL DUP2 MSTORE SWAP3 SWAP1 SWAP8 AND PUSH1 0x1 PUSH1 0x1 PUSH1 0xA0 SHL SUB DUP2 AND PUSH1 0x4 DUP5 ADD MSTORE PUSH1 0x24 DUP4 ADD DUP3 SWAP1 MSTORE SWAP1 SWAP7 SWAP1 SWAP4 DUP7 SWAP2 DUP4 SWAP2 PUSH1 0x44 SWAP2 DUP4 SWAP2 DUP15 SWAP2 AND GAS CALL DUP1 ISZERO PUSH2 0x121F JUMPI PUSH2 0x11B2 JUMPI JUMPDEST POP PUSH32 0xF83CA6CE37015930ADB1F5C3CEAC970ACBEC2CE93A501A9BADA0606CB257D808 DUP5 PUSH1 0x0 DUP1 MLOAD PUSH1 0x20 PUSH2 0x203F DUP4 CODECOPY DUP2 MLOAD SWAP2 MSTORE SWAP7 PUSH1 0x40 MLOAD SWAP1 DUP2 MSTORE LOG3 JUMPDEST PUSH1 0x40 MLOAD SWAP1 DUP2 MSTORE LOG3 DUP1 RETURN JUMPDEST SWAP5 DUP5 DUP7 DUP2 RETURNDATASIZE DUP4 GT PUSH2 0x1218 JUMPI JUMPDEST PUSH2 0x11C8 DUP2 DUP4 PUSH2 0x1CCB JUMP JUMPDEST DUP2 ADD SUB SLT PUSH2 0x1214 JUMPI DUP5 PUSH32 0xF83CA6CE37015930ADB1F5C3CEAC970ACBEC2CE93A501A9BADA0606CB257D808 SWAP2 PUSH2 0x120B PUSH1 0x0 DUP1 MLOAD PUSH1 0x20 PUSH2 0x203F DUP4 CODECOPY DUP2 MLOAD SWAP2 MSTORE SWAP9 PUSH2 0x1DEC JUMP JUMPDEST POP SWAP7 POP POP PUSH2 0x116D JUMP JUMPDEST DUP9 DUP1 REVERT JUMPDEST POP RETURNDATASIZE PUSH2 0x11BE JUMP JUMPDEST PUSH1 0x40 MLOAD RETURNDATASIZE DUP12 DUP3 RETURNDATACOPY RETURNDATASIZE SWAP1 REVERT JUMPDEST DUP8 DUP1 REVERT JUMPDEST SWAP2 POP DUP3 PUSH2 0x1276 JUMPI POP DUP4 MLOAD DUP5 ADD SWAP4 PUSH1 0x40 DUP2 DUP7 SUB SLT PUSH2 0x122A JUMPI PUSH1 0x40 DUP2 ADD MLOAD SWAP2 DUP3 GT PUSH2 0x122A JUMPI DUP4 PUSH2 0x1270 SWAP3 DUP2 PUSH1 0x0 DUP1 MLOAD PUSH1 0x20 PUSH2 0x203F DUP4 CODECOPY DUP2 MLOAD SWAP2 MSTORE SWAP8 ADD SWAP3 ADD ADD PUSH2 0x1F2B JUMP JUMPDEST POP PUSH2 0x11A8 JUMP JUMPDEST SWAP4 PUSH1 0x2 DUP4 SUB PUSH2 0x12C3 JUMPI DUP1 MLOAD DUP2 ADD SWAP5 DUP1 DUP3 DUP8 SUB SLT PUSH2 0x1214 JUMPI PUSH2 0x1299 PUSH1 0x40 DUP4 ADD PUSH2 0x1F6D JUMP JUMPDEST POP DUP2 ADD MLOAD SWAP2 DUP3 GT PUSH2 0x122A JUMPI DUP4 PUSH2 0x1270 SWAP3 DUP2 PUSH1 0x0 DUP1 MLOAD PUSH1 0x20 PUSH2 0x203F DUP4 CODECOPY DUP2 MLOAD SWAP2 MSTORE SWAP8 ADD SWAP3 ADD ADD PUSH2 0x1F2B JUMP JUMPDEST PUSH1 0x3 DUP4 EQ PUSH2 0x12E4 JUMPI JUMPDEST POP POP PUSH1 0x0 DUP1 MLOAD PUSH1 0x20 PUSH2 0x203F DUP4 CODECOPY DUP2 MLOAD SWAP2 MSTORE SWAP3 POP PUSH2 0x11A8 JUMP JUMPDEST DUP1 MLOAD DUP2 ADD SWAP5 DUP1 DUP3 DUP8 SUB SLT PUSH2 0x1214 JUMPI PUSH2 0x12FE PUSH1 0x40 DUP4 ADD PUSH2 0x1DEC JUMP JUMPDEST POP DUP2 ADD MLOAD SWAP2 DUP3 GT PUSH2 0x122A JUMPI DUP4 PUSH2 0x1328 SWAP3 DUP2 PUSH1 0x0 DUP1 MLOAD PUSH1 0x20 PUSH2 0x203F DUP4 CODECOPY DUP2 MLOAD SWAP2 MSTORE SWAP8 ADD SWAP3 ADD ADD PUSH2 0x1F2B JUMP JUMPDEST POP CODESIZE DUP1 PUSH2 0x12CC JUMP JUMPDEST DUP11 DUP1 REVERT JUMPDEST DUP10 DUP1 REVERT JUMPDEST SWAP1 SWAP2 SWAP3 SWAP4 SWAP5 POP PUSH1 0x40 DUP3 CALLDATASIZE SUB SLT PUSH2 0x1383 JUMPI PUSH1 0x40 MLOAD SWAP1 PUSH2 0x1355 DUP3 PUSH2 0x1C95 JUMP JUMPDEST DUP3 CALLDATALOAD SWAP1 DUP8 DUP3 AND DUP3 SUB PUSH2 0x137F JUMPI DUP3 DUP11 SWAP3 PUSH1 0x40 SWAP5 MSTORE DUP3 DUP6 ADD CALLDATALOAD DUP4 DUP3 ADD MSTORE DUP2 MSTORE ADD SWAP2 ADD DUP9 SWAP5 SWAP4 SWAP3 SWAP2 PUSH2 0x10AC JUMP JUMPDEST DUP14 DUP1 REVERT JUMPDEST DUP12 DUP1 REVERT JUMPDEST PUSH4 0x4E487B71 PUSH1 0xE0 SHL DUP11 MSTORE PUSH1 0x41 PUSH1 0x4 MSTORE PUSH1 0x24 DUP11 REVERT JUMPDEST DUP7 DUP1 REVERT JUMPDEST PUSH1 0x40 MLOAD PUSH4 0x35FDCCCD PUSH1 0xE2 SHL DUP2 MSTORE CALLER PUSH1 0x4 DUP3 ADD MSTORE PUSH1 0x24 SWAP1 REVERT JUMPDEST POP CALLVALUE PUSH2 0x1CE JUMPI DUP1 PUSH1 0x3 NOT CALLDATASIZE ADD SLT PUSH2 0x1CE JUMPI PUSH2 0x13D0 PUSH2 0x1D4E JUMP JUMPDEST PUSH2 0x13D8 PUSH2 0x1F0D JUMP JUMPDEST PUSH1 0x1 PUSH1 0xFF NOT PUSH1 0x3 SLOAD AND OR PUSH1 0x3 SSTORE PUSH32 0x62E78CEA01BEE320CD4E420270B5EA74000D11B0C9F74754EBDBFC544B05A258 PUSH1 0x20 PUSH1 0x40 MLOAD CALLER DUP2 MSTORE LOG1 DUP1 RETURN JUMPDEST POP CALLVALUE PUSH2 0x1CE JUMPI DUP1 PUSH1 0x3 NOT CALLDATASIZE ADD SLT PUSH2 0x1CE JUMPI PUSH1 0x20 PUSH1 0xA SLOAD PUSH1 0x40 MLOAD SWAP1 DUP2 MSTORE RETURN JUMPDEST POP CALLVALUE PUSH2 0x1CE JUMPI DUP1 PUSH1 0x3 NOT CALLDATASIZE ADD SLT PUSH2 0x1CE JUMPI PUSH1 0x1 SLOAD PUSH1 0x1 PUSH1 0x1 PUSH1 0xA0 SHL SUB DUP1 DUP3 AND CALLER SUB PUSH2 0x1496 JUMPI DUP3 SLOAD PUSH1 0x1 PUSH1 0x1 PUSH1 0xA0 SHL SUB NOT DUP1 DUP3 AND CALLER SWAP1 DUP2 OR DUP7 SSTORE SWAP4 AND PUSH1 0x1 SSTORE AND PUSH32 0x8BE0079C531659141344CD1FD0A4F28419497F9722A3DAAFE3B4186F6B6457E0 DUP4 DUP1 LOG3 DUP1 RETURN JUMPDEST PUSH1 0x40 MLOAD PUSH3 0x461BCD PUSH1 0xE5 SHL DUP2 MSTORE PUSH1 0x20 PUSH1 0x4 DUP3 ADD MSTORE PUSH1 0x16 PUSH1 0x24 DUP3 ADD MSTORE PUSH22 0x26BAB9BA10313290383937B837B9B2B21037BBB732B9 PUSH1 0x51 SHL PUSH1 0x44 DUP3 ADD MSTORE PUSH1 0x64 SWAP1 REVERT JUMPDEST POP CALLVALUE PUSH2 0x1CE JUMPI PUSH1 0x20 CALLDATASIZE PUSH1 0x3 NOT ADD SLT PUSH2 0x1CE JUMPI PUSH1 0x40 PUSH1 0xC0 SWAP2 PUSH2 0x14F3 PUSH2 0x200C JUMP JUMPDEST POP PUSH1 0x4 CALLDATALOAD DUP2 MSTORE PUSH1 0x5 PUSH1 0x20 MSTORE KECCAK256 PUSH1 0x40 MLOAD PUSH2 0x150B DUP2 PUSH2 0x1C49 JUMP JUMPDEST DUP2 SLOAD SWAP2 DUP3 DUP3 MSTORE PUSH1 0x1 DUP2 ADD SLOAD PUSH1 0x20 DUP4 ADD SWAP1 DUP2 MSTORE PUSH1 0x2 DUP3 ADD SLOAD SWAP1 PUSH1 0x40 DUP5 ADD PUSH1 0x1 PUSH1 0x1 PUSH1 0x40 SHL SUB SWAP1 DUP2 DUP5 AND DUP2 MSTORE PUSH1 0x60 DUP7 ADD SWAP3 PUSH1 0x1 DUP1 PUSH1 0xA0 SHL SUB DUP1 SWAP6 PUSH1 0x40 SHR AND DUP5 MSTORE PUSH1 0xA0 PUSH1 0xFF PUSH1 0x4 PUSH1 0x3 DUP10 ADD SLOAD SWAP9 PUSH1 0x80 DUP12 ADD SWAP10 DUP11 MSTORE ADD SLOAD AND SWAP8 ADD SWAP7 ISZERO ISZERO DUP8 MSTORE PUSH1 0x40 MLOAD SWAP8 DUP9 MSTORE MLOAD PUSH1 0x20 DUP9 ADD MSTORE MLOAD AND PUSH1 0x40 DUP7 ADD MSTORE MLOAD AND PUSH1 0x60 DUP5 ADD MSTORE MLOAD PUSH1 0x80 DUP4 ADD MSTORE MLOAD ISZERO ISZERO PUSH1 0xA0 DUP3 ADD MSTORE RETURN JUMPDEST POP CALLVALUE PUSH2 0x1CE JUMPI DUP1 PUSH1 0x3 NOT CALLDATASIZE ADD SLT PUSH2 0x1CE JUMPI PUSH1 0xB SLOAD PUSH1 0x40 MLOAD PUSH1 0x1 PUSH1 0x1 PUSH1 0xA0 SHL SUB SWAP1 SWAP2 AND DUP2 MSTORE PUSH1 0x20 SWAP1 RETURN JUMPDEST POP CALLVALUE PUSH2 0x1CE JUMPI DUP1 PUSH1 0x3 NOT CALLDATASIZE ADD SLT PUSH2 0x1CE JUMPI PUSH1 0x20 PUSH1 0xFF PUSH1 0x3 SLOAD AND PUSH1 0x40 MLOAD SWAP1 ISZERO ISZERO DUP2 MSTORE RETURN JUMPDEST POP CALLVALUE PUSH2 0x1CE JUMPI DUP1 PUSH1 0x3 NOT CALLDATASIZE ADD SLT PUSH2 0x1CE JUMPI PUSH2 0x15F5 PUSH2 0x1D4E JUMP JUMPDEST DUP1 SELFBALANCE DUP1 ISZERO SWAP1 DUP2 ISZERO PUSH2 0x1604 JUMPI POP POP RETURN JUMPDEST DUP3 DUP1 SWAP3 SWAP2 DUP2 SWAP3 PUSH1 0x1 DUP1 PUSH1 0xA0 SHL SUB DUP4 SLOAD AND SWAP1 DUP4 SWAP1 PUSH2 0x1625 JUMPI JUMPDEST CALL ISZERO PUSH2 0xDFB JUMPI DUP1 RETURN JUMPDEST POP PUSH2 0x8FC PUSH2 0x161C JUMP JUMPDEST POP CALLVALUE PUSH2 0x1CE JUMPI PUSH1 0x20 CALLDATASIZE PUSH1 0x3 NOT ADD SLT PUSH2 0x1CE JUMPI PUSH1 0x1 PUSH1 0x1 PUSH1 0x40 SHL SUB PUSH2 0x1650 PUSH2 0x1C1D JUMP JUMPDEST PUSH2 0x1658 PUSH2 0x1D4E JUMP JUMPDEST AND DUP2 MSTORE PUSH1 0x8 PUSH1 0x20 MSTORE PUSH1 0x40 DUP2 KECCAK256 PUSH1 0xFF NOT DUP2 SLOAD AND SWAP1 SSTORE PUSH1 0x4 PUSH1 0x20 MSTORE PUSH1 0x40 DUP2 KECCAK256 PUSH1 0x1 PUSH1 0x1 PUSH1 0x60 SHL SUB PUSH1 0xA0 SHL DUP2 SLOAD AND SWAP1 SSTORE DUP1 RETURN JUMPDEST POP PUSH1 0x60 CALLDATASIZE PUSH1 0x3 NOT ADD SLT PUSH2 0x1CE JUMPI PUSH2 0x169D PUSH2 0x1C1D JUMP JUMPDEST PUSH1 0x1 PUSH1 0x1 PUSH1 0x40 SHL SUB PUSH1 0x44 CALLDATALOAD DUP2 DUP2 GT PUSH2 0x6E8 JUMPI PUSH2 0x16BD SWAP1 CALLDATASIZE SWAP1 PUSH1 0x4 ADD PUSH2 0x1D07 JUMP JUMPDEST SWAP1 CALLER DUP5 MSTORE PUSH1 0x20 SWAP1 PUSH1 0x7 DUP3 MSTORE PUSH1 0xFF PUSH1 0x40 DUP7 KECCAK256 SLOAD AND ISZERO DUP1 PUSH2 0x1811 JUMPI JUMPDEST PUSH2 0x9AB JUMPI PUSH2 0x1782 SWAP3 DUP3 SWAP2 DUP6 AND SWAP5 DUP6 DUP8 MSTORE PUSH1 0x8 DUP4 MSTORE PUSH2 0x16FB PUSH1 0xFF PUSH1 0x40 DUP10 KECCAK256 SLOAD AND PUSH2 0x1DA0 JUMP JUMPDEST DUP6 DUP8 MSTORE PUSH1 0x4 DUP4 MSTORE PUSH1 0x1 DUP1 PUSH1 0xA0 SHL SUB SWAP1 PUSH2 0x8B3 PUSH2 0x8BF PUSH2 0x1752 DUP5 PUSH1 0x40 DUP13 KECCAK256 SLOAD AND SWAP6 PUSH1 0x40 MLOAD SWAP7 DUP9 DUP9 ADD MSTORE DUP8 DUP8 MSTORE PUSH2 0x172F DUP8 PUSH2 0x1C95 JUMP JUMPDEST PUSH1 0x40 MLOAD SWAP2 DUP3 SWAP2 PUSH1 0x24 CALLDATALOAD DUP11 DUP5 ADD MSTORE CALLER PUSH1 0x40 DUP5 ADD MSTORE PUSH1 0x60 DUP1 DUP5 ADD MSTORE PUSH1 0x80 DUP4 ADD SWAP1 PUSH2 0x1E1C JUMP JUMPDEST SUB SWAP1 PUSH2 0x1766 PUSH1 0x1F NOT SWAP3 DUP4 DUP2 ADD DUP4 MSTORE DUP3 PUSH2 0x1CCB JUMP JUMPDEST PUSH1 0x40 MLOAD SWAP4 DUP5 SWAP2 PUSH1 0x2 DUP11 DUP5 ADD MSTORE PUSH1 0x40 DUP1 DUP5 ADD MSTORE PUSH1 0x60 DUP4 ADD SWAP1 PUSH2 0x1E1C JUMP JUMPDEST SUB SWAP2 CALLVALUE SWAP1 PUSH32 0x0 AND GAS CALL SWAP2 DUP3 ISZERO PUSH2 0x6F4 JUMPI DUP5 SWAP3 PUSH2 0x17D4 JUMPI JUMPDEST POP PUSH1 0x0 DUP1 MLOAD PUSH1 0x20 PUSH2 0x205F DUP4 CODECOPY DUP2 MLOAD SWAP2 MSTORE SWAP1 PUSH1 0x40 MLOAD PUSH1 0x2 DUP2 MSTORE LOG3 DUP1 RETURN JUMPDEST SWAP1 DUP1 SWAP3 POP DUP2 DUP2 RETURNDATASIZE DUP4 GT PUSH2 0x180A JUMPI JUMPDEST PUSH2 0x17EC DUP2 DUP4 PUSH2 0x1CCB JUMP JUMPDEST DUP2 ADD SUB SLT PUSH2 0x6E8 JUMPI MLOAD SWAP1 PUSH1 0x0 DUP1 MLOAD PUSH1 0x20 PUSH2 0x205F DUP4 CODECOPY DUP2 MLOAD SWAP2 MSTORE PUSH2 0x17B8 JUMP JUMPDEST POP RETURNDATASIZE PUSH2 0x17E2 JUMP JUMPDEST POP DUP5 SLOAD PUSH1 0x1 PUSH1 0x1 PUSH1 0xA0 SHL SUB AND CALLER EQ ISZERO PUSH2 0x16D7 JUMP JUMPDEST POP CALLVALUE PUSH2 0x1CE JUMPI DUP1 PUSH1 0x3 NOT CALLDATASIZE ADD SLT PUSH2 0x1CE JUMPI PUSH2 0x183E PUSH2 0x1D4E JUMP JUMPDEST PUSH1 0x3 SLOAD PUSH1 0xFF DUP2 AND ISZERO PUSH2 0x187E JUMPI PUSH1 0xFF NOT AND PUSH1 0x3 SSTORE PUSH32 0x5DB9EE0A495BF2E6FF9C91A7834C1BA4FDD244A5E8AA4E537BD38AEAE4B073AA PUSH1 0x20 PUSH1 0x40 MLOAD CALLER DUP2 MSTORE LOG1 DUP1 RETURN JUMPDEST PUSH1 0x40 MLOAD PUSH4 0x8DFC202B PUSH1 0xE0 SHL DUP2 MSTORE PUSH1 0x4 SWAP1 REVERT JUMPDEST POP CALLVALUE PUSH2 0x1CE JUMPI PUSH1 0x60 CALLDATASIZE PUSH1 0x3 NOT ADD SLT PUSH2 0x1CE JUMPI PUSH1 0x4 CALLDATALOAD PUSH1 0x24 CALLDATALOAD PUSH1 0x44 CALLDATALOAD SWAP2 PUSH1 0x1 PUSH1 0x1 PUSH1 0x40 SHL SUB DUP1 DUP5 AND DUP1 SWAP5 SUB PUSH2 0xB73 JUMPI PUSH2 0x18C6 PUSH2 0x1D4E JUMP JUMPDEST DUP4 DUP6 MSTORE PUSH1 0x8 PUSH1 0x20 MSTORE PUSH1 0xFF PUSH1 0x40 DUP7 KECCAK256 SLOAD AND ISZERO PUSH2 0x19B5 JUMPI PUSH2 0x198E SWAP1 DUP5 DUP7 MSTORE PUSH1 0x4 PUSH1 0x20 MSTORE PUSH1 0x4 PUSH1 0x1 DUP1 PUSH1 0xA0 SHL SUB PUSH1 0x40 DUP9 KECCAK256 SLOAD AND PUSH1 0x40 MLOAD SWAP3 PUSH2 0x1903 DUP5 PUSH2 0x1C49 JUMP JUMPDEST DUP6 DUP5 MSTORE PUSH1 0x20 DUP5 ADD SWAP2 DUP8 DUP4 MSTORE PUSH1 0x40 DUP6 ADD SWAP1 DUP10 DUP3 MSTORE PUSH1 0x60 DUP7 ADD SWAP1 DUP2 MSTORE PUSH1 0x80 DUP7 ADD SWAP3 DUP12 DUP5 MSTORE PUSH1 0xA0 DUP8 ADD SWAP5 PUSH1 0x1 DUP7 MSTORE DUP10 DUP14 MSTORE PUSH1 0x5 PUSH1 0x20 MSTORE PUSH1 0x40 DUP14 KECCAK256 SWAP8 MLOAD DUP9 SSTORE MLOAD PUSH1 0x1 DUP9 ADD SSTORE PUSH1 0x2 DUP8 ADD SWAP3 MLOAD AND DUP3 SLOAD SWAP2 PUSH9 0x10000000000000000 PUSH1 0x1 PUSH1 0xE0 SHL SUB SWAP1 MLOAD PUSH1 0x40 SHL AND SWAP2 PUSH4 0xFFFFFFFF PUSH1 0xE0 SHL AND OR OR SWAP1 SSTORE MLOAD PUSH1 0x3 DUP5 ADD SSTORE MLOAD ISZERO ISZERO SWAP2 ADD SWAP1 PUSH1 0xFF DUP1 NOT DUP4 SLOAD AND SWAP2 ISZERO ISZERO AND OR SWAP1 SSTORE JUMP JUMPDEST PUSH32 0x234D3DB26FED7BBBDFFF632C5D34CBC68DBD81E413BBB85C7DFCBA057FC377EE DUP5 DUP1 LOG4 DUP1 RETURN JUMPDEST PUSH1 0x40 MLOAD PUSH3 0x461BCD PUSH1 0xE5 SHL DUP2 MSTORE PUSH1 0x20 PUSH1 0x4 DUP3 ADD MSTORE PUSH1 0x11 PUSH1 0x24 DUP3 ADD MSTORE PUSH17 0x2AB739BAB83837B93A32B21031B430B4B7 PUSH1 0x79 SHL PUSH1 0x44 DUP3 ADD MSTORE PUSH1 0x64 SWAP1 REVERT JUMPDEST POP CALLVALUE PUSH2 0x1CE JUMPI PUSH1 0x20 CALLDATASIZE PUSH1 0x3 NOT ADD SLT PUSH2 0x1CE JUMPI PUSH1 0x40 PUSH1 0xC0 SWAP2 PUSH1 0x4 CALLDATALOAD DUP2 MSTORE PUSH1 0x6 PUSH1 0x20 MSTORE KECCAK256 PUSH1 0x1 DUP1 PUSH1 0xA0 SHL SUB DUP2 SLOAD AND SWAP1 PUSH1 0x1 DUP2 ADD SLOAD SWAP1 PUSH1 0x2 DUP2 ADD SLOAD PUSH1 0xFF PUSH1 0x4 PUSH1 0x3 DUP5 ADD SLOAD SWAP4 ADD SLOAD AND SWAP3 PUSH1 0x40 MLOAD SWAP5 DUP6 MSTORE PUSH1 0x20 DUP6 ADD MSTORE PUSH1 0x1 PUSH1 0x1 PUSH1 0x40 SHL SUB SWAP1 DUP2 DUP2 AND PUSH1 0x40 DUP7 ADD MSTORE PUSH1 0x40 SHR AND PUSH1 0x60 DUP5 ADD MSTORE PUSH1 0x80 DUP4 ADD MSTORE ISZERO ISZERO PUSH1 0xA0 DUP3 ADD MSTORE RETURN JUMPDEST POP CALLVALUE PUSH2 0x1CE JUMPI PUSH1 0x40 CALLDATASIZE PUSH1 0x3 NOT ADD SLT PUSH2 0x1CE JUMPI PUSH2 0x1A81 PUSH2 0x1C02 JUMP JUMPDEST PUSH1 0x24 CALLDATALOAD DUP1 ISZERO ISZERO DUP2 SUB PUSH2 0x7BC JUMPI PUSH2 0x1ABD SWAP2 PUSH2 0x1A99 PUSH2 0x1D4E JUMP JUMPDEST PUSH1 0x1 DUP1 PUSH1 0xA0 SHL SUB AND DUP4 MSTORE PUSH1 0x7 PUSH1 0x20 MSTORE PUSH1 0x40 DUP4 KECCAK256 SWAP1 PUSH1 0xFF DUP1 NOT DUP4 SLOAD AND SWAP2 ISZERO ISZERO AND OR SWAP1 SSTORE JUMP JUMPDEST DUP1 RETURN JUMPDEST POP CALLVALUE PUSH2 0x1CE JUMPI PUSH1 0x40 CALLDATASIZE PUSH1 0x3 NOT ADD SLT PUSH2 0x1CE JUMPI PUSH2 0x1ADA PUSH2 0x1C02 JUMP JUMPDEST PUSH2 0x1AE2 PUSH2 0x1D4E JUMP JUMPDEST DUP2 SLOAD PUSH1 0x40 MLOAD PUSH4 0xA9059CBB PUSH1 0xE0 SHL DUP2 MSTORE PUSH1 0x1 PUSH1 0x1 PUSH1 0xA0 SHL SUB SWAP2 DUP3 AND PUSH1 0x4 DUP3 ADD MSTORE PUSH1 0x24 DUP1 CALLDATALOAD SWAP1 DUP3 ADD MSTORE SWAP2 PUSH1 0x20 SWAP2 DUP4 SWAP2 PUSH1 0x44 SWAP2 DUP4 SWAP2 DUP8 SWAP2 AND GAS CALL DUP1 ISZERO PUSH2 0x1B60 JUMPI PUSH2 0x1B27 JUMPI POP DUP1 RETURN JUMPDEST PUSH1 0x20 DUP2 RETURNDATASIZE DUP3 GT PUSH2 0x1B58 JUMPI JUMPDEST DUP2 PUSH2 0x1B3F PUSH1 0x20 SWAP4 DUP4 PUSH2 0x1CCB JUMP JUMPDEST DUP2 ADD SUB SLT PUSH2 0x1B54 JUMPI PUSH2 0x1B50 SWAP1 PUSH2 0x1DEC JUMP JUMPDEST POP DUP1 RETURN JUMPDEST POP DUP1 REVERT JUMPDEST RETURNDATASIZE SWAP2 POP PUSH2 0x1B32 JUMP JUMPDEST PUSH1 0x40 MLOAD RETURNDATASIZE DUP5 DUP3 RETURNDATACOPY RETURNDATASIZE SWAP1 REVERT JUMPDEST POP CALLVALUE PUSH2 0x1CE JUMPI PUSH1 0x20 CALLDATASIZE PUSH1 0x3 NOT ADD SLT PUSH2 0x1CE JUMPI PUSH1 0x4 CALLDATALOAD PUSH4 0xFFFFFFFF PUSH1 0xE0 SHL DUP2 AND DUP1 SWAP2 SUB PUSH2 0x1B54 JUMPI PUSH1 0x20 SWAP1 PUSH4 0x85572FFB PUSH1 0xE0 SHL DUP2 EQ SWAP1 DUP2 ISZERO PUSH2 0x1BB1 JUMPI JUMPDEST POP PUSH1 0x40 MLOAD SWAP1 ISZERO ISZERO DUP2 MSTORE RETURN JUMPDEST PUSH4 0x1FFC9A7 PUSH1 0xE0 SHL EQ SWAP1 POP DUP3 PUSH2 0x1BA6 JUMP JUMPDEST POP CALLVALUE PUSH2 0x1CE JUMPI PUSH1 0x20 CALLDATASIZE PUSH1 0x3 NOT ADD SLT PUSH2 0x1CE JUMPI PUSH2 0x1BDC PUSH2 0x1C02 JUMP JUMPDEST PUSH2 0x1BE4 PUSH2 0x1D4E JUMP JUMPDEST PUSH1 0x1 DUP1 PUSH1 0xA0 SHL SUB AND PUSH1 0x1 PUSH1 0x1 PUSH1 0x60 SHL SUB PUSH1 0xA0 SHL PUSH1 0xB SLOAD AND OR PUSH1 0xB SSTORE DUP1 RETURN JUMPDEST PUSH1 0x4 CALLDATALOAD SWAP1 PUSH1 0x1 PUSH1 0x1 PUSH1 0xA0 SHL SUB DUP3 AND DUP3 SUB PUSH2 0x1C18 JUMPI JUMP JUMPDEST PUSH1 0x0 DUP1 REVERT JUMPDEST PUSH1 0x4 CALLDATALOAD SWAP1 PUSH1 0x1 PUSH1 0x1 PUSH1 0x40 SHL SUB DUP3 AND DUP3 SUB PUSH2 0x1C18 JUMPI JUMP JUMPDEST PUSH1 0x24 CALLDATALOAD SWAP1 PUSH1 0x1 PUSH1 0x1 PUSH1 0x40 SHL SUB DUP3 AND DUP3 SUB PUSH2 0x1C18 JUMPI JUMP JUMPDEST PUSH1 0xC0 DUP2 ADD SWAP1 DUP2 LT PUSH1 0x1 PUSH1 0x1 PUSH1 0x40 SHL SUB DUP3 GT OR PUSH2 0x1C64 JUMPI PUSH1 0x40 MSTORE JUMP JUMPDEST PUSH4 0x4E487B71 PUSH1 0xE0 SHL PUSH1 0x0 MSTORE PUSH1 0x41 PUSH1 0x4 MSTORE PUSH1 0x24 PUSH1 0x0 REVERT JUMPDEST PUSH1 0xA0 DUP2 ADD SWAP1 DUP2 LT PUSH1 0x1 PUSH1 0x1 PUSH1 0x40 SHL SUB DUP3 GT OR PUSH2 0x1C64 JUMPI PUSH1 0x40 MSTORE JUMP JUMPDEST PUSH1 0x40 DUP2 ADD SWAP1 DUP2 LT PUSH1 0x1 PUSH1 0x1 PUSH1 0x40 SHL SUB DUP3 GT OR PUSH2 0x1C64 JUMPI PUSH1 0x40 MSTORE JUMP JUMPDEST PUSH1 0x20 DUP2 ADD SWAP1 DUP2 LT PUSH1 0x1 PUSH1 0x1 PUSH1 0x40 SHL SUB DUP3 GT OR PUSH2 0x1C64 JUMPI PUSH1 0x40 MSTORE JUMP JUMPDEST SWAP1 PUSH1 0x1F DUP1 NOT SWAP2 ADD AND DUP2 ADD SWAP1 DUP2 LT PUSH1 0x1 PUSH1 0x1 PUSH1 0x40 SHL SUB DUP3 GT OR PUSH2 0x1C64 JUMPI PUSH1 0x40 MSTORE JUMP JUMPDEST PUSH1 0x1 PUSH1 0x1 PUSH1 0x40 SHL SUB DUP2 GT PUSH2 0x1C64 JUMPI PUSH1 0x1F ADD PUSH1 0x1F NOT AND PUSH1 0x20 ADD SWAP1 JUMP JUMPDEST DUP2 PUSH1 0x1F DUP3 ADD SLT ISZERO PUSH2 0x1C18 JUMPI DUP1 CALLDATALOAD SWAP1 PUSH2 0x1D1E DUP3 PUSH2 0x1CEC JUMP JUMPDEST SWAP3 PUSH2 0x1D2C PUSH1 0x40 MLOAD SWAP5 DUP6 PUSH2 0x1CCB JUMP JUMPDEST DUP3 DUP5 MSTORE PUSH1 0x20 DUP4 DUP4 ADD ADD GT PUSH2 0x1C18 JUMPI DUP2 PUSH1 0x0 SWAP3 PUSH1 0x20 DUP1 SWAP4 ADD DUP4 DUP7 ADD CALLDATACOPY DUP4 ADD ADD MSTORE SWAP1 JUMP JUMPDEST PUSH1 0x0 SLOAD PUSH1 0x1 PUSH1 0x1 PUSH1 0xA0 SHL SUB AND CALLER SUB PUSH2 0x1D62 JUMPI JUMP JUMPDEST PUSH1 0x40 MLOAD PUSH3 0x461BCD PUSH1 0xE5 SHL DUP2 MSTORE PUSH1 0x20 PUSH1 0x4 DUP3 ADD MSTORE PUSH1 0x16 PUSH1 0x24 DUP3 ADD MSTORE PUSH22 0x27B7363C9031B0B63630B1363290313C9037BBB732B9 PUSH1 0x51 SHL PUSH1 0x44 DUP3 ADD MSTORE PUSH1 0x64 SWAP1 REVERT JUMPDEST ISZERO PUSH2 0x1DA7 JUMPI JUMP JUMPDEST PUSH1 0x40 MLOAD PUSH3 0x461BCD PUSH1 0xE5 SHL DUP2 MSTORE PUSH1 0x20 PUSH1 0x4 DUP3 ADD MSTORE PUSH1 0x1D PUSH1 0x24 DUP3 ADD MSTORE PUSH32 0x556E737570706F727465642064657374696E6174696F6E20636861696E000000 PUSH1 0x44 DUP3 ADD MSTORE PUSH1 0x64 SWAP1 REVERT JUMPDEST MLOAD SWAP1 DUP2 ISZERO ISZERO DUP3 SUB PUSH2 0x1C18 JUMPI JUMP JUMPDEST PUSH1 0x0 JUMPDEST DUP4 DUP2 LT PUSH2 0x1E0C JUMPI POP POP PUSH1 0x0 SWAP2 ADD MSTORE JUMP JUMPDEST DUP2 DUP2 ADD MLOAD DUP4 DUP3 ADD MSTORE PUSH1 0x20 ADD PUSH2 0x1DFC JUMP JUMPDEST SWAP1 PUSH1 0x20 SWAP2 PUSH2 0x1E35 DUP2 MLOAD DUP1 SWAP3 DUP2 DUP6 MSTORE DUP6 DUP1 DUP7 ADD SWAP2 ADD PUSH2 0x1DF9 JUMP JUMPDEST PUSH1 0x1F ADD PUSH1 0x1F NOT AND ADD ADD SWAP1 JUMP JUMPDEST SWAP1 PUSH1 0x1 PUSH1 0x1 PUSH1 0x40 SHL SUB SWAP1 SWAP4 SWAP3 SWAP4 AND DUP2 MSTORE PUSH1 0x40 PUSH1 0x20 SWAP2 DUP2 DUP4 DUP3 ADD MSTORE PUSH2 0x1E70 DUP6 MLOAD PUSH1 0xA0 DUP5 DUP5 ADD MSTORE PUSH1 0xE0 DUP4 ADD SWAP1 PUSH2 0x1E1C JUMP JUMPDEST SWAP2 PUSH2 0x1E8C DUP5 DUP8 ADD MLOAD SWAP4 PUSH1 0x3F NOT SWAP5 DUP6 DUP6 DUP4 SUB ADD PUSH1 0x60 DUP7 ADD MSTORE PUSH2 0x1E1C JUMP JUMPDEST DUP2 DUP8 ADD MLOAD SWAP5 DUP5 DUP5 DUP4 SUB ADD PUSH1 0x80 DUP6 ADD MSTORE DUP1 DUP1 DUP8 MLOAD SWAP4 DUP5 DUP2 MSTORE ADD SWAP7 ADD SWAP3 PUSH1 0x0 SWAP1 JUMPDEST DUP4 DUP3 LT PUSH2 0x1EE4 JUMPI POP POP POP POP POP PUSH1 0xC0 PUSH1 0x80 PUSH2 0x1EE1 SWAP6 SWAP7 PUSH1 0x1 DUP1 PUSH1 0xA0 SHL SUB PUSH1 0x60 DUP3 ADD MLOAD AND PUSH1 0xA0 DUP6 ADD MSTORE ADD MLOAD SWAP3 DUP3 DUP6 SUB ADD SWAP2 ADD MSTORE PUSH2 0x1E1C JUMP JUMPDEST SWAP1 JUMP JUMPDEST DUP5 MLOAD DUP1 MLOAD PUSH1 0x1 PUSH1 0x1 PUSH1 0xA0 SHL SUB AND DUP10 MSTORE DUP4 ADD MLOAD DUP9 DUP5 ADD MSTORE SWAP7 DUP8 ADD SWAP7 SWAP4 DUP3 ADD SWAP4 PUSH1 0x1 SWAP1 SWAP2 ADD SWAP1 PUSH2 0x1EAB JUMP JUMPDEST PUSH1 0xFF PUSH1 0x3 SLOAD AND PUSH2 0x1F19 JUMPI JUMP JUMPDEST PUSH1 0x40 MLOAD PUSH4 0xD93C0665 PUSH1 0xE0 SHL DUP2 MSTORE PUSH1 0x4 SWAP1 REVERT JUMPDEST DUP2 PUSH1 0x1F DUP3 ADD SLT ISZERO PUSH2 0x1C18 JUMPI DUP1 MLOAD PUSH2 0x1F41 DUP2 PUSH2 0x1CEC JUMP JUMPDEST SWAP3 PUSH2 0x1F4F PUSH1 0x40 MLOAD SWAP5 DUP6 PUSH2 0x1CCB JUMP JUMPDEST DUP2 DUP5 MSTORE PUSH1 0x20 DUP3 DUP5 ADD ADD GT PUSH2 0x1C18 JUMPI PUSH2 0x1EE1 SWAP2 PUSH1 0x20 DUP1 DUP6 ADD SWAP2 ADD PUSH2 0x1DF9 JUMP JUMPDEST MLOAD SWAP1 PUSH1 0x1 PUSH1 0x1 PUSH1 0xA0 SHL SUB DUP3 AND DUP3 SUB PUSH2 0x1C18 JUMPI JUMP JUMPDEST PUSH1 0x1 CHAINID EQ PUSH2 0x2000 JUMPI PUSH1 0x89 CHAINID EQ PUSH2 0x1FF4 JUMPI PUSH2 0xA4B1 CHAINID EQ PUSH2 0x1FE8 JUMPI PUSH2 0x2105 CHAINID EQ PUSH2 0x1FDC JUMPI PUSH1 0x40 MLOAD PUSH3 0x461BCD PUSH1 0xE5 SHL DUP2 MSTORE PUSH1 0x20 PUSH1 0x4 DUP3 ADD MSTORE PUSH1 0x11 PUSH1 0x24 DUP3 ADD MSTORE PUSH17 0x2AB739BAB83837B93A32B21031B430B4B7 PUSH1 0x79 SHL PUSH1 0x44 DUP3 ADD MSTORE PUSH1 0x64 SWAP1 REVERT JUMPDEST PUSH8 0xDDA641CFE44AFF82 SWAP1 JUMP JUMPDEST PUSH8 0x44AE84D8E9A37444 SWAP1 JUMP JUMPDEST PUSH8 0x383A1891AE1915B1 SWAP1 JUMP JUMPDEST PUSH8 0x45849994FC9C7B15 SWAP1 JUMP JUMPDEST PUSH1 0x40 MLOAD SWAP1 PUSH2 0x2019 DUP3 PUSH2 0x1C49 JUMP JUMPDEST DUP2 PUSH1 0xA0 PUSH1 0x0 SWAP2 DUP3 DUP2 MSTORE DUP3 PUSH1 0x20 DUP3 ADD MSTORE DUP3 PUSH1 0x40 DUP3 ADD MSTORE DUP3 PUSH1 0x60 DUP3 ADD MSTORE DUP3 PUSH1 0x80 DUP3 ADD MSTORE ADD MSTORE JUMP INVALID SWAP1 SHL BLOCKHASH GASPRICE 0xB0 SWAP1 SWAP15 MLOAD 0xCB DUP6 DUP3 SHL 0x4D 0xE9 0x2D 0xDA SWAP5 GAS RETURNDATACOPY BASEFEE 0xE5 0x2C MOD 0xE 0x49 PUSH18 0x83BA93BDDF3D9610C33DD46997791CD18936 COINBASE SWAP10 0xF8 0x22 0xE1 0x24 0xA5 0xA9 0xF7 0xED 0xE6 0x26 0xD8 GT 0x49 DUP3 SWAP9 0xCA 0xA5 REVERT LOG2 PUSH5 0x6970667358 0x22 SLT KECCAK256 JUMPDEST CREATE2 0xF EXTCODESIZE PUSH32 0x792272B83F70365A89B20FCEF54E14DF268DC44D1835599A918FE364736F6C63 NUMBER STOP ADDMOD EQ STOP CALLER "},"methodIdentifiers":{"acceptOwnership()":"79ba5097","addSupportedChain(uint64,address)":"8cabbc4d","authorizedAgents(address)":"efd76065","bridgeFee()":"82b12dd7","bridgeLiquidity(uint256,uint64,address)":"cf363805","bridgeToken()":"f4734b0c","calculateCCIPFee(uint64,bytes)":"a41c8f2b","ccipReceive((bytes32,uint64,bytes,bytes,(address,uint256)[]))":"85572ffb","chainContracts(uint64)":"bb7e0bef","createCrossChainMarket(uint256,uint256,uint64)":"35b15fe9","crossChainMarkets(uint256)":"9f8d54c4","getCrossChainMarket(uint256)":"76a2295c","getLiquidityBridge(bytes32)":"bc83745a","getRouter()":"b0f479a1","liquidityBridges(bytes32)":"2806acdc","liquidityPool()":"665a11ca","nextBridgeId()":"c5b0e52a","owner()":"8da5cb5b","pause()":"8456cb59","paused()":"5c975abb","removeSupportedChain(uint64)":"4d9fb4f6","sendAgentCoordination(uint64,uint256,bytes)":"40470cf6","setAuthorizedAgent(address,bool)":"0e273811","setBridgeFee(uint256)":"998cdf83","setLiquidityPool(address)":"01877020","supportedChains(uint64)":"f9c3f332","supportsInterface(bytes4)":"01ffc9a7","syncMarketData(uint256,uint64,bytes)":"cca2bd14","syncMarketResolution(uint256,uint64,bool,bytes)":"bee13aed","transferOwnership(address)":"f2fde38b","unpause()":"3f4ba83a","withdrawNative()":"50431ce4","withdrawTokens(address,uint256)":"06b091f9"}}}}}