{"contracts/core/PredictionMarket.sol":{"PredictionMarket":{"abi":[{"inputs":[{"internalType":"address","name":"_vrfCoordinator","type":"address"},{"internalType":"uint64","name":"_subscriptionId","type":"uint64"},{"internalType":"bytes32","name":"_keyHash","type":"bytes32"},{"internalType":"address","name":"_bettingToken","type":"address"},{"internalType":"address","name":"_feeRecipient","type":"address"}],"stateMutability":"nonpayable","type":"constructor"},{"inputs":[],"name":"EnforcedPause","type":"error"},{"inputs":[],"name":"ExpectedPause","type":"error"},{"inputs":[{"internalType":"address","name":"have","type":"address"},{"internalType":"address","name":"want","type":"address"}],"name":"OnlyCoordinatorCanFulfill","type":"error"},{"inputs":[{"internalType":"address","name":"owner","type":"address"}],"name":"OwnableInvalidOwner","type":"error"},{"inputs":[{"internalType":"address","name":"account","type":"address"}],"name":"OwnableUnauthorizedAccount","type":"error"},{"inputs":[],"name":"ReentrancyGuardReentrantCall","type":"error"},{"inputs":[{"internalType":"address","name":"token","type":"address"}],"name":"SafeERC20FailedOperation","type":"error"},{"anonymous":false,"inputs":[{"indexed":true,"internalType":"address","name":"agent","type":"address"},{"indexed":false,"internalType":"bool","name":"authorized","type":"bool"}],"name":"AgentAuthorized","type":"event"},{"anonymous":false,"inputs":[{"indexed":true,"internalType":"uint256","name":"marketId","type":"uint256"},{"indexed":true,"internalType":"address","name":"agent","type":"address"},{"indexed":false,"internalType":"bool","name":"prediction","type":"bool"},{"indexed":false,"internalType":"uint256","name":"confidence","type":"uint256"}],"name":"AgentPredictionSubmitted","type":"event"},{"anonymous":false,"inputs":[{"indexed":true,"internalType":"uint256","name":"marketId","type":"uint256"},{"indexed":true,"internalType":"address","name":"user","type":"address"},{"indexed":false,"internalType":"bool","name":"side","type":"bool"},{"indexed":false,"internalType":"uint256","name":"amount","type":"uint256"}],"name":"BetPlaced","type":"event"},{"anonymous":false,"inputs":[{"indexed":true,"internalType":"uint256","name":"marketId","type":"uint256"},{"indexed":false,"internalType":"string","name":"question","type":"string"},{"indexed":false,"internalType":"string","name":"category","type":"string"},{"indexed":false,"internalType":"uint256","name":"endTime","type":"uint256"},{"indexed":false,"internalType":"address","name":"creator","type":"address"}],"name":"MarketCreated","type":"event"},{"anonymous":false,"inputs":[{"indexed":true,"internalType":"uint256","name":"marketId","type":"uint256"},{"indexed":false,"internalType":"bool","name":"outcome","type":"bool"},{"indexed":false,"internalType":"uint256","name":"totalVolume","type":"uint256"}],"name":"MarketResolved","type":"event"},{"anonymous":false,"inputs":[{"indexed":true,"internalType":"address","name":"previousOwner","type":"address"},{"indexed":true,"internalType":"address","name":"newOwner","type":"address"}],"name":"OwnershipTransferred","type":"event"},{"anonymous":false,"inputs":[{"indexed":false,"internalType":"address","name":"account","type":"address"}],"name":"Paused","type":"event"},{"anonymous":false,"inputs":[{"indexed":false,"internalType":"address","name":"account","type":"address"}],"name":"Unpaused","type":"event"},{"anonymous":false,"inputs":[{"indexed":true,"internalType":"uint256","name":"marketId","type":"uint256"},{"indexed":true,"internalType":"address","name":"user","type":"address"},{"indexed":false,"internalType":"uint256","name":"amount","type":"uint256"}],"name":"WinningsClaimed","type":"event"},{"inputs":[{"internalType":"uint256","name":"","type":"uint256"},{"internalType":"uint256","name":"","type":"uint256"}],"name":"agentPredictions","outputs":[{"internalType":"address","name":"agent","type":"address"},{"internalType":"uint256","name":"marketId","type":"uint256"},{"internalType":"bool","name":"prediction","type":"bool"},{"internalType":"uint256","name":"confidence","type":"uint256"},{"internalType":"uint256","name":"timestamp","type":"uint256"},{"internalType":"string","name":"reasoning","type":"string"}],"stateMutability":"view","type":"function"},{"inputs":[{"internalType":"address","name":"","type":"address"}],"name":"agentReputation","outputs":[{"internalType":"uint256","name":"","type":"uint256"}],"stateMutability":"view","type":"function"},{"inputs":[{"internalType":"address","name":"","type":"address"}],"name":"authorizedAgents","outputs":[{"internalType":"bool","name":"","type":"bool"}],"stateMutability":"view","type":"function"},{"inputs":[],"name":"bettingToken","outputs":[{"internalType":"contract IERC20","name":"","type":"address"}],"stateMutability":"view","type":"function"},{"inputs":[{"internalType":"uint256","name":"_marketId","type":"uint256"},{"internalType":"address","name":"_user","type":"address"}],"name":"calculateWinnings","outputs":[{"internalType":"uint256","name":"","type":"uint256"}],"stateMutability":"view","type":"function"},{"inputs":[{"internalType":"bytes","name":"","type":"bytes"}],"name":"checkUpkeep","outputs":[{"internalType":"bool","name":"upkeepNeeded","type":"bool"},{"internalType":"bytes","name":"performData","type":"bytes"}],"stateMutability":"view","type":"function"},{"inputs":[{"internalType":"uint256","name":"_marketId","type":"uint256"}],"name":"claimWinnings","outputs":[],"stateMutability":"nonpayable","type":"function"},{"inputs":[{"internalType":"string","name":"_question","type":"string"},{"internalType":"string","name":"_category","type":"string"},{"internalType":"uint256","name":"_endTime","type":"uint256"},{"internalType":"uint256","name":"_creatorFee","type":"uint256"}],"name":"createMarket","outputs":[{"internalType":"uint256","name":"","type":"uint256"}],"stateMutability":"nonpayable","type":"function"},{"inputs":[],"name":"feeRecipient","outputs":[{"internalType":"address","name":"","type":"address"}],"stateMutability":"view","type":"function"},{"inputs":[{"internalType":"uint256","name":"_marketId","type":"uint256"}],"name":"getAgentPredictions","outputs":[{"components":[{"internalType":"address","name":"agent","type":"address"},{"internalType":"uint256","name":"marketId","type":"uint256"},{"internalType":"bool","name":"prediction","type":"bool"},{"internalType":"uint256","name":"confidence","type":"uint256"},{"internalType":"uint256","name":"timestamp","type":"uint256"},{"internalType":"string","name":"reasoning","type":"string"}],"internalType":"struct PredictionMarket.AgentPrediction[]","name":"","type":"tuple[]"}],"stateMutability":"view","type":"function"},{"inputs":[{"internalType":"uint256","name":"_marketId","type":"uint256"}],"name":"getMarket","outputs":[{"components":[{"internalType":"uint256","name":"id","type":"uint256"},{"internalType":"string","name":"question","type":"string"},{"internalType":"string","name":"category","type":"string"},{"internalType":"uint256","name":"createdAt","type":"uint256"},{"internalType":"uint256","name":"endTime","type":"uint256"},{"internalType":"uint256","name":"resolutionTime","type":"uint256"},{"internalType":"bool","name":"resolved","type":"bool"},{"internalType":"bool","name":"outcome","type":"bool"},{"internalType":"uint256","name":"totalYesAmount","type":"uint256"},{"internalType":"uint256","name":"totalNoAmount","type":"uint256"},{"internalType":"uint256","name":"totalVolume","type":"uint256"},{"internalType":"address","name":"creator","type":"address"},{"internalType":"uint256","name":"creatorFee","type":"uint256"},{"internalType":"bool","name":"active","type":"bool"}],"internalType":"struct PredictionMarket.Market","name":"","type":"tuple"}],"stateMutability":"view","type":"function"},{"inputs":[{"internalType":"uint256","name":"_marketId","type":"uint256"},{"internalType":"address","name":"_user","type":"address"}],"name":"getPosition","outputs":[{"components":[{"internalType":"uint256","name":"marketId","type":"uint256"},{"internalType":"address","name":"user","type":"address"},{"internalType":"uint256","name":"yesAmount","type":"uint256"},{"internalType":"uint256","name":"noAmount","type":"uint256"},{"internalType":"bool","name":"claimed","type":"bool"}],"internalType":"struct PredictionMarket.Position","name":"","type":"tuple"}],"stateMutability":"view","type":"function"},{"inputs":[{"internalType":"uint256","name":"","type":"uint256"}],"name":"markets","outputs":[{"internalType":"uint256","name":"id","type":"uint256"},{"internalType":"string","name":"question","type":"string"},{"internalType":"string","name":"category","type":"string"},{"internalType":"uint256","name":"createdAt","type":"uint256"},{"internalType":"uint256","name":"endTime","type":"uint256"},{"internalType":"uint256","name":"resolutionTime","type":"uint256"},{"internalType":"bool","name":"resolved","type":"bool"},{"internalType":"bool","name":"outcome","type":"bool"},{"internalType":"uint256","name":"totalYesAmount","type":"uint256"},{"internalType":"uint256","name":"totalNoAmount","type":"uint256"},{"internalType":"uint256","name":"totalVolume","type":"uint256"},{"internalType":"address","name":"creator","type":"address"},{"internalType":"uint256","name":"creatorFee","type":"uint256"},{"internalType":"bool","name":"active","type":"bool"}],"stateMutability":"view","type":"function"},{"inputs":[],"name":"maxBetAmount","outputs":[{"internalType":"uint256","name":"","type":"uint256"}],"stateMutability":"view","type":"function"},{"inputs":[],"name":"minBetAmount","outputs":[{"internalType":"uint256","name":"","type":"uint256"}],"stateMutability":"view","type":"function"},{"inputs":[],"name":"nextMarketId","outputs":[{"internalType":"uint256","name":"","type":"uint256"}],"stateMutability":"view","type":"function"},{"inputs":[],"name":"owner","outputs":[{"internalType":"address","name":"","type":"address"}],"stateMutability":"view","type":"function"},{"inputs":[],"name":"pause","outputs":[],"stateMutability":"nonpayable","type":"function"},{"inputs":[],"name":"paused","outputs":[{"internalType":"bool","name":"","type":"bool"}],"stateMutability":"view","type":"function"},{"inputs":[{"internalType":"bytes","name":"performData","type":"bytes"}],"name":"performUpkeep","outputs":[],"stateMutability":"nonpayable","type":"function"},{"inputs":[{"internalType":"uint256","name":"_marketId","type":"uint256"},{"internalType":"bool","name":"_side","type":"bool"},{"internalType":"uint256","name":"_amount","type":"uint256"}],"name":"placeBet","outputs":[],"stateMutability":"nonpayable","type":"function"},{"inputs":[],"name":"platformFee","outputs":[{"internalType":"uint256","name":"","type":"uint256"}],"stateMutability":"view","type":"function"},{"inputs":[{"internalType":"uint256","name":"","type":"uint256"},{"internalType":"address","name":"","type":"address"}],"name":"positions","outputs":[{"internalType":"uint256","name":"marketId","type":"uint256"},{"internalType":"address","name":"user","type":"address"},{"internalType":"uint256","name":"yesAmount","type":"uint256"},{"internalType":"uint256","name":"noAmount","type":"uint256"},{"internalType":"bool","name":"claimed","type":"bool"}],"stateMutability":"view","type":"function"},{"inputs":[{"internalType":"uint256","name":"requestId","type":"uint256"},{"internalType":"uint256[]","name":"randomWords","type":"uint256[]"}],"name":"rawFulfillRandomWords","outputs":[],"stateMutability":"nonpayable","type":"function"},{"inputs":[],"name":"renounceOwnership","outputs":[],"stateMutability":"nonpayable","type":"function"},{"inputs":[{"internalType":"uint256","name":"_marketId","type":"uint256"},{"internalType":"bool","name":"_outcome","type":"bool"}],"name":"resolveMarket","outputs":[],"stateMutability":"nonpayable","type":"function"},{"inputs":[{"internalType":"address","name":"_agent","type":"address"},{"internalType":"bool","name":"_authorized","type":"bool"}],"name":"setAgentAuthorization","outputs":[],"stateMutability":"nonpayable","type":"function"},{"inputs":[{"internalType":"uint256","name":"_minAmount","type":"uint256"},{"internalType":"uint256","name":"_maxAmount","type":"uint256"}],"name":"setBettingLimits","outputs":[],"stateMutability":"nonpayable","type":"function"},{"inputs":[{"internalType":"uint256","name":"_fee","type":"uint256"}],"name":"setPlatformFee","outputs":[],"stateMutability":"nonpayable","type":"function"},{"inputs":[{"internalType":"uint256","name":"_marketId","type":"uint256"},{"internalType":"bool","name":"_prediction","type":"bool"},{"internalType":"uint256","name":"_confidence","type":"uint256"},{"internalType":"string","name":"_reasoning","type":"string"}],"name":"submitAgentPrediction","outputs":[],"stateMutability":"nonpayable","type":"function"},{"inputs":[{"internalType":"address","name":"newOwner","type":"address"}],"name":"transferOwnership","outputs":[],"stateMutability":"nonpayable","type":"function"},{"inputs":[],"name":"unpause","outputs":[],"stateMutability":"nonpayable","type":"function"},{"inputs":[{"internalType":"address","name":"_agent","type":"address"},{"internalType":"uint256","name":"_newReputation","type":"uint256"}],"name":"updateAgentReputation","outputs":[],"stateMutability":"nonpayable","type":"function"},{"inputs":[],"name":"withdrawFees","outputs":[],"stateMutability":"nonpayable","type":"function"}],"evm":{"bytecode":{"linkReferences":{},"object":"60a03462000183576001600160401b0390601f620028a638819003918201601f191683019184831184841017620001885780849260a09460405283398101031262000183576200004f816200019e565b9160208201519081168103620001835760408201519162000081608062000079606084016200019e565b92016200019e565b9033156200016a576000549060018060a01b03199433868416176000556040519660018060a01b03958694853391167f8be0079c531659141344cd1fd0a4f28419497f9722a3daafe3b4186f6b6457e0600080a36001805581608052600160085560fa600955662386f26fc10000600a55683635c9adc5dea00000600b5566010003000186a060018060501b0319601054161760105584600e5491600160a01b600160e01b039060a01b1692169063ffffffff60e01b161717600e55600f551683600d541617600d551690600c541617600c556126f29081620001b4823960805181611bd20152f35b604051631e4fbdf760e01b815260006004820152602490fd5b600080fd5b634e487b7160e01b600052604160045260246000fd5b51906001600160a01b0382168203620001835756fe6080604052600436101561001257600080fd5b60003560e01c80630911e86414611fda57806312e8e2c314611f7c5780631a38cac614611da45780631fe543e314611ba057806326232a2e14611b8257806339b6ee19146116535780633f4ba83a146115e9578063406ef2ef146115cb57806343425e88146115a25780634585e33b146114995780634690484014611470578063476343ee1461132b57806354de6e32146112f157806357bde446146111b75780635c975abb14611194578063677bd9ff14610fda5780636e04ff0d14610e1d578063715018a614610dc45780637d7bdec014610a455780638456cb59146109eb5780638da5cb5b146109c25780638e6bf35b1461085f5780639259b274146107dd578063a108ce5f146107be578063a136effe14610728578063b1283e7714610627578063cab11d5d14610609578063d29f541d14610534578063e684d718146104ba578063eb44fdd3146102ab578063efd760651461026c578063f15cc4061461023e578063f2fde38b146101b55763fa968eea1461019257600080fd5b346101b05760003660031901126101b0576020600a54604051908152f35b600080fd5b346101b05760203660031901126101b0576101ce612087565b6101d661239b565b6001600160a01b0390811690811561022557600054826001600160601b0360a01b821617600055167f8be0079c531659141344cd1fd0a4f28419497f9722a3daafe3b4186f6b6457e0600080a3005b604051631e4fbdf760e01b815260006004820152602490fd5b346101b05760403660031901126101b057602061026461025c61209d565b600435612584565b604051908152f35b346101b05760203660031901126101b0576001600160a01b0361028d612087565b166000526006602052602060ff604060002054166040519015158152f35b346101b05760203660031901126101b05760006101a06040516102cd816120c2565b82815260606020820152606060408201528260608201528260808201528260a08201528260c08201528260e0820152826101008201528261012082015282610140820152826101608201528261018082015201526004356000526003602052604060002060ff600c60405192610342846120c2565b80548452610352600182016122f5565b6020850152610363600282016122f5565b60408501526003810154606085015260048101546080850152600581015460a0850152826006820154818116151560c087015260081c16151560e085015260078101546101008501526008810154610120850152600981015461014085015260018060a01b03600a82015416610160850152600b81015461018085015201541615156101a0820152604051809160208252805160208301526101a061043261041c60208401516101c060408701526101e0860190612249565b6040840151858203601f19016060870152612249565b9160608101516080850152608081015160a085015260a081015160c085015260c0810151151560e085015260e0810151151561010085015261010081015161012085015261012081015161014085015261014081015161016085015260018060a01b036101608201511661018085015261018081015182850152015115156101c08301520390f35b346101b05760403660031901126101b05760a06104d561209d565b60043560005260046020526040600020600180841b03809216600052602052604060002080549160018201541690600281015460ff60046003840154930154169260405194855260208501526040840152606083015215156080820152f35b346101b05760403660031901126101b05760a061054f61209d565b6000608060405161055f816120f9565b828152826020820152826040820152826060820152015260043560005260046020526040600020600180841b038092166000526020526040600020604051906105a7826120f9565b80549283835280600183015416906020840191825260028301549160408501928352608060ff60046003870154966060890197885201541695019415158552604051958652511660208501525160408401525160608301525115156080820152f35b346101b05760003660031901126101b0576020600b54604051908152f35b346101b05760203660031901126101b05760043560005260036020526040600020805460018201610657906122f5565b91610664600282016122f5565b6003820154916004810154600582015460068301546007840154600885015491600986015493600160a01b60019003600a8801541695600b88015497600c015460ff16986040519c8d9c8d528c6101c06020819201528d016106c591612249565b8c810360408e01526106d691612249565b9960608c015260808b015260a08a015260ff8116151560c08a015260081c60ff16151560e089015261010088015261012087015261014086015261016085015261018084015215156101a08301520390f35b346101b05761073636612289565b90600052600560205260406000209081548110156101b0576107579161229f565b5060018060a01b038154166107ba60018301549260ff60028201541690600381015461078a6005600484015493016122f5565b9260405196879687526020870152151560408601526060850152608084015260c060a084015260c0830190612249565b0390f35b346101b0576107cc36612289565b906107d561239b565b600a55600b55005b346101b05760403660031901126101b0576107f6612087565b6024359061080261239b565b6127108211610825576001600160a01b0316600090815260076020526040902055005b60405162461bcd60e51b815260206004820152601260248201527124b73b30b634b2103932b83aba30ba34b7b760711b6044820152606490fd5b346101b0576020806003193601126101b057600435600052600590818152604060002080549161088e83612135565b9261089c6040519485612114565b8084528184018093600052826000206000915b8383106109565750505050604051928184019082855251809152604081818601961b85010192916000955b8287106108e75785850386f35b909192938280610946600193603f198a82030186528851858060a01b0381511682528381015184830152604081015115156040830152606080820151908301526080808201519083015260a0809101519160c080928201520190612249565b96019201960195929190926108da565b60068560019260409997995161096b816120de565b848060a01b038654168152848601548382015260ff6002870154161515604082015260038601546060820152600486015460808201526109ac8c87016122f5565b60a08201528152019201920191909593956108af565b346101b05760003660031901126101b0576000546040516001600160a01b039091168152602090f35b346101b05760003660031901126101b057610a0461239b565b610a0c6124d4565b600160ff1960025416176002557f62e78cea01bee320cd4e420270b5ea74000d11b0c9f74754ebdbfc544b05a2586020604051338152a1005b346101b05760803660031901126101b057600435610a616120b3565b906001600160401b036044356064358281116101b057610a859036906004016121aa565b336000526020926006845260ff6040600020541615610d7f578460005260038452610aba60ff600c60406000200154166123ec565b8460005260038452610ad5600460406000200154421061242c565b6127108311610d3a5784600052600584526040600020604051610af7816120de565b338152858101908782526040810190891515825260608101878152608082019142835260a08101978852855468010000000000000000811015610d0e57610b4590600197888201815561229f565b949094610d2457600595610b8b9260018060a01b039051166001600160601b0360a01b8754161786555187860155511515600285019060ff801983541691151516179055565b516003830155516004820155019251948551928311610d0e57610bae84546122bb565b601f8111610cc5575b5080601f8411600114610c36575091808092610c269695947f22ba00c7a927fe8ff7a3feb6f006712ec7adb8e2006183b6f9e437f45fdc030c98600094610c2b575b50501b916000199060031b1c19161790555b60408051951515865260208601919091523394918291820190565b0390a3005b015192508a80610bf9565b91939495601f1984168660005283600020936000905b828210610cae575050917f22ba00c7a927fe8ff7a3feb6f006712ec7adb8e2006183b6f9e437f45fdc030c9795939185610c2698969410610c95575b505050811b019055610c0b565b015160001960f88460031b161c19169055888080610c88565b808886978294978701518155019601940190610c4c565b8460005281600020601f850160051c810191838610610d04575b601f0160051c019083905b828110610cf8575050610bb7565b60008155018390610cea565b9091508190610cdf565b634e487b7160e01b600052604160045260246000fd5b634e487b7160e01b600052600060045260246000fd5b60405162461bcd60e51b815260048101859052601860248201527f496e76616c696420636f6e666964656e6365206c6576656c00000000000000006044820152606490fd5b60405162461bcd60e51b815260048101859052601760248201527f4e6f7420616e20617574686f72697a6564206167656e740000000000000000006044820152606490fd5b346101b05760003660031901126101b057610ddd61239b565b600080546001600160a01b0319811682556001600160a01b03167f8be0079c531659141344cd1fd0a4f28419497f9722a3daafe3b4186f6b6457e08280a3005b346101b057610e2b36612200565b5050604051610ca081018181106001600160401b03821117610d0e57604052606490818152602091610c803684840137600091600191829083600854905b610f3d575b505050610e7a83612135565b90610e886040519283612114565b838252610e9484612135565b9185810191601f1980940136843760005b868110610f1357505060405193604085019187808701525180925260608501929160005b88828210610f0057886107ba89610ee88a828b03908101835282612114565b60408051948594151585528401526040830190612249565b8451865294850194909301928201610ec9565b80610f24610f3592849895986126a8565b51610f2f82896126a8565b526123c7565b949194610ea5565b80839695931080610fd1575b15610fc8578560005260038752604060002060ff9081600c820154169182610fb9575b5081610faa575b50610f8d575b610f85839495966123c7565b929493610e69565b610f85610fa18688610f2f889988996126a8565b95945050610f79565b60049150015442101588610f73565b60068201541615915089610f6c565b82949550610e6e565b50818510610f49565b346101b0576020806003193601126101b057600435610ff76124f2565b806000526003825260406000209160048152604060002033600052815260ff60066040600020940154161561115a576004830180549360ff85166111235760028101541590811591611115575b50156110e2576110543384612584565b9384156110af5760ff19166001179055600d547f5380cf6fe903b40c6d5a9e0dfbca2f3a423f0a21520b4d5947ed5169bdba946d91906110a090859033906001600160a01b0316612515565b6040519384523393a360018055005b60405162461bcd60e51b815260048101849052600b60248201526a4e6f2077696e6e696e677360a81b6044820152606490fd5b60405162461bcd60e51b815260048101839052600b60248201526a2737903837b9b4ba34b7b760a91b6044820152606490fd5b600391500154151585611044565b60405162461bcd60e51b815260048101849052600f60248201526e105b1c9958591e4818db185a5b5959608a1b6044820152606490fd5b6064906040519062461bcd60e51b82526004820152601360248201527213585c9ad95d081b9bdd081c995cdbdb1d9959606a1b6044820152fd5b346101b05760003660031901126101b057602060ff600254166040519015158152f35b346101b05760403660031901126101b0576004356111d36120b3565b6111db61239b565b8160005260036020526040600020906111fa60ff600c840154166123ec565b600482015442106112b557600682019182549060ff82166112705761ffff1990911682151560081b61ff0016176001179092557f6d4d544f5a6dcf38d77a232d3ef7358625c74877a1ad954fcb507872e7a05eaf916009905b4260058201550154604080519215158352602083019190915290a2005b60405162461bcd60e51b815260206004820152601760248201527f4d61726b657420616c7265616479207265736f6c7665640000000000000000006044820152606490fd5b60405162461bcd60e51b815260206004820152601460248201527313585c9ad95d081a185cc81b9bdd08195b99195960621b6044820152606490fd5b346101b05760203660031901126101b0576001600160a01b03611312612087565b1660005260076020526020604060002054604051908152f35b346101b05760003660031901126101b05761134461239b565b600d546040516370a0823160e01b81523060048201526001600160a01b039182169060208082602481865afa91821561146457600092611435575b506000906001906008908154925b8381106113cc5750505050808211156113c2576113a991612577565b905b816113b257005b6113c092600c541690612515565b005b50506000906113ab565b8060005260038252604060002060ff80600c830154169081611426575b506113fe575b506113f9906123c7565b61138d565b6113f991956114198286600761141f9501549101549061246b565b9061246b565b94906113ef565b9050600682015416158a6113e9565b9080925081813d831161145d575b61144d8183612114565b810103126101b05751908461137f565b503d611443565b6040513d6000823e3d90fd5b346101b05760003660031901126101b057600c546040516001600160a01b039091168152602090f35b346101b0576114a736612200565b810160209182818303126101b0576001600160401b039181358381116101b0576114d1920161214c565b9060005b82518110156113c0576114e881846126a8565b5190600e549185600f5460a460105491600060405197889485936305d3b1d360e41b855260048501528a8260a01c16602485015261ffff81881c16604485015263ffffffff90818116606486015260301c16608484015260018060a01b03165af1801561146457600090611573575b61156e9350600052601186526040600020556123c7565b6114d5565b508583813d831161159b575b6115898183612114565b810103126101b05761156e9251611557565b503d61157f565b346101b05760003660031901126101b057600d546040516001600160a01b039091168152602090f35b346101b05760003660031901126101b0576020600854604051908152f35b346101b05760003660031901126101b05761160261239b565b60025460ff8116156116415760ff19166002557f5db9ee0a495bf2e6ff9c91a7834c1ba4fdd244a5e8aa4e537bd38aeae4b073aa6020604051338152a1005b604051638dfc202b60e01b8152600490fd5b346101b05760803660031901126101b0576004356001600160401b0381116101b0576116839036906004016121aa565b6024356001600160401b0381116101b0576116a29036906004016121aa565b426044351115611b3d576103e860643511611b0157600854906116c4826123c7565b6008556040516116d3816120c2565b8281528360208201528160408201524260608201526044356080820152600060a0820152600060c0820152600060e08201526000610100820152600061012082015260006101408201523361016082015260643561018082015260016101a08201528260005260036020526040600020908051825560208101518051906001600160401b038211610d0e57819061176d60018601546122bb565b601f8111611aae575b50602090601f8311600114611a3c57600092611a31575b50508160011b916000199060031b1c19161760018301555b60408101518051906001600160401b038211610d0e576117c860028501546122bb565b601f81116119ea575b509160209693918695938890601f83116001146119465793600c6101a061192295856119159996611901967f52105760953315619bb79834bd5f30e171e178d6354e6ced3fc3ba13a79c6f509c9a60009261193b575b50508160011b916000199060031b1c19161760028501555b606081015160038501556080810151600485015560a0810151600585015561189b6006850161188060c08401511515829060ff801983541691151516179055565b60e0830151815461ff00191690151560081b61ff0016179055565b610100810151600785015561012081015160088501556101408101516009850155600a840160018060a01b03610160830151166001600160601b0360a01b825416179055610180810151600b8501550151151591019060ff801983541691151516179055565b604051938493608085526080850190612249565b9083820389850152612249565b60443560408301523360608301520390a2604051908152f35b015190508f80611827565b9060028501600052896000209160005b601f19851681106119d057506101a061192295600186611901967f52105760953315619bb79834bd5f30e171e178d6354e6ced3fc3ba13a79c6f509c9a96600c966119159d9a601f198116106119b7575b505050811b01600285015561183f565b015160001960f88460031b161c191690558f80806119a7565b8183015184558a9950600190930192918b01918b01611956565b600285016000526020600020601f840160051c810160208510611a2a575b601f830160051c82018110611a1e5750506117d1565b60008155600101611a08565b5080611a08565b01519050878061178d565b9250600185016000526020600020906000935b601f1984168510611a93576001945083601f19811610611a7a575b505050811b0160018301556117a5565b015160001960f88460031b161c19169055878080611a6a565b81810151835560209485019460019093019290910190611a4f565b909150600185016000526020600020601f840160051c810160208510611afa575b90849392915b601f830160051c82018110611aeb575050611776565b60008155859450600101611ad5565b5080611acf565b60405162461bcd60e51b8152602060048201526014602482015273086e4cac2e8dee440cccaca40e8dede40d0d2ced60631b6044820152606490fd5b60405162461bcd60e51b815260206004820152601e60248201527f456e642074696d65206d75737420626520696e207468652066757475726500006044820152606490fd5b346101b05760003660031901126101b0576020600954604051908152f35b346101b05760403660031901126101b0576024356001600160401b0381116101b057611bd090369060040161214c565b7f00000000000000000000000000000000000000000000000000000000000000006001600160a01b031633819003611d86575060043560005260116020526040600020549081600052600360205260406000209060068201549060ff82161580611d78575b611c3b57005b600560205260406000209260009160009460009060008154915b828210611cf65750505050805115611ce0577f6d4d544f5a6dcf38d77a232d3ef7358625c74877a1ad954fcb507872e7a05eaf9460099360018060208195015116148860005260056020526040600020541515600014611cd7575011935b61ff001990911661ffff199091161783151560081b61ff0016176006820155611253565b91505093611cb3565b634e487b7160e01b600052603260045260246000fd5b90919295611d04838361229f565b509060018060a01b03825416600052600760205260ff6002611d30604060002054600386015490612564565b9301541615611d5f5781611d4a611d5693611d509361246b565b9861246b565b926123c7565b90929192611c55565b969881611d72611d5693611d509361246b565b9a61246b565b5060ff600c84015416611c35565b6044906040519063073e64fd60e21b82523360048301526024820152fd5b346101b05760603660031901126101b057600435611dc06120b3565b90604435611dcc6124f2565b611dd46124d4565b8160005260036020526040600020611df260ff600c830154166123ec565b611e016004820154421061242c565b600a5482101580611f70575b15611f3657600d546040516323b872dd60e01b6020820152336024820152306044820152606480820185905281527f4af71b021e799c62c158bd54636ca8da2fa26115a21a2dc6efe486ec104fd15f93611f07939092600992611e81916001600160a01b0316611e7c826120f9565b612478565b856000526004602052604060002033600052602052604060002086815560018101336001600160601b0360a01b82541617905587600014611f1057600201611eca84825461246b565b905560078101611edb84825461246b565b90555b01611eea82825461246b565b905560408051951515865260208601919091523394918291820190565b0390a360018055005b600301611f1e84825461246b565b905560088101611f2f84825461246b565b9055611ede565b60405162461bcd60e51b8152602060048201526012602482015271125b9d985b1a590818995d08185b5bdd5b9d60721b6044820152606490fd5b50600b54821115611e0d565b346101b05760203660031901126101b057600435611f9861239b565b6103e88111611fa657600955005b60405162461bcd60e51b815260206004820152600c60248201526b08ccaca40e8dede40d0d2ced60a31b6044820152606490fd5b346101b05760403660031901126101b057611ff3612087565b7f1b06338d0edf2ba8ccee31e466ab37b376418209af6a85c55c51e89a51e33bde602061201e6120b3565b9261202761239b565b6001600160a01b031660008181526006835260409020805460ff191660ff86151516179055928080612076575b612064575b6040519015158152a2005b60078252611388604060002055612059565b506007825260406000205415612054565b600435906001600160a01b03821682036101b057565b602435906001600160a01b03821682036101b057565b6024359081151582036101b057565b6101c081019081106001600160401b03821117610d0e57604052565b60c081019081106001600160401b03821117610d0e57604052565b60a081019081106001600160401b03821117610d0e57604052565b90601f801991011681019081106001600160401b03821117610d0e57604052565b6001600160401b038111610d0e5760051b60200190565b81601f820112156101b05780359161216383612135565b926121716040519485612114565b808452602092838086019260051b8201019283116101b0578301905b82821061219b575050505090565b8135815290830190830161218d565b81601f820112156101b0578035906001600160401b038211610d0e57604051926121de601f8401601f191660200185612114565b828452602083830101116101b057816000926020809301838601378301015290565b9060206003198301126101b0576004356001600160401b03928382116101b057806023830112156101b05781600401359384116101b057602484830101116101b0576024019190565b919082519283825260005b848110612275575050826000602080949584010152601f8019910116010190565b602081830181015184830182015201612254565b60409060031901126101b0576004359060243590565b8054821015611ce0576000526006602060002091020190600090565b90600182811c921680156122eb575b60208310146122d557565b634e487b7160e01b600052602260045260246000fd5b91607f16916122ca565b9060405191826000825492612309846122bb565b9081845260019485811690816000146123785750600114612335575b505061233392500383612114565b565b9093915060005260209081600020936000915b81831061236057505061233393508201013880612325565b85548884018501529485019487945091830191612348565b91505061233394506020925060ff191682840152151560051b8201013880612325565b6000546001600160a01b031633036123af57565b60405163118cdaa760e01b8152336004820152602490fd5b60001981146123d65760010190565b634e487b7160e01b600052601160045260246000fd5b156123f357565b60405162461bcd60e51b81526020600482015260116024820152704d61726b6574206e6f742061637469766560781b6044820152606490fd5b1561243357565b60405162461bcd60e51b815260206004820152601060248201526f13585c9ad95d081a185cc8195b99195960821b6044820152606490fd5b919082018092116123d657565b906000602091828151910182855af115611464576000513d6124cb57506001600160a01b0381163b155b6124a95750565b604051635274afe760e01b81526001600160a01b039091166004820152602490fd5b600114156124a2565b60ff600254166124e057565b60405163d93c066560e01b8152600490fd5b600260015414612503576002600155565b604051633ee5aeb560e01b8152600490fd5b60405163a9059cbb60e01b60208201526001600160a01b03909216602483015260448083019390935291815260808101916001600160401b03831182841017610d0e5761233392604052612478565b818102929181159184041417156123d657565b919082039182116123d657565b906000918252600360205260408220906004602052604083209060018060a01b031683526020526040822060068201549260ff841615801561269a575b6126935760078301549160ff6008850154956125dd878661246b565b5060081c1694851561268c57835b86156126845750945b1561267a5760020154935b84158015612672575b61266a576126169085612564565b90821561265657509161271061264761264161264e9461265397960493600b6009549101549061246b565b83612564565b049261246b565b612577565b90565b634e487b7160e01b81526012600452602490fd5b509250505090565b508215612608565b60030154936125ff565b9050946125f4565b80936125eb565b9250505090565b5060ff6004830154166125c1565b8051821015611ce05760209160051b01019056fea2646970667358221220abef4f4204e6d6f70d36a3b6c65c4ccff1b3fcad78946c4ccc7bb8955a117c3164736f6c63430008140033","opcodes":"PUSH1 0xA0 CALLVALUE PUSH3 0x183 JUMPI PUSH1 0x1 PUSH1 0x1 PUSH1 0x40 SHL SUB SWAP1 PUSH1 0x1F PUSH3 0x28A6 CODESIZE DUP2 SWAP1 SUB SWAP2 DUP3 ADD PUSH1 0x1F NOT AND DUP4 ADD SWAP2 DUP5 DUP4 GT DUP5 DUP5 LT OR PUSH3 0x188 JUMPI DUP1 DUP5 SWAP3 PUSH1 0xA0 SWAP5 PUSH1 0x40 MSTORE DUP4 CODECOPY DUP2 ADD SUB SLT PUSH3 0x183 JUMPI PUSH3 0x4F DUP2 PUSH3 0x19E JUMP JUMPDEST SWAP2 PUSH1 0x20 DUP3 ADD MLOAD SWAP1 DUP2 AND DUP2 SUB PUSH3 0x183 JUMPI PUSH1 0x40 DUP3 ADD MLOAD SWAP2 PUSH3 0x81 PUSH1 0x80 PUSH3 0x79 PUSH1 0x60 DUP5 ADD PUSH3 0x19E JUMP JUMPDEST SWAP3 ADD PUSH3 0x19E JUMP JUMPDEST SWAP1 CALLER ISZERO PUSH3 0x16A JUMPI PUSH1 0x0 SLOAD SWAP1 PUSH1 0x1 DUP1 PUSH1 0xA0 SHL SUB NOT SWAP5 CALLER DUP7 DUP5 AND OR PUSH1 0x0 SSTORE PUSH1 0x40 MLOAD SWAP7 PUSH1 0x1 DUP1 PUSH1 0xA0 SHL SUB SWAP6 DUP7 SWAP5 DUP6 CALLER SWAP2 AND PUSH32 0x8BE0079C531659141344CD1FD0A4F28419497F9722A3DAAFE3B4186F6B6457E0 PUSH1 0x0 DUP1 LOG3 PUSH1 0x1 DUP1 SSTORE DUP2 PUSH1 0x80 MSTORE PUSH1 0x1 PUSH1 0x8 SSTORE PUSH1 0xFA PUSH1 0x9 SSTORE PUSH7 0x2386F26FC10000 PUSH1 0xA SSTORE PUSH9 0x3635C9ADC5DEA00000 PUSH1 0xB SSTORE PUSH7 0x10003000186A0 PUSH1 0x1 DUP1 PUSH1 0x50 SHL SUB NOT PUSH1 0x10 SLOAD AND OR PUSH1 0x10 SSTORE DUP5 PUSH1 0xE SLOAD SWAP2 PUSH1 0x1 PUSH1 0xA0 SHL PUSH1 0x1 PUSH1 0xE0 SHL SUB SWAP1 PUSH1 0xA0 SHL AND SWAP3 AND SWAP1 PUSH4 0xFFFFFFFF PUSH1 0xE0 SHL AND OR OR PUSH1 0xE SSTORE PUSH1 0xF SSTORE AND DUP4 PUSH1 0xD SLOAD AND OR PUSH1 0xD SSTORE AND SWAP1 PUSH1 0xC SLOAD AND OR PUSH1 0xC SSTORE PUSH2 0x26F2 SWAP1 DUP2 PUSH3 0x1B4 DUP3 CODECOPY PUSH1 0x80 MLOAD DUP2 PUSH2 0x1BD2 ADD MSTORE RETURN JUMPDEST PUSH1 0x40 MLOAD PUSH4 0x1E4FBDF7 PUSH1 0xE0 SHL DUP2 MSTORE PUSH1 0x0 PUSH1 0x4 DUP3 ADD MSTORE PUSH1 0x24 SWAP1 REVERT JUMPDEST PUSH1 0x0 DUP1 REVERT JUMPDEST PUSH4 0x4E487B71 PUSH1 0xE0 SHL PUSH1 0x0 MSTORE PUSH1 0x41 PUSH1 0x4 MSTORE PUSH1 0x24 PUSH1 0x0 REVERT JUMPDEST MLOAD SWAP1 PUSH1 0x1 PUSH1 0x1 PUSH1 0xA0 SHL SUB DUP3 AND DUP3 SUB PUSH3 0x183 JUMPI JUMP INVALID PUSH1 0x80 PUSH1 0x40 MSTORE PUSH1 0x4 CALLDATASIZE LT ISZERO PUSH2 0x12 JUMPI PUSH1 0x0 DUP1 REVERT JUMPDEST PUSH1 0x0 CALLDATALOAD PUSH1 0xE0 SHR DUP1 PUSH4 0x911E864 EQ PUSH2 0x1FDA JUMPI DUP1 PUSH4 0x12E8E2C3 EQ PUSH2 0x1F7C JUMPI DUP1 PUSH4 0x1A38CAC6 EQ PUSH2 0x1DA4 JUMPI DUP1 PUSH4 0x1FE543E3 EQ PUSH2 0x1BA0 JUMPI DUP1 PUSH4 0x26232A2E EQ PUSH2 0x1B82 JUMPI DUP1 PUSH4 0x39B6EE19 EQ PUSH2 0x1653 JUMPI DUP1 PUSH4 0x3F4BA83A EQ PUSH2 0x15E9 JUMPI DUP1 PUSH4 0x406EF2EF EQ PUSH2 0x15CB JUMPI DUP1 PUSH4 0x43425E88 EQ PUSH2 0x15A2 JUMPI DUP1 PUSH4 0x4585E33B EQ PUSH2 0x1499 JUMPI DUP1 PUSH4 0x46904840 EQ PUSH2 0x1470 JUMPI DUP1 PUSH4 0x476343EE EQ PUSH2 0x132B JUMPI DUP1 PUSH4 0x54DE6E32 EQ PUSH2 0x12F1 JUMPI DUP1 PUSH4 0x57BDE446 EQ PUSH2 0x11B7 JUMPI DUP1 PUSH4 0x5C975ABB EQ PUSH2 0x1194 JUMPI DUP1 PUSH4 0x677BD9FF EQ PUSH2 0xFDA JUMPI DUP1 PUSH4 0x6E04FF0D EQ PUSH2 0xE1D JUMPI DUP1 PUSH4 0x715018A6 EQ PUSH2 0xDC4 JUMPI DUP1 PUSH4 0x7D7BDEC0 EQ PUSH2 0xA45 JUMPI DUP1 PUSH4 0x8456CB59 EQ PUSH2 0x9EB JUMPI DUP1 PUSH4 0x8DA5CB5B EQ PUSH2 0x9C2 JUMPI DUP1 PUSH4 0x8E6BF35B EQ PUSH2 0x85F JUMPI DUP1 PUSH4 0x9259B274 EQ PUSH2 0x7DD JUMPI DUP1 PUSH4 0xA108CE5F EQ PUSH2 0x7BE JUMPI DUP1 PUSH4 0xA136EFFE EQ PUSH2 0x728 JUMPI DUP1 PUSH4 0xB1283E77 EQ PUSH2 0x627 JUMPI DUP1 PUSH4 0xCAB11D5D EQ PUSH2 0x609 JUMPI DUP1 PUSH4 0xD29F541D EQ PUSH2 0x534 JUMPI DUP1 PUSH4 0xE684D718 EQ PUSH2 0x4BA JUMPI DUP1 PUSH4 0xEB44FDD3 EQ PUSH2 0x2AB JUMPI DUP1 PUSH4 0xEFD76065 EQ PUSH2 0x26C JUMPI DUP1 PUSH4 0xF15CC406 EQ PUSH2 0x23E JUMPI DUP1 PUSH4 0xF2FDE38B EQ PUSH2 0x1B5 JUMPI PUSH4 0xFA968EEA EQ PUSH2 0x192 JUMPI PUSH1 0x0 DUP1 REVERT JUMPDEST CALLVALUE PUSH2 0x1B0 JUMPI PUSH1 0x0 CALLDATASIZE PUSH1 0x3 NOT ADD SLT PUSH2 0x1B0 JUMPI PUSH1 0x20 PUSH1 0xA SLOAD PUSH1 0x40 MLOAD SWAP1 DUP2 MSTORE RETURN JUMPDEST PUSH1 0x0 DUP1 REVERT JUMPDEST CALLVALUE PUSH2 0x1B0 JUMPI PUSH1 0x20 CALLDATASIZE PUSH1 0x3 NOT ADD SLT PUSH2 0x1B0 JUMPI PUSH2 0x1CE PUSH2 0x2087 JUMP JUMPDEST PUSH2 0x1D6 PUSH2 0x239B JUMP JUMPDEST PUSH1 0x1 PUSH1 0x1 PUSH1 0xA0 SHL SUB SWAP1 DUP2 AND SWAP1 DUP2 ISZERO PUSH2 0x225 JUMPI PUSH1 0x0 SLOAD DUP3 PUSH1 0x1 PUSH1 0x1 PUSH1 0x60 SHL SUB PUSH1 0xA0 SHL DUP3 AND OR PUSH1 0x0 SSTORE AND PUSH32 0x8BE0079C531659141344CD1FD0A4F28419497F9722A3DAAFE3B4186F6B6457E0 PUSH1 0x0 DUP1 LOG3 STOP JUMPDEST PUSH1 0x40 MLOAD PUSH4 0x1E4FBDF7 PUSH1 0xE0 SHL DUP2 MSTORE PUSH1 0x0 PUSH1 0x4 DUP3 ADD MSTORE PUSH1 0x24 SWAP1 REVERT JUMPDEST CALLVALUE PUSH2 0x1B0 JUMPI PUSH1 0x40 CALLDATASIZE PUSH1 0x3 NOT ADD SLT PUSH2 0x1B0 JUMPI PUSH1 0x20 PUSH2 0x264 PUSH2 0x25C PUSH2 0x209D JUMP JUMPDEST PUSH1 0x4 CALLDATALOAD PUSH2 0x2584 JUMP JUMPDEST PUSH1 0x40 MLOAD SWAP1 DUP2 MSTORE RETURN JUMPDEST CALLVALUE PUSH2 0x1B0 JUMPI PUSH1 0x20 CALLDATASIZE PUSH1 0x3 NOT ADD SLT PUSH2 0x1B0 JUMPI PUSH1 0x1 PUSH1 0x1 PUSH1 0xA0 SHL SUB PUSH2 0x28D PUSH2 0x2087 JUMP JUMPDEST AND PUSH1 0x0 MSTORE PUSH1 0x6 PUSH1 0x20 MSTORE PUSH1 0x20 PUSH1 0xFF PUSH1 0x40 PUSH1 0x0 KECCAK256 SLOAD AND PUSH1 0x40 MLOAD SWAP1 ISZERO ISZERO DUP2 MSTORE RETURN JUMPDEST CALLVALUE PUSH2 0x1B0 JUMPI PUSH1 0x20 CALLDATASIZE PUSH1 0x3 NOT ADD SLT PUSH2 0x1B0 JUMPI PUSH1 0x0 PUSH2 0x1A0 PUSH1 0x40 MLOAD PUSH2 0x2CD DUP2 PUSH2 0x20C2 JUMP JUMPDEST DUP3 DUP2 MSTORE PUSH1 0x60 PUSH1 0x20 DUP3 ADD MSTORE PUSH1 0x60 PUSH1 0x40 DUP3 ADD MSTORE DUP3 PUSH1 0x60 DUP3 ADD MSTORE DUP3 PUSH1 0x80 DUP3 ADD MSTORE DUP3 PUSH1 0xA0 DUP3 ADD MSTORE DUP3 PUSH1 0xC0 DUP3 ADD MSTORE DUP3 PUSH1 0xE0 DUP3 ADD MSTORE DUP3 PUSH2 0x100 DUP3 ADD MSTORE DUP3 PUSH2 0x120 DUP3 ADD MSTORE DUP3 PUSH2 0x140 DUP3 ADD MSTORE DUP3 PUSH2 0x160 DUP3 ADD MSTORE DUP3 PUSH2 0x180 DUP3 ADD MSTORE ADD MSTORE PUSH1 0x4 CALLDATALOAD PUSH1 0x0 MSTORE PUSH1 0x3 PUSH1 0x20 MSTORE PUSH1 0x40 PUSH1 0x0 KECCAK256 PUSH1 0xFF PUSH1 0xC PUSH1 0x40 MLOAD SWAP3 PUSH2 0x342 DUP5 PUSH2 0x20C2 JUMP JUMPDEST DUP1 SLOAD DUP5 MSTORE PUSH2 0x352 PUSH1 0x1 DUP3 ADD PUSH2 0x22F5 JUMP JUMPDEST PUSH1 0x20 DUP6 ADD MSTORE PUSH2 0x363 PUSH1 0x2 DUP3 ADD PUSH2 0x22F5 JUMP JUMPDEST PUSH1 0x40 DUP6 ADD MSTORE PUSH1 0x3 DUP2 ADD SLOAD PUSH1 0x60 DUP6 ADD MSTORE PUSH1 0x4 DUP2 ADD SLOAD PUSH1 0x80 DUP6 ADD MSTORE PUSH1 0x5 DUP2 ADD SLOAD PUSH1 0xA0 DUP6 ADD MSTORE DUP3 PUSH1 0x6 DUP3 ADD SLOAD DUP2 DUP2 AND ISZERO ISZERO PUSH1 0xC0 DUP8 ADD MSTORE PUSH1 0x8 SHR AND ISZERO ISZERO PUSH1 0xE0 DUP6 ADD MSTORE PUSH1 0x7 DUP2 ADD SLOAD PUSH2 0x100 DUP6 ADD MSTORE PUSH1 0x8 DUP2 ADD SLOAD PUSH2 0x120 DUP6 ADD MSTORE PUSH1 0x9 DUP2 ADD SLOAD PUSH2 0x140 DUP6 ADD MSTORE PUSH1 0x1 DUP1 PUSH1 0xA0 SHL SUB PUSH1 0xA DUP3 ADD SLOAD AND PUSH2 0x160 DUP6 ADD MSTORE PUSH1 0xB DUP2 ADD SLOAD PUSH2 0x180 DUP6 ADD MSTORE ADD SLOAD AND ISZERO ISZERO PUSH2 0x1A0 DUP3 ADD MSTORE PUSH1 0x40 MLOAD DUP1 SWAP2 PUSH1 0x20 DUP3 MSTORE DUP1 MLOAD PUSH1 0x20 DUP4 ADD MSTORE PUSH2 0x1A0 PUSH2 0x432 PUSH2 0x41C PUSH1 0x20 DUP5 ADD MLOAD PUSH2 0x1C0 PUSH1 0x40 DUP8 ADD MSTORE PUSH2 0x1E0 DUP7 ADD SWAP1 PUSH2 0x2249 JUMP JUMPDEST PUSH1 0x40 DUP5 ADD MLOAD DUP6 DUP3 SUB PUSH1 0x1F NOT ADD PUSH1 0x60 DUP8 ADD MSTORE PUSH2 0x2249 JUMP JUMPDEST SWAP2 PUSH1 0x60 DUP2 ADD MLOAD PUSH1 0x80 DUP6 ADD MSTORE PUSH1 0x80 DUP2 ADD MLOAD PUSH1 0xA0 DUP6 ADD MSTORE PUSH1 0xA0 DUP2 ADD MLOAD PUSH1 0xC0 DUP6 ADD MSTORE PUSH1 0xC0 DUP2 ADD MLOAD ISZERO ISZERO PUSH1 0xE0 DUP6 ADD MSTORE PUSH1 0xE0 DUP2 ADD MLOAD ISZERO ISZERO PUSH2 0x100 DUP6 ADD MSTORE PUSH2 0x100 DUP2 ADD MLOAD PUSH2 0x120 DUP6 ADD MSTORE PUSH2 0x120 DUP2 ADD MLOAD PUSH2 0x140 DUP6 ADD MSTORE PUSH2 0x140 DUP2 ADD MLOAD PUSH2 0x160 DUP6 ADD MSTORE PUSH1 0x1 DUP1 PUSH1 0xA0 SHL SUB PUSH2 0x160 DUP3 ADD MLOAD AND PUSH2 0x180 DUP6 ADD MSTORE PUSH2 0x180 DUP2 ADD MLOAD DUP3 DUP6 ADD MSTORE ADD MLOAD ISZERO ISZERO PUSH2 0x1C0 DUP4 ADD MSTORE SUB SWAP1 RETURN JUMPDEST CALLVALUE PUSH2 0x1B0 JUMPI PUSH1 0x40 CALLDATASIZE PUSH1 0x3 NOT ADD SLT PUSH2 0x1B0 JUMPI PUSH1 0xA0 PUSH2 0x4D5 PUSH2 0x209D JUMP JUMPDEST PUSH1 0x4 CALLDATALOAD PUSH1 0x0 MSTORE PUSH1 0x4 PUSH1 0x20 MSTORE PUSH1 0x40 PUSH1 0x0 KECCAK256 PUSH1 0x1 DUP1 DUP5 SHL SUB DUP1 SWAP3 AND PUSH1 0x0 MSTORE PUSH1 0x20 MSTORE PUSH1 0x40 PUSH1 0x0 KECCAK256 DUP1 SLOAD SWAP2 PUSH1 0x1 DUP3 ADD SLOAD AND SWAP1 PUSH1 0x2 DUP2 ADD SLOAD PUSH1 0xFF PUSH1 0x4 PUSH1 0x3 DUP5 ADD SLOAD SWAP4 ADD SLOAD AND SWAP3 PUSH1 0x40 MLOAD SWAP5 DUP6 MSTORE PUSH1 0x20 DUP6 ADD MSTORE PUSH1 0x40 DUP5 ADD MSTORE PUSH1 0x60 DUP4 ADD MSTORE ISZERO ISZERO PUSH1 0x80 DUP3 ADD MSTORE RETURN JUMPDEST CALLVALUE PUSH2 0x1B0 JUMPI PUSH1 0x40 CALLDATASIZE PUSH1 0x3 NOT ADD SLT PUSH2 0x1B0 JUMPI PUSH1 0xA0 PUSH2 0x54F PUSH2 0x209D JUMP JUMPDEST PUSH1 0x0 PUSH1 0x80 PUSH1 0x40 MLOAD PUSH2 0x55F DUP2 PUSH2 0x20F9 JUMP JUMPDEST DUP3 DUP2 MSTORE DUP3 PUSH1 0x20 DUP3 ADD MSTORE DUP3 PUSH1 0x40 DUP3 ADD MSTORE DUP3 PUSH1 0x60 DUP3 ADD MSTORE ADD MSTORE PUSH1 0x4 CALLDATALOAD PUSH1 0x0 MSTORE PUSH1 0x4 PUSH1 0x20 MSTORE PUSH1 0x40 PUSH1 0x0 KECCAK256 PUSH1 0x1 DUP1 DUP5 SHL SUB DUP1 SWAP3 AND PUSH1 0x0 MSTORE PUSH1 0x20 MSTORE PUSH1 0x40 PUSH1 0x0 KECCAK256 PUSH1 0x40 MLOAD SWAP1 PUSH2 0x5A7 DUP3 PUSH2 0x20F9 JUMP JUMPDEST DUP1 SLOAD SWAP3 DUP4 DUP4 MSTORE DUP1 PUSH1 0x1 DUP4 ADD SLOAD AND SWAP1 PUSH1 0x20 DUP5 ADD SWAP2 DUP3 MSTORE PUSH1 0x2 DUP4 ADD SLOAD SWAP2 PUSH1 0x40 DUP6 ADD SWAP3 DUP4 MSTORE PUSH1 0x80 PUSH1 0xFF PUSH1 0x4 PUSH1 0x3 DUP8 ADD SLOAD SWAP7 PUSH1 0x60 DUP10 ADD SWAP8 DUP9 MSTORE ADD SLOAD AND SWAP6 ADD SWAP5 ISZERO ISZERO DUP6 MSTORE PUSH1 0x40 MLOAD SWAP6 DUP7 MSTORE MLOAD AND PUSH1 0x20 DUP6 ADD MSTORE MLOAD PUSH1 0x40 DUP5 ADD MSTORE MLOAD PUSH1 0x60 DUP4 ADD MSTORE MLOAD ISZERO ISZERO PUSH1 0x80 DUP3 ADD MSTORE RETURN JUMPDEST CALLVALUE PUSH2 0x1B0 JUMPI PUSH1 0x0 CALLDATASIZE PUSH1 0x3 NOT ADD SLT PUSH2 0x1B0 JUMPI PUSH1 0x20 PUSH1 0xB SLOAD PUSH1 0x40 MLOAD SWAP1 DUP2 MSTORE RETURN JUMPDEST CALLVALUE PUSH2 0x1B0 JUMPI PUSH1 0x20 CALLDATASIZE PUSH1 0x3 NOT ADD SLT PUSH2 0x1B0 JUMPI PUSH1 0x4 CALLDATALOAD PUSH1 0x0 MSTORE PUSH1 0x3 PUSH1 0x20 MSTORE PUSH1 0x40 PUSH1 0x0 KECCAK256 DUP1 SLOAD PUSH1 0x1 DUP3 ADD PUSH2 0x657 SWAP1 PUSH2 0x22F5 JUMP JUMPDEST SWAP2 PUSH2 0x664 PUSH1 0x2 DUP3 ADD PUSH2 0x22F5 JUMP JUMPDEST PUSH1 0x3 DUP3 ADD SLOAD SWAP2 PUSH1 0x4 DUP2 ADD SLOAD PUSH1 0x5 DUP3 ADD SLOAD PUSH1 0x6 DUP4 ADD SLOAD PUSH1 0x7 DUP5 ADD SLOAD PUSH1 0x8 DUP6 ADD SLOAD SWAP2 PUSH1 0x9 DUP7 ADD SLOAD SWAP4 PUSH1 0x1 PUSH1 0xA0 SHL PUSH1 0x1 SWAP1 SUB PUSH1 0xA DUP9 ADD SLOAD AND SWAP6 PUSH1 0xB DUP9 ADD SLOAD SWAP8 PUSH1 0xC ADD SLOAD PUSH1 0xFF AND SWAP9 PUSH1 0x40 MLOAD SWAP13 DUP14 SWAP13 DUP14 MSTORE DUP13 PUSH2 0x1C0 PUSH1 0x20 DUP2 SWAP3 ADD MSTORE DUP14 ADD PUSH2 0x6C5 SWAP2 PUSH2 0x2249 JUMP JUMPDEST DUP13 DUP2 SUB PUSH1 0x40 DUP15 ADD MSTORE PUSH2 0x6D6 SWAP2 PUSH2 0x2249 JUMP JUMPDEST SWAP10 PUSH1 0x60 DUP13 ADD MSTORE PUSH1 0x80 DUP12 ADD MSTORE PUSH1 0xA0 DUP11 ADD MSTORE PUSH1 0xFF DUP2 AND ISZERO ISZERO PUSH1 0xC0 DUP11 ADD MSTORE PUSH1 0x8 SHR PUSH1 0xFF AND ISZERO ISZERO PUSH1 0xE0 DUP10 ADD MSTORE PUSH2 0x100 DUP9 ADD MSTORE PUSH2 0x120 DUP8 ADD MSTORE PUSH2 0x140 DUP7 ADD MSTORE PUSH2 0x160 DUP6 ADD MSTORE PUSH2 0x180 DUP5 ADD MSTORE ISZERO ISZERO PUSH2 0x1A0 DUP4 ADD MSTORE SUB SWAP1 RETURN JUMPDEST CALLVALUE PUSH2 0x1B0 JUMPI PUSH2 0x736 CALLDATASIZE PUSH2 0x2289 JUMP JUMPDEST SWAP1 PUSH1 0x0 MSTORE PUSH1 0x5 PUSH1 0x20 MSTORE PUSH1 0x40 PUSH1 0x0 KECCAK256 SWAP1 DUP2 SLOAD DUP2 LT ISZERO PUSH2 0x1B0 JUMPI PUSH2 0x757 SWAP2 PUSH2 0x229F JUMP JUMPDEST POP PUSH1 0x1 DUP1 PUSH1 0xA0 SHL SUB DUP2 SLOAD AND PUSH2 0x7BA PUSH1 0x1 DUP4 ADD SLOAD SWAP3 PUSH1 0xFF PUSH1 0x2 DUP3 ADD SLOAD AND SWAP1 PUSH1 0x3 DUP2 ADD SLOAD PUSH2 0x78A PUSH1 0x5 PUSH1 0x4 DUP5 ADD SLOAD SWAP4 ADD PUSH2 0x22F5 JUMP JUMPDEST SWAP3 PUSH1 0x40 MLOAD SWAP7 DUP8 SWAP7 DUP8 MSTORE PUSH1 0x20 DUP8 ADD MSTORE ISZERO ISZERO PUSH1 0x40 DUP7 ADD MSTORE PUSH1 0x60 DUP6 ADD MSTORE PUSH1 0x80 DUP5 ADD MSTORE PUSH1 0xC0 PUSH1 0xA0 DUP5 ADD MSTORE PUSH1 0xC0 DUP4 ADD SWAP1 PUSH2 0x2249 JUMP JUMPDEST SUB SWAP1 RETURN JUMPDEST CALLVALUE PUSH2 0x1B0 JUMPI PUSH2 0x7CC CALLDATASIZE PUSH2 0x2289 JUMP JUMPDEST SWAP1 PUSH2 0x7D5 PUSH2 0x239B JUMP JUMPDEST PUSH1 0xA SSTORE PUSH1 0xB SSTORE STOP JUMPDEST CALLVALUE PUSH2 0x1B0 JUMPI PUSH1 0x40 CALLDATASIZE PUSH1 0x3 NOT ADD SLT PUSH2 0x1B0 JUMPI PUSH2 0x7F6 PUSH2 0x2087 JUMP JUMPDEST PUSH1 0x24 CALLDATALOAD SWAP1 PUSH2 0x802 PUSH2 0x239B JUMP JUMPDEST PUSH2 0x2710 DUP3 GT PUSH2 0x825 JUMPI PUSH1 0x1 PUSH1 0x1 PUSH1 0xA0 SHL SUB AND PUSH1 0x0 SWAP1 DUP2 MSTORE PUSH1 0x7 PUSH1 0x20 MSTORE PUSH1 0x40 SWAP1 KECCAK256 SSTORE STOP JUMPDEST PUSH1 0x40 MLOAD PUSH3 0x461BCD PUSH1 0xE5 SHL DUP2 MSTORE PUSH1 0x20 PUSH1 0x4 DUP3 ADD MSTORE PUSH1 0x12 PUSH1 0x24 DUP3 ADD MSTORE PUSH18 0x24B73B30B634B2103932B83ABA30BA34B7B7 PUSH1 0x71 SHL PUSH1 0x44 DUP3 ADD MSTORE PUSH1 0x64 SWAP1 REVERT JUMPDEST CALLVALUE PUSH2 0x1B0 JUMPI PUSH1 0x20 DUP1 PUSH1 0x3 NOT CALLDATASIZE ADD SLT PUSH2 0x1B0 JUMPI PUSH1 0x4 CALLDATALOAD PUSH1 0x0 MSTORE PUSH1 0x5 SWAP1 DUP2 DUP2 MSTORE PUSH1 0x40 PUSH1 0x0 KECCAK256 DUP1 SLOAD SWAP2 PUSH2 0x88E DUP4 PUSH2 0x2135 JUMP JUMPDEST SWAP3 PUSH2 0x89C PUSH1 0x40 MLOAD SWAP5 DUP6 PUSH2 0x2114 JUMP JUMPDEST DUP1 DUP5 MSTORE DUP2 DUP5 ADD DUP1 SWAP4 PUSH1 0x0 MSTORE DUP3 PUSH1 0x0 KECCAK256 PUSH1 0x0 SWAP2 JUMPDEST DUP4 DUP4 LT PUSH2 0x956 JUMPI POP POP POP POP PUSH1 0x40 MLOAD SWAP3 DUP2 DUP5 ADD SWAP1 DUP3 DUP6 MSTORE MLOAD DUP1 SWAP2 MSTORE PUSH1 0x40 DUP2 DUP2 DUP7 ADD SWAP7 SHL DUP6 ADD ADD SWAP3 SWAP2 PUSH1 0x0 SWAP6 JUMPDEST DUP3 DUP8 LT PUSH2 0x8E7 JUMPI DUP6 DUP6 SUB DUP7 RETURN JUMPDEST SWAP1 SWAP2 SWAP3 SWAP4 DUP3 DUP1 PUSH2 0x946 PUSH1 0x1 SWAP4 PUSH1 0x3F NOT DUP11 DUP3 SUB ADD DUP7 MSTORE DUP9 MLOAD DUP6 DUP1 PUSH1 0xA0 SHL SUB DUP2 MLOAD AND DUP3 MSTORE DUP4 DUP2 ADD MLOAD DUP5 DUP4 ADD MSTORE PUSH1 0x40 DUP2 ADD MLOAD ISZERO ISZERO PUSH1 0x40 DUP4 ADD MSTORE PUSH1 0x60 DUP1 DUP3 ADD MLOAD SWAP1 DUP4 ADD MSTORE PUSH1 0x80 DUP1 DUP3 ADD MLOAD SWAP1 DUP4 ADD MSTORE PUSH1 0xA0 DUP1 SWAP2 ADD MLOAD SWAP2 PUSH1 0xC0 DUP1 SWAP3 DUP3 ADD MSTORE ADD SWAP1 PUSH2 0x2249 JUMP JUMPDEST SWAP7 ADD SWAP3 ADD SWAP7 ADD SWAP6 SWAP3 SWAP2 SWAP1 SWAP3 PUSH2 0x8DA JUMP JUMPDEST PUSH1 0x6 DUP6 PUSH1 0x1 SWAP3 PUSH1 0x40 SWAP10 SWAP8 SWAP10 MLOAD PUSH2 0x96B DUP2 PUSH2 0x20DE JUMP JUMPDEST DUP5 DUP1 PUSH1 0xA0 SHL SUB DUP7 SLOAD AND DUP2 MSTORE DUP5 DUP7 ADD SLOAD DUP4 DUP3 ADD MSTORE PUSH1 0xFF PUSH1 0x2 DUP8 ADD SLOAD AND ISZERO ISZERO PUSH1 0x40 DUP3 ADD MSTORE PUSH1 0x3 DUP7 ADD SLOAD PUSH1 0x60 DUP3 ADD MSTORE PUSH1 0x4 DUP7 ADD SLOAD PUSH1 0x80 DUP3 ADD MSTORE PUSH2 0x9AC DUP13 DUP8 ADD PUSH2 0x22F5 JUMP JUMPDEST PUSH1 0xA0 DUP3 ADD MSTORE DUP2 MSTORE ADD SWAP3 ADD SWAP3 ADD SWAP2 SWAP1 SWAP6 SWAP4 SWAP6 PUSH2 0x8AF JUMP JUMPDEST CALLVALUE PUSH2 0x1B0 JUMPI PUSH1 0x0 CALLDATASIZE PUSH1 0x3 NOT ADD SLT PUSH2 0x1B0 JUMPI PUSH1 0x0 SLOAD PUSH1 0x40 MLOAD PUSH1 0x1 PUSH1 0x1 PUSH1 0xA0 SHL SUB SWAP1 SWAP2 AND DUP2 MSTORE PUSH1 0x20 SWAP1 RETURN JUMPDEST CALLVALUE PUSH2 0x1B0 JUMPI PUSH1 0x0 CALLDATASIZE PUSH1 0x3 NOT ADD SLT PUSH2 0x1B0 JUMPI PUSH2 0xA04 PUSH2 0x239B JUMP JUMPDEST PUSH2 0xA0C PUSH2 0x24D4 JUMP JUMPDEST PUSH1 0x1 PUSH1 0xFF NOT PUSH1 0x2 SLOAD AND OR PUSH1 0x2 SSTORE PUSH32 0x62E78CEA01BEE320CD4E420270B5EA74000D11B0C9F74754EBDBFC544B05A258 PUSH1 0x20 PUSH1 0x40 MLOAD CALLER DUP2 MSTORE LOG1 STOP JUMPDEST CALLVALUE PUSH2 0x1B0 JUMPI PUSH1 0x80 CALLDATASIZE PUSH1 0x3 NOT ADD SLT PUSH2 0x1B0 JUMPI PUSH1 0x4 CALLDATALOAD PUSH2 0xA61 PUSH2 0x20B3 JUMP JUMPDEST SWAP1 PUSH1 0x1 PUSH1 0x1 PUSH1 0x40 SHL SUB PUSH1 0x44 CALLDATALOAD PUSH1 0x64 CALLDATALOAD DUP3 DUP2 GT PUSH2 0x1B0 JUMPI PUSH2 0xA85 SWAP1 CALLDATASIZE SWAP1 PUSH1 0x4 ADD PUSH2 0x21AA JUMP JUMPDEST CALLER PUSH1 0x0 MSTORE PUSH1 0x20 SWAP3 PUSH1 0x6 DUP5 MSTORE PUSH1 0xFF PUSH1 0x40 PUSH1 0x0 KECCAK256 SLOAD AND ISZERO PUSH2 0xD7F JUMPI DUP5 PUSH1 0x0 MSTORE PUSH1 0x3 DUP5 MSTORE PUSH2 0xABA PUSH1 0xFF PUSH1 0xC PUSH1 0x40 PUSH1 0x0 KECCAK256 ADD SLOAD AND PUSH2 0x23EC JUMP JUMPDEST DUP5 PUSH1 0x0 MSTORE PUSH1 0x3 DUP5 MSTORE PUSH2 0xAD5 PUSH1 0x4 PUSH1 0x40 PUSH1 0x0 KECCAK256 ADD SLOAD TIMESTAMP LT PUSH2 0x242C JUMP JUMPDEST PUSH2 0x2710 DUP4 GT PUSH2 0xD3A JUMPI DUP5 PUSH1 0x0 MSTORE PUSH1 0x5 DUP5 MSTORE PUSH1 0x40 PUSH1 0x0 KECCAK256 PUSH1 0x40 MLOAD PUSH2 0xAF7 DUP2 PUSH2 0x20DE JUMP JUMPDEST CALLER DUP2 MSTORE DUP6 DUP2 ADD SWAP1 DUP8 DUP3 MSTORE PUSH1 0x40 DUP2 ADD SWAP1 DUP10 ISZERO ISZERO DUP3 MSTORE PUSH1 0x60 DUP2 ADD DUP8 DUP2 MSTORE PUSH1 0x80 DUP3 ADD SWAP2 TIMESTAMP DUP4 MSTORE PUSH1 0xA0 DUP2 ADD SWAP8 DUP9 MSTORE DUP6 SLOAD PUSH9 0x10000000000000000 DUP2 LT ISZERO PUSH2 0xD0E JUMPI PUSH2 0xB45 SWAP1 PUSH1 0x1 SWAP8 DUP9 DUP3 ADD DUP2 SSTORE PUSH2 0x229F JUMP JUMPDEST SWAP5 SWAP1 SWAP5 PUSH2 0xD24 JUMPI PUSH1 0x5 SWAP6 PUSH2 0xB8B SWAP3 PUSH1 0x1 DUP1 PUSH1 0xA0 SHL SUB SWAP1 MLOAD AND PUSH1 0x1 PUSH1 0x1 PUSH1 0x60 SHL SUB PUSH1 0xA0 SHL DUP8 SLOAD AND OR DUP7 SSTORE MLOAD DUP8 DUP7 ADD SSTORE MLOAD ISZERO ISZERO PUSH1 0x2 DUP6 ADD SWAP1 PUSH1 0xFF DUP1 NOT DUP4 SLOAD AND SWAP2 ISZERO ISZERO AND OR SWAP1 SSTORE JUMP JUMPDEST MLOAD PUSH1 0x3 DUP4 ADD SSTORE MLOAD PUSH1 0x4 DUP3 ADD SSTORE ADD SWAP3 MLOAD SWAP5 DUP6 MLOAD SWAP3 DUP4 GT PUSH2 0xD0E JUMPI PUSH2 0xBAE DUP5 SLOAD PUSH2 0x22BB JUMP JUMPDEST PUSH1 0x1F DUP2 GT PUSH2 0xCC5 JUMPI JUMPDEST POP DUP1 PUSH1 0x1F DUP5 GT PUSH1 0x1 EQ PUSH2 0xC36 JUMPI POP SWAP2 DUP1 DUP1 SWAP3 PUSH2 0xC26 SWAP7 SWAP6 SWAP5 PUSH32 0x22BA00C7A927FE8FF7A3FEB6F006712EC7ADB8E2006183B6F9E437F45FDC030C SWAP9 PUSH1 0x0 SWAP5 PUSH2 0xC2B JUMPI JUMPDEST POP POP SHL SWAP2 PUSH1 0x0 NOT SWAP1 PUSH1 0x3 SHL SHR NOT AND OR SWAP1 SSTORE JUMPDEST PUSH1 0x40 DUP1 MLOAD SWAP6 ISZERO ISZERO DUP7 MSTORE PUSH1 0x20 DUP7 ADD SWAP2 SWAP1 SWAP2 MSTORE CALLER SWAP5 SWAP2 DUP3 SWAP2 DUP3 ADD SWAP1 JUMP JUMPDEST SUB SWAP1 LOG3 STOP JUMPDEST ADD MLOAD SWAP3 POP DUP11 DUP1 PUSH2 0xBF9 JUMP JUMPDEST SWAP2 SWAP4 SWAP5 SWAP6 PUSH1 0x1F NOT DUP5 AND DUP7 PUSH1 0x0 MSTORE DUP4 PUSH1 0x0 KECCAK256 SWAP4 PUSH1 0x0 SWAP1 JUMPDEST DUP3 DUP3 LT PUSH2 0xCAE JUMPI POP POP SWAP2 PUSH32 0x22BA00C7A927FE8FF7A3FEB6F006712EC7ADB8E2006183B6F9E437F45FDC030C SWAP8 SWAP6 SWAP4 SWAP2 DUP6 PUSH2 0xC26 SWAP9 SWAP7 SWAP5 LT PUSH2 0xC95 JUMPI JUMPDEST POP POP POP DUP2 SHL ADD SWAP1 SSTORE PUSH2 0xC0B JUMP JUMPDEST ADD MLOAD PUSH1 0x0 NOT PUSH1 0xF8 DUP5 PUSH1 0x3 SHL AND SHR NOT AND SWAP1 SSTORE DUP9 DUP1 DUP1 PUSH2 0xC88 JUMP JUMPDEST DUP1 DUP9 DUP7 SWAP8 DUP3 SWAP5 SWAP8 DUP8 ADD MLOAD DUP2 SSTORE ADD SWAP7 ADD SWAP5 ADD SWAP1 PUSH2 0xC4C JUMP JUMPDEST DUP5 PUSH1 0x0 MSTORE DUP2 PUSH1 0x0 KECCAK256 PUSH1 0x1F DUP6 ADD PUSH1 0x5 SHR DUP2 ADD SWAP2 DUP4 DUP7 LT PUSH2 0xD04 JUMPI JUMPDEST PUSH1 0x1F ADD PUSH1 0x5 SHR ADD SWAP1 DUP4 SWAP1 JUMPDEST DUP3 DUP2 LT PUSH2 0xCF8 JUMPI POP POP PUSH2 0xBB7 JUMP JUMPDEST PUSH1 0x0 DUP2 SSTORE ADD DUP4 SWAP1 PUSH2 0xCEA JUMP JUMPDEST SWAP1 SWAP2 POP DUP2 SWAP1 PUSH2 0xCDF JUMP JUMPDEST PUSH4 0x4E487B71 PUSH1 0xE0 SHL PUSH1 0x0 MSTORE PUSH1 0x41 PUSH1 0x4 MSTORE PUSH1 0x24 PUSH1 0x0 REVERT JUMPDEST PUSH4 0x4E487B71 PUSH1 0xE0 SHL PUSH1 0x0 MSTORE PUSH1 0x0 PUSH1 0x4 MSTORE PUSH1 0x24 PUSH1 0x0 REVERT JUMPDEST PUSH1 0x40 MLOAD PUSH3 0x461BCD PUSH1 0xE5 SHL DUP2 MSTORE PUSH1 0x4 DUP2 ADD DUP6 SWAP1 MSTORE PUSH1 0x18 PUSH1 0x24 DUP3 ADD MSTORE PUSH32 0x496E76616C696420636F6E666964656E6365206C6576656C0000000000000000 PUSH1 0x44 DUP3 ADD MSTORE PUSH1 0x64 SWAP1 REVERT JUMPDEST PUSH1 0x40 MLOAD PUSH3 0x461BCD PUSH1 0xE5 SHL DUP2 MSTORE PUSH1 0x4 DUP2 ADD DUP6 SWAP1 MSTORE PUSH1 0x17 PUSH1 0x24 DUP3 ADD MSTORE PUSH32 0x4E6F7420616E20617574686F72697A6564206167656E74000000000000000000 PUSH1 0x44 DUP3 ADD MSTORE PUSH1 0x64 SWAP1 REVERT JUMPDEST CALLVALUE PUSH2 0x1B0 JUMPI PUSH1 0x0 CALLDATASIZE PUSH1 0x3 NOT ADD SLT PUSH2 0x1B0 JUMPI PUSH2 0xDDD PUSH2 0x239B JUMP JUMPDEST PUSH1 0x0 DUP1 SLOAD PUSH1 0x1 PUSH1 0x1 PUSH1 0xA0 SHL SUB NOT DUP2 AND DUP3 SSTORE PUSH1 0x1 PUSH1 0x1 PUSH1 0xA0 SHL SUB AND PUSH32 0x8BE0079C531659141344CD1FD0A4F28419497F9722A3DAAFE3B4186F6B6457E0 DUP3 DUP1 LOG3 STOP JUMPDEST CALLVALUE PUSH2 0x1B0 JUMPI PUSH2 0xE2B CALLDATASIZE PUSH2 0x2200 JUMP JUMPDEST POP POP PUSH1 0x40 MLOAD PUSH2 0xCA0 DUP2 ADD DUP2 DUP2 LT PUSH1 0x1 PUSH1 0x1 PUSH1 0x40 SHL SUB DUP3 GT OR PUSH2 0xD0E JUMPI PUSH1 0x40 MSTORE PUSH1 0x64 SWAP1 DUP2 DUP2 MSTORE PUSH1 0x20 SWAP2 PUSH2 0xC80 CALLDATASIZE DUP5 DUP5 ADD CALLDATACOPY PUSH1 0x0 SWAP2 PUSH1 0x1 SWAP2 DUP3 SWAP1 DUP4 PUSH1 0x8 SLOAD SWAP1 JUMPDEST PUSH2 0xF3D JUMPI JUMPDEST POP POP POP PUSH2 0xE7A DUP4 PUSH2 0x2135 JUMP JUMPDEST SWAP1 PUSH2 0xE88 PUSH1 0x40 MLOAD SWAP3 DUP4 PUSH2 0x2114 JUMP JUMPDEST DUP4 DUP3 MSTORE PUSH2 0xE94 DUP5 PUSH2 0x2135 JUMP JUMPDEST SWAP2 DUP6 DUP2 ADD SWAP2 PUSH1 0x1F NOT DUP1 SWAP5 ADD CALLDATASIZE DUP5 CALLDATACOPY PUSH1 0x0 JUMPDEST DUP7 DUP2 LT PUSH2 0xF13 JUMPI POP POP PUSH1 0x40 MLOAD SWAP4 PUSH1 0x40 DUP6 ADD SWAP2 DUP8 DUP1 DUP8 ADD MSTORE MLOAD DUP1 SWAP3 MSTORE PUSH1 0x60 DUP6 ADD SWAP3 SWAP2 PUSH1 0x0 JUMPDEST DUP9 DUP3 DUP3 LT PUSH2 0xF00 JUMPI DUP9 PUSH2 0x7BA DUP10 PUSH2 0xEE8 DUP11 DUP3 DUP12 SUB SWAP1 DUP2 ADD DUP4 MSTORE DUP3 PUSH2 0x2114 JUMP JUMPDEST PUSH1 0x40 DUP1 MLOAD SWAP5 DUP6 SWAP5 ISZERO ISZERO DUP6 MSTORE DUP5 ADD MSTORE PUSH1 0x40 DUP4 ADD SWAP1 PUSH2 0x2249 JUMP JUMPDEST DUP5 MLOAD DUP7 MSTORE SWAP5 DUP6 ADD SWAP5 SWAP1 SWAP4 ADD SWAP3 DUP3 ADD PUSH2 0xEC9 JUMP JUMPDEST DUP1 PUSH2 0xF24 PUSH2 0xF35 SWAP3 DUP5 SWAP9 SWAP6 SWAP9 PUSH2 0x26A8 JUMP JUMPDEST MLOAD PUSH2 0xF2F DUP3 DUP10 PUSH2 0x26A8 JUMP JUMPDEST MSTORE PUSH2 0x23C7 JUMP JUMPDEST SWAP5 SWAP2 SWAP5 PUSH2 0xEA5 JUMP JUMPDEST DUP1 DUP4 SWAP7 SWAP6 SWAP4 LT DUP1 PUSH2 0xFD1 JUMPI JUMPDEST ISZERO PUSH2 0xFC8 JUMPI DUP6 PUSH1 0x0 MSTORE PUSH1 0x3 DUP8 MSTORE PUSH1 0x40 PUSH1 0x0 KECCAK256 PUSH1 0xFF SWAP1 DUP2 PUSH1 0xC DUP3 ADD SLOAD AND SWAP2 DUP3 PUSH2 0xFB9 JUMPI JUMPDEST POP DUP2 PUSH2 0xFAA JUMPI JUMPDEST POP PUSH2 0xF8D JUMPI JUMPDEST PUSH2 0xF85 DUP4 SWAP5 SWAP6 SWAP7 PUSH2 0x23C7 JUMP JUMPDEST SWAP3 SWAP5 SWAP4 PUSH2 0xE69 JUMP JUMPDEST PUSH2 0xF85 PUSH2 0xFA1 DUP7 DUP9 PUSH2 0xF2F DUP9 SWAP10 DUP9 SWAP10 PUSH2 0x26A8 JUMP JUMPDEST SWAP6 SWAP5 POP POP PUSH2 0xF79 JUMP JUMPDEST PUSH1 0x4 SWAP2 POP ADD SLOAD TIMESTAMP LT ISZERO DUP9 PUSH2 0xF73 JUMP JUMPDEST PUSH1 0x6 DUP3 ADD SLOAD AND ISZERO SWAP2 POP DUP10 PUSH2 0xF6C JUMP JUMPDEST DUP3 SWAP5 SWAP6 POP PUSH2 0xE6E JUMP JUMPDEST POP DUP2 DUP6 LT PUSH2 0xF49 JUMP JUMPDEST CALLVALUE PUSH2 0x1B0 JUMPI PUSH1 0x20 DUP1 PUSH1 0x3 NOT CALLDATASIZE ADD SLT PUSH2 0x1B0 JUMPI PUSH1 0x4 CALLDATALOAD PUSH2 0xFF7 PUSH2 0x24F2 JUMP JUMPDEST DUP1 PUSH1 0x0 MSTORE PUSH1 0x3 DUP3 MSTORE PUSH1 0x40 PUSH1 0x0 KECCAK256 SWAP2 PUSH1 0x4 DUP2 MSTORE PUSH1 0x40 PUSH1 0x0 KECCAK256 CALLER PUSH1 0x0 MSTORE DUP2 MSTORE PUSH1 0xFF PUSH1 0x6 PUSH1 0x40 PUSH1 0x0 KECCAK256 SWAP5 ADD SLOAD AND ISZERO PUSH2 0x115A JUMPI PUSH1 0x4 DUP4 ADD DUP1 SLOAD SWAP4 PUSH1 0xFF DUP6 AND PUSH2 0x1123 JUMPI PUSH1 0x2 DUP2 ADD SLOAD ISZERO SWAP1 DUP2 ISZERO SWAP2 PUSH2 0x1115 JUMPI JUMPDEST POP ISZERO PUSH2 0x10E2 JUMPI PUSH2 0x1054 CALLER DUP5 PUSH2 0x2584 JUMP JUMPDEST SWAP4 DUP5 ISZERO PUSH2 0x10AF JUMPI PUSH1 0xFF NOT AND PUSH1 0x1 OR SWAP1 SSTORE PUSH1 0xD SLOAD PUSH32 0x5380CF6FE903B40C6D5A9E0DFBCA2F3A423F0A21520B4D5947ED5169BDBA946D SWAP2 SWAP1 PUSH2 0x10A0 SWAP1 DUP6 SWAP1 CALLER SWAP1 PUSH1 0x1 PUSH1 0x1 PUSH1 0xA0 SHL SUB AND PUSH2 0x2515 JUMP JUMPDEST PUSH1 0x40 MLOAD SWAP4 DUP5 MSTORE CALLER SWAP4 LOG3 PUSH1 0x1 DUP1 SSTORE STOP JUMPDEST PUSH1 0x40 MLOAD PUSH3 0x461BCD PUSH1 0xE5 SHL DUP2 MSTORE PUSH1 0x4 DUP2 ADD DUP5 SWAP1 MSTORE PUSH1 0xB PUSH1 0x24 DUP3 ADD MSTORE PUSH11 0x4E6F2077696E6E696E6773 PUSH1 0xA8 SHL PUSH1 0x44 DUP3 ADD MSTORE PUSH1 0x64 SWAP1 REVERT JUMPDEST PUSH1 0x40 MLOAD PUSH3 0x461BCD PUSH1 0xE5 SHL DUP2 MSTORE PUSH1 0x4 DUP2 ADD DUP4 SWAP1 MSTORE PUSH1 0xB PUSH1 0x24 DUP3 ADD MSTORE PUSH11 0x2737903837B9B4BA34B7B7 PUSH1 0xA9 SHL PUSH1 0x44 DUP3 ADD MSTORE PUSH1 0x64 SWAP1 REVERT JUMPDEST PUSH1 0x3 SWAP2 POP ADD SLOAD ISZERO ISZERO DUP6 PUSH2 0x1044 JUMP JUMPDEST PUSH1 0x40 MLOAD PUSH3 0x461BCD PUSH1 0xE5 SHL DUP2 MSTORE PUSH1 0x4 DUP2 ADD DUP5 SWAP1 MSTORE PUSH1 0xF PUSH1 0x24 DUP3 ADD MSTORE PUSH15 0x105B1C9958591E4818DB185A5B5959 PUSH1 0x8A SHL PUSH1 0x44 DUP3 ADD MSTORE PUSH1 0x64 SWAP1 REVERT JUMPDEST PUSH1 0x64 SWAP1 PUSH1 0x40 MLOAD SWAP1 PUSH3 0x461BCD PUSH1 0xE5 SHL DUP3 MSTORE PUSH1 0x4 DUP3 ADD MSTORE PUSH1 0x13 PUSH1 0x24 DUP3 ADD MSTORE PUSH19 0x13585C9AD95D081B9BDD081C995CDBDB1D9959 PUSH1 0x6A SHL PUSH1 0x44 DUP3 ADD MSTORE REVERT JUMPDEST CALLVALUE PUSH2 0x1B0 JUMPI PUSH1 0x0 CALLDATASIZE PUSH1 0x3 NOT ADD SLT PUSH2 0x1B0 JUMPI PUSH1 0x20 PUSH1 0xFF PUSH1 0x2 SLOAD AND PUSH1 0x40 MLOAD SWAP1 ISZERO ISZERO DUP2 MSTORE RETURN JUMPDEST CALLVALUE PUSH2 0x1B0 JUMPI PUSH1 0x40 CALLDATASIZE PUSH1 0x3 NOT ADD SLT PUSH2 0x1B0 JUMPI PUSH1 0x4 CALLDATALOAD PUSH2 0x11D3 PUSH2 0x20B3 JUMP JUMPDEST PUSH2 0x11DB PUSH2 0x239B JUMP JUMPDEST DUP2 PUSH1 0x0 MSTORE PUSH1 0x3 PUSH1 0x20 MSTORE PUSH1 0x40 PUSH1 0x0 KECCAK256 SWAP1 PUSH2 0x11FA PUSH1 0xFF PUSH1 0xC DUP5 ADD SLOAD AND PUSH2 0x23EC JUMP JUMPDEST PUSH1 0x4 DUP3 ADD SLOAD TIMESTAMP LT PUSH2 0x12B5 JUMPI PUSH1 0x6 DUP3 ADD SWAP2 DUP3 SLOAD SWAP1 PUSH1 0xFF DUP3 AND PUSH2 0x1270 JUMPI PUSH2 0xFFFF NOT SWAP1 SWAP2 AND DUP3 ISZERO ISZERO PUSH1 0x8 SHL PUSH2 0xFF00 AND OR PUSH1 0x1 OR SWAP1 SWAP3 SSTORE PUSH32 0x6D4D544F5A6DCF38D77A232D3EF7358625C74877A1AD954FCB507872E7A05EAF SWAP2 PUSH1 0x9 SWAP1 JUMPDEST TIMESTAMP PUSH1 0x5 DUP3 ADD SSTORE ADD SLOAD PUSH1 0x40 DUP1 MLOAD SWAP3 ISZERO ISZERO DUP4 MSTORE PUSH1 0x20 DUP4 ADD SWAP2 SWAP1 SWAP2 MSTORE SWAP1 LOG2 STOP JUMPDEST PUSH1 0x40 MLOAD PUSH3 0x461BCD PUSH1 0xE5 SHL DUP2 MSTORE PUSH1 0x20 PUSH1 0x4 DUP3 ADD MSTORE PUSH1 0x17 PUSH1 0x24 DUP3 ADD MSTORE PUSH32 0x4D61726B657420616C7265616479207265736F6C766564000000000000000000 PUSH1 0x44 DUP3 ADD MSTORE PUSH1 0x64 SWAP1 REVERT JUMPDEST PUSH1 0x40 MLOAD PUSH3 0x461BCD PUSH1 0xE5 SHL DUP2 MSTORE PUSH1 0x20 PUSH1 0x4 DUP3 ADD MSTORE PUSH1 0x14 PUSH1 0x24 DUP3 ADD MSTORE PUSH20 0x13585C9AD95D081A185CC81B9BDD08195B991959 PUSH1 0x62 SHL PUSH1 0x44 DUP3 ADD MSTORE PUSH1 0x64 SWAP1 REVERT JUMPDEST CALLVALUE PUSH2 0x1B0 JUMPI PUSH1 0x20 CALLDATASIZE PUSH1 0x3 NOT ADD SLT PUSH2 0x1B0 JUMPI PUSH1 0x1 PUSH1 0x1 PUSH1 0xA0 SHL SUB PUSH2 0x1312 PUSH2 0x2087 JUMP JUMPDEST AND PUSH1 0x0 MSTORE PUSH1 0x7 PUSH1 0x20 MSTORE PUSH1 0x20 PUSH1 0x40 PUSH1 0x0 KECCAK256 SLOAD PUSH1 0x40 MLOAD SWAP1 DUP2 MSTORE RETURN JUMPDEST CALLVALUE PUSH2 0x1B0 JUMPI PUSH1 0x0 CALLDATASIZE PUSH1 0x3 NOT ADD SLT PUSH2 0x1B0 JUMPI PUSH2 0x1344 PUSH2 0x239B JUMP JUMPDEST PUSH1 0xD SLOAD PUSH1 0x40 MLOAD PUSH4 0x70A08231 PUSH1 0xE0 SHL DUP2 MSTORE ADDRESS PUSH1 0x4 DUP3 ADD MSTORE PUSH1 0x1 PUSH1 0x1 PUSH1 0xA0 SHL SUB SWAP2 DUP3 AND SWAP1 PUSH1 0x20 DUP1 DUP3 PUSH1 0x24 DUP2 DUP7 GAS STATICCALL SWAP2 DUP3 ISZERO PUSH2 0x1464 JUMPI PUSH1 0x0 SWAP3 PUSH2 0x1435 JUMPI JUMPDEST POP PUSH1 0x0 SWAP1 PUSH1 0x1 SWAP1 PUSH1 0x8 SWAP1 DUP2 SLOAD SWAP3 JUMPDEST DUP4 DUP2 LT PUSH2 0x13CC JUMPI POP POP POP POP DUP1 DUP3 GT ISZERO PUSH2 0x13C2 JUMPI PUSH2 0x13A9 SWAP2 PUSH2 0x2577 JUMP JUMPDEST SWAP1 JUMPDEST DUP2 PUSH2 0x13B2 JUMPI STOP JUMPDEST PUSH2 0x13C0 SWAP3 PUSH1 0xC SLOAD AND SWAP1 PUSH2 0x2515 JUMP JUMPDEST STOP JUMPDEST POP POP PUSH1 0x0 SWAP1 PUSH2 0x13AB JUMP JUMPDEST DUP1 PUSH1 0x0 MSTORE PUSH1 0x3 DUP3 MSTORE PUSH1 0x40 PUSH1 0x0 KECCAK256 PUSH1 0xFF DUP1 PUSH1 0xC DUP4 ADD SLOAD AND SWAP1 DUP2 PUSH2 0x1426 JUMPI JUMPDEST POP PUSH2 0x13FE JUMPI JUMPDEST POP PUSH2 0x13F9 SWAP1 PUSH2 0x23C7 JUMP JUMPDEST PUSH2 0x138D JUMP JUMPDEST PUSH2 0x13F9 SWAP2 SWAP6 PUSH2 0x1419 DUP3 DUP7 PUSH1 0x7 PUSH2 0x141F SWAP6 ADD SLOAD SWAP2 ADD SLOAD SWAP1 PUSH2 0x246B JUMP JUMPDEST SWAP1 PUSH2 0x246B JUMP JUMPDEST SWAP5 SWAP1 PUSH2 0x13EF JUMP JUMPDEST SWAP1 POP PUSH1 0x6 DUP3 ADD SLOAD AND ISZERO DUP11 PUSH2 0x13E9 JUMP JUMPDEST SWAP1 DUP1 SWAP3 POP DUP2 DUP2 RETURNDATASIZE DUP4 GT PUSH2 0x145D JUMPI JUMPDEST PUSH2 0x144D DUP2 DUP4 PUSH2 0x2114 JUMP JUMPDEST DUP2 ADD SUB SLT PUSH2 0x1B0 JUMPI MLOAD SWAP1 DUP5 PUSH2 0x137F JUMP JUMPDEST POP RETURNDATASIZE PUSH2 0x1443 JUMP JUMPDEST PUSH1 0x40 MLOAD RETURNDATASIZE PUSH1 0x0 DUP3 RETURNDATACOPY RETURNDATASIZE SWAP1 REVERT JUMPDEST CALLVALUE PUSH2 0x1B0 JUMPI PUSH1 0x0 CALLDATASIZE PUSH1 0x3 NOT ADD SLT PUSH2 0x1B0 JUMPI PUSH1 0xC SLOAD PUSH1 0x40 MLOAD PUSH1 0x1 PUSH1 0x1 PUSH1 0xA0 SHL SUB SWAP1 SWAP2 AND DUP2 MSTORE PUSH1 0x20 SWAP1 RETURN JUMPDEST CALLVALUE PUSH2 0x1B0 JUMPI PUSH2 0x14A7 CALLDATASIZE PUSH2 0x2200 JUMP JUMPDEST DUP2 ADD PUSH1 0x20 SWAP2 DUP3 DUP2 DUP4 SUB SLT PUSH2 0x1B0 JUMPI PUSH1 0x1 PUSH1 0x1 PUSH1 0x40 SHL SUB SWAP2 DUP2 CALLDATALOAD DUP4 DUP2 GT PUSH2 0x1B0 JUMPI PUSH2 0x14D1 SWAP3 ADD PUSH2 0x214C JUMP JUMPDEST SWAP1 PUSH1 0x0 JUMPDEST DUP3 MLOAD DUP2 LT ISZERO PUSH2 0x13C0 JUMPI PUSH2 0x14E8 DUP2 DUP5 PUSH2 0x26A8 JUMP JUMPDEST MLOAD SWAP1 PUSH1 0xE SLOAD SWAP2 DUP6 PUSH1 0xF SLOAD PUSH1 0xA4 PUSH1 0x10 SLOAD SWAP2 PUSH1 0x0 PUSH1 0x40 MLOAD SWAP8 DUP9 SWAP5 DUP6 SWAP4 PUSH4 0x5D3B1D3 PUSH1 0xE4 SHL DUP6 MSTORE PUSH1 0x4 DUP6 ADD MSTORE DUP11 DUP3 PUSH1 0xA0 SHR AND PUSH1 0x24 DUP6 ADD MSTORE PUSH2 0xFFFF DUP2 DUP9 SHR AND PUSH1 0x44 DUP6 ADD MSTORE PUSH4 0xFFFFFFFF SWAP1 DUP2 DUP2 AND PUSH1 0x64 DUP7 ADD MSTORE PUSH1 0x30 SHR AND PUSH1 0x84 DUP5 ADD MSTORE PUSH1 0x1 DUP1 PUSH1 0xA0 SHL SUB AND GAS CALL DUP1 ISZERO PUSH2 0x1464 JUMPI PUSH1 0x0 SWAP1 PUSH2 0x1573 JUMPI JUMPDEST PUSH2 0x156E SWAP4 POP PUSH1 0x0 MSTORE PUSH1 0x11 DUP7 MSTORE PUSH1 0x40 PUSH1 0x0 KECCAK256 SSTORE PUSH2 0x23C7 JUMP JUMPDEST PUSH2 0x14D5 JUMP JUMPDEST POP DUP6 DUP4 DUP2 RETURNDATASIZE DUP4 GT PUSH2 0x159B JUMPI JUMPDEST PUSH2 0x1589 DUP2 DUP4 PUSH2 0x2114 JUMP JUMPDEST DUP2 ADD SUB SLT PUSH2 0x1B0 JUMPI PUSH2 0x156E SWAP3 MLOAD PUSH2 0x1557 JUMP JUMPDEST POP RETURNDATASIZE PUSH2 0x157F JUMP JUMPDEST CALLVALUE PUSH2 0x1B0 JUMPI PUSH1 0x0 CALLDATASIZE PUSH1 0x3 NOT ADD SLT PUSH2 0x1B0 JUMPI PUSH1 0xD SLOAD PUSH1 0x40 MLOAD PUSH1 0x1 PUSH1 0x1 PUSH1 0xA0 SHL SUB SWAP1 SWAP2 AND DUP2 MSTORE PUSH1 0x20 SWAP1 RETURN JUMPDEST CALLVALUE PUSH2 0x1B0 JUMPI PUSH1 0x0 CALLDATASIZE PUSH1 0x3 NOT ADD SLT PUSH2 0x1B0 JUMPI PUSH1 0x20 PUSH1 0x8 SLOAD PUSH1 0x40 MLOAD SWAP1 DUP2 MSTORE RETURN JUMPDEST CALLVALUE PUSH2 0x1B0 JUMPI PUSH1 0x0 CALLDATASIZE PUSH1 0x3 NOT ADD SLT PUSH2 0x1B0 JUMPI PUSH2 0x1602 PUSH2 0x239B JUMP JUMPDEST PUSH1 0x2 SLOAD PUSH1 0xFF DUP2 AND ISZERO PUSH2 0x1641 JUMPI PUSH1 0xFF NOT AND PUSH1 0x2 SSTORE PUSH32 0x5DB9EE0A495BF2E6FF9C91A7834C1BA4FDD244A5E8AA4E537BD38AEAE4B073AA PUSH1 0x20 PUSH1 0x40 MLOAD CALLER DUP2 MSTORE LOG1 STOP JUMPDEST PUSH1 0x40 MLOAD PUSH4 0x8DFC202B PUSH1 0xE0 SHL DUP2 MSTORE PUSH1 0x4 SWAP1 REVERT JUMPDEST CALLVALUE PUSH2 0x1B0 JUMPI PUSH1 0x80 CALLDATASIZE PUSH1 0x3 NOT ADD SLT PUSH2 0x1B0 JUMPI PUSH1 0x4 CALLDATALOAD PUSH1 0x1 PUSH1 0x1 PUSH1 0x40 SHL SUB DUP2 GT PUSH2 0x1B0 JUMPI PUSH2 0x1683 SWAP1 CALLDATASIZE SWAP1 PUSH1 0x4 ADD PUSH2 0x21AA JUMP JUMPDEST PUSH1 0x24 CALLDATALOAD PUSH1 0x1 PUSH1 0x1 PUSH1 0x40 SHL SUB DUP2 GT PUSH2 0x1B0 JUMPI PUSH2 0x16A2 SWAP1 CALLDATASIZE SWAP1 PUSH1 0x4 ADD PUSH2 0x21AA JUMP JUMPDEST TIMESTAMP PUSH1 0x44 CALLDATALOAD GT ISZERO PUSH2 0x1B3D JUMPI PUSH2 0x3E8 PUSH1 0x64 CALLDATALOAD GT PUSH2 0x1B01 JUMPI PUSH1 0x8 SLOAD SWAP1 PUSH2 0x16C4 DUP3 PUSH2 0x23C7 JUMP JUMPDEST PUSH1 0x8 SSTORE PUSH1 0x40 MLOAD PUSH2 0x16D3 DUP2 PUSH2 0x20C2 JUMP JUMPDEST DUP3 DUP2 MSTORE DUP4 PUSH1 0x20 DUP3 ADD MSTORE DUP2 PUSH1 0x40 DUP3 ADD MSTORE TIMESTAMP PUSH1 0x60 DUP3 ADD MSTORE PUSH1 0x44 CALLDATALOAD PUSH1 0x80 DUP3 ADD MSTORE PUSH1 0x0 PUSH1 0xA0 DUP3 ADD MSTORE PUSH1 0x0 PUSH1 0xC0 DUP3 ADD MSTORE PUSH1 0x0 PUSH1 0xE0 DUP3 ADD MSTORE PUSH1 0x0 PUSH2 0x100 DUP3 ADD MSTORE PUSH1 0x0 PUSH2 0x120 DUP3 ADD MSTORE PUSH1 0x0 PUSH2 0x140 DUP3 ADD MSTORE CALLER PUSH2 0x160 DUP3 ADD MSTORE PUSH1 0x64 CALLDATALOAD PUSH2 0x180 DUP3 ADD MSTORE PUSH1 0x1 PUSH2 0x1A0 DUP3 ADD MSTORE DUP3 PUSH1 0x0 MSTORE PUSH1 0x3 PUSH1 0x20 MSTORE PUSH1 0x40 PUSH1 0x0 KECCAK256 SWAP1 DUP1 MLOAD DUP3 SSTORE PUSH1 0x20 DUP2 ADD MLOAD DUP1 MLOAD SWAP1 PUSH1 0x1 PUSH1 0x1 PUSH1 0x40 SHL SUB DUP3 GT PUSH2 0xD0E JUMPI DUP2 SWAP1 PUSH2 0x176D PUSH1 0x1 DUP7 ADD SLOAD PUSH2 0x22BB JUMP JUMPDEST PUSH1 0x1F DUP2 GT PUSH2 0x1AAE JUMPI JUMPDEST POP PUSH1 0x20 SWAP1 PUSH1 0x1F DUP4 GT PUSH1 0x1 EQ PUSH2 0x1A3C JUMPI PUSH1 0x0 SWAP3 PUSH2 0x1A31 JUMPI JUMPDEST POP POP DUP2 PUSH1 0x1 SHL SWAP2 PUSH1 0x0 NOT SWAP1 PUSH1 0x3 SHL SHR NOT AND OR PUSH1 0x1 DUP4 ADD SSTORE JUMPDEST PUSH1 0x40 DUP2 ADD MLOAD DUP1 MLOAD SWAP1 PUSH1 0x1 PUSH1 0x1 PUSH1 0x40 SHL SUB DUP3 GT PUSH2 0xD0E JUMPI PUSH2 0x17C8 PUSH1 0x2 DUP6 ADD SLOAD PUSH2 0x22BB JUMP JUMPDEST PUSH1 0x1F DUP2 GT PUSH2 0x19EA JUMPI JUMPDEST POP SWAP2 PUSH1 0x20 SWAP7 SWAP4 SWAP2 DUP7 SWAP6 SWAP4 DUP9 SWAP1 PUSH1 0x1F DUP4 GT PUSH1 0x1 EQ PUSH2 0x1946 JUMPI SWAP4 PUSH1 0xC PUSH2 0x1A0 PUSH2 0x1922 SWAP6 DUP6 PUSH2 0x1915 SWAP10 SWAP7 PUSH2 0x1901 SWAP7 PUSH32 0x52105760953315619BB79834BD5F30E171E178D6354E6CED3FC3BA13A79C6F50 SWAP13 SWAP11 PUSH1 0x0 SWAP3 PUSH2 0x193B JUMPI JUMPDEST POP POP DUP2 PUSH1 0x1 SHL SWAP2 PUSH1 0x0 NOT SWAP1 PUSH1 0x3 SHL SHR NOT AND OR PUSH1 0x2 DUP6 ADD SSTORE JUMPDEST PUSH1 0x60 DUP2 ADD MLOAD PUSH1 0x3 DUP6 ADD SSTORE PUSH1 0x80 DUP2 ADD MLOAD PUSH1 0x4 DUP6 ADD SSTORE PUSH1 0xA0 DUP2 ADD MLOAD PUSH1 0x5 DUP6 ADD SSTORE PUSH2 0x189B PUSH1 0x6 DUP6 ADD PUSH2 0x1880 PUSH1 0xC0 DUP5 ADD MLOAD ISZERO ISZERO DUP3 SWAP1 PUSH1 0xFF DUP1 NOT DUP4 SLOAD AND SWAP2 ISZERO ISZERO AND OR SWAP1 SSTORE JUMP JUMPDEST PUSH1 0xE0 DUP4 ADD MLOAD DUP2 SLOAD PUSH2 0xFF00 NOT AND SWAP1 ISZERO ISZERO PUSH1 0x8 SHL PUSH2 0xFF00 AND OR SWAP1 SSTORE JUMP JUMPDEST PUSH2 0x100 DUP2 ADD MLOAD PUSH1 0x7 DUP6 ADD SSTORE PUSH2 0x120 DUP2 ADD MLOAD PUSH1 0x8 DUP6 ADD SSTORE PUSH2 0x140 DUP2 ADD MLOAD PUSH1 0x9 DUP6 ADD SSTORE PUSH1 0xA DUP5 ADD PUSH1 0x1 DUP1 PUSH1 0xA0 SHL SUB PUSH2 0x160 DUP4 ADD MLOAD AND PUSH1 0x1 PUSH1 0x1 PUSH1 0x60 SHL SUB PUSH1 0xA0 SHL DUP3 SLOAD AND OR SWAP1 SSTORE PUSH2 0x180 DUP2 ADD MLOAD PUSH1 0xB DUP6 ADD SSTORE ADD MLOAD ISZERO ISZERO SWAP2 ADD SWAP1 PUSH1 0xFF DUP1 NOT DUP4 SLOAD AND SWAP2 ISZERO ISZERO AND OR SWAP1 SSTORE JUMP JUMPDEST PUSH1 0x40 MLOAD SWAP4 DUP5 SWAP4 PUSH1 0x80 DUP6 MSTORE PUSH1 0x80 DUP6 ADD SWAP1 PUSH2 0x2249 JUMP JUMPDEST SWAP1 DUP4 DUP3 SUB DUP10 DUP6 ADD MSTORE PUSH2 0x2249 JUMP JUMPDEST PUSH1 0x44 CALLDATALOAD PUSH1 0x40 DUP4 ADD MSTORE CALLER PUSH1 0x60 DUP4 ADD MSTORE SUB SWAP1 LOG2 PUSH1 0x40 MLOAD SWAP1 DUP2 MSTORE RETURN JUMPDEST ADD MLOAD SWAP1 POP DUP16 DUP1 PUSH2 0x1827 JUMP JUMPDEST SWAP1 PUSH1 0x2 DUP6 ADD PUSH1 0x0 MSTORE DUP10 PUSH1 0x0 KECCAK256 SWAP2 PUSH1 0x0 JUMPDEST PUSH1 0x1F NOT DUP6 AND DUP2 LT PUSH2 0x19D0 JUMPI POP PUSH2 0x1A0 PUSH2 0x1922 SWAP6 PUSH1 0x1 DUP7 PUSH2 0x1901 SWAP7 PUSH32 0x52105760953315619BB79834BD5F30E171E178D6354E6CED3FC3BA13A79C6F50 SWAP13 SWAP11 SWAP7 PUSH1 0xC SWAP7 PUSH2 0x1915 SWAP14 SWAP11 PUSH1 0x1F NOT DUP2 AND LT PUSH2 0x19B7 JUMPI JUMPDEST POP POP POP DUP2 SHL ADD PUSH1 0x2 DUP6 ADD SSTORE PUSH2 0x183F JUMP JUMPDEST ADD MLOAD PUSH1 0x0 NOT PUSH1 0xF8 DUP5 PUSH1 0x3 SHL AND SHR NOT AND SWAP1 SSTORE DUP16 DUP1 DUP1 PUSH2 0x19A7 JUMP JUMPDEST DUP2 DUP4 ADD MLOAD DUP5 SSTORE DUP11 SWAP10 POP PUSH1 0x1 SWAP1 SWAP4 ADD SWAP3 SWAP2 DUP12 ADD SWAP2 DUP12 ADD PUSH2 0x1956 JUMP JUMPDEST PUSH1 0x2 DUP6 ADD PUSH1 0x0 MSTORE PUSH1 0x20 PUSH1 0x0 KECCAK256 PUSH1 0x1F DUP5 ADD PUSH1 0x5 SHR DUP2 ADD PUSH1 0x20 DUP6 LT PUSH2 0x1A2A JUMPI JUMPDEST PUSH1 0x1F DUP4 ADD PUSH1 0x5 SHR DUP3 ADD DUP2 LT PUSH2 0x1A1E JUMPI POP POP PUSH2 0x17D1 JUMP JUMPDEST PUSH1 0x0 DUP2 SSTORE PUSH1 0x1 ADD PUSH2 0x1A08 JUMP JUMPDEST POP DUP1 PUSH2 0x1A08 JUMP JUMPDEST ADD MLOAD SWAP1 POP DUP8 DUP1 PUSH2 0x178D JUMP JUMPDEST SWAP3 POP PUSH1 0x1 DUP6 ADD PUSH1 0x0 MSTORE PUSH1 0x20 PUSH1 0x0 KECCAK256 SWAP1 PUSH1 0x0 SWAP4 JUMPDEST PUSH1 0x1F NOT DUP5 AND DUP6 LT PUSH2 0x1A93 JUMPI PUSH1 0x1 SWAP5 POP DUP4 PUSH1 0x1F NOT DUP2 AND LT PUSH2 0x1A7A JUMPI JUMPDEST POP POP POP DUP2 SHL ADD PUSH1 0x1 DUP4 ADD SSTORE PUSH2 0x17A5 JUMP JUMPDEST ADD MLOAD PUSH1 0x0 NOT PUSH1 0xF8 DUP5 PUSH1 0x3 SHL AND SHR NOT AND SWAP1 SSTORE DUP8 DUP1 DUP1 PUSH2 0x1A6A JUMP JUMPDEST DUP2 DUP2 ADD MLOAD DUP4 SSTORE PUSH1 0x20 SWAP5 DUP6 ADD SWAP5 PUSH1 0x1 SWAP1 SWAP4 ADD SWAP3 SWAP1 SWAP2 ADD SWAP1 PUSH2 0x1A4F JUMP JUMPDEST SWAP1 SWAP2 POP PUSH1 0x1 DUP6 ADD PUSH1 0x0 MSTORE PUSH1 0x20 PUSH1 0x0 KECCAK256 PUSH1 0x1F DUP5 ADD PUSH1 0x5 SHR DUP2 ADD PUSH1 0x20 DUP6 LT PUSH2 0x1AFA JUMPI JUMPDEST SWAP1 DUP5 SWAP4 SWAP3 SWAP2 JUMPDEST PUSH1 0x1F DUP4 ADD PUSH1 0x5 SHR DUP3 ADD DUP2 LT PUSH2 0x1AEB JUMPI POP POP PUSH2 0x1776 JUMP JUMPDEST PUSH1 0x0 DUP2 SSTORE DUP6 SWAP5 POP PUSH1 0x1 ADD PUSH2 0x1AD5 JUMP JUMPDEST POP DUP1 PUSH2 0x1ACF JUMP JUMPDEST PUSH1 0x40 MLOAD PUSH3 0x461BCD PUSH1 0xE5 SHL DUP2 MSTORE PUSH1 0x20 PUSH1 0x4 DUP3 ADD MSTORE PUSH1 0x14 PUSH1 0x24 DUP3 ADD MSTORE PUSH20 0x86E4CAC2E8DEE440CCCACA40E8DEDE40D0D2CED PUSH1 0x63 SHL PUSH1 0x44 DUP3 ADD MSTORE PUSH1 0x64 SWAP1 REVERT JUMPDEST PUSH1 0x40 MLOAD PUSH3 0x461BCD PUSH1 0xE5 SHL DUP2 MSTORE PUSH1 0x20 PUSH1 0x4 DUP3 ADD MSTORE PUSH1 0x1E PUSH1 0x24 DUP3 ADD MSTORE PUSH32 0x456E642074696D65206D75737420626520696E20746865206675747572650000 PUSH1 0x44 DUP3 ADD MSTORE PUSH1 0x64 SWAP1 REVERT JUMPDEST CALLVALUE PUSH2 0x1B0 JUMPI PUSH1 0x0 CALLDATASIZE PUSH1 0x3 NOT ADD SLT PUSH2 0x1B0 JUMPI PUSH1 0x20 PUSH1 0x9 SLOAD PUSH1 0x40 MLOAD SWAP1 DUP2 MSTORE RETURN JUMPDEST CALLVALUE PUSH2 0x1B0 JUMPI PUSH1 0x40 CALLDATASIZE PUSH1 0x3 NOT ADD SLT PUSH2 0x1B0 JUMPI PUSH1 0x24 CALLDATALOAD PUSH1 0x1 PUSH1 0x1 PUSH1 0x40 SHL SUB DUP2 GT PUSH2 0x1B0 JUMPI PUSH2 0x1BD0 SWAP1 CALLDATASIZE SWAP1 PUSH1 0x4 ADD PUSH2 0x214C JUMP JUMPDEST PUSH32 0x0 PUSH1 0x1 PUSH1 0x1 PUSH1 0xA0 SHL SUB AND CALLER DUP2 SWAP1 SUB PUSH2 0x1D86 JUMPI POP PUSH1 0x4 CALLDATALOAD PUSH1 0x0 MSTORE PUSH1 0x11 PUSH1 0x20 MSTORE PUSH1 0x40 PUSH1 0x0 KECCAK256 SLOAD SWAP1 DUP2 PUSH1 0x0 MSTORE PUSH1 0x3 PUSH1 0x20 MSTORE PUSH1 0x40 PUSH1 0x0 KECCAK256 SWAP1 PUSH1 0x6 DUP3 ADD SLOAD SWAP1 PUSH1 0xFF DUP3 AND ISZERO DUP1 PUSH2 0x1D78 JUMPI JUMPDEST PUSH2 0x1C3B JUMPI STOP JUMPDEST PUSH1 0x5 PUSH1 0x20 MSTORE PUSH1 0x40 PUSH1 0x0 KECCAK256 SWAP3 PUSH1 0x0 SWAP2 PUSH1 0x0 SWAP5 PUSH1 0x0 SWAP1 PUSH1 0x0 DUP2 SLOAD SWAP2 JUMPDEST DUP3 DUP3 LT PUSH2 0x1CF6 JUMPI POP POP POP POP DUP1 MLOAD ISZERO PUSH2 0x1CE0 JUMPI PUSH32 0x6D4D544F5A6DCF38D77A232D3EF7358625C74877A1AD954FCB507872E7A05EAF SWAP5 PUSH1 0x9 SWAP4 PUSH1 0x1 DUP1 PUSH1 0x20 DUP2 SWAP6 ADD MLOAD AND EQ DUP9 PUSH1 0x0 MSTORE PUSH1 0x5 PUSH1 0x20 MSTORE PUSH1 0x40 PUSH1 0x0 KECCAK256 SLOAD ISZERO ISZERO PUSH1 0x0 EQ PUSH2 0x1CD7 JUMPI POP GT SWAP4 JUMPDEST PUSH2 0xFF00 NOT SWAP1 SWAP2 AND PUSH2 0xFFFF NOT SWAP1 SWAP2 AND OR DUP4 ISZERO ISZERO PUSH1 0x8 SHL PUSH2 0xFF00 AND OR PUSH1 0x6 DUP3 ADD SSTORE PUSH2 0x1253 JUMP JUMPDEST SWAP2 POP POP SWAP4 PUSH2 0x1CB3 JUMP JUMPDEST PUSH4 0x4E487B71 PUSH1 0xE0 SHL PUSH1 0x0 MSTORE PUSH1 0x32 PUSH1 0x4 MSTORE PUSH1 0x24 PUSH1 0x0 REVERT JUMPDEST SWAP1 SWAP2 SWAP3 SWAP6 PUSH2 0x1D04 DUP4 DUP4 PUSH2 0x229F JUMP JUMPDEST POP SWAP1 PUSH1 0x1 DUP1 PUSH1 0xA0 SHL SUB DUP3 SLOAD AND PUSH1 0x0 MSTORE PUSH1 0x7 PUSH1 0x20 MSTORE PUSH1 0xFF PUSH1 0x2 PUSH2 0x1D30 PUSH1 0x40 PUSH1 0x0 KECCAK256 SLOAD PUSH1 0x3 DUP7 ADD SLOAD SWAP1 PUSH2 0x2564 JUMP JUMPDEST SWAP4 ADD SLOAD AND ISZERO PUSH2 0x1D5F JUMPI DUP2 PUSH2 0x1D4A PUSH2 0x1D56 SWAP4 PUSH2 0x1D50 SWAP4 PUSH2 0x246B JUMP JUMPDEST SWAP9 PUSH2 0x246B JUMP JUMPDEST SWAP3 PUSH2 0x23C7 JUMP JUMPDEST SWAP1 SWAP3 SWAP2 SWAP3 PUSH2 0x1C55 JUMP JUMPDEST SWAP7 SWAP9 DUP2 PUSH2 0x1D72 PUSH2 0x1D56 SWAP4 PUSH2 0x1D50 SWAP4 PUSH2 0x246B JUMP JUMPDEST SWAP11 PUSH2 0x246B JUMP JUMPDEST POP PUSH1 0xFF PUSH1 0xC DUP5 ADD SLOAD AND PUSH2 0x1C35 JUMP JUMPDEST PUSH1 0x44 SWAP1 PUSH1 0x40 MLOAD SWAP1 PUSH4 0x73E64FD PUSH1 0xE2 SHL DUP3 MSTORE CALLER PUSH1 0x4 DUP4 ADD MSTORE PUSH1 0x24 DUP3 ADD MSTORE REVERT JUMPDEST CALLVALUE PUSH2 0x1B0 JUMPI PUSH1 0x60 CALLDATASIZE PUSH1 0x3 NOT ADD SLT PUSH2 0x1B0 JUMPI PUSH1 0x4 CALLDATALOAD PUSH2 0x1DC0 PUSH2 0x20B3 JUMP JUMPDEST SWAP1 PUSH1 0x44 CALLDATALOAD PUSH2 0x1DCC PUSH2 0x24F2 JUMP JUMPDEST PUSH2 0x1DD4 PUSH2 0x24D4 JUMP JUMPDEST DUP2 PUSH1 0x0 MSTORE PUSH1 0x3 PUSH1 0x20 MSTORE PUSH1 0x40 PUSH1 0x0 KECCAK256 PUSH2 0x1DF2 PUSH1 0xFF PUSH1 0xC DUP4 ADD SLOAD AND PUSH2 0x23EC JUMP JUMPDEST PUSH2 0x1E01 PUSH1 0x4 DUP3 ADD SLOAD TIMESTAMP LT PUSH2 0x242C JUMP JUMPDEST PUSH1 0xA SLOAD DUP3 LT ISZERO DUP1 PUSH2 0x1F70 JUMPI JUMPDEST ISZERO PUSH2 0x1F36 JUMPI PUSH1 0xD SLOAD PUSH1 0x40 MLOAD PUSH4 0x23B872DD PUSH1 0xE0 SHL PUSH1 0x20 DUP3 ADD MSTORE CALLER PUSH1 0x24 DUP3 ADD MSTORE ADDRESS PUSH1 0x44 DUP3 ADD MSTORE PUSH1 0x64 DUP1 DUP3 ADD DUP6 SWAP1 MSTORE DUP2 MSTORE PUSH32 0x4AF71B021E799C62C158BD54636CA8DA2FA26115A21A2DC6EFE486EC104FD15F SWAP4 PUSH2 0x1F07 SWAP4 SWAP1 SWAP3 PUSH1 0x9 SWAP3 PUSH2 0x1E81 SWAP2 PUSH1 0x1 PUSH1 0x1 PUSH1 0xA0 SHL SUB AND PUSH2 0x1E7C DUP3 PUSH2 0x20F9 JUMP JUMPDEST PUSH2 0x2478 JUMP JUMPDEST DUP6 PUSH1 0x0 MSTORE PUSH1 0x4 PUSH1 0x20 MSTORE PUSH1 0x40 PUSH1 0x0 KECCAK256 CALLER PUSH1 0x0 MSTORE PUSH1 0x20 MSTORE PUSH1 0x40 PUSH1 0x0 KECCAK256 DUP7 DUP2 SSTORE PUSH1 0x1 DUP2 ADD CALLER PUSH1 0x1 PUSH1 0x1 PUSH1 0x60 SHL SUB PUSH1 0xA0 SHL DUP3 SLOAD AND OR SWAP1 SSTORE DUP8 PUSH1 0x0 EQ PUSH2 0x1F10 JUMPI PUSH1 0x2 ADD PUSH2 0x1ECA DUP5 DUP3 SLOAD PUSH2 0x246B JUMP JUMPDEST SWAP1 SSTORE PUSH1 0x7 DUP2 ADD PUSH2 0x1EDB DUP5 DUP3 SLOAD PUSH2 0x246B JUMP JUMPDEST SWAP1 SSTORE JUMPDEST ADD PUSH2 0x1EEA DUP3 DUP3 SLOAD PUSH2 0x246B JUMP JUMPDEST SWAP1 SSTORE PUSH1 0x40 DUP1 MLOAD SWAP6 ISZERO ISZERO DUP7 MSTORE PUSH1 0x20 DUP7 ADD SWAP2 SWAP1 SWAP2 MSTORE CALLER SWAP5 SWAP2 DUP3 SWAP2 DUP3 ADD SWAP1 JUMP JUMPDEST SUB SWAP1 LOG3 PUSH1 0x1 DUP1 SSTORE STOP JUMPDEST PUSH1 0x3 ADD PUSH2 0x1F1E DUP5 DUP3 SLOAD PUSH2 0x246B JUMP JUMPDEST SWAP1 SSTORE PUSH1 0x8 DUP2 ADD PUSH2 0x1F2F DUP5 DUP3 SLOAD PUSH2 0x246B JUMP JUMPDEST SWAP1 SSTORE PUSH2 0x1EDE JUMP JUMPDEST PUSH1 0x40 MLOAD PUSH3 0x461BCD PUSH1 0xE5 SHL DUP2 MSTORE PUSH1 0x20 PUSH1 0x4 DUP3 ADD MSTORE PUSH1 0x12 PUSH1 0x24 DUP3 ADD MSTORE PUSH18 0x125B9D985B1A590818995D08185B5BDD5B9D PUSH1 0x72 SHL PUSH1 0x44 DUP3 ADD MSTORE PUSH1 0x64 SWAP1 REVERT JUMPDEST POP PUSH1 0xB SLOAD DUP3 GT ISZERO PUSH2 0x1E0D JUMP JUMPDEST CALLVALUE PUSH2 0x1B0 JUMPI PUSH1 0x20 CALLDATASIZE PUSH1 0x3 NOT ADD SLT PUSH2 0x1B0 JUMPI PUSH1 0x4 CALLDATALOAD PUSH2 0x1F98 PUSH2 0x239B JUMP JUMPDEST PUSH2 0x3E8 DUP2 GT PUSH2 0x1FA6 JUMPI PUSH1 0x9 SSTORE STOP JUMPDEST PUSH1 0x40 MLOAD PUSH3 0x461BCD PUSH1 0xE5 SHL DUP2 MSTORE PUSH1 0x20 PUSH1 0x4 DUP3 ADD MSTORE PUSH1 0xC PUSH1 0x24 DUP3 ADD MSTORE PUSH12 0x8CCACA40E8DEDE40D0D2CED PUSH1 0xA3 SHL PUSH1 0x44 DUP3 ADD MSTORE PUSH1 0x64 SWAP1 REVERT JUMPDEST CALLVALUE PUSH2 0x1B0 JUMPI PUSH1 0x40 CALLDATASIZE PUSH1 0x3 NOT ADD SLT PUSH2 0x1B0 JUMPI PUSH2 0x1FF3 PUSH2 0x2087 JUMP JUMPDEST PUSH32 0x1B06338D0EDF2BA8CCEE31E466AB37B376418209AF6A85C55C51E89A51E33BDE PUSH1 0x20 PUSH2 0x201E PUSH2 0x20B3 JUMP JUMPDEST SWAP3 PUSH2 0x2027 PUSH2 0x239B JUMP JUMPDEST PUSH1 0x1 PUSH1 0x1 PUSH1 0xA0 SHL SUB AND PUSH1 0x0 DUP2 DUP2 MSTORE PUSH1 0x6 DUP4 MSTORE PUSH1 0x40 SWAP1 KECCAK256 DUP1 SLOAD PUSH1 0xFF NOT AND PUSH1 0xFF DUP7 ISZERO ISZERO AND OR SWAP1 SSTORE SWAP3 DUP1 DUP1 PUSH2 0x2076 JUMPI JUMPDEST PUSH2 0x2064 JUMPI JUMPDEST PUSH1 0x40 MLOAD SWAP1 ISZERO ISZERO DUP2 MSTORE LOG2 STOP JUMPDEST PUSH1 0x7 DUP3 MSTORE PUSH2 0x1388 PUSH1 0x40 PUSH1 0x0 KECCAK256 SSTORE PUSH2 0x2059 JUMP JUMPDEST POP PUSH1 0x7 DUP3 MSTORE PUSH1 0x40 PUSH1 0x0 KECCAK256 SLOAD ISZERO PUSH2 0x2054 JUMP JUMPDEST PUSH1 0x4 CALLDATALOAD SWAP1 PUSH1 0x1 PUSH1 0x1 PUSH1 0xA0 SHL SUB DUP3 AND DUP3 SUB PUSH2 0x1B0 JUMPI JUMP JUMPDEST PUSH1 0x24 CALLDATALOAD SWAP1 PUSH1 0x1 PUSH1 0x1 PUSH1 0xA0 SHL SUB DUP3 AND DUP3 SUB PUSH2 0x1B0 JUMPI JUMP JUMPDEST PUSH1 0x24 CALLDATALOAD SWAP1 DUP2 ISZERO ISZERO DUP3 SUB PUSH2 0x1B0 JUMPI JUMP JUMPDEST PUSH2 0x1C0 DUP2 ADD SWAP1 DUP2 LT PUSH1 0x1 PUSH1 0x1 PUSH1 0x40 SHL SUB DUP3 GT OR PUSH2 0xD0E JUMPI PUSH1 0x40 MSTORE JUMP JUMPDEST PUSH1 0xC0 DUP2 ADD SWAP1 DUP2 LT PUSH1 0x1 PUSH1 0x1 PUSH1 0x40 SHL SUB DUP3 GT OR PUSH2 0xD0E JUMPI PUSH1 0x40 MSTORE JUMP JUMPDEST PUSH1 0xA0 DUP2 ADD SWAP1 DUP2 LT PUSH1 0x1 PUSH1 0x1 PUSH1 0x40 SHL SUB DUP3 GT OR PUSH2 0xD0E JUMPI PUSH1 0x40 MSTORE JUMP JUMPDEST SWAP1 PUSH1 0x1F DUP1 NOT SWAP2 ADD AND DUP2 ADD SWAP1 DUP2 LT PUSH1 0x1 PUSH1 0x1 PUSH1 0x40 SHL SUB DUP3 GT OR PUSH2 0xD0E JUMPI PUSH1 0x40 MSTORE JUMP JUMPDEST PUSH1 0x1 PUSH1 0x1 PUSH1 0x40 SHL SUB DUP2 GT PUSH2 0xD0E JUMPI PUSH1 0x5 SHL PUSH1 0x20 ADD SWAP1 JUMP JUMPDEST DUP2 PUSH1 0x1F DUP3 ADD SLT ISZERO PUSH2 0x1B0 JUMPI DUP1 CALLDATALOAD SWAP2 PUSH2 0x2163 DUP4 PUSH2 0x2135 JUMP JUMPDEST SWAP3 PUSH2 0x2171 PUSH1 0x40 MLOAD SWAP5 DUP6 PUSH2 0x2114 JUMP JUMPDEST DUP1 DUP5 MSTORE PUSH1 0x20 SWAP3 DUP4 DUP1 DUP7 ADD SWAP3 PUSH1 0x5 SHL DUP3 ADD ADD SWAP3 DUP4 GT PUSH2 0x1B0 JUMPI DUP4 ADD SWAP1 JUMPDEST DUP3 DUP3 LT PUSH2 0x219B JUMPI POP POP POP POP SWAP1 JUMP JUMPDEST DUP2 CALLDATALOAD DUP2 MSTORE SWAP1 DUP4 ADD SWAP1 DUP4 ADD PUSH2 0x218D JUMP JUMPDEST DUP2 PUSH1 0x1F DUP3 ADD SLT ISZERO PUSH2 0x1B0 JUMPI DUP1 CALLDATALOAD SWAP1 PUSH1 0x1 PUSH1 0x1 PUSH1 0x40 SHL SUB DUP3 GT PUSH2 0xD0E JUMPI PUSH1 0x40 MLOAD SWAP3 PUSH2 0x21DE PUSH1 0x1F DUP5 ADD PUSH1 0x1F NOT AND PUSH1 0x20 ADD DUP6 PUSH2 0x2114 JUMP JUMPDEST DUP3 DUP5 MSTORE PUSH1 0x20 DUP4 DUP4 ADD ADD GT PUSH2 0x1B0 JUMPI DUP2 PUSH1 0x0 SWAP3 PUSH1 0x20 DUP1 SWAP4 ADD DUP4 DUP7 ADD CALLDATACOPY DUP4 ADD ADD MSTORE SWAP1 JUMP JUMPDEST SWAP1 PUSH1 0x20 PUSH1 0x3 NOT DUP4 ADD SLT PUSH2 0x1B0 JUMPI PUSH1 0x4 CALLDATALOAD PUSH1 0x1 PUSH1 0x1 PUSH1 0x40 SHL SUB SWAP3 DUP4 DUP3 GT PUSH2 0x1B0 JUMPI DUP1 PUSH1 0x23 DUP4 ADD SLT ISZERO PUSH2 0x1B0 JUMPI DUP2 PUSH1 0x4 ADD CALLDATALOAD SWAP4 DUP5 GT PUSH2 0x1B0 JUMPI PUSH1 0x24 DUP5 DUP4 ADD ADD GT PUSH2 0x1B0 JUMPI PUSH1 0x24 ADD SWAP2 SWAP1 JUMP JUMPDEST SWAP2 SWAP1 DUP3 MLOAD SWAP3 DUP4 DUP3 MSTORE PUSH1 0x0 JUMPDEST DUP5 DUP2 LT PUSH2 0x2275 JUMPI POP POP DUP3 PUSH1 0x0 PUSH1 0x20 DUP1 SWAP5 SWAP6 DUP5 ADD ADD MSTORE PUSH1 0x1F DUP1 NOT SWAP2 ADD AND ADD ADD SWAP1 JUMP JUMPDEST PUSH1 0x20 DUP2 DUP4 ADD DUP2 ADD MLOAD DUP5 DUP4 ADD DUP3 ADD MSTORE ADD PUSH2 0x2254 JUMP JUMPDEST PUSH1 0x40 SWAP1 PUSH1 0x3 NOT ADD SLT PUSH2 0x1B0 JUMPI PUSH1 0x4 CALLDATALOAD SWAP1 PUSH1 0x24 CALLDATALOAD SWAP1 JUMP JUMPDEST DUP1 SLOAD DUP3 LT ISZERO PUSH2 0x1CE0 JUMPI PUSH1 0x0 MSTORE PUSH1 0x6 PUSH1 0x20 PUSH1 0x0 KECCAK256 SWAP2 MUL ADD SWAP1 PUSH1 0x0 SWAP1 JUMP JUMPDEST SWAP1 PUSH1 0x1 DUP3 DUP2 SHR SWAP3 AND DUP1 ISZERO PUSH2 0x22EB JUMPI JUMPDEST PUSH1 0x20 DUP4 LT EQ PUSH2 0x22D5 JUMPI JUMP JUMPDEST PUSH4 0x4E487B71 PUSH1 0xE0 SHL PUSH1 0x0 MSTORE PUSH1 0x22 PUSH1 0x4 MSTORE PUSH1 0x24 PUSH1 0x0 REVERT JUMPDEST SWAP2 PUSH1 0x7F AND SWAP2 PUSH2 0x22CA JUMP JUMPDEST SWAP1 PUSH1 0x40 MLOAD SWAP2 DUP3 PUSH1 0x0 DUP3 SLOAD SWAP3 PUSH2 0x2309 DUP5 PUSH2 0x22BB JUMP JUMPDEST SWAP1 DUP2 DUP5 MSTORE PUSH1 0x1 SWAP5 DUP6 DUP2 AND SWAP1 DUP2 PUSH1 0x0 EQ PUSH2 0x2378 JUMPI POP PUSH1 0x1 EQ PUSH2 0x2335 JUMPI JUMPDEST POP POP PUSH2 0x2333 SWAP3 POP SUB DUP4 PUSH2 0x2114 JUMP JUMPDEST JUMP JUMPDEST SWAP1 SWAP4 SWAP2 POP PUSH1 0x0 MSTORE PUSH1 0x20 SWAP1 DUP2 PUSH1 0x0 KECCAK256 SWAP4 PUSH1 0x0 SWAP2 JUMPDEST DUP2 DUP4 LT PUSH2 0x2360 JUMPI POP POP PUSH2 0x2333 SWAP4 POP DUP3 ADD ADD CODESIZE DUP1 PUSH2 0x2325 JUMP JUMPDEST DUP6 SLOAD DUP9 DUP5 ADD DUP6 ADD MSTORE SWAP5 DUP6 ADD SWAP5 DUP8 SWAP5 POP SWAP2 DUP4 ADD SWAP2 PUSH2 0x2348 JUMP JUMPDEST SWAP2 POP POP PUSH2 0x2333 SWAP5 POP PUSH1 0x20 SWAP3 POP PUSH1 0xFF NOT AND DUP3 DUP5 ADD MSTORE ISZERO ISZERO PUSH1 0x5 SHL DUP3 ADD ADD CODESIZE DUP1 PUSH2 0x2325 JUMP JUMPDEST PUSH1 0x0 SLOAD PUSH1 0x1 PUSH1 0x1 PUSH1 0xA0 SHL SUB AND CALLER SUB PUSH2 0x23AF JUMPI JUMP JUMPDEST PUSH1 0x40 MLOAD PUSH4 0x118CDAA7 PUSH1 0xE0 SHL DUP2 MSTORE CALLER PUSH1 0x4 DUP3 ADD MSTORE PUSH1 0x24 SWAP1 REVERT JUMPDEST PUSH1 0x0 NOT DUP2 EQ PUSH2 0x23D6 JUMPI PUSH1 0x1 ADD SWAP1 JUMP JUMPDEST PUSH4 0x4E487B71 PUSH1 0xE0 SHL PUSH1 0x0 MSTORE PUSH1 0x11 PUSH1 0x4 MSTORE PUSH1 0x24 PUSH1 0x0 REVERT JUMPDEST ISZERO PUSH2 0x23F3 JUMPI JUMP JUMPDEST PUSH1 0x40 MLOAD PUSH3 0x461BCD PUSH1 0xE5 SHL DUP2 MSTORE PUSH1 0x20 PUSH1 0x4 DUP3 ADD MSTORE PUSH1 0x11 PUSH1 0x24 DUP3 ADD MSTORE PUSH17 0x4D61726B6574206E6F7420616374697665 PUSH1 0x78 SHL PUSH1 0x44 DUP3 ADD MSTORE PUSH1 0x64 SWAP1 REVERT JUMPDEST ISZERO PUSH2 0x2433 JUMPI JUMP JUMPDEST PUSH1 0x40 MLOAD PUSH3 0x461BCD PUSH1 0xE5 SHL DUP2 MSTORE PUSH1 0x20 PUSH1 0x4 DUP3 ADD MSTORE PUSH1 0x10 PUSH1 0x24 DUP3 ADD MSTORE PUSH16 0x13585C9AD95D081A185CC8195B991959 PUSH1 0x82 SHL PUSH1 0x44 DUP3 ADD MSTORE PUSH1 0x64 SWAP1 REVERT JUMPDEST SWAP2 SWAP1 DUP3 ADD DUP1 SWAP3 GT PUSH2 0x23D6 JUMPI JUMP JUMPDEST SWAP1 PUSH1 0x0 PUSH1 0x20 SWAP2 DUP3 DUP2 MLOAD SWAP2 ADD DUP3 DUP6 GAS CALL ISZERO PUSH2 0x1464 JUMPI PUSH1 0x0 MLOAD RETURNDATASIZE PUSH2 0x24CB JUMPI POP PUSH1 0x1 PUSH1 0x1 PUSH1 0xA0 SHL SUB DUP2 AND EXTCODESIZE ISZERO JUMPDEST PUSH2 0x24A9 JUMPI POP JUMP JUMPDEST PUSH1 0x40 MLOAD PUSH4 0x5274AFE7 PUSH1 0xE0 SHL DUP2 MSTORE PUSH1 0x1 PUSH1 0x1 PUSH1 0xA0 SHL SUB SWAP1 SWAP2 AND PUSH1 0x4 DUP3 ADD MSTORE PUSH1 0x24 SWAP1 REVERT JUMPDEST PUSH1 0x1 EQ ISZERO PUSH2 0x24A2 JUMP JUMPDEST PUSH1 0xFF PUSH1 0x2 SLOAD AND PUSH2 0x24E0 JUMPI JUMP JUMPDEST PUSH1 0x40 MLOAD PUSH4 0xD93C0665 PUSH1 0xE0 SHL DUP2 MSTORE PUSH1 0x4 SWAP1 REVERT JUMPDEST PUSH1 0x2 PUSH1 0x1 SLOAD EQ PUSH2 0x2503 JUMPI PUSH1 0x2 PUSH1 0x1 SSTORE JUMP JUMPDEST PUSH1 0x40 MLOAD PUSH4 0x3EE5AEB5 PUSH1 0xE0 SHL DUP2 MSTORE PUSH1 0x4 SWAP1 REVERT JUMPDEST PUSH1 0x40 MLOAD PUSH4 0xA9059CBB PUSH1 0xE0 SHL PUSH1 0x20 DUP3 ADD MSTORE PUSH1 0x1 PUSH1 0x1 PUSH1 0xA0 SHL SUB SWAP1 SWAP3 AND PUSH1 0x24 DUP4 ADD MSTORE PUSH1 0x44 DUP1 DUP4 ADD SWAP4 SWAP1 SWAP4 MSTORE SWAP2 DUP2 MSTORE PUSH1 0x80 DUP2 ADD SWAP2 PUSH1 0x1 PUSH1 0x1 PUSH1 0x40 SHL SUB DUP4 GT DUP3 DUP5 LT OR PUSH2 0xD0E JUMPI PUSH2 0x2333 SWAP3 PUSH1 0x40 MSTORE PUSH2 0x2478 JUMP JUMPDEST DUP2 DUP2 MUL SWAP3 SWAP2 DUP2 ISZERO SWAP2 DUP5 DIV EQ OR ISZERO PUSH2 0x23D6 JUMPI JUMP JUMPDEST SWAP2 SWAP1 DUP3 SUB SWAP2 DUP3 GT PUSH2 0x23D6 JUMPI JUMP JUMPDEST SWAP1 PUSH1 0x0 SWAP2 DUP3 MSTORE PUSH1 0x3 PUSH1 0x20 MSTORE PUSH1 0x40 DUP3 KECCAK256 SWAP1 PUSH1 0x4 PUSH1 0x20 MSTORE PUSH1 0x40 DUP4 KECCAK256 SWAP1 PUSH1 0x1 DUP1 PUSH1 0xA0 SHL SUB AND DUP4 MSTORE PUSH1 0x20 MSTORE PUSH1 0x40 DUP3 KECCAK256 PUSH1 0x6 DUP3 ADD SLOAD SWAP3 PUSH1 0xFF DUP5 AND ISZERO DUP1 ISZERO PUSH2 0x269A JUMPI JUMPDEST PUSH2 0x2693 JUMPI PUSH1 0x7 DUP4 ADD SLOAD SWAP2 PUSH1 0xFF PUSH1 0x8 DUP6 ADD SLOAD SWAP6 PUSH2 0x25DD DUP8 DUP7 PUSH2 0x246B JUMP JUMPDEST POP PUSH1 0x8 SHR AND SWAP5 DUP6 ISZERO PUSH2 0x268C JUMPI DUP4 JUMPDEST DUP7 ISZERO PUSH2 0x2684 JUMPI POP SWAP5 JUMPDEST ISZERO PUSH2 0x267A JUMPI PUSH1 0x2 ADD SLOAD SWAP4 JUMPDEST DUP5 ISZERO DUP1 ISZERO PUSH2 0x2672 JUMPI JUMPDEST PUSH2 0x266A JUMPI PUSH2 0x2616 SWAP1 DUP6 PUSH2 0x2564 JUMP JUMPDEST SWAP1 DUP3 ISZERO PUSH2 0x2656 JUMPI POP SWAP2 PUSH2 0x2710 PUSH2 0x2647 PUSH2 0x2641 PUSH2 0x264E SWAP5 PUSH2 0x2653 SWAP8 SWAP7 DIV SWAP4 PUSH1 0xB PUSH1 0x9 SLOAD SWAP2 ADD SLOAD SWAP1 PUSH2 0x246B JUMP JUMPDEST DUP4 PUSH2 0x2564 JUMP JUMPDEST DIV SWAP3 PUSH2 0x246B JUMP JUMPDEST PUSH2 0x2577 JUMP JUMPDEST SWAP1 JUMP JUMPDEST PUSH4 0x4E487B71 PUSH1 0xE0 SHL DUP2 MSTORE PUSH1 0x12 PUSH1 0x4 MSTORE PUSH1 0x24 SWAP1 REVERT JUMPDEST POP SWAP3 POP POP POP SWAP1 JUMP JUMPDEST POP DUP3 ISZERO PUSH2 0x2608 JUMP JUMPDEST PUSH1 0x3 ADD SLOAD SWAP4 PUSH2 0x25FF JUMP JUMPDEST SWAP1 POP SWAP5 PUSH2 0x25F4 JUMP JUMPDEST DUP1 SWAP4 PUSH2 0x25EB JUMP JUMPDEST SWAP3 POP POP POP SWAP1 JUMP JUMPDEST POP PUSH1 0xFF PUSH1 0x4 DUP4 ADD SLOAD AND PUSH2 0x25C1 JUMP JUMPDEST DUP1 MLOAD DUP3 LT ISZERO PUSH2 0x1CE0 JUMPI PUSH1 0x20 SWAP2 PUSH1 0x5 SHL ADD ADD SWAP1 JUMP INVALID LOG2 PUSH5 0x6970667358 0x22 SLT KECCAK256 0xAB 0xEF 0x4F TIMESTAMP DIV 0xE6 0xD6 0xF7 0xD CALLDATASIZE LOG3 0xB6 0xC6 0x5C 0x4C 0xCF CALL 0xB3 0xFC 0xAD PUSH25 0x946C4CCC7BB8955A117C3164736F6C63430008140033000000 "},"methodIdentifiers":{"agentPredictions(uint256,uint256)":"a136effe","agentReputation(address)":"54de6e32","authorizedAgents(address)":"efd76065","bettingToken()":"43425e88","calculateWinnings(uint256,address)":"f15cc406","checkUpkeep(bytes)":"6e04ff0d","claimWinnings(uint256)":"677bd9ff","createMarket(string,string,uint256,uint256)":"39b6ee19","feeRecipient()":"46904840","getAgentPredictions(uint256)":"8e6bf35b","getMarket(uint256)":"eb44fdd3","getPosition(uint256,address)":"d29f541d","markets(uint256)":"b1283e77","maxBetAmount()":"cab11d5d","minBetAmount()":"fa968eea","nextMarketId()":"406ef2ef","owner()":"8da5cb5b","pause()":"8456cb59","paused()":"5c975abb","performUpkeep(bytes)":"4585e33b","placeBet(uint256,bool,uint256)":"1a38cac6","platformFee()":"26232a2e","positions(uint256,address)":"e684d718","rawFulfillRandomWords(uint256,uint256[])":"1fe543e3","renounceOwnership()":"715018a6","resolveMarket(uint256,bool)":"57bde446","setAgentAuthorization(address,bool)":"0911e864","setBettingLimits(uint256,uint256)":"a108ce5f","setPlatformFee(uint256)":"12e8e2c3","submitAgentPrediction(uint256,bool,uint256,string)":"7d7bdec0","transferOwnership(address)":"f2fde38b","unpause()":"3f4ba83a","updateAgentReputation(address,uint256)":"9259b274","withdrawFees()":"476343ee"}}}}}